{
	"Parking_Lot.sol": {
		"Parking_Lot": {
			"abi": [
				{
					"inputs": [],
					"stateMutability": "nonpayable",
					"type": "constructor"
				},
				{
					"anonymous": false,
					"inputs": [
						{
							"indexed": true,
							"internalType": "uint256",
							"name": "spotId",
							"type": "uint256"
						},
						{
							"indexed": true,
							"internalType": "address",
							"name": "occupant",
							"type": "address"
						}
					],
					"name": "CheckedIn",
					"type": "event"
				},
				{
					"anonymous": false,
					"inputs": [
						{
							"indexed": true,
							"internalType": "uint256",
							"name": "spotId",
							"type": "uint256"
						},
						{
							"indexed": true,
							"internalType": "address",
							"name": "occupant",
							"type": "address"
						},
						{
							"indexed": false,
							"internalType": "uint256",
							"name": "duration",
							"type": "uint256"
						},
						{
							"indexed": false,
							"internalType": "uint256",
							"name": "cost",
							"type": "uint256"
						}
					],
					"name": "CheckedOut",
					"type": "event"
				},
				{
					"anonymous": false,
					"inputs": [
						{
							"indexed": true,
							"internalType": "uint256",
							"name": "spotId",
							"type": "uint256"
						}
					],
					"name": "ParkingSpotAdded",
					"type": "event"
				},
				{
					"inputs": [],
					"name": "addParkingSpot",
					"outputs": [],
					"stateMutability": "nonpayable",
					"type": "function"
				},
				{
					"inputs": [
						{
							"internalType": "uint256",
							"name": "_spotId",
							"type": "uint256"
						}
					],
					"name": "checkIn",
					"outputs": [],
					"stateMutability": "payable",
					"type": "function"
				},
				{
					"inputs": [
						{
							"internalType": "uint256",
							"name": "_spotId",
							"type": "uint256"
						}
					],
					"name": "checkOut",
					"outputs": [],
					"stateMutability": "nonpayable",
					"type": "function"
				},
				{
					"inputs": [],
					"name": "owner",
					"outputs": [
						{
							"internalType": "address",
							"name": "",
							"type": "address"
						}
					],
					"stateMutability": "view",
					"type": "function"
				},
				{
					"inputs": [],
					"name": "parkingSpotCount",
					"outputs": [
						{
							"internalType": "uint256",
							"name": "",
							"type": "uint256"
						}
					],
					"stateMutability": "view",
					"type": "function"
				},
				{
					"inputs": [
						{
							"internalType": "uint256",
							"name": "",
							"type": "uint256"
						}
					],
					"name": "parkingSpots",
					"outputs": [
						{
							"internalType": "uint256",
							"name": "id",
							"type": "uint256"
						},
						{
							"internalType": "bool",
							"name": "isOccupied",
							"type": "bool"
						},
						{
							"internalType": "address",
							"name": "occupant",
							"type": "address"
						},
						{
							"internalType": "uint256",
							"name": "checkInTime",
							"type": "uint256"
						}
					],
					"stateMutability": "view",
					"type": "function"
				},
				{
					"inputs": [],
					"name": "pricePerHour",
					"outputs": [
						{
							"internalType": "uint256",
							"name": "",
							"type": "uint256"
						}
					],
					"stateMutability": "view",
					"type": "function"
				},
				{
					"inputs": [],
					"name": "withdrawFunds",
					"outputs": [],
					"stateMutability": "nonpayable",
					"type": "function"
				}
			],
			"devdoc": {
				"kind": "dev",
				"methods": {},
				"version": 1
			},
			"evm": {
				"assembly": "    /* \"Parking_Lot.sol\":62:2105  contract Parking_Lot{... */\n  mstore(0x40, 0x80)\n    /* \"Parking_Lot.sol\":262:263  0 */\n  0x00\n    /* \"Parking_Lot.sol\":230:263  uint256 public parkingSpotCount=0 */\n  0x01\n  sstore\n    /* \"Parking_Lot.sol\":296:303  1 ether */\n  0x0de0b6b3a7640000\n    /* \"Parking_Lot.sol\":268:303  uint256 public pricePerHour=1 ether */\n  0x02\n  sstore\n    /* \"Parking_Lot.sol\":713:755  constructor(){... */\n  callvalue\n  dup1\n  iszero\n  tag_1\n  jumpi\n  0x00\n  dup1\n  revert\ntag_1:\n  pop\n    /* \"Parking_Lot.sol\":739:749  msg.sender */\n  caller\n    /* \"Parking_Lot.sol\":733:738  owner */\n  0x00\n  dup1\n    /* \"Parking_Lot.sol\":733:749  owner=msg.sender */\n  0x0100\n  exp\n  dup2\n  sload\n  dup2\n  0xffffffffffffffffffffffffffffffffffffffff\n  mul\n  not\n  and\n  swap1\n  dup4\n  0xffffffffffffffffffffffffffffffffffffffff\n  and\n  mul\n  or\n  swap1\n  sstore\n  pop\n    /* \"Parking_Lot.sol\":62:2105  contract Parking_Lot{... */\n  dataSize(sub_0)\n  dup1\n  dataOffset(sub_0)\n  0x00\n  codecopy\n  0x00\n  return\nstop\n\nsub_0: assembly {\n        /* \"Parking_Lot.sol\":62:2105  contract Parking_Lot{... */\n      mstore(0x40, 0x80)\n      jumpi(tag_1, lt(calldatasize, 0x04))\n      shr(0xe0, calldataload(0x00))\n      dup1\n      0x8da5cb5b\n      gt\n      tag_10\n      jumpi\n      dup1\n      0x8da5cb5b\n      eq\n      tag_6\n      jumpi\n      dup1\n      0xceb751da\n      eq\n      tag_7\n      jumpi\n      dup1\n      0xe95a644f\n      eq\n      tag_8\n      jumpi\n      dup1\n      0xf5defcd3\n      eq\n      tag_9\n      jumpi\n      jump(tag_1)\n    tag_10:\n      dup1\n      0x1bd2eeee\n      eq\n      tag_2\n      jumpi\n      dup1\n      0x24600fc3\n      eq\n      tag_3\n      jumpi\n      dup1\n      0x67b7babb\n      eq\n      tag_4\n      jumpi\n      dup1\n      0x74777614\n      eq\n      tag_5\n      jumpi\n    tag_1:\n      0x00\n      dup1\n      revert\n        /* \"Parking_Lot.sol\":1340:1965  function checkOut(uint256 _spotId) external{... */\n    tag_2:\n      callvalue\n      dup1\n      iszero\n      tag_11\n      jumpi\n      0x00\n      dup1\n      revert\n    tag_11:\n      pop\n      tag_12\n      0x04\n      dup1\n      calldatasize\n      sub\n      dup2\n      add\n      swap1\n      tag_13\n      swap2\n      swap1\n      tag_14\n      jump\t// in\n    tag_13:\n      tag_15\n      jump\t// in\n    tag_12:\n      stop\n        /* \"Parking_Lot.sol\":1969:2100  function withdrawFunds()external onlyOwner{... */\n    tag_3:\n      callvalue\n      dup1\n      iszero\n      tag_16\n      jumpi\n      0x00\n      dup1\n      revert\n    tag_16:\n      pop\n      tag_17\n      tag_18\n      jump\t// in\n    tag_17:\n      stop\n        /* \"Parking_Lot.sol\":230:263  uint256 public parkingSpotCount=0 */\n    tag_4:\n      callvalue\n      dup1\n      iszero\n      tag_19\n      jumpi\n      0x00\n      dup1\n      revert\n    tag_19:\n      pop\n      tag_20\n      tag_21\n      jump\t// in\n    tag_20:\n      mload(0x40)\n      tag_22\n      swap2\n      swap1\n      tag_23\n      jump\t// in\n    tag_22:\n      mload(0x40)\n      dup1\n      swap2\n      sub\n      swap1\n      return\n        /* \"Parking_Lot.sol\":759:963  function addParkingSpot() external onlyOwner{... */\n    tag_5:\n      callvalue\n      dup1\n      iszero\n      tag_24\n      jumpi\n      0x00\n      dup1\n      revert\n    tag_24:\n      pop\n      tag_25\n      tag_26\n      jump\t// in\n    tag_25:\n      stop\n        /* \"Parking_Lot.sol\":205:225  address public owner */\n    tag_6:\n      callvalue\n      dup1\n      iszero\n      tag_27\n      jumpi\n      0x00\n      dup1\n      revert\n    tag_27:\n      pop\n      tag_28\n      tag_29\n      jump\t// in\n    tag_28:\n      mload(0x40)\n      tag_30\n      swap2\n      swap1\n      tag_31\n      jump\t// in\n    tag_30:\n      mload(0x40)\n      dup1\n      swap2\n      sub\n      swap1\n      return\n        /* \"Parking_Lot.sol\":268:303  uint256 public pricePerHour=1 ether */\n    tag_7:\n      callvalue\n      dup1\n      iszero\n      tag_32\n      jumpi\n      0x00\n      dup1\n      revert\n    tag_32:\n      pop\n      tag_33\n      tag_34\n      jump\t// in\n    tag_33:\n      mload(0x40)\n      tag_35\n      swap2\n      swap1\n      tag_23\n      jump\t// in\n    tag_35:\n      mload(0x40)\n      dup1\n      swap2\n      sub\n      swap1\n      return\n        /* \"Parking_Lot.sol\":967:1335  function checkIn(uint256 _spotId)external payable{... */\n    tag_8:\n      tag_36\n      0x04\n      dup1\n      calldatasize\n      sub\n      dup2\n      add\n      swap1\n      tag_37\n      swap2\n      swap1\n      tag_14\n      jump\t// in\n    tag_37:\n      tag_38\n      jump\t// in\n    tag_36:\n      stop\n        /* \"Parking_Lot.sol\":310:359  mapping(uint256 =>ParkingSpot)public parkingSpots */\n    tag_9:\n      callvalue\n      dup1\n      iszero\n      tag_39\n      jumpi\n      0x00\n      dup1\n      revert\n    tag_39:\n      pop\n      tag_40\n      0x04\n      dup1\n      calldatasize\n      sub\n      dup2\n      add\n      swap1\n      tag_41\n      swap2\n      swap1\n      tag_14\n      jump\t// in\n    tag_41:\n      tag_42\n      jump\t// in\n    tag_40:\n      mload(0x40)\n      tag_43\n      swap5\n      swap4\n      swap3\n      swap2\n      swap1\n      tag_44\n      jump\t// in\n    tag_43:\n      mload(0x40)\n      dup1\n      swap2\n      sub\n      swap1\n      return\n        /* \"Parking_Lot.sol\":1340:1965  function checkOut(uint256 _spotId) external{... */\n    tag_15:\n        /* \"Parking_Lot.sol\":1393:1417  ParkingSpot storage spot */\n      0x00\n        /* \"Parking_Lot.sol\":1418:1430  parkingSpots */\n      0x03\n        /* \"Parking_Lot.sol\":1418:1439  parkingSpots[_spotId] */\n      0x00\n        /* \"Parking_Lot.sol\":1431:1438  _spotId */\n      dup4\n        /* \"Parking_Lot.sol\":1418:1439  parkingSpots[_spotId] */\n      dup2\n      mstore\n      0x20\n      add\n      swap1\n      dup2\n      mstore\n      0x20\n      add\n      0x00\n      keccak256\n        /* \"Parking_Lot.sol\":1393:1439  ParkingSpot storage spot=parkingSpots[_spotId] */\n      swap1\n      pop\n        /* \"Parking_Lot.sol\":1459:1463  spot */\n      dup1\n        /* \"Parking_Lot.sol\":1459:1474  spot.isOccupied */\n      0x01\n      add\n      0x00\n      swap1\n      sload\n      swap1\n      0x0100\n      exp\n      swap1\n      div\n      0xff\n      and\n        /* \"Parking_Lot.sol\":1459:1503  spot.isOccupied && spot.occupant==msg.sender */\n      dup1\n      iszero\n      tag_46\n      jumpi\n      pop\n        /* \"Parking_Lot.sol\":1493:1503  msg.sender */\n      caller\n        /* \"Parking_Lot.sol\":1478:1503  spot.occupant==msg.sender */\n      0xffffffffffffffffffffffffffffffffffffffff\n      and\n        /* \"Parking_Lot.sol\":1478:1482  spot */\n      dup2\n        /* \"Parking_Lot.sol\":1478:1491  spot.occupant */\n      0x01\n      add\n      0x01\n      swap1\n      sload\n      swap1\n      0x0100\n      exp\n      swap1\n      div\n      0xffffffffffffffffffffffffffffffffffffffff\n      and\n        /* \"Parking_Lot.sol\":1478:1503  spot.occupant==msg.sender */\n      0xffffffffffffffffffffffffffffffffffffffff\n      and\n      eq\n        /* \"Parking_Lot.sol\":1459:1503  spot.isOccupied && spot.occupant==msg.sender */\n    tag_46:\n        /* \"Parking_Lot.sol\":1451:1535  require(spot.isOccupied && spot.occupant==msg.sender,\"Not the ocupant of this spot\") */\n      tag_47\n      jumpi\n      mload(0x40)\n      0x08c379a000000000000000000000000000000000000000000000000000000000\n      dup2\n      mstore\n      0x04\n      add\n      tag_48\n      swap1\n      tag_49\n      jump\t// in\n    tag_48:\n      mload(0x40)\n      dup1\n      swap2\n      sub\n      swap1\n      revert\n    tag_47:\n        /* \"Parking_Lot.sol\":1547:1563  uint256 duration */\n      0x00\n        /* \"Parking_Lot.sol\":1600:1607  1 hours */\n      0x0e10\n        /* \"Parking_Lot.sol\":1582:1586  spot */\n      dup3\n        /* \"Parking_Lot.sol\":1582:1598  spot.checkInTime */\n      0x02\n      add\n      sload\n        /* \"Parking_Lot.sol\":1565:1580  block.timestamp */\n      timestamp\n        /* \"Parking_Lot.sol\":1565:1598  block.timestamp -spot.checkInTime */\n      tag_50\n      swap2\n      swap1\n      tag_51\n      jump\t// in\n    tag_50:\n        /* \"Parking_Lot.sol\":1564:1607  (block.timestamp -spot.checkInTime)/1 hours */\n      tag_52\n      swap2\n      swap1\n      tag_53\n      jump\t// in\n    tag_52:\n        /* \"Parking_Lot.sol\":1547:1607  uint256 duration=(block.timestamp -spot.checkInTime)/1 hours */\n      swap1\n      pop\n        /* \"Parking_Lot.sol\":1619:1636  uint256 totalCost */\n      0x00\n        /* \"Parking_Lot.sol\":1646:1658  pricePerHour */\n      sload(0x02)\n        /* \"Parking_Lot.sol\":1637:1645  duration */\n      dup3\n        /* \"Parking_Lot.sol\":1637:1658  duration*pricePerHour */\n      tag_54\n      swap2\n      swap1\n      tag_55\n      jump\t// in\n    tag_54:\n        /* \"Parking_Lot.sol\":1619:1658  uint256 totalCost=duration*pricePerHour */\n      swap1\n      pop\n        /* \"Parking_Lot.sol\":1701:1710  totalCost */\n      dup1\n        /* \"Parking_Lot.sol\":1678:1699  address(this).balance */\n      selfbalance\n        /* \"Parking_Lot.sol\":1678:1710  address(this).balance>=totalCost */\n      lt\n      iszero\n        /* \"Parking_Lot.sol\":1670:1743  require(address(this).balance>=totalCost,\"contract balance insufficient\") */\n      tag_56\n      jumpi\n      mload(0x40)\n      0x08c379a000000000000000000000000000000000000000000000000000000000\n      dup2\n      mstore\n      0x04\n      add\n      tag_57\n      swap1\n      tag_58\n      jump\t// in\n    tag_57:\n      mload(0x40)\n      dup1\n      swap2\n      sub\n      swap1\n      revert\n    tag_56:\n        /* \"Parking_Lot.sol\":1771:1776  false */\n      0x00\n        /* \"Parking_Lot.sol\":1755:1759  spot */\n      dup4\n        /* \"Parking_Lot.sol\":1755:1770  spot.isOccupied */\n      0x01\n      add\n      0x00\n        /* \"Parking_Lot.sol\":1755:1776  spot.isOccupied=false */\n      0x0100\n      exp\n      dup2\n      sload\n      dup2\n      0xff\n      mul\n      not\n      and\n      swap1\n      dup4\n      iszero\n      iszero\n      mul\n      or\n      swap1\n      sstore\n      pop\n        /* \"Parking_Lot.sol\":1810:1811  0 */\n      0x00\n        /* \"Parking_Lot.sol\":1788:1792  spot */\n      dup4\n        /* \"Parking_Lot.sol\":1788:1801  spot.occupant */\n      0x01\n      add\n      0x01\n        /* \"Parking_Lot.sol\":1788:1812  spot.occupant=address(0) */\n      0x0100\n      exp\n      dup2\n      sload\n      dup2\n      0xffffffffffffffffffffffffffffffffffffffff\n      mul\n      not\n      and\n      swap1\n      dup4\n      0xffffffffffffffffffffffffffffffffffffffff\n      and\n      mul\n      or\n      swap1\n      sstore\n      pop\n        /* \"Parking_Lot.sol\":1841:1842  0 */\n      0x00\n        /* \"Parking_Lot.sol\":1824:1828  spot */\n      dup4\n        /* \"Parking_Lot.sol\":1824:1840  spot.checkInTime */\n      0x02\n      add\n        /* \"Parking_Lot.sol\":1824:1842  spot.checkInTime=0 */\n      dup2\n      swap1\n      sstore\n      pop\n        /* \"Parking_Lot.sol\":1862:1872  msg.sender */\n      caller\n        /* \"Parking_Lot.sol\":1854:1882  payable(msg.sender).transfer */\n      0xffffffffffffffffffffffffffffffffffffffff\n      and\n        /* \"Parking_Lot.sol\":1854:1893  payable(msg.sender).transfer(totalCost) */\n      0x08fc\n        /* \"Parking_Lot.sol\":1883:1892  totalCost */\n      dup3\n        /* \"Parking_Lot.sol\":1854:1893  payable(msg.sender).transfer(totalCost) */\n      swap1\n      dup2\n      iszero\n      mul\n      swap1\n      mload(0x40)\n      0x00\n      mload(0x40)\n      dup1\n      dup4\n      sub\n      dup2\n      dup6\n      dup9\n      dup9\n      call\n      swap4\n      pop\n      pop\n      pop\n      pop\n      iszero\n      dup1\n      iszero\n      tag_60\n      jumpi\n      returndatasize\n      0x00\n      dup1\n      returndatacopy\n      revert(0x00, returndatasize)\n    tag_60:\n      pop\n        /* \"Parking_Lot.sol\":1929:1939  msg.sender */\n      caller\n        /* \"Parking_Lot.sol\":1910:1959  CheckedOut(_spotId,msg.sender,duration,totalCost) */\n      0xffffffffffffffffffffffffffffffffffffffff\n      and\n        /* \"Parking_Lot.sol\":1921:1928  _spotId */\n      dup5\n        /* \"Parking_Lot.sol\":1910:1959  CheckedOut(_spotId,msg.sender,duration,totalCost) */\n      0x817990e215dbda416802721d649d0d023583d8b052e668979c72c22b267e7edc\n        /* \"Parking_Lot.sol\":1940:1948  duration */\n      dup5\n        /* \"Parking_Lot.sol\":1949:1958  totalCost */\n      dup5\n        /* \"Parking_Lot.sol\":1910:1959  CheckedOut(_spotId,msg.sender,duration,totalCost) */\n      mload(0x40)\n      tag_61\n      swap3\n      swap2\n      swap1\n      tag_62\n      jump\t// in\n    tag_61:\n      mload(0x40)\n      dup1\n      swap2\n      sub\n      swap1\n      log3\n        /* \"Parking_Lot.sol\":1383:1965  {... */\n      pop\n      pop\n      pop\n        /* \"Parking_Lot.sol\":1340:1965  function checkOut(uint256 _spotId) external{... */\n      pop\n      jump\t// out\n        /* \"Parking_Lot.sol\":1969:2100  function withdrawFunds()external onlyOwner{... */\n    tag_18:\n        /* \"Parking_Lot.sol\":633:638  owner */\n      0x00\n      dup1\n      sload\n      swap1\n      0x0100\n      exp\n      swap1\n      div\n      0xffffffffffffffffffffffffffffffffffffffff\n      and\n        /* \"Parking_Lot.sol\":621:638  msg.sender==owner */\n      0xffffffffffffffffffffffffffffffffffffffff\n      and\n        /* \"Parking_Lot.sol\":621:631  msg.sender */\n      caller\n        /* \"Parking_Lot.sol\":621:638  msg.sender==owner */\n      0xffffffffffffffffffffffffffffffffffffffff\n      and\n      eq\n        /* \"Parking_Lot.sol\":613:695  require(msg.sender==owner,\"Only the owner of the parking lot can do this action.\") */\n      tag_64\n      jumpi\n      mload(0x40)\n      0x08c379a000000000000000000000000000000000000000000000000000000000\n      dup2\n      mstore\n      0x04\n      add\n      tag_65\n      swap1\n      tag_66\n      jump\t// in\n    tag_65:\n      mload(0x40)\n      dup1\n      swap2\n      sub\n      swap1\n      revert\n    tag_64:\n        /* \"Parking_Lot.sol\":2018:2033  uint256 balance */\n      0x00\n        /* \"Parking_Lot.sol\":2034:2055  address(this).balance */\n      selfbalance\n        /* \"Parking_Lot.sol\":2018:2055  uint256 balance=address(this).balance */\n      swap1\n      pop\n        /* \"Parking_Lot.sol\":2070:2075  owner */\n      0x00\n      dup1\n      sload\n      swap1\n      0x0100\n      exp\n      swap1\n      div\n      0xffffffffffffffffffffffffffffffffffffffff\n      and\n        /* \"Parking_Lot.sol\":2062:2085  payable(owner).transfer */\n      0xffffffffffffffffffffffffffffffffffffffff\n      and\n        /* \"Parking_Lot.sol\":2062:2094  payable(owner).transfer(balance) */\n      0x08fc\n        /* \"Parking_Lot.sol\":2086:2093  balance */\n      dup3\n        /* \"Parking_Lot.sol\":2062:2094  payable(owner).transfer(balance) */\n      swap1\n      dup2\n      iszero\n      mul\n      swap1\n      mload(0x40)\n      0x00\n      mload(0x40)\n      dup1\n      dup4\n      sub\n      dup2\n      dup6\n      dup9\n      dup9\n      call\n      swap4\n      pop\n      pop\n      pop\n      pop\n      iszero\n      dup1\n      iszero\n      tag_69\n      jumpi\n      returndatasize\n      0x00\n      dup1\n      returndatacopy\n      revert(0x00, returndatasize)\n    tag_69:\n      pop\n        /* \"Parking_Lot.sol\":2011:2100  {... */\n      pop\n        /* \"Parking_Lot.sol\":1969:2100  function withdrawFunds()external onlyOwner{... */\n      jump\t// out\n        /* \"Parking_Lot.sol\":230:263  uint256 public parkingSpotCount=0 */\n    tag_21:\n      sload(0x01)\n      dup2\n      jump\t// out\n        /* \"Parking_Lot.sol\":759:963  function addParkingSpot() external onlyOwner{... */\n    tag_26:\n        /* \"Parking_Lot.sol\":633:638  owner */\n      0x00\n      dup1\n      sload\n      swap1\n      0x0100\n      exp\n      swap1\n      div\n      0xffffffffffffffffffffffffffffffffffffffff\n      and\n        /* \"Parking_Lot.sol\":621:638  msg.sender==owner */\n      0xffffffffffffffffffffffffffffffffffffffff\n      and\n        /* \"Parking_Lot.sol\":621:631  msg.sender */\n      caller\n        /* \"Parking_Lot.sol\":621:638  msg.sender==owner */\n      0xffffffffffffffffffffffffffffffffffffffff\n      and\n      eq\n        /* \"Parking_Lot.sol\":613:695  require(msg.sender==owner,\"Only the owner of the parking lot can do this action.\") */\n      tag_71\n      jumpi\n      mload(0x40)\n      0x08c379a000000000000000000000000000000000000000000000000000000000\n      dup2\n      mstore\n      0x04\n      add\n      tag_72\n      swap1\n      tag_66\n      jump\t// in\n    tag_72:\n      mload(0x40)\n      dup1\n      swap2\n      sub\n      swap1\n      revert\n    tag_71:\n        /* \"Parking_Lot.sol\":809:825  parkingSpotCount */\n      0x01\n      0x00\n        /* \"Parking_Lot.sol\":809:827  parkingSpotCount++ */\n      dup2\n      sload\n      dup1\n      swap3\n      swap2\n      swap1\n      tag_74\n      swap1\n      tag_75\n      jump\t// in\n    tag_74:\n      swap2\n      swap1\n      pop\n      sstore\n      pop\n        /* \"Parking_Lot.sol\":864:912  ParkingSpot(parkingSpotCount,false,address(0),0) */\n      mload(0x40)\n      dup1\n      0x80\n      add\n      0x40\n      mstore\n      dup1\n        /* \"Parking_Lot.sol\":876:892  parkingSpotCount */\n      sload(0x01)\n        /* \"Parking_Lot.sol\":864:912  ParkingSpot(parkingSpotCount,false,address(0),0) */\n      dup2\n      mstore\n      0x20\n      add\n        /* \"Parking_Lot.sol\":893:898  false */\n      0x00\n        /* \"Parking_Lot.sol\":864:912  ParkingSpot(parkingSpotCount,false,address(0),0) */\n      iszero\n      iszero\n      dup2\n      mstore\n      0x20\n      add\n        /* \"Parking_Lot.sol\":907:908  0 */\n      0x00\n        /* \"Parking_Lot.sol\":864:912  ParkingSpot(parkingSpotCount,false,address(0),0) */\n      0xffffffffffffffffffffffffffffffffffffffff\n      and\n      dup2\n      mstore\n      0x20\n      add\n        /* \"Parking_Lot.sol\":910:911  0 */\n      0x00\n        /* \"Parking_Lot.sol\":864:912  ParkingSpot(parkingSpotCount,false,address(0),0) */\n      dup2\n      mstore\n      pop\n        /* \"Parking_Lot.sol\":833:845  parkingSpots */\n      0x03\n        /* \"Parking_Lot.sol\":833:863  parkingSpots[parkingSpotCount] */\n      0x00\n        /* \"Parking_Lot.sol\":846:862  parkingSpotCount */\n      sload(0x01)\n        /* \"Parking_Lot.sol\":833:863  parkingSpots[parkingSpotCount] */\n      dup2\n      mstore\n      0x20\n      add\n      swap1\n      dup2\n      mstore\n      0x20\n      add\n      0x00\n      keccak256\n        /* \"Parking_Lot.sol\":833:912  parkingSpots[parkingSpotCount]=ParkingSpot(parkingSpotCount,false,address(0),0) */\n      0x00\n      dup3\n      add\n      mload\n      dup2\n      0x00\n      add\n      sstore\n      0x20\n      dup3\n      add\n      mload\n      dup2\n      0x01\n      add\n      exp(0x0100, 0x00)\n      dup2\n      sload\n      dup2\n      0xff\n      mul\n      not\n      and\n      swap1\n      dup4\n      iszero\n      iszero\n      mul\n      or\n      swap1\n      sstore\n      pop\n      0x40\n      dup3\n      add\n      mload\n      dup2\n      0x01\n      add\n      exp(0x0100, 0x01)\n      dup2\n      sload\n      dup2\n      0xffffffffffffffffffffffffffffffffffffffff\n      mul\n      not\n      and\n      swap1\n      dup4\n      0xffffffffffffffffffffffffffffffffffffffff\n      and\n      mul\n      or\n      swap1\n      sstore\n      pop\n      0x60\n      dup3\n      add\n      mload\n      dup2\n      0x02\n      add\n      sstore\n      swap1\n      pop\n      pop\n        /* \"Parking_Lot.sol\":940:956  parkingSpotCount */\n      sload(0x01)\n        /* \"Parking_Lot.sol\":923:957  ParkingSpotAdded(parkingSpotCount) */\n      0xf753590d84d92740ba57bdabf2dfc2236e0fbc9bc5f349885249fc7462deb6d9\n      mload(0x40)\n      mload(0x40)\n      dup1\n      swap2\n      sub\n      swap1\n      log2\n        /* \"Parking_Lot.sol\":759:963  function addParkingSpot() external onlyOwner{... */\n      jump\t// out\n        /* \"Parking_Lot.sol\":205:225  address public owner */\n    tag_29:\n      0x00\n      dup1\n      sload\n      swap1\n      0x0100\n      exp\n      swap1\n      div\n      0xffffffffffffffffffffffffffffffffffffffff\n      and\n      dup2\n      jump\t// out\n        /* \"Parking_Lot.sol\":268:303  uint256 public pricePerHour=1 ether */\n    tag_34:\n      sload(0x02)\n      dup2\n      jump\t// out\n        /* \"Parking_Lot.sol\":967:1335  function checkIn(uint256 _spotId)external payable{... */\n    tag_38:\n        /* \"Parking_Lot.sol\":1023:1047  ParkingSpot storage spot */\n      0x00\n        /* \"Parking_Lot.sol\":1048:1060  parkingSpots */\n      0x03\n        /* \"Parking_Lot.sol\":1048:1069  parkingSpots[_spotId] */\n      0x00\n        /* \"Parking_Lot.sol\":1061:1068  _spotId */\n      dup4\n        /* \"Parking_Lot.sol\":1048:1069  parkingSpots[_spotId] */\n      dup2\n      mstore\n      0x20\n      add\n      swap1\n      dup2\n      mstore\n      0x20\n      add\n      0x00\n      keccak256\n        /* \"Parking_Lot.sol\":1023:1069  ParkingSpot storage spot=parkingSpots[_spotId] */\n      swap1\n      pop\n        /* \"Parking_Lot.sol\":1085:1089  spot */\n      dup1\n        /* \"Parking_Lot.sol\":1085:1100  spot.isOccupied */\n      0x01\n      add\n      0x00\n      swap1\n      sload\n      swap1\n      0x0100\n      exp\n      swap1\n      div\n      0xff\n      and\n        /* \"Parking_Lot.sol\":1084:1100  !spot.isOccupied */\n      iszero\n        /* \"Parking_Lot.sol\":1076:1125  require(!spot.isOccupied,\"Spot already occupied\") */\n      tag_77\n      jumpi\n      mload(0x40)\n      0x08c379a000000000000000000000000000000000000000000000000000000000\n      dup2\n      mstore\n      0x04\n      add\n      tag_78\n      swap1\n      tag_79\n      jump\t// in\n    tag_78:\n      mload(0x40)\n      dup1\n      swap2\n      sub\n      swap1\n      revert\n    tag_77:\n        /* \"Parking_Lot.sol\":1153:1165  pricePerHour */\n      sload(0x02)\n        /* \"Parking_Lot.sol\":1142:1151  msg.value */\n      callvalue\n        /* \"Parking_Lot.sol\":1142:1165  msg.value==pricePerHour */\n      eq\n        /* \"Parking_Lot.sol\":1134:1189  require(msg.value==pricePerHour, \"Insufficient funds.\") */\n      tag_80\n      jumpi\n      mload(0x40)\n      0x08c379a000000000000000000000000000000000000000000000000000000000\n      dup2\n      mstore\n      0x04\n      add\n      tag_81\n      swap1\n      tag_82\n      jump\t// in\n    tag_81:\n      mload(0x40)\n      dup1\n      swap2\n      sub\n      swap1\n      revert\n    tag_80:\n        /* \"Parking_Lot.sol\":1210:1220  msg.sender */\n      caller\n        /* \"Parking_Lot.sol\":1196:1200  spot */\n      dup2\n        /* \"Parking_Lot.sol\":1196:1209  spot.occupant */\n      0x01\n      add\n      0x01\n        /* \"Parking_Lot.sol\":1196:1220  spot.occupant=msg.sender */\n      0x0100\n      exp\n      dup2\n      sload\n      dup2\n      0xffffffffffffffffffffffffffffffffffffffff\n      mul\n      not\n      and\n      swap1\n      dup4\n      0xffffffffffffffffffffffffffffffffffffffff\n      and\n      mul\n      or\n      swap1\n      sstore\n      pop\n        /* \"Parking_Lot.sol\":1244:1259  block.timestamp */\n      timestamp\n        /* \"Parking_Lot.sol\":1227:1231  spot */\n      dup2\n        /* \"Parking_Lot.sol\":1227:1243  spot.checkInTime */\n      0x02\n      add\n        /* \"Parking_Lot.sol\":1227:1259  spot.checkInTime=block.timestamp */\n      dup2\n      swap1\n      sstore\n      pop\n        /* \"Parking_Lot.sol\":1282:1286  true */\n      0x01\n        /* \"Parking_Lot.sol\":1266:1270  spot */\n      dup2\n        /* \"Parking_Lot.sol\":1266:1281  spot.isOccupied */\n      0x01\n      add\n      0x00\n        /* \"Parking_Lot.sol\":1266:1286  spot.isOccupied=true */\n      0x0100\n      exp\n      dup2\n      sload\n      dup2\n      0xff\n      mul\n      not\n      and\n      swap1\n      dup4\n      iszero\n      iszero\n      mul\n      or\n      swap1\n      sstore\n      pop\n        /* \"Parking_Lot.sol\":1318:1328  msg.sender */\n      caller\n        /* \"Parking_Lot.sol\":1299:1329  CheckedIn(_spotId, msg.sender) */\n      0xffffffffffffffffffffffffffffffffffffffff\n      and\n        /* \"Parking_Lot.sol\":1309:1316  _spotId */\n      dup3\n        /* \"Parking_Lot.sol\":1299:1329  CheckedIn(_spotId, msg.sender) */\n      0x70790c0ab38e2aca9b5520985fe66db2a3700c3680b61c3853b5554f67a2c31c\n      mload(0x40)\n      mload(0x40)\n      dup1\n      swap2\n      sub\n      swap1\n      log3\n        /* \"Parking_Lot.sol\":1016:1335  {... */\n      pop\n        /* \"Parking_Lot.sol\":967:1335  function checkIn(uint256 _spotId)external payable{... */\n      pop\n      jump\t// out\n        /* \"Parking_Lot.sol\":310:359  mapping(uint256 =>ParkingSpot)public parkingSpots */\n    tag_42:\n      mstore(0x20, 0x03)\n      dup1\n      0x00\n      mstore\n      keccak256(0x00, 0x40)\n      0x00\n      swap2\n      pop\n      swap1\n      pop\n      dup1\n      0x00\n      add\n      sload\n      swap1\n      dup1\n      0x01\n      add\n      0x00\n      swap1\n      sload\n      swap1\n      0x0100\n      exp\n      swap1\n      div\n      0xff\n      and\n      swap1\n      dup1\n      0x01\n      add\n      0x01\n      swap1\n      sload\n      swap1\n      0x0100\n      exp\n      swap1\n      div\n      0xffffffffffffffffffffffffffffffffffffffff\n      and\n      swap1\n      dup1\n      0x02\n      add\n      sload\n      swap1\n      pop\n      dup5\n      jump\t// out\n        /* \"#utility.yul\":88:205   */\n    tag_84:\n        /* \"#utility.yul\":197:198   */\n      0x00\n        /* \"#utility.yul\":194:195   */\n      dup1\n        /* \"#utility.yul\":187:199   */\n      revert\n        /* \"#utility.yul\":334:411   */\n    tag_86:\n        /* \"#utility.yul\":371:378   */\n      0x00\n        /* \"#utility.yul\":400:405   */\n      dup2\n        /* \"#utility.yul\":389:405   */\n      swap1\n      pop\n        /* \"#utility.yul\":334:411   */\n      swap2\n      swap1\n      pop\n      jump\t// out\n        /* \"#utility.yul\":417:539   */\n    tag_87:\n        /* \"#utility.yul\":490:514   */\n      tag_114\n        /* \"#utility.yul\":508:513   */\n      dup2\n        /* \"#utility.yul\":490:514   */\n      tag_86\n      jump\t// in\n    tag_114:\n        /* \"#utility.yul\":483:488   */\n      dup2\n        /* \"#utility.yul\":480:515   */\n      eq\n        /* \"#utility.yul\":470:533   */\n      tag_115\n      jumpi\n        /* \"#utility.yul\":529:530   */\n      0x00\n        /* \"#utility.yul\":526:527   */\n      dup1\n        /* \"#utility.yul\":519:531   */\n      revert\n        /* \"#utility.yul\":470:533   */\n    tag_115:\n        /* \"#utility.yul\":417:539   */\n      pop\n      jump\t// out\n        /* \"#utility.yul\":545:684   */\n    tag_88:\n        /* \"#utility.yul\":591:596   */\n      0x00\n        /* \"#utility.yul\":629:635   */\n      dup2\n        /* \"#utility.yul\":616:636   */\n      calldataload\n        /* \"#utility.yul\":607:636   */\n      swap1\n      pop\n        /* \"#utility.yul\":645:678   */\n      tag_117\n        /* \"#utility.yul\":672:677   */\n      dup2\n        /* \"#utility.yul\":645:678   */\n      tag_87\n      jump\t// in\n    tag_117:\n        /* \"#utility.yul\":545:684   */\n      swap3\n      swap2\n      pop\n      pop\n      jump\t// out\n        /* \"#utility.yul\":690:1019   */\n    tag_14:\n        /* \"#utility.yul\":749:755   */\n      0x00\n        /* \"#utility.yul\":798:800   */\n      0x20\n        /* \"#utility.yul\":786:795   */\n      dup3\n        /* \"#utility.yul\":777:784   */\n      dup5\n        /* \"#utility.yul\":773:796   */\n      sub\n        /* \"#utility.yul\":769:801   */\n      slt\n        /* \"#utility.yul\":766:885   */\n      iszero\n      tag_119\n      jumpi\n        /* \"#utility.yul\":804:883   */\n      tag_120\n      tag_84\n      jump\t// in\n    tag_120:\n        /* \"#utility.yul\":766:885   */\n    tag_119:\n        /* \"#utility.yul\":924:925   */\n      0x00\n        /* \"#utility.yul\":949:1002   */\n      tag_121\n        /* \"#utility.yul\":994:1001   */\n      dup5\n        /* \"#utility.yul\":985:991   */\n      dup3\n        /* \"#utility.yul\":974:983   */\n      dup6\n        /* \"#utility.yul\":970:992   */\n      add\n        /* \"#utility.yul\":949:1002   */\n      tag_88\n      jump\t// in\n    tag_121:\n        /* \"#utility.yul\":939:1002   */\n      swap2\n      pop\n        /* \"#utility.yul\":895:1012   */\n      pop\n        /* \"#utility.yul\":690:1019   */\n      swap3\n      swap2\n      pop\n      pop\n      jump\t// out\n        /* \"#utility.yul\":1025:1143   */\n    tag_89:\n        /* \"#utility.yul\":1112:1136   */\n      tag_123\n        /* \"#utility.yul\":1130:1135   */\n      dup2\n        /* \"#utility.yul\":1112:1136   */\n      tag_86\n      jump\t// in\n    tag_123:\n        /* \"#utility.yul\":1107:1110   */\n      dup3\n        /* \"#utility.yul\":1100:1137   */\n      mstore\n        /* \"#utility.yul\":1025:1143   */\n      pop\n      pop\n      jump\t// out\n        /* \"#utility.yul\":1149:1371   */\n    tag_23:\n        /* \"#utility.yul\":1242:1246   */\n      0x00\n        /* \"#utility.yul\":1280:1282   */\n      0x20\n        /* \"#utility.yul\":1269:1278   */\n      dup3\n        /* \"#utility.yul\":1265:1283   */\n      add\n        /* \"#utility.yul\":1257:1283   */\n      swap1\n      pop\n        /* \"#utility.yul\":1293:1364   */\n      tag_125\n        /* \"#utility.yul\":1361:1362   */\n      0x00\n        /* \"#utility.yul\":1350:1359   */\n      dup4\n        /* \"#utility.yul\":1346:1363   */\n      add\n        /* \"#utility.yul\":1337:1343   */\n      dup5\n        /* \"#utility.yul\":1293:1364   */\n      tag_89\n      jump\t// in\n    tag_125:\n        /* \"#utility.yul\":1149:1371   */\n      swap3\n      swap2\n      pop\n      pop\n      jump\t// out\n        /* \"#utility.yul\":1377:1503   */\n    tag_90:\n        /* \"#utility.yul\":1414:1421   */\n      0x00\n        /* \"#utility.yul\":1454:1496   */\n      0xffffffffffffffffffffffffffffffffffffffff\n        /* \"#utility.yul\":1447:1452   */\n      dup3\n        /* \"#utility.yul\":1443:1497   */\n      and\n        /* \"#utility.yul\":1432:1497   */\n      swap1\n      pop\n        /* \"#utility.yul\":1377:1503   */\n      swap2\n      swap1\n      pop\n      jump\t// out\n        /* \"#utility.yul\":1509:1605   */\n    tag_91:\n        /* \"#utility.yul\":1546:1553   */\n      0x00\n        /* \"#utility.yul\":1575:1599   */\n      tag_128\n        /* \"#utility.yul\":1593:1598   */\n      dup3\n        /* \"#utility.yul\":1575:1599   */\n      tag_90\n      jump\t// in\n    tag_128:\n        /* \"#utility.yul\":1564:1599   */\n      swap1\n      pop\n        /* \"#utility.yul\":1509:1605   */\n      swap2\n      swap1\n      pop\n      jump\t// out\n        /* \"#utility.yul\":1611:1729   */\n    tag_92:\n        /* \"#utility.yul\":1698:1722   */\n      tag_130\n        /* \"#utility.yul\":1716:1721   */\n      dup2\n        /* \"#utility.yul\":1698:1722   */\n      tag_91\n      jump\t// in\n    tag_130:\n        /* \"#utility.yul\":1693:1696   */\n      dup3\n        /* \"#utility.yul\":1686:1723   */\n      mstore\n        /* \"#utility.yul\":1611:1729   */\n      pop\n      pop\n      jump\t// out\n        /* \"#utility.yul\":1735:1957   */\n    tag_31:\n        /* \"#utility.yul\":1828:1832   */\n      0x00\n        /* \"#utility.yul\":1866:1868   */\n      0x20\n        /* \"#utility.yul\":1855:1864   */\n      dup3\n        /* \"#utility.yul\":1851:1869   */\n      add\n        /* \"#utility.yul\":1843:1869   */\n      swap1\n      pop\n        /* \"#utility.yul\":1879:1950   */\n      tag_132\n        /* \"#utility.yul\":1947:1948   */\n      0x00\n        /* \"#utility.yul\":1936:1945   */\n      dup4\n        /* \"#utility.yul\":1932:1949   */\n      add\n        /* \"#utility.yul\":1923:1929   */\n      dup5\n        /* \"#utility.yul\":1879:1950   */\n      tag_92\n      jump\t// in\n    tag_132:\n        /* \"#utility.yul\":1735:1957   */\n      swap3\n      swap2\n      pop\n      pop\n      jump\t// out\n        /* \"#utility.yul\":1963:2053   */\n    tag_93:\n        /* \"#utility.yul\":1997:2004   */\n      0x00\n        /* \"#utility.yul\":2040:2045   */\n      dup2\n        /* \"#utility.yul\":2033:2046   */\n      iszero\n        /* \"#utility.yul\":2026:2047   */\n      iszero\n        /* \"#utility.yul\":2015:2047   */\n      swap1\n      pop\n        /* \"#utility.yul\":1963:2053   */\n      swap2\n      swap1\n      pop\n      jump\t// out\n        /* \"#utility.yul\":2059:2168   */\n    tag_94:\n        /* \"#utility.yul\":2140:2161   */\n      tag_135\n        /* \"#utility.yul\":2155:2160   */\n      dup2\n        /* \"#utility.yul\":2140:2161   */\n      tag_93\n      jump\t// in\n    tag_135:\n        /* \"#utility.yul\":2135:2138   */\n      dup3\n        /* \"#utility.yul\":2128:2162   */\n      mstore\n        /* \"#utility.yul\":2059:2168   */\n      pop\n      pop\n      jump\t// out\n        /* \"#utility.yul\":2174:2715   */\n    tag_44:\n        /* \"#utility.yul\":2345:2349   */\n      0x00\n        /* \"#utility.yul\":2383:2386   */\n      0x80\n        /* \"#utility.yul\":2372:2381   */\n      dup3\n        /* \"#utility.yul\":2368:2387   */\n      add\n        /* \"#utility.yul\":2360:2387   */\n      swap1\n      pop\n        /* \"#utility.yul\":2397:2468   */\n      tag_137\n        /* \"#utility.yul\":2465:2466   */\n      0x00\n        /* \"#utility.yul\":2454:2463   */\n      dup4\n        /* \"#utility.yul\":2450:2467   */\n      add\n        /* \"#utility.yul\":2441:2447   */\n      dup8\n        /* \"#utility.yul\":2397:2468   */\n      tag_89\n      jump\t// in\n    tag_137:\n        /* \"#utility.yul\":2478:2544   */\n      tag_138\n        /* \"#utility.yul\":2540:2542   */\n      0x20\n        /* \"#utility.yul\":2529:2538   */\n      dup4\n        /* \"#utility.yul\":2525:2543   */\n      add\n        /* \"#utility.yul\":2516:2522   */\n      dup7\n        /* \"#utility.yul\":2478:2544   */\n      tag_94\n      jump\t// in\n    tag_138:\n        /* \"#utility.yul\":2554:2626   */\n      tag_139\n        /* \"#utility.yul\":2622:2624   */\n      0x40\n        /* \"#utility.yul\":2611:2620   */\n      dup4\n        /* \"#utility.yul\":2607:2625   */\n      add\n        /* \"#utility.yul\":2598:2604   */\n      dup6\n        /* \"#utility.yul\":2554:2626   */\n      tag_92\n      jump\t// in\n    tag_139:\n        /* \"#utility.yul\":2636:2708   */\n      tag_140\n        /* \"#utility.yul\":2704:2706   */\n      0x60\n        /* \"#utility.yul\":2693:2702   */\n      dup4\n        /* \"#utility.yul\":2689:2707   */\n      add\n        /* \"#utility.yul\":2680:2686   */\n      dup5\n        /* \"#utility.yul\":2636:2708   */\n      tag_89\n      jump\t// in\n    tag_140:\n        /* \"#utility.yul\":2174:2715   */\n      swap6\n      swap5\n      pop\n      pop\n      pop\n      pop\n      pop\n      jump\t// out\n        /* \"#utility.yul\":2721:2890   */\n    tag_95:\n        /* \"#utility.yul\":2805:2816   */\n      0x00\n        /* \"#utility.yul\":2839:2845   */\n      dup3\n        /* \"#utility.yul\":2834:2837   */\n      dup3\n        /* \"#utility.yul\":2827:2846   */\n      mstore\n        /* \"#utility.yul\":2879:2883   */\n      0x20\n        /* \"#utility.yul\":2874:2877   */\n      dup3\n        /* \"#utility.yul\":2870:2884   */\n      add\n        /* \"#utility.yul\":2855:2884   */\n      swap1\n      pop\n        /* \"#utility.yul\":2721:2890   */\n      swap3\n      swap2\n      pop\n      pop\n      jump\t// out\n        /* \"#utility.yul\":2896:3074   */\n    tag_96:\n        /* \"#utility.yul\":3036:3066   */\n      0x4e6f7420746865206f637570616e74206f6620746869732073706f7400000000\n        /* \"#utility.yul\":3032:3033   */\n      0x00\n        /* \"#utility.yul\":3024:3030   */\n      dup3\n        /* \"#utility.yul\":3020:3034   */\n      add\n        /* \"#utility.yul\":3013:3067   */\n      mstore\n        /* \"#utility.yul\":2896:3074   */\n      pop\n      jump\t// out\n        /* \"#utility.yul\":3080:3446   */\n    tag_97:\n        /* \"#utility.yul\":3222:3225   */\n      0x00\n        /* \"#utility.yul\":3243:3310   */\n      tag_144\n        /* \"#utility.yul\":3307:3309   */\n      0x1c\n        /* \"#utility.yul\":3302:3305   */\n      dup4\n        /* \"#utility.yul\":3243:3310   */\n      tag_95\n      jump\t// in\n    tag_144:\n        /* \"#utility.yul\":3236:3310   */\n      swap2\n      pop\n        /* \"#utility.yul\":3319:3412   */\n      tag_145\n        /* \"#utility.yul\":3408:3411   */\n      dup3\n        /* \"#utility.yul\":3319:3412   */\n      tag_96\n      jump\t// in\n    tag_145:\n        /* \"#utility.yul\":3437:3439   */\n      0x20\n        /* \"#utility.yul\":3432:3435   */\n      dup3\n        /* \"#utility.yul\":3428:3440   */\n      add\n        /* \"#utility.yul\":3421:3440   */\n      swap1\n      pop\n        /* \"#utility.yul\":3080:3446   */\n      swap2\n      swap1\n      pop\n      jump\t// out\n        /* \"#utility.yul\":3452:3871   */\n    tag_49:\n        /* \"#utility.yul\":3618:3622   */\n      0x00\n        /* \"#utility.yul\":3656:3658   */\n      0x20\n        /* \"#utility.yul\":3645:3654   */\n      dup3\n        /* \"#utility.yul\":3641:3659   */\n      add\n        /* \"#utility.yul\":3633:3659   */\n      swap1\n      pop\n        /* \"#utility.yul\":3705:3714   */\n      dup2\n        /* \"#utility.yul\":3699:3703   */\n      dup2\n        /* \"#utility.yul\":3695:3715   */\n      sub\n        /* \"#utility.yul\":3691:3692   */\n      0x00\n        /* \"#utility.yul\":3680:3689   */\n      dup4\n        /* \"#utility.yul\":3676:3693   */\n      add\n        /* \"#utility.yul\":3669:3716   */\n      mstore\n        /* \"#utility.yul\":3733:3864   */\n      tag_147\n        /* \"#utility.yul\":3859:3863   */\n      dup2\n        /* \"#utility.yul\":3733:3864   */\n      tag_97\n      jump\t// in\n    tag_147:\n        /* \"#utility.yul\":3725:3864   */\n      swap1\n      pop\n        /* \"#utility.yul\":3452:3871   */\n      swap2\n      swap1\n      pop\n      jump\t// out\n        /* \"#utility.yul\":3877:4057   */\n    tag_98:\n        /* \"#utility.yul\":3925:4002   */\n      0x4e487b7100000000000000000000000000000000000000000000000000000000\n        /* \"#utility.yul\":3922:3923   */\n      0x00\n        /* \"#utility.yul\":3915:4003   */\n      mstore\n        /* \"#utility.yul\":4022:4026   */\n      0x11\n        /* \"#utility.yul\":4019:4020   */\n      0x04\n        /* \"#utility.yul\":4012:4027   */\n      mstore\n        /* \"#utility.yul\":4046:4050   */\n      0x24\n        /* \"#utility.yul\":4043:4044   */\n      0x00\n        /* \"#utility.yul\":4036:4051   */\n      revert\n        /* \"#utility.yul\":4063:4257   */\n    tag_51:\n        /* \"#utility.yul\":4103:4107   */\n      0x00\n        /* \"#utility.yul\":4123:4143   */\n      tag_150\n        /* \"#utility.yul\":4141:4142   */\n      dup3\n        /* \"#utility.yul\":4123:4143   */\n      tag_86\n      jump\t// in\n    tag_150:\n        /* \"#utility.yul\":4118:4143   */\n      swap2\n      pop\n        /* \"#utility.yul\":4157:4177   */\n      tag_151\n        /* \"#utility.yul\":4175:4176   */\n      dup4\n        /* \"#utility.yul\":4157:4177   */\n      tag_86\n      jump\t// in\n    tag_151:\n        /* \"#utility.yul\":4152:4177   */\n      swap3\n      pop\n        /* \"#utility.yul\":4201:4202   */\n      dup3\n        /* \"#utility.yul\":4198:4199   */\n      dup3\n        /* \"#utility.yul\":4194:4203   */\n      sub\n        /* \"#utility.yul\":4186:4203   */\n      swap1\n      pop\n        /* \"#utility.yul\":4225:4226   */\n      dup2\n        /* \"#utility.yul\":4219:4223   */\n      dup2\n        /* \"#utility.yul\":4216:4227   */\n      gt\n        /* \"#utility.yul\":4213:4250   */\n      iszero\n      tag_152\n      jumpi\n        /* \"#utility.yul\":4230:4248   */\n      tag_153\n      tag_98\n      jump\t// in\n    tag_153:\n        /* \"#utility.yul\":4213:4250   */\n    tag_152:\n        /* \"#utility.yul\":4063:4257   */\n      swap3\n      swap2\n      pop\n      pop\n      jump\t// out\n        /* \"#utility.yul\":4263:4443   */\n    tag_99:\n        /* \"#utility.yul\":4311:4388   */\n      0x4e487b7100000000000000000000000000000000000000000000000000000000\n        /* \"#utility.yul\":4308:4309   */\n      0x00\n        /* \"#utility.yul\":4301:4389   */\n      mstore\n        /* \"#utility.yul\":4408:4412   */\n      0x12\n        /* \"#utility.yul\":4405:4406   */\n      0x04\n        /* \"#utility.yul\":4398:4413   */\n      mstore\n        /* \"#utility.yul\":4432:4436   */\n      0x24\n        /* \"#utility.yul\":4429:4430   */\n      0x00\n        /* \"#utility.yul\":4422:4437   */\n      revert\n        /* \"#utility.yul\":4449:4634   */\n    tag_53:\n        /* \"#utility.yul\":4489:4490   */\n      0x00\n        /* \"#utility.yul\":4506:4526   */\n      tag_156\n        /* \"#utility.yul\":4524:4525   */\n      dup3\n        /* \"#utility.yul\":4506:4526   */\n      tag_86\n      jump\t// in\n    tag_156:\n        /* \"#utility.yul\":4501:4526   */\n      swap2\n      pop\n        /* \"#utility.yul\":4540:4560   */\n      tag_157\n        /* \"#utility.yul\":4558:4559   */\n      dup4\n        /* \"#utility.yul\":4540:4560   */\n      tag_86\n      jump\t// in\n    tag_157:\n        /* \"#utility.yul\":4535:4560   */\n      swap3\n      pop\n        /* \"#utility.yul\":4579:4580   */\n      dup3\n        /* \"#utility.yul\":4569:4604   */\n      tag_158\n      jumpi\n        /* \"#utility.yul\":4584:4602   */\n      tag_159\n      tag_99\n      jump\t// in\n    tag_159:\n        /* \"#utility.yul\":4569:4604   */\n    tag_158:\n        /* \"#utility.yul\":4626:4627   */\n      dup3\n        /* \"#utility.yul\":4623:4624   */\n      dup3\n        /* \"#utility.yul\":4619:4628   */\n      div\n        /* \"#utility.yul\":4614:4628   */\n      swap1\n      pop\n        /* \"#utility.yul\":4449:4634   */\n      swap3\n      swap2\n      pop\n      pop\n      jump\t// out\n        /* \"#utility.yul\":4640:5050   */\n    tag_55:\n        /* \"#utility.yul\":4680:4687   */\n      0x00\n        /* \"#utility.yul\":4703:4723   */\n      tag_161\n        /* \"#utility.yul\":4721:4722   */\n      dup3\n        /* \"#utility.yul\":4703:4723   */\n      tag_86\n      jump\t// in\n    tag_161:\n        /* \"#utility.yul\":4698:4723   */\n      swap2\n      pop\n        /* \"#utility.yul\":4737:4757   */\n      tag_162\n        /* \"#utility.yul\":4755:4756   */\n      dup4\n        /* \"#utility.yul\":4737:4757   */\n      tag_86\n      jump\t// in\n    tag_162:\n        /* \"#utility.yul\":4732:4757   */\n      swap3\n      pop\n        /* \"#utility.yul\":4792:4793   */\n      dup3\n        /* \"#utility.yul\":4789:4790   */\n      dup3\n        /* \"#utility.yul\":4785:4794   */\n      mul\n        /* \"#utility.yul\":4814:4844   */\n      tag_163\n        /* \"#utility.yul\":4832:4843   */\n      dup2\n        /* \"#utility.yul\":4814:4844   */\n      tag_86\n      jump\t// in\n    tag_163:\n        /* \"#utility.yul\":4803:4844   */\n      swap2\n      pop\n        /* \"#utility.yul\":4993:4994   */\n      dup3\n        /* \"#utility.yul\":4984:4991   */\n      dup3\n        /* \"#utility.yul\":4980:4995   */\n      div\n        /* \"#utility.yul\":4977:4978   */\n      dup5\n        /* \"#utility.yul\":4974:4996   */\n      eq\n        /* \"#utility.yul\":4954:4955   */\n      dup4\n        /* \"#utility.yul\":4947:4956   */\n      iszero\n        /* \"#utility.yul\":4927:5010   */\n      or\n        /* \"#utility.yul\":4904:5043   */\n      tag_164\n      jumpi\n        /* \"#utility.yul\":5023:5041   */\n      tag_165\n      tag_98\n      jump\t// in\n    tag_165:\n        /* \"#utility.yul\":4904:5043   */\n    tag_164:\n        /* \"#utility.yul\":4688:5050   */\n      pop\n        /* \"#utility.yul\":4640:5050   */\n      swap3\n      swap2\n      pop\n      pop\n      jump\t// out\n        /* \"#utility.yul\":5056:5235   */\n    tag_100:\n        /* \"#utility.yul\":5196:5227   */\n      0x636f6e74726163742062616c616e636520696e73756666696369656e74000000\n        /* \"#utility.yul\":5192:5193   */\n      0x00\n        /* \"#utility.yul\":5184:5190   */\n      dup3\n        /* \"#utility.yul\":5180:5194   */\n      add\n        /* \"#utility.yul\":5173:5228   */\n      mstore\n        /* \"#utility.yul\":5056:5235   */\n      pop\n      jump\t// out\n        /* \"#utility.yul\":5241:5607   */\n    tag_101:\n        /* \"#utility.yul\":5383:5386   */\n      0x00\n        /* \"#utility.yul\":5404:5471   */\n      tag_168\n        /* \"#utility.yul\":5468:5470   */\n      0x1d\n        /* \"#utility.yul\":5463:5466   */\n      dup4\n        /* \"#utility.yul\":5404:5471   */\n      tag_95\n      jump\t// in\n    tag_168:\n        /* \"#utility.yul\":5397:5471   */\n      swap2\n      pop\n        /* \"#utility.yul\":5480:5573   */\n      tag_169\n        /* \"#utility.yul\":5569:5572   */\n      dup3\n        /* \"#utility.yul\":5480:5573   */\n      tag_100\n      jump\t// in\n    tag_169:\n        /* \"#utility.yul\":5598:5600   */\n      0x20\n        /* \"#utility.yul\":5593:5596   */\n      dup3\n        /* \"#utility.yul\":5589:5601   */\n      add\n        /* \"#utility.yul\":5582:5601   */\n      swap1\n      pop\n        /* \"#utility.yul\":5241:5607   */\n      swap2\n      swap1\n      pop\n      jump\t// out\n        /* \"#utility.yul\":5613:6032   */\n    tag_58:\n        /* \"#utility.yul\":5779:5783   */\n      0x00\n        /* \"#utility.yul\":5817:5819   */\n      0x20\n        /* \"#utility.yul\":5806:5815   */\n      dup3\n        /* \"#utility.yul\":5802:5820   */\n      add\n        /* \"#utility.yul\":5794:5820   */\n      swap1\n      pop\n        /* \"#utility.yul\":5866:5875   */\n      dup2\n        /* \"#utility.yul\":5860:5864   */\n      dup2\n        /* \"#utility.yul\":5856:5876   */\n      sub\n        /* \"#utility.yul\":5852:5853   */\n      0x00\n        /* \"#utility.yul\":5841:5850   */\n      dup4\n        /* \"#utility.yul\":5837:5854   */\n      add\n        /* \"#utility.yul\":5830:5877   */\n      mstore\n        /* \"#utility.yul\":5894:6025   */\n      tag_171\n        /* \"#utility.yul\":6020:6024   */\n      dup2\n        /* \"#utility.yul\":5894:6025   */\n      tag_101\n      jump\t// in\n    tag_171:\n        /* \"#utility.yul\":5886:6025   */\n      swap1\n      pop\n        /* \"#utility.yul\":5613:6032   */\n      swap2\n      swap1\n      pop\n      jump\t// out\n        /* \"#utility.yul\":6038:6370   */\n    tag_62:\n        /* \"#utility.yul\":6159:6163   */\n      0x00\n        /* \"#utility.yul\":6197:6199   */\n      0x40\n        /* \"#utility.yul\":6186:6195   */\n      dup3\n        /* \"#utility.yul\":6182:6200   */\n      add\n        /* \"#utility.yul\":6174:6200   */\n      swap1\n      pop\n        /* \"#utility.yul\":6210:6281   */\n      tag_173\n        /* \"#utility.yul\":6278:6279   */\n      0x00\n        /* \"#utility.yul\":6267:6276   */\n      dup4\n        /* \"#utility.yul\":6263:6280   */\n      add\n        /* \"#utility.yul\":6254:6260   */\n      dup6\n        /* \"#utility.yul\":6210:6281   */\n      tag_89\n      jump\t// in\n    tag_173:\n        /* \"#utility.yul\":6291:6363   */\n      tag_174\n        /* \"#utility.yul\":6359:6361   */\n      0x20\n        /* \"#utility.yul\":6348:6357   */\n      dup4\n        /* \"#utility.yul\":6344:6362   */\n      add\n        /* \"#utility.yul\":6335:6341   */\n      dup5\n        /* \"#utility.yul\":6291:6363   */\n      tag_89\n      jump\t// in\n    tag_174:\n        /* \"#utility.yul\":6038:6370   */\n      swap4\n      swap3\n      pop\n      pop\n      pop\n      jump\t// out\n        /* \"#utility.yul\":6376:6616   */\n    tag_102:\n        /* \"#utility.yul\":6516:6550   */\n      0x4f6e6c7920746865206f776e6572206f6620746865207061726b696e67206c6f\n        /* \"#utility.yul\":6512:6513   */\n      0x00\n        /* \"#utility.yul\":6504:6510   */\n      dup3\n        /* \"#utility.yul\":6500:6514   */\n      add\n        /* \"#utility.yul\":6493:6551   */\n      mstore\n        /* \"#utility.yul\":6585:6608   */\n      0x742063616e20646f207468697320616374696f6e2e0000000000000000000000\n        /* \"#utility.yul\":6580:6582   */\n      0x20\n        /* \"#utility.yul\":6572:6578   */\n      dup3\n        /* \"#utility.yul\":6568:6583   */\n      add\n        /* \"#utility.yul\":6561:6609   */\n      mstore\n        /* \"#utility.yul\":6376:6616   */\n      pop\n      jump\t// out\n        /* \"#utility.yul\":6622:6988   */\n    tag_103:\n        /* \"#utility.yul\":6764:6767   */\n      0x00\n        /* \"#utility.yul\":6785:6852   */\n      tag_177\n        /* \"#utility.yul\":6849:6851   */\n      0x35\n        /* \"#utility.yul\":6844:6847   */\n      dup4\n        /* \"#utility.yul\":6785:6852   */\n      tag_95\n      jump\t// in\n    tag_177:\n        /* \"#utility.yul\":6778:6852   */\n      swap2\n      pop\n        /* \"#utility.yul\":6861:6954   */\n      tag_178\n        /* \"#utility.yul\":6950:6953   */\n      dup3\n        /* \"#utility.yul\":6861:6954   */\n      tag_102\n      jump\t// in\n    tag_178:\n        /* \"#utility.yul\":6979:6981   */\n      0x40\n        /* \"#utility.yul\":6974:6977   */\n      dup3\n        /* \"#utility.yul\":6970:6982   */\n      add\n        /* \"#utility.yul\":6963:6982   */\n      swap1\n      pop\n        /* \"#utility.yul\":6622:6988   */\n      swap2\n      swap1\n      pop\n      jump\t// out\n        /* \"#utility.yul\":6994:7413   */\n    tag_66:\n        /* \"#utility.yul\":7160:7164   */\n      0x00\n        /* \"#utility.yul\":7198:7200   */\n      0x20\n        /* \"#utility.yul\":7187:7196   */\n      dup3\n        /* \"#utility.yul\":7183:7201   */\n      add\n        /* \"#utility.yul\":7175:7201   */\n      swap1\n      pop\n        /* \"#utility.yul\":7247:7256   */\n      dup2\n        /* \"#utility.yul\":7241:7245   */\n      dup2\n        /* \"#utility.yul\":7237:7257   */\n      sub\n        /* \"#utility.yul\":7233:7234   */\n      0x00\n        /* \"#utility.yul\":7222:7231   */\n      dup4\n        /* \"#utility.yul\":7218:7235   */\n      add\n        /* \"#utility.yul\":7211:7258   */\n      mstore\n        /* \"#utility.yul\":7275:7406   */\n      tag_180\n        /* \"#utility.yul\":7401:7405   */\n      dup2\n        /* \"#utility.yul\":7275:7406   */\n      tag_103\n      jump\t// in\n    tag_180:\n        /* \"#utility.yul\":7267:7406   */\n      swap1\n      pop\n        /* \"#utility.yul\":6994:7413   */\n      swap2\n      swap1\n      pop\n      jump\t// out\n        /* \"#utility.yul\":7419:7652   */\n    tag_75:\n        /* \"#utility.yul\":7458:7461   */\n      0x00\n        /* \"#utility.yul\":7481:7505   */\n      tag_182\n        /* \"#utility.yul\":7499:7504   */\n      dup3\n        /* \"#utility.yul\":7481:7505   */\n      tag_86\n      jump\t// in\n    tag_182:\n        /* \"#utility.yul\":7472:7505   */\n      swap2\n      pop\n        /* \"#utility.yul\":7527:7593   */\n      0xffffffffffffffffffffffffffffffffffffffffffffffffffffffffffffffff\n        /* \"#utility.yul\":7520:7525   */\n      dup3\n        /* \"#utility.yul\":7517:7594   */\n      sub\n        /* \"#utility.yul\":7514:7617   */\n      tag_183\n      jumpi\n        /* \"#utility.yul\":7597:7615   */\n      tag_184\n      tag_98\n      jump\t// in\n    tag_184:\n        /* \"#utility.yul\":7514:7617   */\n    tag_183:\n        /* \"#utility.yul\":7644:7645   */\n      0x01\n        /* \"#utility.yul\":7637:7642   */\n      dup3\n        /* \"#utility.yul\":7633:7646   */\n      add\n        /* \"#utility.yul\":7626:7646   */\n      swap1\n      pop\n        /* \"#utility.yul\":7419:7652   */\n      swap2\n      swap1\n      pop\n      jump\t// out\n        /* \"#utility.yul\":7658:7829   */\n    tag_104:\n        /* \"#utility.yul\":7798:7821   */\n      0x53706f7420616c7265616479206f636375706965640000000000000000000000\n        /* \"#utility.yul\":7794:7795   */\n      0x00\n        /* \"#utility.yul\":7786:7792   */\n      dup3\n        /* \"#utility.yul\":7782:7796   */\n      add\n        /* \"#utility.yul\":7775:7822   */\n      mstore\n        /* \"#utility.yul\":7658:7829   */\n      pop\n      jump\t// out\n        /* \"#utility.yul\":7835:8201   */\n    tag_105:\n        /* \"#utility.yul\":7977:7980   */\n      0x00\n        /* \"#utility.yul\":7998:8065   */\n      tag_187\n        /* \"#utility.yul\":8062:8064   */\n      0x15\n        /* \"#utility.yul\":8057:8060   */\n      dup4\n        /* \"#utility.yul\":7998:8065   */\n      tag_95\n      jump\t// in\n    tag_187:\n        /* \"#utility.yul\":7991:8065   */\n      swap2\n      pop\n        /* \"#utility.yul\":8074:8167   */\n      tag_188\n        /* \"#utility.yul\":8163:8166   */\n      dup3\n        /* \"#utility.yul\":8074:8167   */\n      tag_104\n      jump\t// in\n    tag_188:\n        /* \"#utility.yul\":8192:8194   */\n      0x20\n        /* \"#utility.yul\":8187:8190   */\n      dup3\n        /* \"#utility.yul\":8183:8195   */\n      add\n        /* \"#utility.yul\":8176:8195   */\n      swap1\n      pop\n        /* \"#utility.yul\":7835:8201   */\n      swap2\n      swap1\n      pop\n      jump\t// out\n        /* \"#utility.yul\":8207:8626   */\n    tag_79:\n        /* \"#utility.yul\":8373:8377   */\n      0x00\n        /* \"#utility.yul\":8411:8413   */\n      0x20\n        /* \"#utility.yul\":8400:8409   */\n      dup3\n        /* \"#utility.yul\":8396:8414   */\n      add\n        /* \"#utility.yul\":8388:8414   */\n      swap1\n      pop\n        /* \"#utility.yul\":8460:8469   */\n      dup2\n        /* \"#utility.yul\":8454:8458   */\n      dup2\n        /* \"#utility.yul\":8450:8470   */\n      sub\n        /* \"#utility.yul\":8446:8447   */\n      0x00\n        /* \"#utility.yul\":8435:8444   */\n      dup4\n        /* \"#utility.yul\":8431:8448   */\n      add\n        /* \"#utility.yul\":8424:8471   */\n      mstore\n        /* \"#utility.yul\":8488:8619   */\n      tag_190\n        /* \"#utility.yul\":8614:8618   */\n      dup2\n        /* \"#utility.yul\":8488:8619   */\n      tag_105\n      jump\t// in\n    tag_190:\n        /* \"#utility.yul\":8480:8619   */\n      swap1\n      pop\n        /* \"#utility.yul\":8207:8626   */\n      swap2\n      swap1\n      pop\n      jump\t// out\n        /* \"#utility.yul\":8632:8801   */\n    tag_106:\n        /* \"#utility.yul\":8772:8793   */\n      0x496e73756666696369656e742066756e64732e00000000000000000000000000\n        /* \"#utility.yul\":8768:8769   */\n      0x00\n        /* \"#utility.yul\":8760:8766   */\n      dup3\n        /* \"#utility.yul\":8756:8770   */\n      add\n        /* \"#utility.yul\":8749:8794   */\n      mstore\n        /* \"#utility.yul\":8632:8801   */\n      pop\n      jump\t// out\n        /* \"#utility.yul\":8807:9173   */\n    tag_107:\n        /* \"#utility.yul\":8949:8952   */\n      0x00\n        /* \"#utility.yul\":8970:9037   */\n      tag_193\n        /* \"#utility.yul\":9034:9036   */\n      0x13\n        /* \"#utility.yul\":9029:9032   */\n      dup4\n        /* \"#utility.yul\":8970:9037   */\n      tag_95\n      jump\t// in\n    tag_193:\n        /* \"#utility.yul\":8963:9037   */\n      swap2\n      pop\n        /* \"#utility.yul\":9046:9139   */\n      tag_194\n        /* \"#utility.yul\":9135:9138   */\n      dup3\n        /* \"#utility.yul\":9046:9139   */\n      tag_106\n      jump\t// in\n    tag_194:\n        /* \"#utility.yul\":9164:9166   */\n      0x20\n        /* \"#utility.yul\":9159:9162   */\n      dup3\n        /* \"#utility.yul\":9155:9167   */\n      add\n        /* \"#utility.yul\":9148:9167   */\n      swap1\n      pop\n        /* \"#utility.yul\":8807:9173   */\n      swap2\n      swap1\n      pop\n      jump\t// out\n        /* \"#utility.yul\":9179:9598   */\n    tag_82:\n        /* \"#utility.yul\":9345:9349   */\n      0x00\n        /* \"#utility.yul\":9383:9385   */\n      0x20\n        /* \"#utility.yul\":9372:9381   */\n      dup3\n        /* \"#utility.yul\":9368:9386   */\n      add\n        /* \"#utility.yul\":9360:9386   */\n      swap1\n      pop\n        /* \"#utility.yul\":9432:9441   */\n      dup2\n        /* \"#utility.yul\":9426:9430   */\n      dup2\n        /* \"#utility.yul\":9422:9442   */\n      sub\n        /* \"#utility.yul\":9418:9419   */\n      0x00\n        /* \"#utility.yul\":9407:9416   */\n      dup4\n        /* \"#utility.yul\":9403:9420   */\n      add\n        /* \"#utility.yul\":9396:9443   */\n      mstore\n        /* \"#utility.yul\":9460:9591   */\n      tag_196\n        /* \"#utility.yul\":9586:9590   */\n      dup2\n        /* \"#utility.yul\":9460:9591   */\n      tag_107\n      jump\t// in\n    tag_196:\n        /* \"#utility.yul\":9452:9591   */\n      swap1\n      pop\n        /* \"#utility.yul\":9179:9598   */\n      swap2\n      swap1\n      pop\n      jump\t// out\n\n    auxdata: 0xa26469706673582212200266646bf7cb83f2caddc0a3874736945f10d86d41b0fb11032f15e9c810547064736f6c63430008180033\n}\n",
				"bytecode": {
					"linkReferences": {},
					"object": "60806040525f600155670de0b6b3a764000060025534801561001f575f80fd5b50335f806101000a81548173ffffffffffffffffffffffffffffffffffffffff021916908373ffffffffffffffffffffffffffffffffffffffff160217905550610d748061006c5f395ff3fe60806040526004361061007a575f3560e01c80638da5cb5b1161004d5780638da5cb5b146100fc578063ceb751da14610126578063e95a644f14610150578063f5defcd31461016c5761007a565b80631bd2eeee1461007e57806324600fc3146100a657806367b7babb146100bc57806374777614146100e6575b5f80fd5b348015610089575f80fd5b506100a4600480360381019061009f919061088c565b6101ab565b005b3480156100b1575f80fd5b506100ba6103e0565b005b3480156100c7575f80fd5b506100d06104d7565b6040516100dd91906108c6565b60405180910390f35b3480156100f1575f80fd5b506100fa6104dd565b005b348015610107575f80fd5b5061011061067b565b60405161011d919061091e565b60405180910390f35b348015610131575f80fd5b5061013a61069e565b60405161014791906108c6565b60405180910390f35b61016a6004803603810190610165919061088c565b6106a4565b005b348015610177575f80fd5b50610192600480360381019061018d919061088c565b6107fd565b6040516101a29493929190610951565b60405180910390f35b5f60035f8381526020019081526020015f209050806001015f9054906101000a900460ff16801561022b57503373ffffffffffffffffffffffffffffffffffffffff168160010160019054906101000a900473ffffffffffffffffffffffffffffffffffffffff1673ffffffffffffffffffffffffffffffffffffffff16145b61026a576040517f08c379a0000000000000000000000000000000000000000000000000000000008152600401610261906109ee565b60405180910390fd5b5f610e1082600201544261027e9190610a39565b6102889190610a99565b90505f600254826102999190610ac9565b9050804710156102de576040517f08c379a00000000000000000000000000000000000000000000000000000000081526004016102d590610b54565b60405180910390fd5b5f836001015f6101000a81548160ff0219169083151502179055505f8360010160016101000a81548173ffffffffffffffffffffffffffffffffffffffff021916908373ffffffffffffffffffffffffffffffffffffffff1602179055505f83600201819055503373ffffffffffffffffffffffffffffffffffffffff166108fc8290811502906040515f60405180830381858888f19350505050158015610388573d5f803e3d5ffd5b503373ffffffffffffffffffffffffffffffffffffffff16847f817990e215dbda416802721d649d0d023583d8b052e668979c72c22b267e7edc84846040516103d2929190610b72565b60405180910390a350505050565b5f8054906101000a900473ffffffffffffffffffffffffffffffffffffffff1673ffffffffffffffffffffffffffffffffffffffff163373ffffffffffffffffffffffffffffffffffffffff161461046d576040517f08c379a000000000000000000000000000000000000000000000000000000000815260040161046490610c09565b60405180910390fd5b5f4790505f8054906101000a900473ffffffffffffffffffffffffffffffffffffffff1673ffffffffffffffffffffffffffffffffffffffff166108fc8290811502906040515f60405180830381858888f193505050501580156104d3573d5f803e3d5ffd5b5050565b60015481565b5f8054906101000a900473ffffffffffffffffffffffffffffffffffffffff1673ffffffffffffffffffffffffffffffffffffffff163373ffffffffffffffffffffffffffffffffffffffff161461056a576040517f08c379a000000000000000000000000000000000000000000000000000000000815260040161056190610c09565b60405180910390fd5b60015f81548092919061057c90610c27565b9190505550604051806080016040528060015481526020015f151581526020015f73ffffffffffffffffffffffffffffffffffffffff1681526020015f81525060035f60015481526020019081526020015f205f820151815f01556020820151816001015f6101000a81548160ff02191690831515021790555060408201518160010160016101000a81548173ffffffffffffffffffffffffffffffffffffffff021916908373ffffffffffffffffffffffffffffffffffffffff160217905550606082015181600201559050506001547ff753590d84d92740ba57bdabf2dfc2236e0fbc9bc5f349885249fc7462deb6d960405160405180910390a2565b5f8054906101000a900473ffffffffffffffffffffffffffffffffffffffff1681565b60025481565b5f60035f8381526020019081526020015f209050806001015f9054906101000a900460ff1615610709576040517f08c379a000000000000000000000000000000000000000000000000000000000815260040161070090610cb8565b60405180910390fd5b600254341461074d576040517f08c379a000000000000000000000000000000000000000000000000000000000815260040161074490610d20565b60405180910390fd5b338160010160016101000a81548173ffffffffffffffffffffffffffffffffffffffff021916908373ffffffffffffffffffffffffffffffffffffffff1602179055504281600201819055506001816001015f6101000a81548160ff0219169083151502179055503373ffffffffffffffffffffffffffffffffffffffff16827f70790c0ab38e2aca9b5520985fe66db2a3700c3680b61c3853b5554f67a2c31c60405160405180910390a35050565b6003602052805f5260405f205f91509050805f015490806001015f9054906101000a900460ff16908060010160019054906101000a900473ffffffffffffffffffffffffffffffffffffffff16908060020154905084565b5f80fd5b5f819050919050565b61086b81610859565b8114610875575f80fd5b50565b5f8135905061088681610862565b92915050565b5f602082840312156108a1576108a0610855565b5b5f6108ae84828501610878565b91505092915050565b6108c081610859565b82525050565b5f6020820190506108d95f8301846108b7565b92915050565b5f73ffffffffffffffffffffffffffffffffffffffff82169050919050565b5f610908826108df565b9050919050565b610918816108fe565b82525050565b5f6020820190506109315f83018461090f565b92915050565b5f8115159050919050565b61094b81610937565b82525050565b5f6080820190506109645f8301876108b7565b6109716020830186610942565b61097e604083018561090f565b61098b60608301846108b7565b95945050505050565b5f82825260208201905092915050565b7f4e6f7420746865206f637570616e74206f6620746869732073706f74000000005f82015250565b5f6109d8601c83610994565b91506109e3826109a4565b602082019050919050565b5f6020820190508181035f830152610a05816109cc565b9050919050565b7f4e487b71000000000000000000000000000000000000000000000000000000005f52601160045260245ffd5b5f610a4382610859565b9150610a4e83610859565b9250828203905081811115610a6657610a65610a0c565b5b92915050565b7f4e487b71000000000000000000000000000000000000000000000000000000005f52601260045260245ffd5b5f610aa382610859565b9150610aae83610859565b925082610abe57610abd610a6c565b5b828204905092915050565b5f610ad382610859565b9150610ade83610859565b9250828202610aec81610859565b91508282048414831517610b0357610b02610a0c565b5b5092915050565b7f636f6e74726163742062616c616e636520696e73756666696369656e740000005f82015250565b5f610b3e601d83610994565b9150610b4982610b0a565b602082019050919050565b5f6020820190508181035f830152610b6b81610b32565b9050919050565b5f604082019050610b855f8301856108b7565b610b9260208301846108b7565b9392505050565b7f4f6e6c7920746865206f776e6572206f6620746865207061726b696e67206c6f5f8201527f742063616e20646f207468697320616374696f6e2e0000000000000000000000602082015250565b5f610bf3603583610994565b9150610bfe82610b99565b604082019050919050565b5f6020820190508181035f830152610c2081610be7565b9050919050565b5f610c3182610859565b91507fffffffffffffffffffffffffffffffffffffffffffffffffffffffffffffffff8203610c6357610c62610a0c565b5b600182019050919050565b7f53706f7420616c7265616479206f6363757069656400000000000000000000005f82015250565b5f610ca2601583610994565b9150610cad82610c6e565b602082019050919050565b5f6020820190508181035f830152610ccf81610c96565b9050919050565b7f496e73756666696369656e742066756e64732e000000000000000000000000005f82015250565b5f610d0a601383610994565b9150610d1582610cd6565b602082019050919050565b5f6020820190508181035f830152610d3781610cfe565b905091905056fea26469706673582212200266646bf7cb83f2caddc0a3874736945f10d86d41b0fb11032f15e9c810547064736f6c63430008180033",
					"opcodes": "PUSH1 0x80 PUSH1 0x40 MSTORE PUSH0 PUSH1 0x1 SSTORE PUSH8 0xDE0B6B3A7640000 PUSH1 0x2 SSTORE CALLVALUE DUP1 ISZERO PUSH2 0x1F JUMPI PUSH0 DUP1 REVERT JUMPDEST POP CALLER PUSH0 DUP1 PUSH2 0x100 EXP DUP2 SLOAD DUP2 PUSH20 0xFFFFFFFFFFFFFFFFFFFFFFFFFFFFFFFFFFFFFFFF MUL NOT AND SWAP1 DUP4 PUSH20 0xFFFFFFFFFFFFFFFFFFFFFFFFFFFFFFFFFFFFFFFF AND MUL OR SWAP1 SSTORE POP PUSH2 0xD74 DUP1 PUSH2 0x6C PUSH0 CODECOPY PUSH0 RETURN INVALID PUSH1 0x80 PUSH1 0x40 MSTORE PUSH1 0x4 CALLDATASIZE LT PUSH2 0x7A JUMPI PUSH0 CALLDATALOAD PUSH1 0xE0 SHR DUP1 PUSH4 0x8DA5CB5B GT PUSH2 0x4D JUMPI DUP1 PUSH4 0x8DA5CB5B EQ PUSH2 0xFC JUMPI DUP1 PUSH4 0xCEB751DA EQ PUSH2 0x126 JUMPI DUP1 PUSH4 0xE95A644F EQ PUSH2 0x150 JUMPI DUP1 PUSH4 0xF5DEFCD3 EQ PUSH2 0x16C JUMPI PUSH2 0x7A JUMP JUMPDEST DUP1 PUSH4 0x1BD2EEEE EQ PUSH2 0x7E JUMPI DUP1 PUSH4 0x24600FC3 EQ PUSH2 0xA6 JUMPI DUP1 PUSH4 0x67B7BABB EQ PUSH2 0xBC JUMPI DUP1 PUSH4 0x74777614 EQ PUSH2 0xE6 JUMPI JUMPDEST PUSH0 DUP1 REVERT JUMPDEST CALLVALUE DUP1 ISZERO PUSH2 0x89 JUMPI PUSH0 DUP1 REVERT JUMPDEST POP PUSH2 0xA4 PUSH1 0x4 DUP1 CALLDATASIZE SUB DUP2 ADD SWAP1 PUSH2 0x9F SWAP2 SWAP1 PUSH2 0x88C JUMP JUMPDEST PUSH2 0x1AB JUMP JUMPDEST STOP JUMPDEST CALLVALUE DUP1 ISZERO PUSH2 0xB1 JUMPI PUSH0 DUP1 REVERT JUMPDEST POP PUSH2 0xBA PUSH2 0x3E0 JUMP JUMPDEST STOP JUMPDEST CALLVALUE DUP1 ISZERO PUSH2 0xC7 JUMPI PUSH0 DUP1 REVERT JUMPDEST POP PUSH2 0xD0 PUSH2 0x4D7 JUMP JUMPDEST PUSH1 0x40 MLOAD PUSH2 0xDD SWAP2 SWAP1 PUSH2 0x8C6 JUMP JUMPDEST PUSH1 0x40 MLOAD DUP1 SWAP2 SUB SWAP1 RETURN JUMPDEST CALLVALUE DUP1 ISZERO PUSH2 0xF1 JUMPI PUSH0 DUP1 REVERT JUMPDEST POP PUSH2 0xFA PUSH2 0x4DD JUMP JUMPDEST STOP JUMPDEST CALLVALUE DUP1 ISZERO PUSH2 0x107 JUMPI PUSH0 DUP1 REVERT JUMPDEST POP PUSH2 0x110 PUSH2 0x67B JUMP JUMPDEST PUSH1 0x40 MLOAD PUSH2 0x11D SWAP2 SWAP1 PUSH2 0x91E JUMP JUMPDEST PUSH1 0x40 MLOAD DUP1 SWAP2 SUB SWAP1 RETURN JUMPDEST CALLVALUE DUP1 ISZERO PUSH2 0x131 JUMPI PUSH0 DUP1 REVERT JUMPDEST POP PUSH2 0x13A PUSH2 0x69E JUMP JUMPDEST PUSH1 0x40 MLOAD PUSH2 0x147 SWAP2 SWAP1 PUSH2 0x8C6 JUMP JUMPDEST PUSH1 0x40 MLOAD DUP1 SWAP2 SUB SWAP1 RETURN JUMPDEST PUSH2 0x16A PUSH1 0x4 DUP1 CALLDATASIZE SUB DUP2 ADD SWAP1 PUSH2 0x165 SWAP2 SWAP1 PUSH2 0x88C JUMP JUMPDEST PUSH2 0x6A4 JUMP JUMPDEST STOP JUMPDEST CALLVALUE DUP1 ISZERO PUSH2 0x177 JUMPI PUSH0 DUP1 REVERT JUMPDEST POP PUSH2 0x192 PUSH1 0x4 DUP1 CALLDATASIZE SUB DUP2 ADD SWAP1 PUSH2 0x18D SWAP2 SWAP1 PUSH2 0x88C JUMP JUMPDEST PUSH2 0x7FD JUMP JUMPDEST PUSH1 0x40 MLOAD PUSH2 0x1A2 SWAP5 SWAP4 SWAP3 SWAP2 SWAP1 PUSH2 0x951 JUMP JUMPDEST PUSH1 0x40 MLOAD DUP1 SWAP2 SUB SWAP1 RETURN JUMPDEST PUSH0 PUSH1 0x3 PUSH0 DUP4 DUP2 MSTORE PUSH1 0x20 ADD SWAP1 DUP2 MSTORE PUSH1 0x20 ADD PUSH0 KECCAK256 SWAP1 POP DUP1 PUSH1 0x1 ADD PUSH0 SWAP1 SLOAD SWAP1 PUSH2 0x100 EXP SWAP1 DIV PUSH1 0xFF AND DUP1 ISZERO PUSH2 0x22B JUMPI POP CALLER PUSH20 0xFFFFFFFFFFFFFFFFFFFFFFFFFFFFFFFFFFFFFFFF AND DUP2 PUSH1 0x1 ADD PUSH1 0x1 SWAP1 SLOAD SWAP1 PUSH2 0x100 EXP SWAP1 DIV PUSH20 0xFFFFFFFFFFFFFFFFFFFFFFFFFFFFFFFFFFFFFFFF AND PUSH20 0xFFFFFFFFFFFFFFFFFFFFFFFFFFFFFFFFFFFFFFFF AND EQ JUMPDEST PUSH2 0x26A JUMPI PUSH1 0x40 MLOAD PUSH32 0x8C379A000000000000000000000000000000000000000000000000000000000 DUP2 MSTORE PUSH1 0x4 ADD PUSH2 0x261 SWAP1 PUSH2 0x9EE JUMP JUMPDEST PUSH1 0x40 MLOAD DUP1 SWAP2 SUB SWAP1 REVERT JUMPDEST PUSH0 PUSH2 0xE10 DUP3 PUSH1 0x2 ADD SLOAD TIMESTAMP PUSH2 0x27E SWAP2 SWAP1 PUSH2 0xA39 JUMP JUMPDEST PUSH2 0x288 SWAP2 SWAP1 PUSH2 0xA99 JUMP JUMPDEST SWAP1 POP PUSH0 PUSH1 0x2 SLOAD DUP3 PUSH2 0x299 SWAP2 SWAP1 PUSH2 0xAC9 JUMP JUMPDEST SWAP1 POP DUP1 SELFBALANCE LT ISZERO PUSH2 0x2DE JUMPI PUSH1 0x40 MLOAD PUSH32 0x8C379A000000000000000000000000000000000000000000000000000000000 DUP2 MSTORE PUSH1 0x4 ADD PUSH2 0x2D5 SWAP1 PUSH2 0xB54 JUMP JUMPDEST PUSH1 0x40 MLOAD DUP1 SWAP2 SUB SWAP1 REVERT JUMPDEST PUSH0 DUP4 PUSH1 0x1 ADD PUSH0 PUSH2 0x100 EXP DUP2 SLOAD DUP2 PUSH1 0xFF MUL NOT AND SWAP1 DUP4 ISZERO ISZERO MUL OR SWAP1 SSTORE POP PUSH0 DUP4 PUSH1 0x1 ADD PUSH1 0x1 PUSH2 0x100 EXP DUP2 SLOAD DUP2 PUSH20 0xFFFFFFFFFFFFFFFFFFFFFFFFFFFFFFFFFFFFFFFF MUL NOT AND SWAP1 DUP4 PUSH20 0xFFFFFFFFFFFFFFFFFFFFFFFFFFFFFFFFFFFFFFFF AND MUL OR SWAP1 SSTORE POP PUSH0 DUP4 PUSH1 0x2 ADD DUP2 SWAP1 SSTORE POP CALLER PUSH20 0xFFFFFFFFFFFFFFFFFFFFFFFFFFFFFFFFFFFFFFFF AND PUSH2 0x8FC DUP3 SWAP1 DUP2 ISZERO MUL SWAP1 PUSH1 0x40 MLOAD PUSH0 PUSH1 0x40 MLOAD DUP1 DUP4 SUB DUP2 DUP6 DUP9 DUP9 CALL SWAP4 POP POP POP POP ISZERO DUP1 ISZERO PUSH2 0x388 JUMPI RETURNDATASIZE PUSH0 DUP1 RETURNDATACOPY RETURNDATASIZE PUSH0 REVERT JUMPDEST POP CALLER PUSH20 0xFFFFFFFFFFFFFFFFFFFFFFFFFFFFFFFFFFFFFFFF AND DUP5 PUSH32 0x817990E215DBDA416802721D649D0D023583D8B052E668979C72C22B267E7EDC DUP5 DUP5 PUSH1 0x40 MLOAD PUSH2 0x3D2 SWAP3 SWAP2 SWAP1 PUSH2 0xB72 JUMP JUMPDEST PUSH1 0x40 MLOAD DUP1 SWAP2 SUB SWAP1 LOG3 POP POP POP POP JUMP JUMPDEST PUSH0 DUP1 SLOAD SWAP1 PUSH2 0x100 EXP SWAP1 DIV PUSH20 0xFFFFFFFFFFFFFFFFFFFFFFFFFFFFFFFFFFFFFFFF AND PUSH20 0xFFFFFFFFFFFFFFFFFFFFFFFFFFFFFFFFFFFFFFFF AND CALLER PUSH20 0xFFFFFFFFFFFFFFFFFFFFFFFFFFFFFFFFFFFFFFFF AND EQ PUSH2 0x46D JUMPI PUSH1 0x40 MLOAD PUSH32 0x8C379A000000000000000000000000000000000000000000000000000000000 DUP2 MSTORE PUSH1 0x4 ADD PUSH2 0x464 SWAP1 PUSH2 0xC09 JUMP JUMPDEST PUSH1 0x40 MLOAD DUP1 SWAP2 SUB SWAP1 REVERT JUMPDEST PUSH0 SELFBALANCE SWAP1 POP PUSH0 DUP1 SLOAD SWAP1 PUSH2 0x100 EXP SWAP1 DIV PUSH20 0xFFFFFFFFFFFFFFFFFFFFFFFFFFFFFFFFFFFFFFFF AND PUSH20 0xFFFFFFFFFFFFFFFFFFFFFFFFFFFFFFFFFFFFFFFF AND PUSH2 0x8FC DUP3 SWAP1 DUP2 ISZERO MUL SWAP1 PUSH1 0x40 MLOAD PUSH0 PUSH1 0x40 MLOAD DUP1 DUP4 SUB DUP2 DUP6 DUP9 DUP9 CALL SWAP4 POP POP POP POP ISZERO DUP1 ISZERO PUSH2 0x4D3 JUMPI RETURNDATASIZE PUSH0 DUP1 RETURNDATACOPY RETURNDATASIZE PUSH0 REVERT JUMPDEST POP POP JUMP JUMPDEST PUSH1 0x1 SLOAD DUP2 JUMP JUMPDEST PUSH0 DUP1 SLOAD SWAP1 PUSH2 0x100 EXP SWAP1 DIV PUSH20 0xFFFFFFFFFFFFFFFFFFFFFFFFFFFFFFFFFFFFFFFF AND PUSH20 0xFFFFFFFFFFFFFFFFFFFFFFFFFFFFFFFFFFFFFFFF AND CALLER PUSH20 0xFFFFFFFFFFFFFFFFFFFFFFFFFFFFFFFFFFFFFFFF AND EQ PUSH2 0x56A JUMPI PUSH1 0x40 MLOAD PUSH32 0x8C379A000000000000000000000000000000000000000000000000000000000 DUP2 MSTORE PUSH1 0x4 ADD PUSH2 0x561 SWAP1 PUSH2 0xC09 JUMP JUMPDEST PUSH1 0x40 MLOAD DUP1 SWAP2 SUB SWAP1 REVERT JUMPDEST PUSH1 0x1 PUSH0 DUP2 SLOAD DUP1 SWAP3 SWAP2 SWAP1 PUSH2 0x57C SWAP1 PUSH2 0xC27 JUMP JUMPDEST SWAP2 SWAP1 POP SSTORE POP PUSH1 0x40 MLOAD DUP1 PUSH1 0x80 ADD PUSH1 0x40 MSTORE DUP1 PUSH1 0x1 SLOAD DUP2 MSTORE PUSH1 0x20 ADD PUSH0 ISZERO ISZERO DUP2 MSTORE PUSH1 0x20 ADD PUSH0 PUSH20 0xFFFFFFFFFFFFFFFFFFFFFFFFFFFFFFFFFFFFFFFF AND DUP2 MSTORE PUSH1 0x20 ADD PUSH0 DUP2 MSTORE POP PUSH1 0x3 PUSH0 PUSH1 0x1 SLOAD DUP2 MSTORE PUSH1 0x20 ADD SWAP1 DUP2 MSTORE PUSH1 0x20 ADD PUSH0 KECCAK256 PUSH0 DUP3 ADD MLOAD DUP2 PUSH0 ADD SSTORE PUSH1 0x20 DUP3 ADD MLOAD DUP2 PUSH1 0x1 ADD PUSH0 PUSH2 0x100 EXP DUP2 SLOAD DUP2 PUSH1 0xFF MUL NOT AND SWAP1 DUP4 ISZERO ISZERO MUL OR SWAP1 SSTORE POP PUSH1 0x40 DUP3 ADD MLOAD DUP2 PUSH1 0x1 ADD PUSH1 0x1 PUSH2 0x100 EXP DUP2 SLOAD DUP2 PUSH20 0xFFFFFFFFFFFFFFFFFFFFFFFFFFFFFFFFFFFFFFFF MUL NOT AND SWAP1 DUP4 PUSH20 0xFFFFFFFFFFFFFFFFFFFFFFFFFFFFFFFFFFFFFFFF AND MUL OR SWAP1 SSTORE POP PUSH1 0x60 DUP3 ADD MLOAD DUP2 PUSH1 0x2 ADD SSTORE SWAP1 POP POP PUSH1 0x1 SLOAD PUSH32 0xF753590D84D92740BA57BDABF2DFC2236E0FBC9BC5F349885249FC7462DEB6D9 PUSH1 0x40 MLOAD PUSH1 0x40 MLOAD DUP1 SWAP2 SUB SWAP1 LOG2 JUMP JUMPDEST PUSH0 DUP1 SLOAD SWAP1 PUSH2 0x100 EXP SWAP1 DIV PUSH20 0xFFFFFFFFFFFFFFFFFFFFFFFFFFFFFFFFFFFFFFFF AND DUP2 JUMP JUMPDEST PUSH1 0x2 SLOAD DUP2 JUMP JUMPDEST PUSH0 PUSH1 0x3 PUSH0 DUP4 DUP2 MSTORE PUSH1 0x20 ADD SWAP1 DUP2 MSTORE PUSH1 0x20 ADD PUSH0 KECCAK256 SWAP1 POP DUP1 PUSH1 0x1 ADD PUSH0 SWAP1 SLOAD SWAP1 PUSH2 0x100 EXP SWAP1 DIV PUSH1 0xFF AND ISZERO PUSH2 0x709 JUMPI PUSH1 0x40 MLOAD PUSH32 0x8C379A000000000000000000000000000000000000000000000000000000000 DUP2 MSTORE PUSH1 0x4 ADD PUSH2 0x700 SWAP1 PUSH2 0xCB8 JUMP JUMPDEST PUSH1 0x40 MLOAD DUP1 SWAP2 SUB SWAP1 REVERT JUMPDEST PUSH1 0x2 SLOAD CALLVALUE EQ PUSH2 0x74D JUMPI PUSH1 0x40 MLOAD PUSH32 0x8C379A000000000000000000000000000000000000000000000000000000000 DUP2 MSTORE PUSH1 0x4 ADD PUSH2 0x744 SWAP1 PUSH2 0xD20 JUMP JUMPDEST PUSH1 0x40 MLOAD DUP1 SWAP2 SUB SWAP1 REVERT JUMPDEST CALLER DUP2 PUSH1 0x1 ADD PUSH1 0x1 PUSH2 0x100 EXP DUP2 SLOAD DUP2 PUSH20 0xFFFFFFFFFFFFFFFFFFFFFFFFFFFFFFFFFFFFFFFF MUL NOT AND SWAP1 DUP4 PUSH20 0xFFFFFFFFFFFFFFFFFFFFFFFFFFFFFFFFFFFFFFFF AND MUL OR SWAP1 SSTORE POP TIMESTAMP DUP2 PUSH1 0x2 ADD DUP2 SWAP1 SSTORE POP PUSH1 0x1 DUP2 PUSH1 0x1 ADD PUSH0 PUSH2 0x100 EXP DUP2 SLOAD DUP2 PUSH1 0xFF MUL NOT AND SWAP1 DUP4 ISZERO ISZERO MUL OR SWAP1 SSTORE POP CALLER PUSH20 0xFFFFFFFFFFFFFFFFFFFFFFFFFFFFFFFFFFFFFFFF AND DUP3 PUSH32 0x70790C0AB38E2ACA9B5520985FE66DB2A3700C3680B61C3853B5554F67A2C31C PUSH1 0x40 MLOAD PUSH1 0x40 MLOAD DUP1 SWAP2 SUB SWAP1 LOG3 POP POP JUMP JUMPDEST PUSH1 0x3 PUSH1 0x20 MSTORE DUP1 PUSH0 MSTORE PUSH1 0x40 PUSH0 KECCAK256 PUSH0 SWAP2 POP SWAP1 POP DUP1 PUSH0 ADD SLOAD SWAP1 DUP1 PUSH1 0x1 ADD PUSH0 SWAP1 SLOAD SWAP1 PUSH2 0x100 EXP SWAP1 DIV PUSH1 0xFF AND SWAP1 DUP1 PUSH1 0x1 ADD PUSH1 0x1 SWAP1 SLOAD SWAP1 PUSH2 0x100 EXP SWAP1 DIV PUSH20 0xFFFFFFFFFFFFFFFFFFFFFFFFFFFFFFFFFFFFFFFF AND SWAP1 DUP1 PUSH1 0x2 ADD SLOAD SWAP1 POP DUP5 JUMP JUMPDEST PUSH0 DUP1 REVERT JUMPDEST PUSH0 DUP2 SWAP1 POP SWAP2 SWAP1 POP JUMP JUMPDEST PUSH2 0x86B DUP2 PUSH2 0x859 JUMP JUMPDEST DUP2 EQ PUSH2 0x875 JUMPI PUSH0 DUP1 REVERT JUMPDEST POP JUMP JUMPDEST PUSH0 DUP2 CALLDATALOAD SWAP1 POP PUSH2 0x886 DUP2 PUSH2 0x862 JUMP JUMPDEST SWAP3 SWAP2 POP POP JUMP JUMPDEST PUSH0 PUSH1 0x20 DUP3 DUP5 SUB SLT ISZERO PUSH2 0x8A1 JUMPI PUSH2 0x8A0 PUSH2 0x855 JUMP JUMPDEST JUMPDEST PUSH0 PUSH2 0x8AE DUP5 DUP3 DUP6 ADD PUSH2 0x878 JUMP JUMPDEST SWAP2 POP POP SWAP3 SWAP2 POP POP JUMP JUMPDEST PUSH2 0x8C0 DUP2 PUSH2 0x859 JUMP JUMPDEST DUP3 MSTORE POP POP JUMP JUMPDEST PUSH0 PUSH1 0x20 DUP3 ADD SWAP1 POP PUSH2 0x8D9 PUSH0 DUP4 ADD DUP5 PUSH2 0x8B7 JUMP JUMPDEST SWAP3 SWAP2 POP POP JUMP JUMPDEST PUSH0 PUSH20 0xFFFFFFFFFFFFFFFFFFFFFFFFFFFFFFFFFFFFFFFF DUP3 AND SWAP1 POP SWAP2 SWAP1 POP JUMP JUMPDEST PUSH0 PUSH2 0x908 DUP3 PUSH2 0x8DF JUMP JUMPDEST SWAP1 POP SWAP2 SWAP1 POP JUMP JUMPDEST PUSH2 0x918 DUP2 PUSH2 0x8FE JUMP JUMPDEST DUP3 MSTORE POP POP JUMP JUMPDEST PUSH0 PUSH1 0x20 DUP3 ADD SWAP1 POP PUSH2 0x931 PUSH0 DUP4 ADD DUP5 PUSH2 0x90F JUMP JUMPDEST SWAP3 SWAP2 POP POP JUMP JUMPDEST PUSH0 DUP2 ISZERO ISZERO SWAP1 POP SWAP2 SWAP1 POP JUMP JUMPDEST PUSH2 0x94B DUP2 PUSH2 0x937 JUMP JUMPDEST DUP3 MSTORE POP POP JUMP JUMPDEST PUSH0 PUSH1 0x80 DUP3 ADD SWAP1 POP PUSH2 0x964 PUSH0 DUP4 ADD DUP8 PUSH2 0x8B7 JUMP JUMPDEST PUSH2 0x971 PUSH1 0x20 DUP4 ADD DUP7 PUSH2 0x942 JUMP JUMPDEST PUSH2 0x97E PUSH1 0x40 DUP4 ADD DUP6 PUSH2 0x90F JUMP JUMPDEST PUSH2 0x98B PUSH1 0x60 DUP4 ADD DUP5 PUSH2 0x8B7 JUMP JUMPDEST SWAP6 SWAP5 POP POP POP POP POP JUMP JUMPDEST PUSH0 DUP3 DUP3 MSTORE PUSH1 0x20 DUP3 ADD SWAP1 POP SWAP3 SWAP2 POP POP JUMP JUMPDEST PUSH32 0x4E6F7420746865206F637570616E74206F6620746869732073706F7400000000 PUSH0 DUP3 ADD MSTORE POP JUMP JUMPDEST PUSH0 PUSH2 0x9D8 PUSH1 0x1C DUP4 PUSH2 0x994 JUMP JUMPDEST SWAP2 POP PUSH2 0x9E3 DUP3 PUSH2 0x9A4 JUMP JUMPDEST PUSH1 0x20 DUP3 ADD SWAP1 POP SWAP2 SWAP1 POP JUMP JUMPDEST PUSH0 PUSH1 0x20 DUP3 ADD SWAP1 POP DUP2 DUP2 SUB PUSH0 DUP4 ADD MSTORE PUSH2 0xA05 DUP2 PUSH2 0x9CC JUMP JUMPDEST SWAP1 POP SWAP2 SWAP1 POP JUMP JUMPDEST PUSH32 0x4E487B7100000000000000000000000000000000000000000000000000000000 PUSH0 MSTORE PUSH1 0x11 PUSH1 0x4 MSTORE PUSH1 0x24 PUSH0 REVERT JUMPDEST PUSH0 PUSH2 0xA43 DUP3 PUSH2 0x859 JUMP JUMPDEST SWAP2 POP PUSH2 0xA4E DUP4 PUSH2 0x859 JUMP JUMPDEST SWAP3 POP DUP3 DUP3 SUB SWAP1 POP DUP2 DUP2 GT ISZERO PUSH2 0xA66 JUMPI PUSH2 0xA65 PUSH2 0xA0C JUMP JUMPDEST JUMPDEST SWAP3 SWAP2 POP POP JUMP JUMPDEST PUSH32 0x4E487B7100000000000000000000000000000000000000000000000000000000 PUSH0 MSTORE PUSH1 0x12 PUSH1 0x4 MSTORE PUSH1 0x24 PUSH0 REVERT JUMPDEST PUSH0 PUSH2 0xAA3 DUP3 PUSH2 0x859 JUMP JUMPDEST SWAP2 POP PUSH2 0xAAE DUP4 PUSH2 0x859 JUMP JUMPDEST SWAP3 POP DUP3 PUSH2 0xABE JUMPI PUSH2 0xABD PUSH2 0xA6C JUMP JUMPDEST JUMPDEST DUP3 DUP3 DIV SWAP1 POP SWAP3 SWAP2 POP POP JUMP JUMPDEST PUSH0 PUSH2 0xAD3 DUP3 PUSH2 0x859 JUMP JUMPDEST SWAP2 POP PUSH2 0xADE DUP4 PUSH2 0x859 JUMP JUMPDEST SWAP3 POP DUP3 DUP3 MUL PUSH2 0xAEC DUP2 PUSH2 0x859 JUMP JUMPDEST SWAP2 POP DUP3 DUP3 DIV DUP5 EQ DUP4 ISZERO OR PUSH2 0xB03 JUMPI PUSH2 0xB02 PUSH2 0xA0C JUMP JUMPDEST JUMPDEST POP SWAP3 SWAP2 POP POP JUMP JUMPDEST PUSH32 0x636F6E74726163742062616C616E636520696E73756666696369656E74000000 PUSH0 DUP3 ADD MSTORE POP JUMP JUMPDEST PUSH0 PUSH2 0xB3E PUSH1 0x1D DUP4 PUSH2 0x994 JUMP JUMPDEST SWAP2 POP PUSH2 0xB49 DUP3 PUSH2 0xB0A JUMP JUMPDEST PUSH1 0x20 DUP3 ADD SWAP1 POP SWAP2 SWAP1 POP JUMP JUMPDEST PUSH0 PUSH1 0x20 DUP3 ADD SWAP1 POP DUP2 DUP2 SUB PUSH0 DUP4 ADD MSTORE PUSH2 0xB6B DUP2 PUSH2 0xB32 JUMP JUMPDEST SWAP1 POP SWAP2 SWAP1 POP JUMP JUMPDEST PUSH0 PUSH1 0x40 DUP3 ADD SWAP1 POP PUSH2 0xB85 PUSH0 DUP4 ADD DUP6 PUSH2 0x8B7 JUMP JUMPDEST PUSH2 0xB92 PUSH1 0x20 DUP4 ADD DUP5 PUSH2 0x8B7 JUMP JUMPDEST SWAP4 SWAP3 POP POP POP JUMP JUMPDEST PUSH32 0x4F6E6C7920746865206F776E6572206F6620746865207061726B696E67206C6F PUSH0 DUP3 ADD MSTORE PUSH32 0x742063616E20646F207468697320616374696F6E2E0000000000000000000000 PUSH1 0x20 DUP3 ADD MSTORE POP JUMP JUMPDEST PUSH0 PUSH2 0xBF3 PUSH1 0x35 DUP4 PUSH2 0x994 JUMP JUMPDEST SWAP2 POP PUSH2 0xBFE DUP3 PUSH2 0xB99 JUMP JUMPDEST PUSH1 0x40 DUP3 ADD SWAP1 POP SWAP2 SWAP1 POP JUMP JUMPDEST PUSH0 PUSH1 0x20 DUP3 ADD SWAP1 POP DUP2 DUP2 SUB PUSH0 DUP4 ADD MSTORE PUSH2 0xC20 DUP2 PUSH2 0xBE7 JUMP JUMPDEST SWAP1 POP SWAP2 SWAP1 POP JUMP JUMPDEST PUSH0 PUSH2 0xC31 DUP3 PUSH2 0x859 JUMP JUMPDEST SWAP2 POP PUSH32 0xFFFFFFFFFFFFFFFFFFFFFFFFFFFFFFFFFFFFFFFFFFFFFFFFFFFFFFFFFFFFFFFF DUP3 SUB PUSH2 0xC63 JUMPI PUSH2 0xC62 PUSH2 0xA0C JUMP JUMPDEST JUMPDEST PUSH1 0x1 DUP3 ADD SWAP1 POP SWAP2 SWAP1 POP JUMP JUMPDEST PUSH32 0x53706F7420616C7265616479206F636375706965640000000000000000000000 PUSH0 DUP3 ADD MSTORE POP JUMP JUMPDEST PUSH0 PUSH2 0xCA2 PUSH1 0x15 DUP4 PUSH2 0x994 JUMP JUMPDEST SWAP2 POP PUSH2 0xCAD DUP3 PUSH2 0xC6E JUMP JUMPDEST PUSH1 0x20 DUP3 ADD SWAP1 POP SWAP2 SWAP1 POP JUMP JUMPDEST PUSH0 PUSH1 0x20 DUP3 ADD SWAP1 POP DUP2 DUP2 SUB PUSH0 DUP4 ADD MSTORE PUSH2 0xCCF DUP2 PUSH2 0xC96 JUMP JUMPDEST SWAP1 POP SWAP2 SWAP1 POP JUMP JUMPDEST PUSH32 0x496E73756666696369656E742066756E64732E00000000000000000000000000 PUSH0 DUP3 ADD MSTORE POP JUMP JUMPDEST PUSH0 PUSH2 0xD0A PUSH1 0x13 DUP4 PUSH2 0x994 JUMP JUMPDEST SWAP2 POP PUSH2 0xD15 DUP3 PUSH2 0xCD6 JUMP JUMPDEST PUSH1 0x20 DUP3 ADD SWAP1 POP SWAP2 SWAP1 POP JUMP JUMPDEST PUSH0 PUSH1 0x20 DUP3 ADD SWAP1 POP DUP2 DUP2 SUB PUSH0 DUP4 ADD MSTORE PUSH2 0xD37 DUP2 PUSH2 0xCFE JUMP JUMPDEST SWAP1 POP SWAP2 SWAP1 POP JUMP INVALID LOG2 PUSH5 0x6970667358 0x22 SLT KECCAK256 MUL PUSH7 0x646BF7CB83F2CA 0xDD 0xC0 LOG3 DUP8 SELFBALANCE CALLDATASIZE SWAP5 PUSH0 LT 0xD8 PUSH14 0x41B0FB11032F15E9C81054706473 PUSH16 0x6C634300081800330000000000000000 "
				},
				"gasEstimates": {
					"creation": {
						"codeDepositCost": "688800",
						"executionCost": "52095",
						"totalCost": "740895"
					},
					"external": {
						"addParkingSpot()": "110128",
						"checkIn(uint256)": "77043",
						"checkOut(uint256)": "infinite",
						"owner()": "2505",
						"parkingSpotCount()": "2470",
						"parkingSpots(uint256)": "infinite",
						"pricePerHour()": "2447",
						"withdrawFunds()": "infinite"
					}
				},
				"methodIdentifiers": {
					"addParkingSpot()": "74777614",
					"checkIn(uint256)": "e95a644f",
					"checkOut(uint256)": "1bd2eeee",
					"owner()": "8da5cb5b",
					"parkingSpotCount()": "67b7babb",
					"parkingSpots(uint256)": "f5defcd3",
					"pricePerHour()": "ceb751da",
					"withdrawFunds()": "24600fc3"
				}
			},
			"storageLayout": {
				"storage": [
					{
						"astId": 12,
						"contract": "Parking_Lot.sol:Parking_Lot",
						"label": "owner",
						"offset": 0,
						"slot": "0",
						"type": "t_address"
					},
					{
						"astId": 15,
						"contract": "Parking_Lot.sol:Parking_Lot",
						"label": "parkingSpotCount",
						"offset": 0,
						"slot": "1",
						"type": "t_uint256"
					},
					{
						"astId": 18,
						"contract": "Parking_Lot.sol:Parking_Lot",
						"label": "pricePerHour",
						"offset": 0,
						"slot": "2",
						"type": "t_uint256"
					},
					{
						"astId": 23,
						"contract": "Parking_Lot.sol:Parking_Lot",
						"label": "parkingSpots",
						"offset": 0,
						"slot": "3",
						"type": "t_mapping(t_uint256,t_struct(ParkingSpot)10_storage)"
					}
				],
				"types": {
					"t_address": {
						"encoding": "inplace",
						"label": "address",
						"numberOfBytes": "20"
					},
					"t_bool": {
						"encoding": "inplace",
						"label": "bool",
						"numberOfBytes": "1"
					},
					"t_mapping(t_uint256,t_struct(ParkingSpot)10_storage)": {
						"encoding": "mapping",
						"key": "t_uint256",
						"label": "mapping(uint256 => struct Parking_Lot.ParkingSpot)",
						"numberOfBytes": "32",
						"value": "t_struct(ParkingSpot)10_storage"
					},
					"t_struct(ParkingSpot)10_storage": {
						"encoding": "inplace",
						"label": "struct Parking_Lot.ParkingSpot",
						"members": [
							{
								"astId": 3,
								"contract": "Parking_Lot.sol:Parking_Lot",
								"label": "id",
								"offset": 0,
								"slot": "0",
								"type": "t_uint256"
							},
							{
								"astId": 5,
								"contract": "Parking_Lot.sol:Parking_Lot",
								"label": "isOccupied",
								"offset": 0,
								"slot": "1",
								"type": "t_bool"
							},
							{
								"astId": 7,
								"contract": "Parking_Lot.sol:Parking_Lot",
								"label": "occupant",
								"offset": 1,
								"slot": "1",
								"type": "t_address"
							},
							{
								"astId": 9,
								"contract": "Parking_Lot.sol:Parking_Lot",
								"label": "checkInTime",
								"offset": 0,
								"slot": "2",
								"type": "t_uint256"
							}
						],
						"numberOfBytes": "96"
					},
					"t_uint256": {
						"encoding": "inplace",
						"label": "uint256",
						"numberOfBytes": "32"
					}
				}
			},
			"userdoc": {
				"kind": "user",
				"methods": {},
				"version": 1
			}
		}
	}
}