{
	"Factory.sol": {
		"Factory": {
			"abi": [
				{
					"inputs": [
						{
							"internalType": "uint256",
							"name": "",
							"type": "uint256"
						}
					],
					"name": "arrayOfContract",
					"outputs": [
						{
							"internalType": "contract ASuperFancySmartContract",
							"name": "",
							"type": "address"
						}
					],
					"stateMutability": "view",
					"type": "function"
				},
				{
					"inputs": [
						{
							"internalType": "uint256",
							"name": "_number",
							"type": "uint256"
						}
					],
					"name": "checkingOwner",
					"outputs": [
						{
							"internalType": "address",
							"name": "",
							"type": "address"
						}
					],
					"stateMutability": "view",
					"type": "function"
				},
				{
					"inputs": [],
					"name": "publishing",
					"outputs": [],
					"stateMutability": "nonpayable",
					"type": "function"
				}
			],
			"devdoc": {
				"kind": "dev",
				"methods": {},
				"version": 1
			},
			"evm": {
				"assembly": "    /* \"Factory.sol\":58:443  contract Factory{... */\n  mstore(0x40, 0x80)\n  callvalue\n  dup1\n  iszero\n  tag_1\n  jumpi\n  0x00\n  dup1\n  revert\ntag_1:\n  pop\n  dataSize(sub_0)\n  dup1\n  dataOffset(sub_0)\n  0x00\n  codecopy\n  0x00\n  return\nstop\n\nsub_0: assembly {\n        /* \"Factory.sol\":58:443  contract Factory{... */\n      mstore(0x40, 0x80)\n      callvalue\n      dup1\n      iszero\n      tag_1\n      jumpi\n      0x00\n      dup1\n      revert\n    tag_1:\n      pop\n      jumpi(tag_2, lt(calldatasize, 0x04))\n      shr(0xe0, calldataload(0x00))\n      dup1\n      0x124c3eaf\n      eq\n      tag_3\n      jumpi\n      dup1\n      0xc04fcafe\n      eq\n      tag_4\n      jumpi\n      dup1\n      0xda15b009\n      eq\n      tag_5\n      jumpi\n    tag_2:\n      0x00\n      dup1\n      revert\n        /* \"Factory.sol\":139:311  function publishing()public{... */\n    tag_3:\n      tag_6\n      tag_7\n      jump\t// in\n    tag_6:\n      stop\n        /* \"Factory.sol\":81:130  ASuperFancySmartContract[] public arrayOfContract */\n    tag_4:\n      tag_8\n      0x04\n      dup1\n      calldatasize\n      sub\n      dup2\n      add\n      swap1\n      tag_9\n      swap2\n      swap1\n      tag_10\n      jump\t// in\n    tag_9:\n      tag_11\n      jump\t// in\n    tag_8:\n      mload(0x40)\n      tag_12\n      swap2\n      swap1\n      tag_13\n      jump\t// in\n    tag_12:\n      mload(0x40)\n      dup1\n      swap2\n      sub\n      swap1\n      return\n        /* \"Factory.sol\":317:440  function checkingOwner(uint _number) public view returns(address){... */\n    tag_5:\n      tag_14\n      0x04\n      dup1\n      calldatasize\n      sub\n      dup2\n      add\n      swap1\n      tag_15\n      swap2\n      swap1\n      tag_10\n      jump\t// in\n    tag_15:\n      tag_16\n      jump\t// in\n    tag_14:\n      mload(0x40)\n      tag_17\n      swap2\n      swap1\n      tag_18\n      jump\t// in\n    tag_17:\n      mload(0x40)\n      dup1\n      swap2\n      sub\n      swap1\n      return\n        /* \"Factory.sol\":139:311  function publishing()public{... */\n    tag_7:\n        /* \"Factory.sol\":177:203  ASuperFancySmartContract a */\n      0x00\n        /* \"Factory.sol\":204:235  new  ASuperFancySmartContract() */\n      mload(0x40)\n      tag_20\n      swap1\n      tag_21\n      jump\t// in\n    tag_20:\n      mload(0x40)\n      dup1\n      swap2\n      sub\n      swap1\n      0x00\n      create\n      dup1\n      iszero\n      dup1\n      iszero\n      tag_22\n      jumpi\n      returndatasize\n      0x00\n      dup1\n      returndatacopy\n      revert(0x00, returndatasize)\n    tag_22:\n      pop\n        /* \"Factory.sol\":177:235  ASuperFancySmartContract a=new  ASuperFancySmartContract() */\n      swap1\n      pop\n        /* \"Factory.sol\":246:247  a */\n      dup1\n        /* \"Factory.sol\":246:267  a.doesSuperFancyStuff */\n      0xffffffffffffffffffffffffffffffffffffffff\n      and\n      0x72622efc\n        /* \"Factory.sol\":246:269  a.doesSuperFancyStuff() */\n      mload(0x40)\n      dup2\n      0xffffffff\n      and\n      0xe0\n      shl\n      dup2\n      mstore\n      0x04\n      add\n      0x00\n      mload(0x40)\n      dup1\n      dup4\n      sub\n      dup2\n      0x00\n      dup8\n      dup1\n      extcodesize\n      iszero\n      dup1\n      iszero\n      tag_23\n      jumpi\n      0x00\n      dup1\n      revert\n    tag_23:\n      pop\n      gas\n      call\n      iszero\n      dup1\n      iszero\n      tag_25\n      jumpi\n      returndatasize\n      0x00\n      dup1\n      returndatacopy\n      revert(0x00, returndatasize)\n    tag_25:\n      pop\n      pop\n      pop\n      pop\n        /* \"Factory.sol\":280:295  arrayOfContract */\n      0x00\n        /* \"Factory.sol\":301:302  a */\n      dup2\n        /* \"Factory.sol\":280:303  arrayOfContract.push(a) */\n      swap1\n      dup1\n      0x01\n      dup2\n      sload\n      add\n      dup1\n      dup3\n      sstore\n      dup1\n      swap2\n      pop\n      pop\n      0x01\n      swap1\n      sub\n      swap1\n      0x00\n      mstore\n      keccak256(0x00, 0x20)\n      add\n      0x00\n      swap1\n      swap2\n      swap1\n      swap2\n      swap1\n      swap2\n      0x0100\n      exp\n      dup2\n      sload\n      dup2\n      0xffffffffffffffffffffffffffffffffffffffff\n      mul\n      not\n      and\n      swap1\n      dup4\n      0xffffffffffffffffffffffffffffffffffffffff\n      and\n      mul\n      or\n      swap1\n      sstore\n      pop\n        /* \"Factory.sol\":166:311  {... */\n      pop\n        /* \"Factory.sol\":139:311  function publishing()public{... */\n      jump\t// out\n        /* \"Factory.sol\":81:130  ASuperFancySmartContract[] public arrayOfContract */\n    tag_11:\n      0x00\n      dup2\n      dup2\n      sload\n      dup2\n      lt\n      tag_27\n      jumpi\n      0x00\n      dup1\n      revert\n    tag_27:\n      swap1\n      0x00\n      mstore\n      keccak256(0x00, 0x20)\n      add\n      0x00\n      swap2\n      pop\n      sload\n      swap1\n      0x0100\n      exp\n      swap1\n      div\n      0xffffffffffffffffffffffffffffffffffffffff\n      and\n      dup2\n      jump\t// out\n        /* \"Factory.sol\":317:440  function checkingOwner(uint _number) public view returns(address){... */\n    tag_16:\n        /* \"Factory.sol\":374:381  address */\n      0x00\n        /* \"Factory.sol\":400:415  arrayOfContract */\n      dup1\n        /* \"Factory.sol\":416:423  _number */\n      dup3\n        /* \"Factory.sol\":400:424  arrayOfContract[_number] */\n      dup2\n      sload\n      dup2\n      lt\n      tag_30\n      jumpi\n      tag_31\n      tag_32\n      jump\t// in\n    tag_31:\n    tag_30:\n      swap1\n      0x00\n      mstore\n      keccak256(0x00, 0x20)\n      add\n      0x00\n      swap1\n      sload\n      swap1\n      0x0100\n      exp\n      swap1\n      div\n      0xffffffffffffffffffffffffffffffffffffffff\n      and\n        /* \"Factory.sol\":400:430  arrayOfContract[_number].owner */\n      0xffffffffffffffffffffffffffffffffffffffff\n      and\n      0x8da5cb5b\n        /* \"Factory.sol\":400:432  arrayOfContract[_number].owner() */\n      mload(0x40)\n      dup2\n      0xffffffff\n      and\n      0xe0\n      shl\n      dup2\n      mstore\n      0x04\n      add\n      0x20\n      mload(0x40)\n      dup1\n      dup4\n      sub\n      dup2\n      dup7\n      gas\n      staticcall\n      iszero\n      dup1\n      iszero\n      tag_35\n      jumpi\n      returndatasize\n      0x00\n      dup1\n      returndatacopy\n      revert(0x00, returndatasize)\n    tag_35:\n      pop\n      pop\n      pop\n      pop\n      mload(0x40)\n      returndatasize\n      not(0x1f)\n      0x1f\n      dup3\n      add\n      and\n      dup3\n      add\n      dup1\n      0x40\n      mstore\n      pop\n      dup2\n      add\n      swap1\n      tag_36\n      swap2\n      swap1\n      tag_37\n      jump\t// in\n    tag_36:\n        /* \"Factory.sol\":393:432  return arrayOfContract[_number].owner() */\n      swap1\n      pop\n        /* \"Factory.sol\":317:440  function checkingOwner(uint _number) public view returns(address){... */\n      swap2\n      swap1\n      pop\n      jump\t// out\n    tag_21:\n      dataSize(sub_0)\n      dup1\n      dataOffset(sub_0)\n      dup4\n      codecopy\n      add\n      swap1\n      jump\t// out\n        /* \"#utility.yul\":88:205   */\n    tag_39:\n        /* \"#utility.yul\":197:198   */\n      0x00\n        /* \"#utility.yul\":194:195   */\n      dup1\n        /* \"#utility.yul\":187:199   */\n      revert\n        /* \"#utility.yul\":334:411   */\n    tag_41:\n        /* \"#utility.yul\":371:378   */\n      0x00\n        /* \"#utility.yul\":400:405   */\n      dup2\n        /* \"#utility.yul\":389:405   */\n      swap1\n      pop\n        /* \"#utility.yul\":334:411   */\n      swap2\n      swap1\n      pop\n      jump\t// out\n        /* \"#utility.yul\":417:539   */\n    tag_42:\n        /* \"#utility.yul\":490:514   */\n      tag_60\n        /* \"#utility.yul\":508:513   */\n      dup2\n        /* \"#utility.yul\":490:514   */\n      tag_41\n      jump\t// in\n    tag_60:\n        /* \"#utility.yul\":483:488   */\n      dup2\n        /* \"#utility.yul\":480:515   */\n      eq\n        /* \"#utility.yul\":470:533   */\n      tag_61\n      jumpi\n        /* \"#utility.yul\":529:530   */\n      0x00\n        /* \"#utility.yul\":526:527   */\n      dup1\n        /* \"#utility.yul\":519:531   */\n      revert\n        /* \"#utility.yul\":470:533   */\n    tag_61:\n        /* \"#utility.yul\":417:539   */\n      pop\n      jump\t// out\n        /* \"#utility.yul\":545:684   */\n    tag_43:\n        /* \"#utility.yul\":591:596   */\n      0x00\n        /* \"#utility.yul\":629:635   */\n      dup2\n        /* \"#utility.yul\":616:636   */\n      calldataload\n        /* \"#utility.yul\":607:636   */\n      swap1\n      pop\n        /* \"#utility.yul\":645:678   */\n      tag_63\n        /* \"#utility.yul\":672:677   */\n      dup2\n        /* \"#utility.yul\":645:678   */\n      tag_42\n      jump\t// in\n    tag_63:\n        /* \"#utility.yul\":545:684   */\n      swap3\n      swap2\n      pop\n      pop\n      jump\t// out\n        /* \"#utility.yul\":690:1019   */\n    tag_10:\n        /* \"#utility.yul\":749:755   */\n      0x00\n        /* \"#utility.yul\":798:800   */\n      0x20\n        /* \"#utility.yul\":786:795   */\n      dup3\n        /* \"#utility.yul\":777:784   */\n      dup5\n        /* \"#utility.yul\":773:796   */\n      sub\n        /* \"#utility.yul\":769:801   */\n      slt\n        /* \"#utility.yul\":766:885   */\n      iszero\n      tag_65\n      jumpi\n        /* \"#utility.yul\":804:883   */\n      tag_66\n      tag_39\n      jump\t// in\n    tag_66:\n        /* \"#utility.yul\":766:885   */\n    tag_65:\n        /* \"#utility.yul\":924:925   */\n      0x00\n        /* \"#utility.yul\":949:1002   */\n      tag_67\n        /* \"#utility.yul\":994:1001   */\n      dup5\n        /* \"#utility.yul\":985:991   */\n      dup3\n        /* \"#utility.yul\":974:983   */\n      dup6\n        /* \"#utility.yul\":970:992   */\n      add\n        /* \"#utility.yul\":949:1002   */\n      tag_43\n      jump\t// in\n    tag_67:\n        /* \"#utility.yul\":939:1002   */\n      swap2\n      pop\n        /* \"#utility.yul\":895:1012   */\n      pop\n        /* \"#utility.yul\":690:1019   */\n      swap3\n      swap2\n      pop\n      pop\n      jump\t// out\n        /* \"#utility.yul\":1025:1151   */\n    tag_44:\n        /* \"#utility.yul\":1062:1069   */\n      0x00\n        /* \"#utility.yul\":1102:1144   */\n      0xffffffffffffffffffffffffffffffffffffffff\n        /* \"#utility.yul\":1095:1100   */\n      dup3\n        /* \"#utility.yul\":1091:1145   */\n      and\n        /* \"#utility.yul\":1080:1145   */\n      swap1\n      pop\n        /* \"#utility.yul\":1025:1151   */\n      swap2\n      swap1\n      pop\n      jump\t// out\n        /* \"#utility.yul\":1157:1217   */\n    tag_45:\n        /* \"#utility.yul\":1185:1188   */\n      0x00\n        /* \"#utility.yul\":1206:1211   */\n      dup2\n        /* \"#utility.yul\":1199:1211   */\n      swap1\n      pop\n        /* \"#utility.yul\":1157:1217   */\n      swap2\n      swap1\n      pop\n      jump\t// out\n        /* \"#utility.yul\":1223:1365   */\n    tag_46:\n        /* \"#utility.yul\":1273:1282   */\n      0x00\n        /* \"#utility.yul\":1306:1359   */\n      tag_71\n        /* \"#utility.yul\":1324:1358   */\n      tag_72\n        /* \"#utility.yul\":1333:1357   */\n      tag_73\n        /* \"#utility.yul\":1351:1356   */\n      dup5\n        /* \"#utility.yul\":1333:1357   */\n      tag_44\n      jump\t// in\n    tag_73:\n        /* \"#utility.yul\":1324:1358   */\n      tag_45\n      jump\t// in\n    tag_72:\n        /* \"#utility.yul\":1306:1359   */\n      tag_44\n      jump\t// in\n    tag_71:\n        /* \"#utility.yul\":1293:1359   */\n      swap1\n      pop\n        /* \"#utility.yul\":1223:1365   */\n      swap2\n      swap1\n      pop\n      jump\t// out\n        /* \"#utility.yul\":1371:1497   */\n    tag_47:\n        /* \"#utility.yul\":1421:1430   */\n      0x00\n        /* \"#utility.yul\":1454:1491   */\n      tag_75\n        /* \"#utility.yul\":1485:1490   */\n      dup3\n        /* \"#utility.yul\":1454:1491   */\n      tag_46\n      jump\t// in\n    tag_75:\n        /* \"#utility.yul\":1441:1491   */\n      swap1\n      pop\n        /* \"#utility.yul\":1371:1497   */\n      swap2\n      swap1\n      pop\n      jump\t// out\n        /* \"#utility.yul\":1503:1660   */\n    tag_48:\n        /* \"#utility.yul\":1584:1593   */\n      0x00\n        /* \"#utility.yul\":1617:1654   */\n      tag_77\n        /* \"#utility.yul\":1648:1653   */\n      dup3\n        /* \"#utility.yul\":1617:1654   */\n      tag_47\n      jump\t// in\n    tag_77:\n        /* \"#utility.yul\":1604:1654   */\n      swap1\n      pop\n        /* \"#utility.yul\":1503:1660   */\n      swap2\n      swap1\n      pop\n      jump\t// out\n        /* \"#utility.yul\":1666:1859   */\n    tag_49:\n        /* \"#utility.yul\":1784:1852   */\n      tag_79\n        /* \"#utility.yul\":1846:1851   */\n      dup2\n        /* \"#utility.yul\":1784:1852   */\n      tag_48\n      jump\t// in\n    tag_79:\n        /* \"#utility.yul\":1779:1782   */\n      dup3\n        /* \"#utility.yul\":1772:1853   */\n      mstore\n        /* \"#utility.yul\":1666:1859   */\n      pop\n      pop\n      jump\t// out\n        /* \"#utility.yul\":1865:2149   */\n    tag_13:\n        /* \"#utility.yul\":1989:1993   */\n      0x00\n        /* \"#utility.yul\":2027:2029   */\n      0x20\n        /* \"#utility.yul\":2016:2025   */\n      dup3\n        /* \"#utility.yul\":2012:2030   */\n      add\n        /* \"#utility.yul\":2004:2030   */\n      swap1\n      pop\n        /* \"#utility.yul\":2040:2142   */\n      tag_81\n        /* \"#utility.yul\":2139:2140   */\n      0x00\n        /* \"#utility.yul\":2128:2137   */\n      dup4\n        /* \"#utility.yul\":2124:2141   */\n      add\n        /* \"#utility.yul\":2115:2121   */\n      dup5\n        /* \"#utility.yul\":2040:2142   */\n      tag_49\n      jump\t// in\n    tag_81:\n        /* \"#utility.yul\":1865:2149   */\n      swap3\n      swap2\n      pop\n      pop\n      jump\t// out\n        /* \"#utility.yul\":2155:2251   */\n    tag_50:\n        /* \"#utility.yul\":2192:2199   */\n      0x00\n        /* \"#utility.yul\":2221:2245   */\n      tag_83\n        /* \"#utility.yul\":2239:2244   */\n      dup3\n        /* \"#utility.yul\":2221:2245   */\n      tag_44\n      jump\t// in\n    tag_83:\n        /* \"#utility.yul\":2210:2245   */\n      swap1\n      pop\n        /* \"#utility.yul\":2155:2251   */\n      swap2\n      swap1\n      pop\n      jump\t// out\n        /* \"#utility.yul\":2257:2375   */\n    tag_51:\n        /* \"#utility.yul\":2344:2368   */\n      tag_85\n        /* \"#utility.yul\":2362:2367   */\n      dup2\n        /* \"#utility.yul\":2344:2368   */\n      tag_50\n      jump\t// in\n    tag_85:\n        /* \"#utility.yul\":2339:2342   */\n      dup3\n        /* \"#utility.yul\":2332:2369   */\n      mstore\n        /* \"#utility.yul\":2257:2375   */\n      pop\n      pop\n      jump\t// out\n        /* \"#utility.yul\":2381:2603   */\n    tag_18:\n        /* \"#utility.yul\":2474:2478   */\n      0x00\n        /* \"#utility.yul\":2512:2514   */\n      0x20\n        /* \"#utility.yul\":2501:2510   */\n      dup3\n        /* \"#utility.yul\":2497:2515   */\n      add\n        /* \"#utility.yul\":2489:2515   */\n      swap1\n      pop\n        /* \"#utility.yul\":2525:2596   */\n      tag_87\n        /* \"#utility.yul\":2593:2594   */\n      0x00\n        /* \"#utility.yul\":2582:2591   */\n      dup4\n        /* \"#utility.yul\":2578:2595   */\n      add\n        /* \"#utility.yul\":2569:2575   */\n      dup5\n        /* \"#utility.yul\":2525:2596   */\n      tag_51\n      jump\t// in\n    tag_87:\n        /* \"#utility.yul\":2381:2603   */\n      swap3\n      swap2\n      pop\n      pop\n      jump\t// out\n        /* \"#utility.yul\":2609:2789   */\n    tag_32:\n        /* \"#utility.yul\":2657:2734   */\n      0x4e487b7100000000000000000000000000000000000000000000000000000000\n        /* \"#utility.yul\":2654:2655   */\n      0x00\n        /* \"#utility.yul\":2647:2735   */\n      mstore\n        /* \"#utility.yul\":2754:2758   */\n      0x32\n        /* \"#utility.yul\":2751:2752   */\n      0x04\n        /* \"#utility.yul\":2744:2759   */\n      mstore\n        /* \"#utility.yul\":2778:2782   */\n      0x24\n        /* \"#utility.yul\":2775:2776   */\n      0x00\n        /* \"#utility.yul\":2768:2783   */\n      revert\n        /* \"#utility.yul\":2795:2917   */\n    tag_52:\n        /* \"#utility.yul\":2868:2892   */\n      tag_90\n        /* \"#utility.yul\":2886:2891   */\n      dup2\n        /* \"#utility.yul\":2868:2892   */\n      tag_50\n      jump\t// in\n    tag_90:\n        /* \"#utility.yul\":2861:2866   */\n      dup2\n        /* \"#utility.yul\":2858:2893   */\n      eq\n        /* \"#utility.yul\":2848:2911   */\n      tag_91\n      jumpi\n        /* \"#utility.yul\":2907:2908   */\n      0x00\n        /* \"#utility.yul\":2904:2905   */\n      dup1\n        /* \"#utility.yul\":2897:2909   */\n      revert\n        /* \"#utility.yul\":2848:2911   */\n    tag_91:\n        /* \"#utility.yul\":2795:2917   */\n      pop\n      jump\t// out\n        /* \"#utility.yul\":2923:3066   */\n    tag_53:\n        /* \"#utility.yul\":2980:2985   */\n      0x00\n        /* \"#utility.yul\":3011:3017   */\n      dup2\n        /* \"#utility.yul\":3005:3018   */\n      mload\n        /* \"#utility.yul\":2996:3018   */\n      swap1\n      pop\n        /* \"#utility.yul\":3027:3060   */\n      tag_93\n        /* \"#utility.yul\":3054:3059   */\n      dup2\n        /* \"#utility.yul\":3027:3060   */\n      tag_52\n      jump\t// in\n    tag_93:\n        /* \"#utility.yul\":2923:3066   */\n      swap3\n      swap2\n      pop\n      pop\n      jump\t// out\n        /* \"#utility.yul\":3072:3423   */\n    tag_37:\n        /* \"#utility.yul\":3142:3148   */\n      0x00\n        /* \"#utility.yul\":3191:3193   */\n      0x20\n        /* \"#utility.yul\":3179:3188   */\n      dup3\n        /* \"#utility.yul\":3170:3177   */\n      dup5\n        /* \"#utility.yul\":3166:3189   */\n      sub\n        /* \"#utility.yul\":3162:3194   */\n      slt\n        /* \"#utility.yul\":3159:3278   */\n      iszero\n      tag_95\n      jumpi\n        /* \"#utility.yul\":3197:3276   */\n      tag_96\n      tag_39\n      jump\t// in\n    tag_96:\n        /* \"#utility.yul\":3159:3278   */\n    tag_95:\n        /* \"#utility.yul\":3317:3318   */\n      0x00\n        /* \"#utility.yul\":3342:3406   */\n      tag_97\n        /* \"#utility.yul\":3398:3405   */\n      dup5\n        /* \"#utility.yul\":3389:3395   */\n      dup3\n        /* \"#utility.yul\":3378:3387   */\n      dup6\n        /* \"#utility.yul\":3374:3396   */\n      add\n        /* \"#utility.yul\":3342:3406   */\n      tag_53\n      jump\t// in\n    tag_97:\n        /* \"#utility.yul\":3332:3406   */\n      swap2\n      pop\n        /* \"#utility.yul\":3288:3416   */\n      pop\n        /* \"#utility.yul\":3072:3423   */\n      swap3\n      swap2\n      pop\n      pop\n      jump\t// out\n    stop\n\n    sub_0: assembly {\n            /* \"Factory.sol\":447:644  contract ASuperFancySmartContract{... */\n          mstore(0x40, 0x80)\n            /* \"Factory.sol\":514:562  constructor(){... */\n          callvalue\n          dup1\n          iszero\n          tag_1\n          jumpi\n          0x00\n          dup1\n          revert\n        tag_1:\n          pop\n            /* \"Factory.sol\":544:554  msg.sender */\n          caller\n            /* \"Factory.sol\":538:543  owner */\n          0x00\n          dup1\n            /* \"Factory.sol\":538:554  owner=msg.sender */\n          0x0100\n          exp\n          dup2\n          sload\n          dup2\n          0xffffffffffffffffffffffffffffffffffffffff\n          mul\n          not\n          and\n          swap1\n          dup4\n          0xffffffffffffffffffffffffffffffffffffffff\n          and\n          mul\n          or\n          swap1\n          sstore\n          pop\n            /* \"Factory.sol\":447:644  contract ASuperFancySmartContract{... */\n          dataSize(sub_0)\n          dup1\n          dataOffset(sub_0)\n          0x00\n          codecopy\n          0x00\n          return\n        stop\n\n        sub_0: assembly {\n                /* \"Factory.sol\":447:644  contract ASuperFancySmartContract{... */\n              mstore(0x40, 0x80)\n              callvalue\n              dup1\n              iszero\n              tag_1\n              jumpi\n              0x00\n              dup1\n              revert\n            tag_1:\n              pop\n              jumpi(tag_2, lt(calldatasize, 0x04))\n              shr(0xe0, calldataload(0x00))\n              dup1\n              0x72622efc\n              eq\n              tag_3\n              jumpi\n              dup1\n              0x8da5cb5b\n              eq\n              tag_4\n              jumpi\n            tag_2:\n              0x00\n              dup1\n              revert\n                /* \"Factory.sol\":568:641  function doesSuperFancyStuff()public {... */\n            tag_3:\n              tag_5\n              tag_6\n              jump\t// in\n            tag_5:\n              stop\n                /* \"Factory.sol\":487:507  address public owner */\n            tag_4:\n              tag_7\n              tag_8\n              jump\t// in\n            tag_7:\n              mload(0x40)\n              tag_9\n              swap2\n              swap1\n              tag_10\n              jump\t// in\n            tag_9:\n              mload(0x40)\n              dup1\n              swap2\n              sub\n              swap1\n              return\n                /* \"Factory.sol\":568:641  function doesSuperFancyStuff()public {... */\n            tag_6:\n              jump\t// out\n                /* \"Factory.sol\":487:507  address public owner */\n            tag_8:\n              0x00\n              dup1\n              sload\n              swap1\n              0x0100\n              exp\n              swap1\n              div\n              0xffffffffffffffffffffffffffffffffffffffff\n              and\n              dup2\n              jump\t// out\n                /* \"#utility.yul\":7:133   */\n            tag_12:\n                /* \"#utility.yul\":44:51   */\n              0x00\n                /* \"#utility.yul\":84:126   */\n              0xffffffffffffffffffffffffffffffffffffffff\n                /* \"#utility.yul\":77:82   */\n              dup3\n                /* \"#utility.yul\":73:127   */\n              and\n                /* \"#utility.yul\":62:127   */\n              swap1\n              pop\n                /* \"#utility.yul\":7:133   */\n              swap2\n              swap1\n              pop\n              jump\t// out\n                /* \"#utility.yul\":139:235   */\n            tag_13:\n                /* \"#utility.yul\":176:183   */\n              0x00\n                /* \"#utility.yul\":205:229   */\n              tag_18\n                /* \"#utility.yul\":223:228   */\n              dup3\n                /* \"#utility.yul\":205:229   */\n              tag_12\n              jump\t// in\n            tag_18:\n                /* \"#utility.yul\":194:229   */\n              swap1\n              pop\n                /* \"#utility.yul\":139:235   */\n              swap2\n              swap1\n              pop\n              jump\t// out\n                /* \"#utility.yul\":241:359   */\n            tag_14:\n                /* \"#utility.yul\":328:352   */\n              tag_20\n                /* \"#utility.yul\":346:351   */\n              dup2\n                /* \"#utility.yul\":328:352   */\n              tag_13\n              jump\t// in\n            tag_20:\n                /* \"#utility.yul\":323:326   */\n              dup3\n                /* \"#utility.yul\":316:353   */\n              mstore\n                /* \"#utility.yul\":241:359   */\n              pop\n              pop\n              jump\t// out\n                /* \"#utility.yul\":365:587   */\n            tag_10:\n                /* \"#utility.yul\":458:462   */\n              0x00\n                /* \"#utility.yul\":496:498   */\n              0x20\n                /* \"#utility.yul\":485:494   */\n              dup3\n                /* \"#utility.yul\":481:499   */\n              add\n                /* \"#utility.yul\":473:499   */\n              swap1\n              pop\n                /* \"#utility.yul\":509:580   */\n              tag_22\n                /* \"#utility.yul\":577:578   */\n              0x00\n                /* \"#utility.yul\":566:575   */\n              dup4\n                /* \"#utility.yul\":562:579   */\n              add\n                /* \"#utility.yul\":553:559   */\n              dup5\n                /* \"#utility.yul\":509:580   */\n              tag_14\n              jump\t// in\n            tag_22:\n                /* \"#utility.yul\":365:587   */\n              swap3\n              swap2\n              pop\n              pop\n              jump\t// out\n\n            auxdata: 0xa26469706673582212207b0c429f391c6b05dccecaf1dc03fe14d57ab85784d96828254b9fcb206d8bd764736f6c634300081a0033\n        }\n    }\n\n    auxdata: 0xa26469706673582212200ac5f4fc375c9ce68a3afb89b0a73a896eebaff4ab50fc3b1a7c2e280070125264736f6c634300081a0033\n}\n",
				"bytecode": {
					"linkReferences": {},
					"object": "6080604052348015600e575f80fd5b506105cd8061001c5f395ff3fe608060405234801561000f575f80fd5b506004361061003f575f3560e01c8063124c3eaf14610043578063c04fcafe1461004d578063da15b0091461007d575b5f80fd5b61004b6100ad565b005b610067600480360381019061006291906102c0565b610193565b6040516100749190610365565b60405180910390f35b610097600480360381019061009291906102c0565b6101cd565b6040516100a4919061039e565b60405180910390f35b5f6040516100ba9061027c565b604051809103905ff0801580156100d3573d5f803e3d5ffd5b5090508073ffffffffffffffffffffffffffffffffffffffff166372622efc6040518163ffffffff1660e01b81526004015f604051808303815f87803b15801561011b575f80fd5b505af115801561012d573d5f803e3d5ffd5b505050505f81908060018154018082558091505060019003905f5260205f20015f9091909190916101000a81548173ffffffffffffffffffffffffffffffffffffffff021916908373ffffffffffffffffffffffffffffffffffffffff16021790555050565b5f81815481106101a1575f80fd5b905f5260205f20015f915054906101000a900473ffffffffffffffffffffffffffffffffffffffff1681565b5f8082815481106101e1576101e06103b7565b5b905f5260205f20015f9054906101000a900473ffffffffffffffffffffffffffffffffffffffff1673ffffffffffffffffffffffffffffffffffffffff16638da5cb5b6040518163ffffffff1660e01b8152600401602060405180830381865afa158015610251573d5f803e3d5ffd5b505050506040513d601f19601f82011682018060405250810190610275919061040e565b9050919050565b61015e8061043a83390190565b5f80fd5b5f819050919050565b61029f8161028d565b81146102a9575f80fd5b50565b5f813590506102ba81610296565b92915050565b5f602082840312156102d5576102d4610289565b5b5f6102e2848285016102ac565b91505092915050565b5f73ffffffffffffffffffffffffffffffffffffffff82169050919050565b5f819050919050565b5f61032d610328610323846102eb565b61030a565b6102eb565b9050919050565b5f61033e82610313565b9050919050565b5f61034f82610334565b9050919050565b61035f81610345565b82525050565b5f6020820190506103785f830184610356565b92915050565b5f610388826102eb565b9050919050565b6103988161037e565b82525050565b5f6020820190506103b15f83018461038f565b92915050565b7f4e487b71000000000000000000000000000000000000000000000000000000005f52603260045260245ffd5b6103ed8161037e565b81146103f7575f80fd5b50565b5f81519050610408816103e4565b92915050565b5f6020828403121561042357610422610289565b5b5f610430848285016103fa565b9150509291505056fe6080604052348015600e575f80fd5b50335f806101000a81548173ffffffffffffffffffffffffffffffffffffffff021916908373ffffffffffffffffffffffffffffffffffffffff1602179055506101038061005b5f395ff3fe6080604052348015600e575f80fd5b50600436106030575f3560e01c806372622efc1460345780638da5cb5b14603c575b5f80fd5b603a6056565b005b60426058565b604051604d919060b6565b60405180910390f35b565b5f8054906101000a900473ffffffffffffffffffffffffffffffffffffffff1681565b5f73ffffffffffffffffffffffffffffffffffffffff82169050919050565b5f60a282607b565b9050919050565b60b081609a565b82525050565b5f60208201905060c75f83018460a9565b9291505056fea26469706673582212207b0c429f391c6b05dccecaf1dc03fe14d57ab85784d96828254b9fcb206d8bd764736f6c634300081a0033a26469706673582212200ac5f4fc375c9ce68a3afb89b0a73a896eebaff4ab50fc3b1a7c2e280070125264736f6c634300081a0033",
					"opcodes": "PUSH1 0x80 PUSH1 0x40 MSTORE CALLVALUE DUP1 ISZERO PUSH1 0xE JUMPI PUSH0 DUP1 REVERT JUMPDEST POP PUSH2 0x5CD DUP1 PUSH2 0x1C PUSH0 CODECOPY PUSH0 RETURN INVALID PUSH1 0x80 PUSH1 0x40 MSTORE CALLVALUE DUP1 ISZERO PUSH2 0xF JUMPI PUSH0 DUP1 REVERT JUMPDEST POP PUSH1 0x4 CALLDATASIZE LT PUSH2 0x3F JUMPI PUSH0 CALLDATALOAD PUSH1 0xE0 SHR DUP1 PUSH4 0x124C3EAF EQ PUSH2 0x43 JUMPI DUP1 PUSH4 0xC04FCAFE EQ PUSH2 0x4D JUMPI DUP1 PUSH4 0xDA15B009 EQ PUSH2 0x7D JUMPI JUMPDEST PUSH0 DUP1 REVERT JUMPDEST PUSH2 0x4B PUSH2 0xAD JUMP JUMPDEST STOP JUMPDEST PUSH2 0x67 PUSH1 0x4 DUP1 CALLDATASIZE SUB DUP2 ADD SWAP1 PUSH2 0x62 SWAP2 SWAP1 PUSH2 0x2C0 JUMP JUMPDEST PUSH2 0x193 JUMP JUMPDEST PUSH1 0x40 MLOAD PUSH2 0x74 SWAP2 SWAP1 PUSH2 0x365 JUMP JUMPDEST PUSH1 0x40 MLOAD DUP1 SWAP2 SUB SWAP1 RETURN JUMPDEST PUSH2 0x97 PUSH1 0x4 DUP1 CALLDATASIZE SUB DUP2 ADD SWAP1 PUSH2 0x92 SWAP2 SWAP1 PUSH2 0x2C0 JUMP JUMPDEST PUSH2 0x1CD JUMP JUMPDEST PUSH1 0x40 MLOAD PUSH2 0xA4 SWAP2 SWAP1 PUSH2 0x39E JUMP JUMPDEST PUSH1 0x40 MLOAD DUP1 SWAP2 SUB SWAP1 RETURN JUMPDEST PUSH0 PUSH1 0x40 MLOAD PUSH2 0xBA SWAP1 PUSH2 0x27C JUMP JUMPDEST PUSH1 0x40 MLOAD DUP1 SWAP2 SUB SWAP1 PUSH0 CREATE DUP1 ISZERO DUP1 ISZERO PUSH2 0xD3 JUMPI RETURNDATASIZE PUSH0 DUP1 RETURNDATACOPY RETURNDATASIZE PUSH0 REVERT JUMPDEST POP SWAP1 POP DUP1 PUSH20 0xFFFFFFFFFFFFFFFFFFFFFFFFFFFFFFFFFFFFFFFF AND PUSH4 0x72622EFC PUSH1 0x40 MLOAD DUP2 PUSH4 0xFFFFFFFF AND PUSH1 0xE0 SHL DUP2 MSTORE PUSH1 0x4 ADD PUSH0 PUSH1 0x40 MLOAD DUP1 DUP4 SUB DUP2 PUSH0 DUP8 DUP1 EXTCODESIZE ISZERO DUP1 ISZERO PUSH2 0x11B JUMPI PUSH0 DUP1 REVERT JUMPDEST POP GAS CALL ISZERO DUP1 ISZERO PUSH2 0x12D JUMPI RETURNDATASIZE PUSH0 DUP1 RETURNDATACOPY RETURNDATASIZE PUSH0 REVERT JUMPDEST POP POP POP POP PUSH0 DUP2 SWAP1 DUP1 PUSH1 0x1 DUP2 SLOAD ADD DUP1 DUP3 SSTORE DUP1 SWAP2 POP POP PUSH1 0x1 SWAP1 SUB SWAP1 PUSH0 MSTORE PUSH1 0x20 PUSH0 KECCAK256 ADD PUSH0 SWAP1 SWAP2 SWAP1 SWAP2 SWAP1 SWAP2 PUSH2 0x100 EXP DUP2 SLOAD DUP2 PUSH20 0xFFFFFFFFFFFFFFFFFFFFFFFFFFFFFFFFFFFFFFFF MUL NOT AND SWAP1 DUP4 PUSH20 0xFFFFFFFFFFFFFFFFFFFFFFFFFFFFFFFFFFFFFFFF AND MUL OR SWAP1 SSTORE POP POP JUMP JUMPDEST PUSH0 DUP2 DUP2 SLOAD DUP2 LT PUSH2 0x1A1 JUMPI PUSH0 DUP1 REVERT JUMPDEST SWAP1 PUSH0 MSTORE PUSH1 0x20 PUSH0 KECCAK256 ADD PUSH0 SWAP2 POP SLOAD SWAP1 PUSH2 0x100 EXP SWAP1 DIV PUSH20 0xFFFFFFFFFFFFFFFFFFFFFFFFFFFFFFFFFFFFFFFF AND DUP2 JUMP JUMPDEST PUSH0 DUP1 DUP3 DUP2 SLOAD DUP2 LT PUSH2 0x1E1 JUMPI PUSH2 0x1E0 PUSH2 0x3B7 JUMP JUMPDEST JUMPDEST SWAP1 PUSH0 MSTORE PUSH1 0x20 PUSH0 KECCAK256 ADD PUSH0 SWAP1 SLOAD SWAP1 PUSH2 0x100 EXP SWAP1 DIV PUSH20 0xFFFFFFFFFFFFFFFFFFFFFFFFFFFFFFFFFFFFFFFF AND PUSH20 0xFFFFFFFFFFFFFFFFFFFFFFFFFFFFFFFFFFFFFFFF AND PUSH4 0x8DA5CB5B PUSH1 0x40 MLOAD DUP2 PUSH4 0xFFFFFFFF AND PUSH1 0xE0 SHL DUP2 MSTORE PUSH1 0x4 ADD PUSH1 0x20 PUSH1 0x40 MLOAD DUP1 DUP4 SUB DUP2 DUP7 GAS STATICCALL ISZERO DUP1 ISZERO PUSH2 0x251 JUMPI RETURNDATASIZE PUSH0 DUP1 RETURNDATACOPY RETURNDATASIZE PUSH0 REVERT JUMPDEST POP POP POP POP PUSH1 0x40 MLOAD RETURNDATASIZE PUSH1 0x1F NOT PUSH1 0x1F DUP3 ADD AND DUP3 ADD DUP1 PUSH1 0x40 MSTORE POP DUP2 ADD SWAP1 PUSH2 0x275 SWAP2 SWAP1 PUSH2 0x40E JUMP JUMPDEST SWAP1 POP SWAP2 SWAP1 POP JUMP JUMPDEST PUSH2 0x15E DUP1 PUSH2 0x43A DUP4 CODECOPY ADD SWAP1 JUMP JUMPDEST PUSH0 DUP1 REVERT JUMPDEST PUSH0 DUP2 SWAP1 POP SWAP2 SWAP1 POP JUMP JUMPDEST PUSH2 0x29F DUP2 PUSH2 0x28D JUMP JUMPDEST DUP2 EQ PUSH2 0x2A9 JUMPI PUSH0 DUP1 REVERT JUMPDEST POP JUMP JUMPDEST PUSH0 DUP2 CALLDATALOAD SWAP1 POP PUSH2 0x2BA DUP2 PUSH2 0x296 JUMP JUMPDEST SWAP3 SWAP2 POP POP JUMP JUMPDEST PUSH0 PUSH1 0x20 DUP3 DUP5 SUB SLT ISZERO PUSH2 0x2D5 JUMPI PUSH2 0x2D4 PUSH2 0x289 JUMP JUMPDEST JUMPDEST PUSH0 PUSH2 0x2E2 DUP5 DUP3 DUP6 ADD PUSH2 0x2AC JUMP JUMPDEST SWAP2 POP POP SWAP3 SWAP2 POP POP JUMP JUMPDEST PUSH0 PUSH20 0xFFFFFFFFFFFFFFFFFFFFFFFFFFFFFFFFFFFFFFFF DUP3 AND SWAP1 POP SWAP2 SWAP1 POP JUMP JUMPDEST PUSH0 DUP2 SWAP1 POP SWAP2 SWAP1 POP JUMP JUMPDEST PUSH0 PUSH2 0x32D PUSH2 0x328 PUSH2 0x323 DUP5 PUSH2 0x2EB JUMP JUMPDEST PUSH2 0x30A JUMP JUMPDEST PUSH2 0x2EB JUMP JUMPDEST SWAP1 POP SWAP2 SWAP1 POP JUMP JUMPDEST PUSH0 PUSH2 0x33E DUP3 PUSH2 0x313 JUMP JUMPDEST SWAP1 POP SWAP2 SWAP1 POP JUMP JUMPDEST PUSH0 PUSH2 0x34F DUP3 PUSH2 0x334 JUMP JUMPDEST SWAP1 POP SWAP2 SWAP1 POP JUMP JUMPDEST PUSH2 0x35F DUP2 PUSH2 0x345 JUMP JUMPDEST DUP3 MSTORE POP POP JUMP JUMPDEST PUSH0 PUSH1 0x20 DUP3 ADD SWAP1 POP PUSH2 0x378 PUSH0 DUP4 ADD DUP5 PUSH2 0x356 JUMP JUMPDEST SWAP3 SWAP2 POP POP JUMP JUMPDEST PUSH0 PUSH2 0x388 DUP3 PUSH2 0x2EB JUMP JUMPDEST SWAP1 POP SWAP2 SWAP1 POP JUMP JUMPDEST PUSH2 0x398 DUP2 PUSH2 0x37E JUMP JUMPDEST DUP3 MSTORE POP POP JUMP JUMPDEST PUSH0 PUSH1 0x20 DUP3 ADD SWAP1 POP PUSH2 0x3B1 PUSH0 DUP4 ADD DUP5 PUSH2 0x38F JUMP JUMPDEST SWAP3 SWAP2 POP POP JUMP JUMPDEST PUSH32 0x4E487B7100000000000000000000000000000000000000000000000000000000 PUSH0 MSTORE PUSH1 0x32 PUSH1 0x4 MSTORE PUSH1 0x24 PUSH0 REVERT JUMPDEST PUSH2 0x3ED DUP2 PUSH2 0x37E JUMP JUMPDEST DUP2 EQ PUSH2 0x3F7 JUMPI PUSH0 DUP1 REVERT JUMPDEST POP JUMP JUMPDEST PUSH0 DUP2 MLOAD SWAP1 POP PUSH2 0x408 DUP2 PUSH2 0x3E4 JUMP JUMPDEST SWAP3 SWAP2 POP POP JUMP JUMPDEST PUSH0 PUSH1 0x20 DUP3 DUP5 SUB SLT ISZERO PUSH2 0x423 JUMPI PUSH2 0x422 PUSH2 0x289 JUMP JUMPDEST JUMPDEST PUSH0 PUSH2 0x430 DUP5 DUP3 DUP6 ADD PUSH2 0x3FA JUMP JUMPDEST SWAP2 POP POP SWAP3 SWAP2 POP POP JUMP INVALID PUSH1 0x80 PUSH1 0x40 MSTORE CALLVALUE DUP1 ISZERO PUSH1 0xE JUMPI PUSH0 DUP1 REVERT JUMPDEST POP CALLER PUSH0 DUP1 PUSH2 0x100 EXP DUP2 SLOAD DUP2 PUSH20 0xFFFFFFFFFFFFFFFFFFFFFFFFFFFFFFFFFFFFFFFF MUL NOT AND SWAP1 DUP4 PUSH20 0xFFFFFFFFFFFFFFFFFFFFFFFFFFFFFFFFFFFFFFFF AND MUL OR SWAP1 SSTORE POP PUSH2 0x103 DUP1 PUSH2 0x5B PUSH0 CODECOPY PUSH0 RETURN INVALID PUSH1 0x80 PUSH1 0x40 MSTORE CALLVALUE DUP1 ISZERO PUSH1 0xE JUMPI PUSH0 DUP1 REVERT JUMPDEST POP PUSH1 0x4 CALLDATASIZE LT PUSH1 0x30 JUMPI PUSH0 CALLDATALOAD PUSH1 0xE0 SHR DUP1 PUSH4 0x72622EFC EQ PUSH1 0x34 JUMPI DUP1 PUSH4 0x8DA5CB5B EQ PUSH1 0x3C JUMPI JUMPDEST PUSH0 DUP1 REVERT JUMPDEST PUSH1 0x3A PUSH1 0x56 JUMP JUMPDEST STOP JUMPDEST PUSH1 0x42 PUSH1 0x58 JUMP JUMPDEST PUSH1 0x40 MLOAD PUSH1 0x4D SWAP2 SWAP1 PUSH1 0xB6 JUMP JUMPDEST PUSH1 0x40 MLOAD DUP1 SWAP2 SUB SWAP1 RETURN JUMPDEST JUMP JUMPDEST PUSH0 DUP1 SLOAD SWAP1 PUSH2 0x100 EXP SWAP1 DIV PUSH20 0xFFFFFFFFFFFFFFFFFFFFFFFFFFFFFFFFFFFFFFFF AND DUP2 JUMP JUMPDEST PUSH0 PUSH20 0xFFFFFFFFFFFFFFFFFFFFFFFFFFFFFFFFFFFFFFFF DUP3 AND SWAP1 POP SWAP2 SWAP1 POP JUMP JUMPDEST PUSH0 PUSH1 0xA2 DUP3 PUSH1 0x7B JUMP JUMPDEST SWAP1 POP SWAP2 SWAP1 POP JUMP JUMPDEST PUSH1 0xB0 DUP2 PUSH1 0x9A JUMP JUMPDEST DUP3 MSTORE POP POP JUMP JUMPDEST PUSH0 PUSH1 0x20 DUP3 ADD SWAP1 POP PUSH1 0xC7 PUSH0 DUP4 ADD DUP5 PUSH1 0xA9 JUMP JUMPDEST SWAP3 SWAP2 POP POP JUMP INVALID LOG2 PUSH5 0x6970667358 0x22 SLT KECCAK256 PUSH28 0xC429F391C6B05DCCECAF1DC03FE14D57AB85784D96828254B9FCB20 PUSH14 0x8BD764736F6C634300081A0033A2 PUSH5 0x6970667358 0x22 SLT KECCAK256 EXP 0xC5 DELEGATECALL 0xFC CALLDATACOPY TLOAD SWAP13 0xE6 DUP11 GASPRICE 0xFB DUP10 0xB0 0xA7 GASPRICE DUP10 PUSH15 0xEBAFF4AB50FC3B1A7C2E2800701252 PUSH5 0x736F6C6343 STOP ADDMOD BYTE STOP CALLER "
				},
				"gasEstimates": {
					"creation": {
						"codeDepositCost": "297000",
						"executionCost": "335",
						"totalCost": "297335"
					},
					"external": {
						"arrayOfContract(uint256)": "infinite",
						"checkingOwner(uint256)": "infinite",
						"publishing()": "infinite"
					}
				},
				"methodIdentifiers": {
					"arrayOfContract(uint256)": "c04fcafe",
					"checkingOwner(uint256)": "da15b009",
					"publishing()": "124c3eaf"
				}
			},
			"storageLayout": {
				"storage": [
					{
						"astId": 5,
						"contract": "Factory.sol:Factory",
						"label": "arrayOfContract",
						"offset": 0,
						"slot": "0",
						"type": "t_array(t_contract(ASuperFancySmartContract)59)dyn_storage"
					}
				],
				"types": {
					"t_array(t_contract(ASuperFancySmartContract)59)dyn_storage": {
						"base": "t_contract(ASuperFancySmartContract)59",
						"encoding": "dynamic_array",
						"label": "contract ASuperFancySmartContract[]",
						"numberOfBytes": "32"
					},
					"t_contract(ASuperFancySmartContract)59": {
						"encoding": "inplace",
						"label": "contract ASuperFancySmartContract",
						"numberOfBytes": "20"
					}
				}
			},
			"userdoc": {
				"kind": "user",
				"methods": {},
				"version": 1
			}
		}
	}
}