{
	"FundMe.sol": {
		"FundME": {
			"abi": [
				{
					"inputs": [],
					"stateMutability": "nonpayable",
					"type": "constructor"
				},
				{
					"inputs": [],
					"name": "NoOwner",
					"type": "error"
				},
				{
					"stateMutability": "payable",
					"type": "fallback"
				},
				{
					"inputs": [
						{
							"internalType": "address",
							"name": "funder",
							"type": "address"
						}
					],
					"name": "addressToAmountFunded",
					"outputs": [
						{
							"internalType": "uint256",
							"name": "amountFunded",
							"type": "uint256"
						}
					],
					"stateMutability": "view",
					"type": "function"
				},
				{
					"inputs": [],
					"name": "fund",
					"outputs": [],
					"stateMutability": "payable",
					"type": "function"
				},
				{
					"inputs": [
						{
							"internalType": "uint256",
							"name": "",
							"type": "uint256"
						}
					],
					"name": "funders",
					"outputs": [
						{
							"internalType": "address",
							"name": "",
							"type": "address"
						}
					],
					"stateMutability": "view",
					"type": "function"
				},
				{
					"inputs": [],
					"name": "minimumUsd",
					"outputs": [
						{
							"internalType": "uint256",
							"name": "",
							"type": "uint256"
						}
					],
					"stateMutability": "view",
					"type": "function"
				},
				{
					"inputs": [],
					"name": "owner",
					"outputs": [
						{
							"internalType": "address",
							"name": "",
							"type": "address"
						}
					],
					"stateMutability": "view",
					"type": "function"
				},
				{
					"inputs": [],
					"name": "withdraw",
					"outputs": [],
					"stateMutability": "nonpayable",
					"type": "function"
				},
				{
					"stateMutability": "payable",
					"type": "receive"
				}
			],
			"devdoc": {
				"kind": "dev",
				"methods": {},
				"version": 1
			},
			"evm": {
				"assembly": "    /* \"FundMe.sol\":265:2825  contract FundME{... */\n  mstore(0x40, 0xa0)\n    /* \"FundMe.sol\":578:726  constructor(){... */\n  callvalue\n  dup1\n  iszero\n  tag_1\n  jumpi\n  0x00\n  dup1\n  revert\ntag_1:\n  pop\n    /* \"FundMe.sol\":708:718  msg.sender */\n  caller\n    /* \"FundMe.sol\":702:718  owner=msg.sender */\n  0xffffffffffffffffffffffffffffffffffffffff\n  and\n  0x80\n  dup2\n  0xffffffffffffffffffffffffffffffffffffffff\n  and\n  dup2\n  mstore\n  pop\n  pop\n    /* \"FundMe.sol\":265:2825  contract FundME{... */\n  mload(0x80)\n  codecopy(0x00, dataOffset(sub_0), dataSize(sub_0))\n  0x00\n  assignImmutable(\"0xcc143a676b82d5e07b2c9d57717b403ab3c58caa273a42cdb95b15980141a86c\")\n  return(0x00, dataSize(sub_0))\nstop\n\nsub_0: assembly {\n        /* \"FundMe.sol\":265:2825  contract FundME{... */\n      mstore(0x40, 0x80)\n      jumpi(tag_1, lt(calldatasize, 0x04))\n      shr(0xe0, calldataload(0x00))\n      dup1\n      0x098de820\n      eq\n      tag_3\n      jumpi\n      dup1\n      0x3ccfd60b\n      eq\n      tag_4\n      jumpi\n      dup1\n      0x3e47d6f3\n      eq\n      tag_5\n      jumpi\n      dup1\n      0x8da5cb5b\n      eq\n      tag_6\n      jumpi\n      dup1\n      0xb60d4288\n      eq\n      tag_7\n      jumpi\n      dup1\n      0xdc0d3dff\n      eq\n      tag_8\n      jumpi\n      jump(tag_2)\n    tag_1:\n      jumpi(tag_2, calldatasize)\n        /* \"FundMe.sol\":2750:2756  fund() */\n      tag_11\n        /* \"FundMe.sol\":2750:2754  fund */\n      tag_12\n        /* \"FundMe.sol\":2750:2756  fund() */\n      jump\t// in\n    tag_11:\n        /* \"FundMe.sol\":265:2825  contract FundME{... */\n      stop\n    tag_2:\n        /* \"FundMe.sol\":2808:2814  fund() */\n      tag_15\n        /* \"FundMe.sol\":2808:2812  fund */\n      tag_12\n        /* \"FundMe.sol\":2808:2814  fund() */\n      jump\t// in\n    tag_15:\n        /* \"FundMe.sol\":265:2825  contract FundME{... */\n      stop\n        /* \"FundMe.sol\":328:370  uint256 public constant minimumUsd=50*1e18 */\n    tag_3:\n      callvalue\n      dup1\n      iszero\n      tag_16\n      jumpi\n      0x00\n      dup1\n      revert\n    tag_16:\n      pop\n      tag_17\n      tag_18\n      jump\t// in\n    tag_17:\n      mload(0x40)\n      tag_19\n      swap2\n      swap1\n      tag_20\n      jump\t// in\n    tag_19:\n      mload(0x40)\n      dup1\n      swap2\n      sub\n      swap1\n      return\n        /* \"FundMe.sol\":1212:2365  function withdraw()public onlyOwner{... */\n    tag_4:\n      callvalue\n      dup1\n      iszero\n      tag_21\n      jumpi\n      0x00\n      dup1\n      revert\n    tag_21:\n      pop\n      tag_22\n      tag_23\n      jump\t// in\n    tag_22:\n      stop\n        /* \"FundMe.sol\":455:528  mapping(address funder=>uint256 amountFunded)public addressToAmountFunded */\n    tag_5:\n      callvalue\n      dup1\n      iszero\n      tag_24\n      jumpi\n      0x00\n      dup1\n      revert\n    tag_24:\n      pop\n      tag_25\n      0x04\n      dup1\n      calldatasize\n      sub\n      dup2\n      add\n      swap1\n      tag_26\n      swap2\n      swap1\n      tag_27\n      jump\t// in\n    tag_26:\n      tag_28\n      jump\t// in\n    tag_25:\n      mload(0x40)\n      tag_29\n      swap2\n      swap1\n      tag_20\n      jump\t// in\n    tag_29:\n      mload(0x40)\n      dup1\n      swap2\n      sub\n      swap1\n      return\n        /* \"FundMe.sol\":535:565  address public immutable owner */\n    tag_6:\n      callvalue\n      dup1\n      iszero\n      tag_30\n      jumpi\n      0x00\n      dup1\n      revert\n    tag_30:\n      pop\n      tag_31\n      tag_32\n      jump\t// in\n    tag_31:\n      mload(0x40)\n      tag_33\n      swap2\n      swap1\n      tag_34\n      jump\t// in\n    tag_33:\n      mload(0x40)\n      dup1\n      swap2\n      sub\n      swap1\n      return\n        /* \"FundMe.sol\":756:1206  function fund() public payable{... */\n    tag_7:\n      tag_35\n      tag_12\n      jump\t// in\n    tag_35:\n      stop\n        /* \"FundMe.sol\":424:448  address[] public funders */\n    tag_8:\n      callvalue\n      dup1\n      iszero\n      tag_36\n      jumpi\n      0x00\n      dup1\n      revert\n    tag_36:\n      pop\n      tag_37\n      0x04\n      dup1\n      calldatasize\n      sub\n      dup2\n      add\n      swap1\n      tag_38\n      swap2\n      swap1\n      tag_39\n      jump\t// in\n    tag_38:\n      tag_40\n      jump\t// in\n    tag_37:\n      mload(0x40)\n      tag_41\n      swap2\n      swap1\n      tag_34\n      jump\t// in\n    tag_41:\n      mload(0x40)\n      dup1\n      swap2\n      sub\n      swap1\n      return\n        /* \"FundMe.sol\":756:1206  function fund() public payable{... */\n    tag_12:\n        /* \"FundMe.sol\":363:370  50*1e18 */\n      0x02b5e3af16b1880000\n        /* \"FundMe.sol\":951:980  msg.value.getConversionRate() */\n      tag_43\n        /* \"FundMe.sol\":951:960  msg.value */\n      callvalue\n        /* \"FundMe.sol\":951:978  msg.value.getConversionRate */\n      tag_44\n        /* \"FundMe.sol\":951:980  msg.value.getConversionRate() */\n      jump\t// in\n    tag_43:\n        /* \"FundMe.sol\":951:992  msg.value.getConversionRate()>=minimumUsd */\n      lt\n      iszero\n        /* \"FundMe.sol\":943:1020  require(msg.value.getConversionRate()>=minimumUsd, \"did not send enough eth\") */\n      tag_45\n      jumpi\n      mload(0x40)\n      0x08c379a000000000000000000000000000000000000000000000000000000000\n      dup2\n      mstore\n      0x04\n      add\n      tag_46\n      swap1\n      tag_47\n      jump\t// in\n    tag_46:\n      mload(0x40)\n      dup1\n      swap2\n      sub\n      swap1\n      revert\n    tag_45:\n        /* \"FundMe.sol\":1083:1090  funders */\n      0x00\n        /* \"FundMe.sol\":1096:1106  msg.sender */\n      caller\n        /* \"FundMe.sol\":1083:1107  funders.push(msg.sender) */\n      swap1\n      dup1\n      0x01\n      dup2\n      sload\n      add\n      dup1\n      dup3\n      sstore\n      dup1\n      swap2\n      pop\n      pop\n      0x01\n      swap1\n      sub\n      swap1\n      0x00\n      mstore\n      keccak256(0x00, 0x20)\n      add\n      0x00\n      swap1\n      swap2\n      swap1\n      swap2\n      swap1\n      swap2\n      0x0100\n      exp\n      dup2\n      sload\n      dup2\n      0xffffffffffffffffffffffffffffffffffffffff\n      mul\n      not\n      and\n      swap1\n      dup4\n      0xffffffffffffffffffffffffffffffffffffffff\n      and\n      mul\n      or\n      swap1\n      sstore\n      pop\n        /* \"FundMe.sol\":1189:1198  msg.value */\n      callvalue\n        /* \"FundMe.sol\":1154:1175  addressToAmountFunded */\n      0x01\n        /* \"FundMe.sol\":1154:1187  addressToAmountFunded[msg.sender] */\n      0x00\n        /* \"FundMe.sol\":1176:1186  msg.sender */\n      caller\n        /* \"FundMe.sol\":1154:1187  addressToAmountFunded[msg.sender] */\n      0xffffffffffffffffffffffffffffffffffffffff\n      and\n      0xffffffffffffffffffffffffffffffffffffffff\n      and\n      dup2\n      mstore\n      0x20\n      add\n      swap1\n      dup2\n      mstore\n      0x20\n      add\n      0x00\n      keccak256\n      0x00\n        /* \"FundMe.sol\":1154:1198  addressToAmountFunded[msg.sender]+=msg.value */\n      dup3\n      dup3\n      sload\n      tag_49\n      swap2\n      swap1\n      tag_50\n      jump\t// in\n    tag_49:\n      swap3\n      pop\n      pop\n      dup2\n      swap1\n      sstore\n      pop\n        /* \"FundMe.sol\":756:1206  function fund() public payable{... */\n      jump\t// out\n        /* \"FundMe.sol\":328:370  uint256 public constant minimumUsd=50*1e18 */\n    tag_18:\n        /* \"FundMe.sol\":363:370  50*1e18 */\n      0x02b5e3af16b1880000\n        /* \"FundMe.sol\":328:370  uint256 public constant minimumUsd=50*1e18 */\n      dup2\n      jump\t// out\n        /* \"FundMe.sol\":1212:2365  function withdraw()public onlyOwner{... */\n    tag_23:\n        /* \"FundMe.sol\":2479:2484  owner */\n      immutable(\"0xcc143a676b82d5e07b2c9d57717b403ab3c58caa273a42cdb95b15980141a86c\")\n        /* \"FundMe.sol\":2467:2484  msg.sender!=owner */\n      0xffffffffffffffffffffffffffffffffffffffff\n      and\n        /* \"FundMe.sol\":2467:2477  msg.sender */\n      caller\n        /* \"FundMe.sol\":2467:2484  msg.sender!=owner */\n      0xffffffffffffffffffffffffffffffffffffffff\n      and\n      eq\n        /* \"FundMe.sol\":2464:2504  if(msg.sender!=owner){revert NoOwner();} */\n      tag_52\n      jumpi\n        /* \"FundMe.sol\":2493:2502  NoOwner() */\n      mload(0x40)\n      0x7f51e10200000000000000000000000000000000000000000000000000000000\n      dup2\n      mstore\n      0x04\n      add\n      mload(0x40)\n      dup1\n      swap2\n      sub\n      swap1\n      revert\n        /* \"FundMe.sol\":2464:2504  if(msg.sender!=owner){revert NoOwner();} */\n    tag_52:\n        /* \"FundMe.sol\":1434:1453  uint256 funderIndex */\n      0x00\n        /* \"FundMe.sol\":1430:1605  for(uint256 funderIndex=0;funderIndex<funders.length;funderIndex++){... */\n    tag_54:\n        /* \"FundMe.sol\":1468:1475  funders */\n      0x00\n        /* \"FundMe.sol\":1468:1482  funders.length */\n      dup1\n      sload\n      swap1\n      pop\n        /* \"FundMe.sol\":1456:1467  funderIndex */\n      dup2\n        /* \"FundMe.sol\":1456:1482  funderIndex<funders.length */\n      lt\n        /* \"FundMe.sol\":1430:1605  for(uint256 funderIndex=0;funderIndex<funders.length;funderIndex++){... */\n      iszero\n      tag_55\n      jumpi\n        /* \"FundMe.sol\":1512:1526  address funder */\n      0x00\n        /* \"FundMe.sol\":1527:1534  funders */\n      dup1\n        /* \"FundMe.sol\":1535:1546  funderIndex */\n      dup3\n        /* \"FundMe.sol\":1527:1547  funders[funderIndex] */\n      dup2\n      sload\n      dup2\n      lt\n      tag_57\n      jumpi\n      tag_58\n      tag_59\n      jump\t// in\n    tag_58:\n    tag_57:\n      swap1\n      0x00\n      mstore\n      keccak256(0x00, 0x20)\n      add\n      0x00\n      swap1\n      sload\n      swap1\n      0x0100\n      exp\n      swap1\n      div\n      0xffffffffffffffffffffffffffffffffffffffff\n      and\n        /* \"FundMe.sol\":1512:1547  address funder=funders[funderIndex] */\n      swap1\n      pop\n        /* \"FundMe.sol\":1592:1593  0 */\n      0x00\n        /* \"FundMe.sol\":1562:1583  addressToAmountFunded */\n      0x01\n        /* \"FundMe.sol\":1562:1591  addressToAmountFunded[funder] */\n      0x00\n        /* \"FundMe.sol\":1584:1590  funder */\n      dup4\n        /* \"FundMe.sol\":1562:1591  addressToAmountFunded[funder] */\n      0xffffffffffffffffffffffffffffffffffffffff\n      and\n      0xffffffffffffffffffffffffffffffffffffffff\n      and\n      dup2\n      mstore\n      0x20\n      add\n      swap1\n      dup2\n      mstore\n      0x20\n      add\n      0x00\n      keccak256\n        /* \"FundMe.sol\":1562:1593  addressToAmountFunded[funder]=0 */\n      dup2\n      swap1\n      sstore\n      pop\n        /* \"FundMe.sol\":1497:1605  {... */\n      pop\n        /* \"FundMe.sol\":1483:1496  funderIndex++ */\n      dup1\n      dup1\n      0x01\n      add\n      swap2\n      pop\n      pop\n        /* \"FundMe.sol\":1430:1605  for(uint256 funderIndex=0;funderIndex<funders.length;funderIndex++){... */\n      jump(tag_54)\n    tag_55:\n      pop\n        /* \"FundMe.sol\":1666:1667  0 */\n      0x00\n        /* \"FundMe.sol\":1652:1668  new address[](0) */\n      0xffffffffffffffff\n      dup2\n      gt\n      iszero\n      tag_61\n      jumpi\n      tag_62\n      tag_63\n      jump\t// in\n    tag_62:\n    tag_61:\n      mload(0x40)\n      swap1\n      dup1\n      dup3\n      mstore\n      dup1\n      0x20\n      mul\n      0x20\n      add\n      dup3\n      add\n      0x40\n      mstore\n      dup1\n      iszero\n      tag_64\n      jumpi\n      dup2\n      0x20\n      add\n      0x20\n      dup3\n      mul\n      dup1\n      calldatasize\n      dup4\n      calldatacopy\n      dup1\n      dup3\n      add\n      swap2\n      pop\n      pop\n      swap1\n      pop\n    tag_64:\n      pop\n        /* \"FundMe.sol\":1644:1651  funders */\n      0x00\n        /* \"FundMe.sol\":1644:1668  funders=new address[](0) */\n      swap1\n      dup1\n      mload\n      swap1\n      0x20\n      add\n      swap1\n      tag_65\n      swap3\n      swap2\n      swap1\n      tag_66\n      jump\t// in\n    tag_65:\n      pop\n        /* \"FundMe.sol\":1855:1865  msg.sender */\n      caller\n        /* \"FundMe.sol\":1847:1875  payable(msg.sender).transfer */\n      0xffffffffffffffffffffffffffffffffffffffff\n      and\n        /* \"FundMe.sol\":1847:1898  payable(msg.sender).transfer(address(this).balance) */\n      0x08fc\n        /* \"FundMe.sol\":1876:1897  address(this).balance */\n      selfbalance\n        /* \"FundMe.sol\":1847:1898  payable(msg.sender).transfer(address(this).balance) */\n      swap1\n      dup2\n      iszero\n      mul\n      swap1\n      mload(0x40)\n      0x00\n      mload(0x40)\n      dup1\n      dup4\n      sub\n      dup2\n      dup6\n      dup9\n      dup9\n      call\n      swap4\n      pop\n      pop\n      pop\n      pop\n      iszero\n      dup1\n      iszero\n      tag_68\n      jumpi\n      returndatasize\n      0x00\n      dup1\n      returndatacopy\n      revert(0x00, returndatasize)\n    tag_68:\n      pop\n        /* \"FundMe.sol\":2001:2017  bool sendSuccess */\n      0x00\n        /* \"FundMe.sol\":2026:2036  msg.sender */\n      caller\n        /* \"FundMe.sol\":2018:2042  payable(msg.sender).send */\n      0xffffffffffffffffffffffffffffffffffffffff\n      and\n        /* \"FundMe.sol\":2018:2065  payable(msg.sender).send(address(this).balance) */\n      0x08fc\n        /* \"FundMe.sol\":2043:2064  address(this).balance */\n      selfbalance\n        /* \"FundMe.sol\":2018:2065  payable(msg.sender).send(address(this).balance) */\n      swap1\n      dup2\n      iszero\n      mul\n      swap1\n      mload(0x40)\n      0x00\n      mload(0x40)\n      dup1\n      dup4\n      sub\n      dup2\n      dup6\n      dup9\n      dup9\n      call\n      swap4\n      pop\n      pop\n      pop\n      pop\n        /* \"FundMe.sol\":2001:2065  bool sendSuccess=payable(msg.sender).send(address(this).balance) */\n      swap1\n      pop\n        /* \"FundMe.sol\":2080:2091  sendSuccess */\n      dup1\n        /* \"FundMe.sol\":2072:2106  require(sendSuccess,\"Send Failed\") */\n      tag_70\n      jumpi\n      mload(0x40)\n      0x08c379a000000000000000000000000000000000000000000000000000000000\n      dup2\n      mstore\n      0x04\n      add\n      tag_71\n      swap1\n      tag_72\n      jump\t// in\n    tag_71:\n      mload(0x40)\n      dup1\n      swap2\n      sub\n      swap1\n      revert\n    tag_70:\n        /* \"FundMe.sol\":2171:2187  bool callSuccess */\n      0x00\n        /* \"FundMe.sol\":2198:2208  msg.sender */\n      caller\n        /* \"FundMe.sol\":2190:2214  payable(msg.sender).call */\n      0xffffffffffffffffffffffffffffffffffffffff\n      and\n        /* \"FundMe.sol\":2221:2242  address(this).balance */\n      selfbalance\n        /* \"FundMe.sol\":2190:2247  payable(msg.sender).call{value:address(this).balance}(\"\") */\n      mload(0x40)\n      tag_73\n      swap1\n      tag_74\n      jump\t// in\n    tag_73:\n      0x00\n      mload(0x40)\n      dup1\n      dup4\n      sub\n      dup2\n      dup6\n      dup8\n      gas\n      call\n      swap3\n      pop\n      pop\n      pop\n      returndatasize\n      dup1\n      0x00\n      dup2\n      eq\n      tag_77\n      jumpi\n      mload(0x40)\n      swap2\n      pop\n      and(add(returndatasize, 0x3f), not(0x1f))\n      dup3\n      add\n      0x40\n      mstore\n      returndatasize\n      dup3\n      mstore\n      returndatasize\n      0x00\n      0x20\n      dup5\n      add\n      returndatacopy\n      jump(tag_76)\n    tag_77:\n      0x60\n      swap2\n      pop\n    tag_76:\n      pop\n        /* \"FundMe.sol\":2170:2247  (bool callSuccess,)=payable(msg.sender).call{value:address(this).balance}(\"\") */\n      pop\n      swap1\n      pop\n        /* \"FundMe.sol\":2262:2273  callSuccess */\n      dup1\n        /* \"FundMe.sol\":2254:2288  require(callSuccess,\"call Failed\") */\n      tag_78\n      jumpi\n      mload(0x40)\n      0x08c379a000000000000000000000000000000000000000000000000000000000\n      dup2\n      mstore\n      0x04\n      add\n      tag_79\n      swap1\n      tag_80\n      jump\t// in\n    tag_79:\n      mload(0x40)\n      dup1\n      swap2\n      sub\n      swap1\n      revert\n    tag_78:\n        /* \"FundMe.sol\":1247:2365  {... */\n      pop\n      pop\n        /* \"FundMe.sol\":1212:2365  function withdraw()public onlyOwner{... */\n      jump\t// out\n        /* \"FundMe.sol\":455:528  mapping(address funder=>uint256 amountFunded)public addressToAmountFunded */\n    tag_28:\n      mstore(0x20, 0x01)\n      dup1\n      0x00\n      mstore\n      keccak256(0x00, 0x40)\n      0x00\n      swap2\n      pop\n      swap1\n      pop\n      sload\n      dup2\n      jump\t// out\n        /* \"FundMe.sol\":535:565  address public immutable owner */\n    tag_32:\n      immutable(\"0xcc143a676b82d5e07b2c9d57717b403ab3c58caa273a42cdb95b15980141a86c\")\n      dup2\n      jump\t// out\n        /* \"FundMe.sol\":424:448  address[] public funders */\n    tag_40:\n      0x00\n      dup2\n      dup2\n      sload\n      dup2\n      lt\n      tag_81\n      jumpi\n      0x00\n      dup1\n      revert\n    tag_81:\n      swap1\n      0x00\n      mstore\n      keccak256(0x00, 0x20)\n      add\n      0x00\n      swap2\n      pop\n      sload\n      swap1\n      0x0100\n      exp\n      swap1\n      div\n      0xffffffffffffffffffffffffffffffffffffffff\n      and\n      dup2\n      jump\t// out\n        /* \"PriceConvertor.sol\":662:876  function getConversionRate(uint256 ethAmount)internal view returns(uint256){... */\n    tag_44:\n        /* \"PriceConvertor.sol\":729:736  uint256 */\n      0x00\n        /* \"PriceConvertor.sol\":748:764  uint256 ethPrice */\n      dup1\n        /* \"PriceConvertor.sol\":765:775  getPrice() */\n      tag_84\n        /* \"PriceConvertor.sol\":765:773  getPrice */\n      tag_85\n        /* \"PriceConvertor.sol\":765:775  getPrice() */\n      jump\t// in\n    tag_84:\n        /* \"PriceConvertor.sol\":748:775  uint256 ethPrice=getPrice() */\n      swap1\n      pop\n        /* \"PriceConvertor.sol\":786:808  uint256 ethAmountInUsd */\n      0x00\n        /* \"PriceConvertor.sol\":830:834  1e18 */\n      0x0de0b6b3a7640000\n        /* \"PriceConvertor.sol\":819:828  ethAmount */\n      dup5\n        /* \"PriceConvertor.sol\":810:818  ethPrice */\n      dup4\n        /* \"PriceConvertor.sol\":810:828  ethPrice*ethAmount */\n      tag_86\n      swap2\n      swap1\n      tag_87\n      jump\t// in\n    tag_86:\n        /* \"PriceConvertor.sol\":809:834  (ethPrice*ethAmount)/1e18 */\n      tag_88\n      swap2\n      swap1\n      tag_89\n      jump\t// in\n    tag_88:\n        /* \"PriceConvertor.sol\":786:834  uint256 ethAmountInUsd=(ethPrice*ethAmount)/1e18 */\n      swap1\n      pop\n        /* \"PriceConvertor.sol\":852:866  ethAmountInUsd */\n      dup1\n        /* \"PriceConvertor.sol\":845:866  return ethAmountInUsd */\n      swap3\n      pop\n      pop\n      pop\n        /* \"PriceConvertor.sol\":662:876  function getConversionRate(uint256 ethAmount)internal view returns(uint256){... */\n      swap2\n      swap1\n      pop\n      jump\t// out\n        /* \"PriceConvertor.sol\":234:652  function getPrice() internal view returns(uint256){... */\n    tag_85:\n        /* \"PriceConvertor.sol\":276:283  uint256 */\n      0x00\n        /* \"PriceConvertor.sol\":422:453  AggregatorV3Interface priceFeed */\n      dup1\n        /* \"PriceConvertor.sol\":477:519  0x694AA1769357215DE4FAC081bf1f309aDC325306 */\n      0x694aa1769357215de4fac081bf1f309adc325306\n        /* \"PriceConvertor.sol\":422:520  AggregatorV3Interface priceFeed= AggregatorV3Interface(0x694AA1769357215DE4FAC081bf1f309aDC325306) */\n      swap1\n      pop\n        /* \"PriceConvertor.sol\":532:544  int256 price */\n      0x00\n        /* \"PriceConvertor.sol\":549:558  priceFeed */\n      dup2\n        /* \"PriceConvertor.sol\":549:574  priceFeed.latestRoundData */\n      0xffffffffffffffffffffffffffffffffffffffff\n      and\n      0xfeaf968c\n        /* \"PriceConvertor.sol\":549:576  priceFeed.latestRoundData() */\n      mload(0x40)\n      dup2\n      0xffffffff\n      and\n      0xe0\n      shl\n      dup2\n      mstore\n      0x04\n      add\n      0xa0\n      mload(0x40)\n      dup1\n      dup4\n      sub\n      dup2\n      dup7\n      gas\n      staticcall\n      iszero\n      dup1\n      iszero\n      tag_92\n      jumpi\n      returndatasize\n      0x00\n      dup1\n      returndatacopy\n      revert(0x00, returndatasize)\n    tag_92:\n      pop\n      pop\n      pop\n      pop\n      mload(0x40)\n      returndatasize\n      not(0x1f)\n      0x1f\n      dup3\n      add\n      and\n      dup3\n      add\n      dup1\n      0x40\n      mstore\n      pop\n      dup2\n      add\n      swap1\n      tag_93\n      swap2\n      swap1\n      tag_94\n      jump\t// in\n    tag_93:\n        /* \"PriceConvertor.sol\":530:576  (,int256 price,,,)=priceFeed.latestRoundData() */\n      pop\n      pop\n      pop\n      swap2\n      pop\n      pop\n        /* \"PriceConvertor.sol\":639:643  1e10 */\n      0x02540be400\n        /* \"PriceConvertor.sol\":633:638  price */\n      dup2\n        /* \"PriceConvertor.sol\":633:643  price*1e10 */\n      tag_95\n      swap2\n      swap1\n      tag_96\n      jump\t// in\n    tag_95:\n        /* \"PriceConvertor.sol\":618:644  return uint256(price*1e10) */\n      swap3\n      pop\n      pop\n      pop\n        /* \"PriceConvertor.sol\":234:652  function getPrice() internal view returns(uint256){... */\n      swap1\n      jump\t// out\n    tag_66:\n      dup3\n      dup1\n      sload\n      dup3\n      dup3\n      sstore\n      swap1\n      0x00\n      mstore\n      keccak256(0x00, 0x20)\n      swap1\n      dup2\n      add\n      swap3\n      dup3\n      iszero\n      tag_97\n      jumpi\n      swap2\n      0x20\n      mul\n      dup3\n      add\n    tag_98:\n      dup3\n      dup2\n      gt\n      iszero\n      tag_99\n      jumpi\n      dup3\n      mload\n      dup3\n      exp(0x0100, 0x00)\n      dup2\n      sload\n      dup2\n      0xffffffffffffffffffffffffffffffffffffffff\n      mul\n      not\n      and\n      swap1\n      dup4\n      0xffffffffffffffffffffffffffffffffffffffff\n      and\n      mul\n      or\n      swap1\n      sstore\n      pop\n      swap2\n      0x20\n      add\n      swap2\n      swap1\n      0x01\n      add\n      swap1\n      jump(tag_98)\n    tag_99:\n    tag_97:\n      pop\n      swap1\n      pop\n      tag_100\n      swap2\n      swap1\n      tag_101\n      jump\t// in\n    tag_100:\n      pop\n      swap1\n      jump\t// out\n    tag_101:\n    tag_102:\n      dup1\n      dup3\n      gt\n      iszero\n      tag_103\n      jumpi\n      0x00\n      dup2\n      0x00\n      swap1\n      sstore\n      pop\n      0x01\n      add\n      jump(tag_102)\n    tag_103:\n      pop\n      swap1\n      jump\t// out\n        /* \"#utility.yul\":7:84   */\n    tag_104:\n        /* \"#utility.yul\":44:51   */\n      0x00\n        /* \"#utility.yul\":73:78   */\n      dup2\n        /* \"#utility.yul\":62:78   */\n      swap1\n      pop\n        /* \"#utility.yul\":7:84   */\n      swap2\n      swap1\n      pop\n      jump\t// out\n        /* \"#utility.yul\":90:208   */\n    tag_105:\n        /* \"#utility.yul\":177:201   */\n      tag_138\n        /* \"#utility.yul\":195:200   */\n      dup2\n        /* \"#utility.yul\":177:201   */\n      tag_104\n      jump\t// in\n    tag_138:\n        /* \"#utility.yul\":172:175   */\n      dup3\n        /* \"#utility.yul\":165:202   */\n      mstore\n        /* \"#utility.yul\":90:208   */\n      pop\n      pop\n      jump\t// out\n        /* \"#utility.yul\":214:436   */\n    tag_20:\n        /* \"#utility.yul\":307:311   */\n      0x00\n        /* \"#utility.yul\":345:347   */\n      0x20\n        /* \"#utility.yul\":334:343   */\n      dup3\n        /* \"#utility.yul\":330:348   */\n      add\n        /* \"#utility.yul\":322:348   */\n      swap1\n      pop\n        /* \"#utility.yul\":358:429   */\n      tag_140\n        /* \"#utility.yul\":426:427   */\n      0x00\n        /* \"#utility.yul\":415:424   */\n      dup4\n        /* \"#utility.yul\":411:428   */\n      add\n        /* \"#utility.yul\":402:408   */\n      dup5\n        /* \"#utility.yul\":358:429   */\n      tag_105\n      jump\t// in\n    tag_140:\n        /* \"#utility.yul\":214:436   */\n      swap3\n      swap2\n      pop\n      pop\n      jump\t// out\n        /* \"#utility.yul\":523:640   */\n    tag_107:\n        /* \"#utility.yul\":632:633   */\n      0x00\n        /* \"#utility.yul\":629:630   */\n      dup1\n        /* \"#utility.yul\":622:634   */\n      revert\n        /* \"#utility.yul\":769:895   */\n    tag_109:\n        /* \"#utility.yul\":806:813   */\n      0x00\n        /* \"#utility.yul\":846:888   */\n      0xffffffffffffffffffffffffffffffffffffffff\n        /* \"#utility.yul\":839:844   */\n      dup3\n        /* \"#utility.yul\":835:889   */\n      and\n        /* \"#utility.yul\":824:889   */\n      swap1\n      pop\n        /* \"#utility.yul\":769:895   */\n      swap2\n      swap1\n      pop\n      jump\t// out\n        /* \"#utility.yul\":901:997   */\n    tag_110:\n        /* \"#utility.yul\":938:945   */\n      0x00\n        /* \"#utility.yul\":967:991   */\n      tag_146\n        /* \"#utility.yul\":985:990   */\n      dup3\n        /* \"#utility.yul\":967:991   */\n      tag_109\n      jump\t// in\n    tag_146:\n        /* \"#utility.yul\":956:991   */\n      swap1\n      pop\n        /* \"#utility.yul\":901:997   */\n      swap2\n      swap1\n      pop\n      jump\t// out\n        /* \"#utility.yul\":1003:1125   */\n    tag_111:\n        /* \"#utility.yul\":1076:1100   */\n      tag_148\n        /* \"#utility.yul\":1094:1099   */\n      dup2\n        /* \"#utility.yul\":1076:1100   */\n      tag_110\n      jump\t// in\n    tag_148:\n        /* \"#utility.yul\":1069:1074   */\n      dup2\n        /* \"#utility.yul\":1066:1101   */\n      eq\n        /* \"#utility.yul\":1056:1119   */\n      tag_149\n      jumpi\n        /* \"#utility.yul\":1115:1116   */\n      0x00\n        /* \"#utility.yul\":1112:1113   */\n      dup1\n        /* \"#utility.yul\":1105:1117   */\n      revert\n        /* \"#utility.yul\":1056:1119   */\n    tag_149:\n        /* \"#utility.yul\":1003:1125   */\n      pop\n      jump\t// out\n        /* \"#utility.yul\":1131:1270   */\n    tag_112:\n        /* \"#utility.yul\":1177:1182   */\n      0x00\n        /* \"#utility.yul\":1215:1221   */\n      dup2\n        /* \"#utility.yul\":1202:1222   */\n      calldataload\n        /* \"#utility.yul\":1193:1222   */\n      swap1\n      pop\n        /* \"#utility.yul\":1231:1264   */\n      tag_151\n        /* \"#utility.yul\":1258:1263   */\n      dup2\n        /* \"#utility.yul\":1231:1264   */\n      tag_111\n      jump\t// in\n    tag_151:\n        /* \"#utility.yul\":1131:1270   */\n      swap3\n      swap2\n      pop\n      pop\n      jump\t// out\n        /* \"#utility.yul\":1276:1605   */\n    tag_27:\n        /* \"#utility.yul\":1335:1341   */\n      0x00\n        /* \"#utility.yul\":1384:1386   */\n      0x20\n        /* \"#utility.yul\":1372:1381   */\n      dup3\n        /* \"#utility.yul\":1363:1370   */\n      dup5\n        /* \"#utility.yul\":1359:1382   */\n      sub\n        /* \"#utility.yul\":1355:1387   */\n      slt\n        /* \"#utility.yul\":1352:1471   */\n      iszero\n      tag_153\n      jumpi\n        /* \"#utility.yul\":1390:1469   */\n      tag_154\n      tag_107\n      jump\t// in\n    tag_154:\n        /* \"#utility.yul\":1352:1471   */\n    tag_153:\n        /* \"#utility.yul\":1510:1511   */\n      0x00\n        /* \"#utility.yul\":1535:1588   */\n      tag_155\n        /* \"#utility.yul\":1580:1587   */\n      dup5\n        /* \"#utility.yul\":1571:1577   */\n      dup3\n        /* \"#utility.yul\":1560:1569   */\n      dup6\n        /* \"#utility.yul\":1556:1578   */\n      add\n        /* \"#utility.yul\":1535:1588   */\n      tag_112\n      jump\t// in\n    tag_155:\n        /* \"#utility.yul\":1525:1588   */\n      swap2\n      pop\n        /* \"#utility.yul\":1481:1598   */\n      pop\n        /* \"#utility.yul\":1276:1605   */\n      swap3\n      swap2\n      pop\n      pop\n      jump\t// out\n        /* \"#utility.yul\":1611:1729   */\n    tag_113:\n        /* \"#utility.yul\":1698:1722   */\n      tag_157\n        /* \"#utility.yul\":1716:1721   */\n      dup2\n        /* \"#utility.yul\":1698:1722   */\n      tag_110\n      jump\t// in\n    tag_157:\n        /* \"#utility.yul\":1693:1696   */\n      dup3\n        /* \"#utility.yul\":1686:1723   */\n      mstore\n        /* \"#utility.yul\":1611:1729   */\n      pop\n      pop\n      jump\t// out\n        /* \"#utility.yul\":1735:1957   */\n    tag_34:\n        /* \"#utility.yul\":1828:1832   */\n      0x00\n        /* \"#utility.yul\":1866:1868   */\n      0x20\n        /* \"#utility.yul\":1855:1864   */\n      dup3\n        /* \"#utility.yul\":1851:1869   */\n      add\n        /* \"#utility.yul\":1843:1869   */\n      swap1\n      pop\n        /* \"#utility.yul\":1879:1950   */\n      tag_159\n        /* \"#utility.yul\":1947:1948   */\n      0x00\n        /* \"#utility.yul\":1936:1945   */\n      dup4\n        /* \"#utility.yul\":1932:1949   */\n      add\n        /* \"#utility.yul\":1923:1929   */\n      dup5\n        /* \"#utility.yul\":1879:1950   */\n      tag_113\n      jump\t// in\n    tag_159:\n        /* \"#utility.yul\":1735:1957   */\n      swap3\n      swap2\n      pop\n      pop\n      jump\t// out\n        /* \"#utility.yul\":1963:2085   */\n    tag_114:\n        /* \"#utility.yul\":2036:2060   */\n      tag_161\n        /* \"#utility.yul\":2054:2059   */\n      dup2\n        /* \"#utility.yul\":2036:2060   */\n      tag_104\n      jump\t// in\n    tag_161:\n        /* \"#utility.yul\":2029:2034   */\n      dup2\n        /* \"#utility.yul\":2026:2061   */\n      eq\n        /* \"#utility.yul\":2016:2079   */\n      tag_162\n      jumpi\n        /* \"#utility.yul\":2075:2076   */\n      0x00\n        /* \"#utility.yul\":2072:2073   */\n      dup1\n        /* \"#utility.yul\":2065:2077   */\n      revert\n        /* \"#utility.yul\":2016:2079   */\n    tag_162:\n        /* \"#utility.yul\":1963:2085   */\n      pop\n      jump\t// out\n        /* \"#utility.yul\":2091:2230   */\n    tag_115:\n        /* \"#utility.yul\":2137:2142   */\n      0x00\n        /* \"#utility.yul\":2175:2181   */\n      dup2\n        /* \"#utility.yul\":2162:2182   */\n      calldataload\n        /* \"#utility.yul\":2153:2182   */\n      swap1\n      pop\n        /* \"#utility.yul\":2191:2224   */\n      tag_164\n        /* \"#utility.yul\":2218:2223   */\n      dup2\n        /* \"#utility.yul\":2191:2224   */\n      tag_114\n      jump\t// in\n    tag_164:\n        /* \"#utility.yul\":2091:2230   */\n      swap3\n      swap2\n      pop\n      pop\n      jump\t// out\n        /* \"#utility.yul\":2236:2565   */\n    tag_39:\n        /* \"#utility.yul\":2295:2301   */\n      0x00\n        /* \"#utility.yul\":2344:2346   */\n      0x20\n        /* \"#utility.yul\":2332:2341   */\n      dup3\n        /* \"#utility.yul\":2323:2330   */\n      dup5\n        /* \"#utility.yul\":2319:2342   */\n      sub\n        /* \"#utility.yul\":2315:2347   */\n      slt\n        /* \"#utility.yul\":2312:2431   */\n      iszero\n      tag_166\n      jumpi\n        /* \"#utility.yul\":2350:2429   */\n      tag_167\n      tag_107\n      jump\t// in\n    tag_167:\n        /* \"#utility.yul\":2312:2431   */\n    tag_166:\n        /* \"#utility.yul\":2470:2471   */\n      0x00\n        /* \"#utility.yul\":2495:2548   */\n      tag_168\n        /* \"#utility.yul\":2540:2547   */\n      dup5\n        /* \"#utility.yul\":2531:2537   */\n      dup3\n        /* \"#utility.yul\":2520:2529   */\n      dup6\n        /* \"#utility.yul\":2516:2538   */\n      add\n        /* \"#utility.yul\":2495:2548   */\n      tag_115\n      jump\t// in\n    tag_168:\n        /* \"#utility.yul\":2485:2548   */\n      swap2\n      pop\n        /* \"#utility.yul\":2441:2558   */\n      pop\n        /* \"#utility.yul\":2236:2565   */\n      swap3\n      swap2\n      pop\n      pop\n      jump\t// out\n        /* \"#utility.yul\":2571:2740   */\n    tag_116:\n        /* \"#utility.yul\":2655:2666   */\n      0x00\n        /* \"#utility.yul\":2689:2695   */\n      dup3\n        /* \"#utility.yul\":2684:2687   */\n      dup3\n        /* \"#utility.yul\":2677:2696   */\n      mstore\n        /* \"#utility.yul\":2729:2733   */\n      0x20\n        /* \"#utility.yul\":2724:2727   */\n      dup3\n        /* \"#utility.yul\":2720:2734   */\n      add\n        /* \"#utility.yul\":2705:2734   */\n      swap1\n      pop\n        /* \"#utility.yul\":2571:2740   */\n      swap3\n      swap2\n      pop\n      pop\n      jump\t// out\n        /* \"#utility.yul\":2746:2919   */\n    tag_117:\n        /* \"#utility.yul\":2886:2911   */\n      0x646964206e6f742073656e6420656e6f75676820657468000000000000000000\n        /* \"#utility.yul\":2882:2883   */\n      0x00\n        /* \"#utility.yul\":2874:2880   */\n      dup3\n        /* \"#utility.yul\":2870:2884   */\n      add\n        /* \"#utility.yul\":2863:2912   */\n      mstore\n        /* \"#utility.yul\":2746:2919   */\n      pop\n      jump\t// out\n        /* \"#utility.yul\":2925:3291   */\n    tag_118:\n        /* \"#utility.yul\":3067:3070   */\n      0x00\n        /* \"#utility.yul\":3088:3155   */\n      tag_172\n        /* \"#utility.yul\":3152:3154   */\n      0x17\n        /* \"#utility.yul\":3147:3150   */\n      dup4\n        /* \"#utility.yul\":3088:3155   */\n      tag_116\n      jump\t// in\n    tag_172:\n        /* \"#utility.yul\":3081:3155   */\n      swap2\n      pop\n        /* \"#utility.yul\":3164:3257   */\n      tag_173\n        /* \"#utility.yul\":3253:3256   */\n      dup3\n        /* \"#utility.yul\":3164:3257   */\n      tag_117\n      jump\t// in\n    tag_173:\n        /* \"#utility.yul\":3282:3284   */\n      0x20\n        /* \"#utility.yul\":3277:3280   */\n      dup3\n        /* \"#utility.yul\":3273:3285   */\n      add\n        /* \"#utility.yul\":3266:3285   */\n      swap1\n      pop\n        /* \"#utility.yul\":2925:3291   */\n      swap2\n      swap1\n      pop\n      jump\t// out\n        /* \"#utility.yul\":3297:3716   */\n    tag_47:\n        /* \"#utility.yul\":3463:3467   */\n      0x00\n        /* \"#utility.yul\":3501:3503   */\n      0x20\n        /* \"#utility.yul\":3490:3499   */\n      dup3\n        /* \"#utility.yul\":3486:3504   */\n      add\n        /* \"#utility.yul\":3478:3504   */\n      swap1\n      pop\n        /* \"#utility.yul\":3550:3559   */\n      dup2\n        /* \"#utility.yul\":3544:3548   */\n      dup2\n        /* \"#utility.yul\":3540:3560   */\n      sub\n        /* \"#utility.yul\":3536:3537   */\n      0x00\n        /* \"#utility.yul\":3525:3534   */\n      dup4\n        /* \"#utility.yul\":3521:3538   */\n      add\n        /* \"#utility.yul\":3514:3561   */\n      mstore\n        /* \"#utility.yul\":3578:3709   */\n      tag_175\n        /* \"#utility.yul\":3704:3708   */\n      dup2\n        /* \"#utility.yul\":3578:3709   */\n      tag_118\n      jump\t// in\n    tag_175:\n        /* \"#utility.yul\":3570:3709   */\n      swap1\n      pop\n        /* \"#utility.yul\":3297:3716   */\n      swap2\n      swap1\n      pop\n      jump\t// out\n        /* \"#utility.yul\":3722:3902   */\n    tag_119:\n        /* \"#utility.yul\":3770:3847   */\n      0x4e487b7100000000000000000000000000000000000000000000000000000000\n        /* \"#utility.yul\":3767:3768   */\n      0x00\n        /* \"#utility.yul\":3760:3848   */\n      mstore\n        /* \"#utility.yul\":3867:3871   */\n      0x11\n        /* \"#utility.yul\":3864:3865   */\n      0x04\n        /* \"#utility.yul\":3857:3872   */\n      mstore\n        /* \"#utility.yul\":3891:3895   */\n      0x24\n        /* \"#utility.yul\":3888:3889   */\n      0x00\n        /* \"#utility.yul\":3881:3896   */\n      revert\n        /* \"#utility.yul\":3908:4099   */\n    tag_50:\n        /* \"#utility.yul\":3948:3951   */\n      0x00\n        /* \"#utility.yul\":3967:3987   */\n      tag_178\n        /* \"#utility.yul\":3985:3986   */\n      dup3\n        /* \"#utility.yul\":3967:3987   */\n      tag_104\n      jump\t// in\n    tag_178:\n        /* \"#utility.yul\":3962:3987   */\n      swap2\n      pop\n        /* \"#utility.yul\":4001:4021   */\n      tag_179\n        /* \"#utility.yul\":4019:4020   */\n      dup4\n        /* \"#utility.yul\":4001:4021   */\n      tag_104\n      jump\t// in\n    tag_179:\n        /* \"#utility.yul\":3996:4021   */\n      swap3\n      pop\n        /* \"#utility.yul\":4044:4045   */\n      dup3\n        /* \"#utility.yul\":4041:4042   */\n      dup3\n        /* \"#utility.yul\":4037:4046   */\n      add\n        /* \"#utility.yul\":4030:4046   */\n      swap1\n      pop\n        /* \"#utility.yul\":4065:4068   */\n      dup1\n        /* \"#utility.yul\":4062:4063   */\n      dup3\n        /* \"#utility.yul\":4059:4069   */\n      gt\n        /* \"#utility.yul\":4056:4092   */\n      iszero\n      tag_180\n      jumpi\n        /* \"#utility.yul\":4072:4090   */\n      tag_181\n      tag_119\n      jump\t// in\n    tag_181:\n        /* \"#utility.yul\":4056:4092   */\n    tag_180:\n        /* \"#utility.yul\":3908:4099   */\n      swap3\n      swap2\n      pop\n      pop\n      jump\t// out\n        /* \"#utility.yul\":4105:4285   */\n    tag_59:\n        /* \"#utility.yul\":4153:4230   */\n      0x4e487b7100000000000000000000000000000000000000000000000000000000\n        /* \"#utility.yul\":4150:4151   */\n      0x00\n        /* \"#utility.yul\":4143:4231   */\n      mstore\n        /* \"#utility.yul\":4250:4254   */\n      0x32\n        /* \"#utility.yul\":4247:4248   */\n      0x04\n        /* \"#utility.yul\":4240:4255   */\n      mstore\n        /* \"#utility.yul\":4274:4278   */\n      0x24\n        /* \"#utility.yul\":4271:4272   */\n      0x00\n        /* \"#utility.yul\":4264:4279   */\n      revert\n        /* \"#utility.yul\":4291:4471   */\n    tag_63:\n        /* \"#utility.yul\":4339:4416   */\n      0x4e487b7100000000000000000000000000000000000000000000000000000000\n        /* \"#utility.yul\":4336:4337   */\n      0x00\n        /* \"#utility.yul\":4329:4417   */\n      mstore\n        /* \"#utility.yul\":4436:4440   */\n      0x41\n        /* \"#utility.yul\":4433:4434   */\n      0x04\n        /* \"#utility.yul\":4426:4441   */\n      mstore\n        /* \"#utility.yul\":4460:4464   */\n      0x24\n        /* \"#utility.yul\":4457:4458   */\n      0x00\n        /* \"#utility.yul\":4450:4465   */\n      revert\n        /* \"#utility.yul\":4477:4638   */\n    tag_120:\n        /* \"#utility.yul\":4617:4630   */\n      0x53656e64204661696c6564000000000000000000000000000000000000000000\n        /* \"#utility.yul\":4613:4614   */\n      0x00\n        /* \"#utility.yul\":4605:4611   */\n      dup3\n        /* \"#utility.yul\":4601:4615   */\n      add\n        /* \"#utility.yul\":4594:4631   */\n      mstore\n        /* \"#utility.yul\":4477:4638   */\n      pop\n      jump\t// out\n        /* \"#utility.yul\":4644:5010   */\n    tag_121:\n        /* \"#utility.yul\":4786:4789   */\n      0x00\n        /* \"#utility.yul\":4807:4874   */\n      tag_186\n        /* \"#utility.yul\":4871:4873   */\n      0x0b\n        /* \"#utility.yul\":4866:4869   */\n      dup4\n        /* \"#utility.yul\":4807:4874   */\n      tag_116\n      jump\t// in\n    tag_186:\n        /* \"#utility.yul\":4800:4874   */\n      swap2\n      pop\n        /* \"#utility.yul\":4883:4976   */\n      tag_187\n        /* \"#utility.yul\":4972:4975   */\n      dup3\n        /* \"#utility.yul\":4883:4976   */\n      tag_120\n      jump\t// in\n    tag_187:\n        /* \"#utility.yul\":5001:5003   */\n      0x20\n        /* \"#utility.yul\":4996:4999   */\n      dup3\n        /* \"#utility.yul\":4992:5004   */\n      add\n        /* \"#utility.yul\":4985:5004   */\n      swap1\n      pop\n        /* \"#utility.yul\":4644:5010   */\n      swap2\n      swap1\n      pop\n      jump\t// out\n        /* \"#utility.yul\":5016:5435   */\n    tag_72:\n        /* \"#utility.yul\":5182:5186   */\n      0x00\n        /* \"#utility.yul\":5220:5222   */\n      0x20\n        /* \"#utility.yul\":5209:5218   */\n      dup3\n        /* \"#utility.yul\":5205:5223   */\n      add\n        /* \"#utility.yul\":5197:5223   */\n      swap1\n      pop\n        /* \"#utility.yul\":5269:5278   */\n      dup2\n        /* \"#utility.yul\":5263:5267   */\n      dup2\n        /* \"#utility.yul\":5259:5279   */\n      sub\n        /* \"#utility.yul\":5255:5256   */\n      0x00\n        /* \"#utility.yul\":5244:5253   */\n      dup4\n        /* \"#utility.yul\":5240:5257   */\n      add\n        /* \"#utility.yul\":5233:5280   */\n      mstore\n        /* \"#utility.yul\":5297:5428   */\n      tag_189\n        /* \"#utility.yul\":5423:5427   */\n      dup2\n        /* \"#utility.yul\":5297:5428   */\n      tag_121\n      jump\t// in\n    tag_189:\n        /* \"#utility.yul\":5289:5428   */\n      swap1\n      pop\n        /* \"#utility.yul\":5016:5435   */\n      swap2\n      swap1\n      pop\n      jump\t// out\n        /* \"#utility.yul\":5441:5588   */\n    tag_122:\n        /* \"#utility.yul\":5542:5553   */\n      0x00\n        /* \"#utility.yul\":5579:5582   */\n      dup2\n        /* \"#utility.yul\":5564:5582   */\n      swap1\n      pop\n        /* \"#utility.yul\":5441:5588   */\n      swap3\n      swap2\n      pop\n      pop\n      jump\t// out\n        /* \"#utility.yul\":5594:5708   */\n    tag_123:\n      pop\n      jump\t// out\n        /* \"#utility.yul\":5714:6112   */\n    tag_124:\n        /* \"#utility.yul\":5873:5876   */\n      0x00\n        /* \"#utility.yul\":5894:5977   */\n      tag_193\n        /* \"#utility.yul\":5975:5976   */\n      0x00\n        /* \"#utility.yul\":5970:5973   */\n      dup4\n        /* \"#utility.yul\":5894:5977   */\n      tag_122\n      jump\t// in\n    tag_193:\n        /* \"#utility.yul\":5887:5977   */\n      swap2\n      pop\n        /* \"#utility.yul\":5986:6079   */\n      tag_194\n        /* \"#utility.yul\":6075:6078   */\n      dup3\n        /* \"#utility.yul\":5986:6079   */\n      tag_123\n      jump\t// in\n    tag_194:\n        /* \"#utility.yul\":6104:6105   */\n      0x00\n        /* \"#utility.yul\":6099:6102   */\n      dup3\n        /* \"#utility.yul\":6095:6106   */\n      add\n        /* \"#utility.yul\":6088:6106   */\n      swap1\n      pop\n        /* \"#utility.yul\":5714:6112   */\n      swap2\n      swap1\n      pop\n      jump\t// out\n        /* \"#utility.yul\":6118:6497   */\n    tag_74:\n        /* \"#utility.yul\":6302:6305   */\n      0x00\n        /* \"#utility.yul\":6324:6471   */\n      tag_196\n        /* \"#utility.yul\":6467:6470   */\n      dup3\n        /* \"#utility.yul\":6324:6471   */\n      tag_124\n      jump\t// in\n    tag_196:\n        /* \"#utility.yul\":6317:6471   */\n      swap2\n      pop\n        /* \"#utility.yul\":6488:6491   */\n      dup2\n        /* \"#utility.yul\":6481:6491   */\n      swap1\n      pop\n        /* \"#utility.yul\":6118:6497   */\n      swap2\n      swap1\n      pop\n      jump\t// out\n        /* \"#utility.yul\":6503:6664   */\n    tag_125:\n        /* \"#utility.yul\":6643:6656   */\n      0x63616c6c204661696c6564000000000000000000000000000000000000000000\n        /* \"#utility.yul\":6639:6640   */\n      0x00\n        /* \"#utility.yul\":6631:6637   */\n      dup3\n        /* \"#utility.yul\":6627:6641   */\n      add\n        /* \"#utility.yul\":6620:6657   */\n      mstore\n        /* \"#utility.yul\":6503:6664   */\n      pop\n      jump\t// out\n        /* \"#utility.yul\":6670:7036   */\n    tag_126:\n        /* \"#utility.yul\":6812:6815   */\n      0x00\n        /* \"#utility.yul\":6833:6900   */\n      tag_199\n        /* \"#utility.yul\":6897:6899   */\n      0x0b\n        /* \"#utility.yul\":6892:6895   */\n      dup4\n        /* \"#utility.yul\":6833:6900   */\n      tag_116\n      jump\t// in\n    tag_199:\n        /* \"#utility.yul\":6826:6900   */\n      swap2\n      pop\n        /* \"#utility.yul\":6909:7002   */\n      tag_200\n        /* \"#utility.yul\":6998:7001   */\n      dup3\n        /* \"#utility.yul\":6909:7002   */\n      tag_125\n      jump\t// in\n    tag_200:\n        /* \"#utility.yul\":7027:7029   */\n      0x20\n        /* \"#utility.yul\":7022:7025   */\n      dup3\n        /* \"#utility.yul\":7018:7030   */\n      add\n        /* \"#utility.yul\":7011:7030   */\n      swap1\n      pop\n        /* \"#utility.yul\":6670:7036   */\n      swap2\n      swap1\n      pop\n      jump\t// out\n        /* \"#utility.yul\":7042:7461   */\n    tag_80:\n        /* \"#utility.yul\":7208:7212   */\n      0x00\n        /* \"#utility.yul\":7246:7248   */\n      0x20\n        /* \"#utility.yul\":7235:7244   */\n      dup3\n        /* \"#utility.yul\":7231:7249   */\n      add\n        /* \"#utility.yul\":7223:7249   */\n      swap1\n      pop\n        /* \"#utility.yul\":7295:7304   */\n      dup2\n        /* \"#utility.yul\":7289:7293   */\n      dup2\n        /* \"#utility.yul\":7285:7305   */\n      sub\n        /* \"#utility.yul\":7281:7282   */\n      0x00\n        /* \"#utility.yul\":7270:7279   */\n      dup4\n        /* \"#utility.yul\":7266:7283   */\n      add\n        /* \"#utility.yul\":7259:7306   */\n      mstore\n        /* \"#utility.yul\":7323:7454   */\n      tag_202\n        /* \"#utility.yul\":7449:7453   */\n      dup2\n        /* \"#utility.yul\":7323:7454   */\n      tag_126\n      jump\t// in\n    tag_202:\n        /* \"#utility.yul\":7315:7454   */\n      swap1\n      pop\n        /* \"#utility.yul\":7042:7461   */\n      swap2\n      swap1\n      pop\n      jump\t// out\n        /* \"#utility.yul\":7467:7877   */\n    tag_87:\n        /* \"#utility.yul\":7507:7514   */\n      0x00\n        /* \"#utility.yul\":7530:7550   */\n      tag_204\n        /* \"#utility.yul\":7548:7549   */\n      dup3\n        /* \"#utility.yul\":7530:7550   */\n      tag_104\n      jump\t// in\n    tag_204:\n        /* \"#utility.yul\":7525:7550   */\n      swap2\n      pop\n        /* \"#utility.yul\":7564:7584   */\n      tag_205\n        /* \"#utility.yul\":7582:7583   */\n      dup4\n        /* \"#utility.yul\":7564:7584   */\n      tag_104\n      jump\t// in\n    tag_205:\n        /* \"#utility.yul\":7559:7584   */\n      swap3\n      pop\n        /* \"#utility.yul\":7619:7620   */\n      dup3\n        /* \"#utility.yul\":7616:7617   */\n      dup3\n        /* \"#utility.yul\":7612:7621   */\n      mul\n        /* \"#utility.yul\":7641:7671   */\n      tag_206\n        /* \"#utility.yul\":7659:7670   */\n      dup2\n        /* \"#utility.yul\":7641:7671   */\n      tag_104\n      jump\t// in\n    tag_206:\n        /* \"#utility.yul\":7630:7671   */\n      swap2\n      pop\n        /* \"#utility.yul\":7820:7821   */\n      dup3\n        /* \"#utility.yul\":7811:7818   */\n      dup3\n        /* \"#utility.yul\":7807:7822   */\n      div\n        /* \"#utility.yul\":7804:7805   */\n      dup5\n        /* \"#utility.yul\":7801:7823   */\n      eq\n        /* \"#utility.yul\":7781:7782   */\n      dup4\n        /* \"#utility.yul\":7774:7783   */\n      iszero\n        /* \"#utility.yul\":7754:7837   */\n      or\n        /* \"#utility.yul\":7731:7870   */\n      tag_207\n      jumpi\n        /* \"#utility.yul\":7850:7868   */\n      tag_208\n      tag_119\n      jump\t// in\n    tag_208:\n        /* \"#utility.yul\":7731:7870   */\n    tag_207:\n        /* \"#utility.yul\":7515:7877   */\n      pop\n        /* \"#utility.yul\":7467:7877   */\n      swap3\n      swap2\n      pop\n      pop\n      jump\t// out\n        /* \"#utility.yul\":7883:8063   */\n    tag_127:\n        /* \"#utility.yul\":7931:8008   */\n      0x4e487b7100000000000000000000000000000000000000000000000000000000\n        /* \"#utility.yul\":7928:7929   */\n      0x00\n        /* \"#utility.yul\":7921:8009   */\n      mstore\n        /* \"#utility.yul\":8028:8032   */\n      0x12\n        /* \"#utility.yul\":8025:8026   */\n      0x04\n        /* \"#utility.yul\":8018:8033   */\n      mstore\n        /* \"#utility.yul\":8052:8056   */\n      0x24\n        /* \"#utility.yul\":8049:8050   */\n      0x00\n        /* \"#utility.yul\":8042:8057   */\n      revert\n        /* \"#utility.yul\":8069:8254   */\n    tag_89:\n        /* \"#utility.yul\":8109:8110   */\n      0x00\n        /* \"#utility.yul\":8126:8146   */\n      tag_211\n        /* \"#utility.yul\":8144:8145   */\n      dup3\n        /* \"#utility.yul\":8126:8146   */\n      tag_104\n      jump\t// in\n    tag_211:\n        /* \"#utility.yul\":8121:8146   */\n      swap2\n      pop\n        /* \"#utility.yul\":8160:8180   */\n      tag_212\n        /* \"#utility.yul\":8178:8179   */\n      dup4\n        /* \"#utility.yul\":8160:8180   */\n      tag_104\n      jump\t// in\n    tag_212:\n        /* \"#utility.yul\":8155:8180   */\n      swap3\n      pop\n        /* \"#utility.yul\":8199:8200   */\n      dup3\n        /* \"#utility.yul\":8189:8224   */\n      tag_213\n      jumpi\n        /* \"#utility.yul\":8204:8222   */\n      tag_214\n      tag_127\n      jump\t// in\n    tag_214:\n        /* \"#utility.yul\":8189:8224   */\n    tag_213:\n        /* \"#utility.yul\":8246:8247   */\n      dup3\n        /* \"#utility.yul\":8243:8244   */\n      dup3\n        /* \"#utility.yul\":8239:8248   */\n      div\n        /* \"#utility.yul\":8234:8248   */\n      swap1\n      pop\n        /* \"#utility.yul\":8069:8254   */\n      swap3\n      swap2\n      pop\n      pop\n      jump\t// out\n        /* \"#utility.yul\":8260:8365   */\n    tag_128:\n        /* \"#utility.yul\":8296:8303   */\n      0x00\n        /* \"#utility.yul\":8336:8358   */\n      0xffffffffffffffffffff\n        /* \"#utility.yul\":8329:8334   */\n      dup3\n        /* \"#utility.yul\":8325:8359   */\n      and\n        /* \"#utility.yul\":8314:8359   */\n      swap1\n      pop\n        /* \"#utility.yul\":8260:8365   */\n      swap2\n      swap1\n      pop\n      jump\t// out\n        /* \"#utility.yul\":8371:8491   */\n    tag_129:\n        /* \"#utility.yul\":8443:8466   */\n      tag_217\n        /* \"#utility.yul\":8460:8465   */\n      dup2\n        /* \"#utility.yul\":8443:8466   */\n      tag_128\n      jump\t// in\n    tag_217:\n        /* \"#utility.yul\":8436:8441   */\n      dup2\n        /* \"#utility.yul\":8433:8467   */\n      eq\n        /* \"#utility.yul\":8423:8485   */\n      tag_218\n      jumpi\n        /* \"#utility.yul\":8481:8482   */\n      0x00\n        /* \"#utility.yul\":8478:8479   */\n      dup1\n        /* \"#utility.yul\":8471:8483   */\n      revert\n        /* \"#utility.yul\":8423:8485   */\n    tag_218:\n        /* \"#utility.yul\":8371:8491   */\n      pop\n      jump\t// out\n        /* \"#utility.yul\":8497:8638   */\n    tag_130:\n        /* \"#utility.yul\":8553:8558   */\n      0x00\n        /* \"#utility.yul\":8584:8590   */\n      dup2\n        /* \"#utility.yul\":8578:8591   */\n      mload\n        /* \"#utility.yul\":8569:8591   */\n      swap1\n      pop\n        /* \"#utility.yul\":8600:8632   */\n      tag_220\n        /* \"#utility.yul\":8626:8631   */\n      dup2\n        /* \"#utility.yul\":8600:8632   */\n      tag_129\n      jump\t// in\n    tag_220:\n        /* \"#utility.yul\":8497:8638   */\n      swap3\n      swap2\n      pop\n      pop\n      jump\t// out\n        /* \"#utility.yul\":8644:8720   */\n    tag_131:\n        /* \"#utility.yul\":8680:8687   */\n      0x00\n        /* \"#utility.yul\":8709:8714   */\n      dup2\n        /* \"#utility.yul\":8698:8714   */\n      swap1\n      pop\n        /* \"#utility.yul\":8644:8720   */\n      swap2\n      swap1\n      pop\n      jump\t// out\n        /* \"#utility.yul\":8726:8846   */\n    tag_132:\n        /* \"#utility.yul\":8798:8821   */\n      tag_223\n        /* \"#utility.yul\":8815:8820   */\n      dup2\n        /* \"#utility.yul\":8798:8821   */\n      tag_131\n      jump\t// in\n    tag_223:\n        /* \"#utility.yul\":8791:8796   */\n      dup2\n        /* \"#utility.yul\":8788:8822   */\n      eq\n        /* \"#utility.yul\":8778:8840   */\n      tag_224\n      jumpi\n        /* \"#utility.yul\":8836:8837   */\n      0x00\n        /* \"#utility.yul\":8833:8834   */\n      dup1\n        /* \"#utility.yul\":8826:8838   */\n      revert\n        /* \"#utility.yul\":8778:8840   */\n    tag_224:\n        /* \"#utility.yul\":8726:8846   */\n      pop\n      jump\t// out\n        /* \"#utility.yul\":8852:8993   */\n    tag_133:\n        /* \"#utility.yul\":8908:8913   */\n      0x00\n        /* \"#utility.yul\":8939:8945   */\n      dup2\n        /* \"#utility.yul\":8933:8946   */\n      mload\n        /* \"#utility.yul\":8924:8946   */\n      swap1\n      pop\n        /* \"#utility.yul\":8955:8987   */\n      tag_226\n        /* \"#utility.yul\":8981:8986   */\n      dup2\n        /* \"#utility.yul\":8955:8987   */\n      tag_132\n      jump\t// in\n    tag_226:\n        /* \"#utility.yul\":8852:8993   */\n      swap3\n      swap2\n      pop\n      pop\n      jump\t// out\n        /* \"#utility.yul\":8999:9142   */\n    tag_134:\n        /* \"#utility.yul\":9056:9061   */\n      0x00\n        /* \"#utility.yul\":9087:9093   */\n      dup2\n        /* \"#utility.yul\":9081:9094   */\n      mload\n        /* \"#utility.yul\":9072:9094   */\n      swap1\n      pop\n        /* \"#utility.yul\":9103:9136   */\n      tag_228\n        /* \"#utility.yul\":9130:9135   */\n      dup2\n        /* \"#utility.yul\":9103:9136   */\n      tag_114\n      jump\t// in\n    tag_228:\n        /* \"#utility.yul\":8999:9142   */\n      swap3\n      swap2\n      pop\n      pop\n      jump\t// out\n        /* \"#utility.yul\":9148:10119   */\n    tag_94:\n        /* \"#utility.yul\":9251:9257   */\n      0x00\n        /* \"#utility.yul\":9259:9265   */\n      dup1\n        /* \"#utility.yul\":9267:9273   */\n      0x00\n        /* \"#utility.yul\":9275:9281   */\n      dup1\n        /* \"#utility.yul\":9283:9289   */\n      0x00\n        /* \"#utility.yul\":9332:9335   */\n      0xa0\n        /* \"#utility.yul\":9320:9329   */\n      dup7\n        /* \"#utility.yul\":9311:9318   */\n      dup9\n        /* \"#utility.yul\":9307:9330   */\n      sub\n        /* \"#utility.yul\":9303:9336   */\n      slt\n        /* \"#utility.yul\":9300:9420   */\n      iszero\n      tag_230\n      jumpi\n        /* \"#utility.yul\":9339:9418   */\n      tag_231\n      tag_107\n      jump\t// in\n    tag_231:\n        /* \"#utility.yul\":9300:9420   */\n    tag_230:\n        /* \"#utility.yul\":9459:9460   */\n      0x00\n        /* \"#utility.yul\":9484:9547   */\n      tag_232\n        /* \"#utility.yul\":9539:9546   */\n      dup9\n        /* \"#utility.yul\":9530:9536   */\n      dup3\n        /* \"#utility.yul\":9519:9528   */\n      dup10\n        /* \"#utility.yul\":9515:9537   */\n      add\n        /* \"#utility.yul\":9484:9547   */\n      tag_130\n      jump\t// in\n    tag_232:\n        /* \"#utility.yul\":9474:9547   */\n      swap6\n      pop\n        /* \"#utility.yul\":9430:9557   */\n      pop\n        /* \"#utility.yul\":9596:9598   */\n      0x20\n        /* \"#utility.yul\":9622:9685   */\n      tag_233\n        /* \"#utility.yul\":9677:9684   */\n      dup9\n        /* \"#utility.yul\":9668:9674   */\n      dup3\n        /* \"#utility.yul\":9657:9666   */\n      dup10\n        /* \"#utility.yul\":9653:9675   */\n      add\n        /* \"#utility.yul\":9622:9685   */\n      tag_133\n      jump\t// in\n    tag_233:\n        /* \"#utility.yul\":9612:9685   */\n      swap5\n      pop\n        /* \"#utility.yul\":9567:9695   */\n      pop\n        /* \"#utility.yul\":9734:9736   */\n      0x40\n        /* \"#utility.yul\":9760:9824   */\n      tag_234\n        /* \"#utility.yul\":9816:9823   */\n      dup9\n        /* \"#utility.yul\":9807:9813   */\n      dup3\n        /* \"#utility.yul\":9796:9805   */\n      dup10\n        /* \"#utility.yul\":9792:9814   */\n      add\n        /* \"#utility.yul\":9760:9824   */\n      tag_134\n      jump\t// in\n    tag_234:\n        /* \"#utility.yul\":9750:9824   */\n      swap4\n      pop\n        /* \"#utility.yul\":9705:9834   */\n      pop\n        /* \"#utility.yul\":9873:9875   */\n      0x60\n        /* \"#utility.yul\":9899:9963   */\n      tag_235\n        /* \"#utility.yul\":9955:9962   */\n      dup9\n        /* \"#utility.yul\":9946:9952   */\n      dup3\n        /* \"#utility.yul\":9935:9944   */\n      dup10\n        /* \"#utility.yul\":9931:9953   */\n      add\n        /* \"#utility.yul\":9899:9963   */\n      tag_134\n      jump\t// in\n    tag_235:\n        /* \"#utility.yul\":9889:9963   */\n      swap3\n      pop\n        /* \"#utility.yul\":9844:9973   */\n      pop\n        /* \"#utility.yul\":10012:10015   */\n      0x80\n        /* \"#utility.yul\":10039:10102   */\n      tag_236\n        /* \"#utility.yul\":10094:10101   */\n      dup9\n        /* \"#utility.yul\":10085:10091   */\n      dup3\n        /* \"#utility.yul\":10074:10083   */\n      dup10\n        /* \"#utility.yul\":10070:10092   */\n      add\n        /* \"#utility.yul\":10039:10102   */\n      tag_130\n      jump\t// in\n    tag_236:\n        /* \"#utility.yul\":10029:10102   */\n      swap2\n      pop\n        /* \"#utility.yul\":9983:10112   */\n      pop\n        /* \"#utility.yul\":9148:10119   */\n      swap3\n      swap6\n      pop\n      swap3\n      swap6\n      swap1\n      swap4\n      pop\n      jump\t// out\n        /* \"#utility.yul\":10125:10681   */\n    tag_96:\n        /* \"#utility.yul\":10164:10171   */\n      0x00\n        /* \"#utility.yul\":10187:10206   */\n      tag_238\n        /* \"#utility.yul\":10204:10205   */\n      dup3\n        /* \"#utility.yul\":10187:10206   */\n      tag_131\n      jump\t// in\n    tag_238:\n        /* \"#utility.yul\":10182:10206   */\n      swap2\n      pop\n        /* \"#utility.yul\":10220:10239   */\n      tag_239\n        /* \"#utility.yul\":10237:10238   */\n      dup4\n        /* \"#utility.yul\":10220:10239   */\n      tag_131\n      jump\t// in\n    tag_239:\n        /* \"#utility.yul\":10215:10239   */\n      swap3\n      pop\n        /* \"#utility.yul\":10274:10275   */\n      dup3\n        /* \"#utility.yul\":10271:10272   */\n      dup3\n        /* \"#utility.yul\":10267:10276   */\n      mul\n        /* \"#utility.yul\":10296:10325   */\n      tag_240\n        /* \"#utility.yul\":10313:10324   */\n      dup2\n        /* \"#utility.yul\":10296:10325   */\n      tag_131\n      jump\t// in\n    tag_240:\n        /* \"#utility.yul\":10285:10325   */\n      swap2\n      pop\n        /* \"#utility.yul\":10383:10449   */\n      0x8000000000000000000000000000000000000000000000000000000000000000\n        /* \"#utility.yul\":10380:10381   */\n      dup5\n        /* \"#utility.yul\":10377:10450   */\n      eq\n        /* \"#utility.yul\":10373:10374   */\n      0x00\n        /* \"#utility.yul\":10370:10371   */\n      dup5\n        /* \"#utility.yul\":10366:10375   */\n      slt\n        /* \"#utility.yul\":10362:10451   */\n      and\n        /* \"#utility.yul\":10359:10474   */\n      iszero\n      tag_241\n      jumpi\n        /* \"#utility.yul\":10454:10472   */\n      tag_242\n      tag_119\n      jump\t// in\n    tag_242:\n        /* \"#utility.yul\":10359:10474   */\n    tag_241:\n        /* \"#utility.yul\":10624:10625   */\n      dup3\n        /* \"#utility.yul\":10615:10622   */\n      dup3\n        /* \"#utility.yul\":10610:10626   */\n      sdiv\n        /* \"#utility.yul\":10607:10608   */\n      dup5\n        /* \"#utility.yul\":10604:10627   */\n      eq\n        /* \"#utility.yul\":10584:10585   */\n      dup4\n        /* \"#utility.yul\":10577:10586   */\n      iszero\n        /* \"#utility.yul\":10557:10641   */\n      or\n        /* \"#utility.yul\":10534:10674   */\n      tag_243\n      jumpi\n        /* \"#utility.yul\":10654:10672   */\n      tag_244\n      tag_119\n      jump\t// in\n    tag_244:\n        /* \"#utility.yul\":10534:10674   */\n    tag_243:\n        /* \"#utility.yul\":10172:10681   */\n      pop\n        /* \"#utility.yul\":10125:10681   */\n      swap3\n      swap2\n      pop\n      pop\n      jump\t// out\n\n    auxdata: 0xa264697066735822122019a40b085922c497642cf1694c51696b22ce0bd5687584c771a53404094fc89a64736f6c63430008180033\n}\n",
				"bytecode": {
					"linkReferences": {},
					"object": "60a060405234801561000f575f80fd5b503373ffffffffffffffffffffffffffffffffffffffff1660808173ffffffffffffffffffffffffffffffffffffffff1681525050608051610d0c6100635f395f818161027401526105700152610d0c5ff3fe608060405260043610610058575f3560e01c8063098de820146100715780633ccfd60b1461009b5780633e47d6f3146100b15780638da5cb5b146100ed578063b60d428814610117578063dc0d3dff1461012157610067565b366100675761006561015d565b005b61006f61015d565b005b34801561007c575f80fd5b50610085610265565b6040516100929190610763565b60405180910390f35b3480156100a6575f80fd5b506100af610272565b005b3480156100bc575f80fd5b506100d760048036038101906100d291906107da565b610559565b6040516100e49190610763565b60405180910390f35b3480156100f8575f80fd5b5061010161056e565b60405161010e9190610814565b60405180910390f35b61011f61015d565b005b34801561012c575f80fd5b5061014760048036038101906101429190610857565b610592565b6040516101549190610814565b60405180910390f35b6802b5e3af16b1880000610170346105cc565b10156101b1576040517f08c379a00000000000000000000000000000000000000000000000000000000081526004016101a8906108dc565b60405180910390fd5b5f33908060018154018082558091505060019003905f5260205f20015f9091909190916101000a81548173ffffffffffffffffffffffffffffffffffffffff021916908373ffffffffffffffffffffffffffffffffffffffff1602179055503460015f3373ffffffffffffffffffffffffffffffffffffffff1673ffffffffffffffffffffffffffffffffffffffff1681526020019081526020015f205f82825461025c9190610927565b92505081905550565b6802b5e3af16b188000081565b7f000000000000000000000000000000000000000000000000000000000000000073ffffffffffffffffffffffffffffffffffffffff163373ffffffffffffffffffffffffffffffffffffffff16146102f7576040517f7f51e10200000000000000000000000000000000000000000000000000000000815260040160405180910390fd5b5f5b5f80549050811015610393575f8082815481106103195761031861095a565b5b905f5260205f20015f9054906101000a900473ffffffffffffffffffffffffffffffffffffffff1690505f60015f8373ffffffffffffffffffffffffffffffffffffffff1673ffffffffffffffffffffffffffffffffffffffff1681526020019081526020015f20819055505080806001019150506102f9565b505f67ffffffffffffffff8111156103ae576103ad610987565b5b6040519080825280602002602001820160405280156103dc5781602001602082028036833780820191505090505b505f90805190602001906103f19291906106a9565b503373ffffffffffffffffffffffffffffffffffffffff166108fc4790811502906040515f60405180830381858888f19350505050158015610435573d5f803e3d5ffd5b505f3373ffffffffffffffffffffffffffffffffffffffff166108fc4790811502906040515f60405180830381858888f193505050509050806104ad576040517f08c379a00000000000000000000000000000000000000000000000000000000081526004016104a4906109fe565b60405180910390fd5b5f3373ffffffffffffffffffffffffffffffffffffffff16476040516104d290610a49565b5f6040518083038185875af1925050503d805f811461050c576040519150601f19603f3d011682016040523d82523d5f602084013e610511565b606091505b5050905080610555576040517f08c379a000000000000000000000000000000000000000000000000000000000815260040161054c90610aa7565b60405180910390fd5b5050565b6001602052805f5260405f205f915090505481565b7f000000000000000000000000000000000000000000000000000000000000000081565b5f81815481106105a0575f80fd5b905f5260205f20015f915054906101000a900473ffffffffffffffffffffffffffffffffffffffff1681565b5f806105d6610604565b90505f670de0b6b3a764000084836105ee9190610ac5565b6105f89190610b33565b90508092505050919050565b5f8073694aa1769357215de4fac081bf1f309adc32530690505f8173ffffffffffffffffffffffffffffffffffffffff1663feaf968c6040518163ffffffff1660e01b815260040160a060405180830381865afa158015610667573d5f803e3d5ffd5b505050506040513d601f19601f8201168201806040525081019061068b9190610be9565b5050509150506402540be400816106a29190610c60565b9250505090565b828054828255905f5260205f2090810192821561071f579160200282015b8281111561071e578251825f6101000a81548173ffffffffffffffffffffffffffffffffffffffff021916908373ffffffffffffffffffffffffffffffffffffffff160217905550916020019190600101906106c7565b5b50905061072c9190610730565b5090565b5b80821115610747575f815f905550600101610731565b5090565b5f819050919050565b61075d8161074b565b82525050565b5f6020820190506107765f830184610754565b92915050565b5f80fd5b5f73ffffffffffffffffffffffffffffffffffffffff82169050919050565b5f6107a982610780565b9050919050565b6107b98161079f565b81146107c3575f80fd5b50565b5f813590506107d4816107b0565b92915050565b5f602082840312156107ef576107ee61077c565b5b5f6107fc848285016107c6565b91505092915050565b61080e8161079f565b82525050565b5f6020820190506108275f830184610805565b92915050565b6108368161074b565b8114610840575f80fd5b50565b5f813590506108518161082d565b92915050565b5f6020828403121561086c5761086b61077c565b5b5f61087984828501610843565b91505092915050565b5f82825260208201905092915050565b7f646964206e6f742073656e6420656e6f756768206574680000000000000000005f82015250565b5f6108c6601783610882565b91506108d182610892565b602082019050919050565b5f6020820190508181035f8301526108f3816108ba565b9050919050565b7f4e487b71000000000000000000000000000000000000000000000000000000005f52601160045260245ffd5b5f6109318261074b565b915061093c8361074b565b9250828201905080821115610954576109536108fa565b5b92915050565b7f4e487b71000000000000000000000000000000000000000000000000000000005f52603260045260245ffd5b7f4e487b71000000000000000000000000000000000000000000000000000000005f52604160045260245ffd5b7f53656e64204661696c65640000000000000000000000000000000000000000005f82015250565b5f6109e8600b83610882565b91506109f3826109b4565b602082019050919050565b5f6020820190508181035f830152610a15816109dc565b9050919050565b5f81905092915050565b50565b5f610a345f83610a1c565b9150610a3f82610a26565b5f82019050919050565b5f610a5382610a29565b9150819050919050565b7f63616c6c204661696c65640000000000000000000000000000000000000000005f82015250565b5f610a91600b83610882565b9150610a9c82610a5d565b602082019050919050565b5f6020820190508181035f830152610abe81610a85565b9050919050565b5f610acf8261074b565b9150610ada8361074b565b9250828202610ae88161074b565b91508282048414831517610aff57610afe6108fa565b5b5092915050565b7f4e487b71000000000000000000000000000000000000000000000000000000005f52601260045260245ffd5b5f610b3d8261074b565b9150610b488361074b565b925082610b5857610b57610b06565b5b828204905092915050565b5f69ffffffffffffffffffff82169050919050565b610b8181610b63565b8114610b8b575f80fd5b50565b5f81519050610b9c81610b78565b92915050565b5f819050919050565b610bb481610ba2565b8114610bbe575f80fd5b50565b5f81519050610bcf81610bab565b92915050565b5f81519050610be38161082d565b92915050565b5f805f805f60a08688031215610c0257610c0161077c565b5b5f610c0f88828901610b8e565b9550506020610c2088828901610bc1565b9450506040610c3188828901610bd5565b9350506060610c4288828901610bd5565b9250506080610c5388828901610b8e565b9150509295509295909350565b5f610c6a82610ba2565b9150610c7583610ba2565b9250828202610c8381610ba2565b91507f800000000000000000000000000000000000000000000000000000000000000084145f84121615610cba57610cb96108fa565b5b8282058414831517610ccf57610cce6108fa565b5b509291505056fea264697066735822122019a40b085922c497642cf1694c51696b22ce0bd5687584c771a53404094fc89a64736f6c63430008180033",
					"opcodes": "PUSH1 0xA0 PUSH1 0x40 MSTORE CALLVALUE DUP1 ISZERO PUSH2 0xF JUMPI PUSH0 DUP1 REVERT JUMPDEST POP CALLER PUSH20 0xFFFFFFFFFFFFFFFFFFFFFFFFFFFFFFFFFFFFFFFF AND PUSH1 0x80 DUP2 PUSH20 0xFFFFFFFFFFFFFFFFFFFFFFFFFFFFFFFFFFFFFFFF AND DUP2 MSTORE POP POP PUSH1 0x80 MLOAD PUSH2 0xD0C PUSH2 0x63 PUSH0 CODECOPY PUSH0 DUP2 DUP2 PUSH2 0x274 ADD MSTORE PUSH2 0x570 ADD MSTORE PUSH2 0xD0C PUSH0 RETURN INVALID PUSH1 0x80 PUSH1 0x40 MSTORE PUSH1 0x4 CALLDATASIZE LT PUSH2 0x58 JUMPI PUSH0 CALLDATALOAD PUSH1 0xE0 SHR DUP1 PUSH4 0x98DE820 EQ PUSH2 0x71 JUMPI DUP1 PUSH4 0x3CCFD60B EQ PUSH2 0x9B JUMPI DUP1 PUSH4 0x3E47D6F3 EQ PUSH2 0xB1 JUMPI DUP1 PUSH4 0x8DA5CB5B EQ PUSH2 0xED JUMPI DUP1 PUSH4 0xB60D4288 EQ PUSH2 0x117 JUMPI DUP1 PUSH4 0xDC0D3DFF EQ PUSH2 0x121 JUMPI PUSH2 0x67 JUMP JUMPDEST CALLDATASIZE PUSH2 0x67 JUMPI PUSH2 0x65 PUSH2 0x15D JUMP JUMPDEST STOP JUMPDEST PUSH2 0x6F PUSH2 0x15D JUMP JUMPDEST STOP JUMPDEST CALLVALUE DUP1 ISZERO PUSH2 0x7C JUMPI PUSH0 DUP1 REVERT JUMPDEST POP PUSH2 0x85 PUSH2 0x265 JUMP JUMPDEST PUSH1 0x40 MLOAD PUSH2 0x92 SWAP2 SWAP1 PUSH2 0x763 JUMP JUMPDEST PUSH1 0x40 MLOAD DUP1 SWAP2 SUB SWAP1 RETURN JUMPDEST CALLVALUE DUP1 ISZERO PUSH2 0xA6 JUMPI PUSH0 DUP1 REVERT JUMPDEST POP PUSH2 0xAF PUSH2 0x272 JUMP JUMPDEST STOP JUMPDEST CALLVALUE DUP1 ISZERO PUSH2 0xBC JUMPI PUSH0 DUP1 REVERT JUMPDEST POP PUSH2 0xD7 PUSH1 0x4 DUP1 CALLDATASIZE SUB DUP2 ADD SWAP1 PUSH2 0xD2 SWAP2 SWAP1 PUSH2 0x7DA JUMP JUMPDEST PUSH2 0x559 JUMP JUMPDEST PUSH1 0x40 MLOAD PUSH2 0xE4 SWAP2 SWAP1 PUSH2 0x763 JUMP JUMPDEST PUSH1 0x40 MLOAD DUP1 SWAP2 SUB SWAP1 RETURN JUMPDEST CALLVALUE DUP1 ISZERO PUSH2 0xF8 JUMPI PUSH0 DUP1 REVERT JUMPDEST POP PUSH2 0x101 PUSH2 0x56E JUMP JUMPDEST PUSH1 0x40 MLOAD PUSH2 0x10E SWAP2 SWAP1 PUSH2 0x814 JUMP JUMPDEST PUSH1 0x40 MLOAD DUP1 SWAP2 SUB SWAP1 RETURN JUMPDEST PUSH2 0x11F PUSH2 0x15D JUMP JUMPDEST STOP JUMPDEST CALLVALUE DUP1 ISZERO PUSH2 0x12C JUMPI PUSH0 DUP1 REVERT JUMPDEST POP PUSH2 0x147 PUSH1 0x4 DUP1 CALLDATASIZE SUB DUP2 ADD SWAP1 PUSH2 0x142 SWAP2 SWAP1 PUSH2 0x857 JUMP JUMPDEST PUSH2 0x592 JUMP JUMPDEST PUSH1 0x40 MLOAD PUSH2 0x154 SWAP2 SWAP1 PUSH2 0x814 JUMP JUMPDEST PUSH1 0x40 MLOAD DUP1 SWAP2 SUB SWAP1 RETURN JUMPDEST PUSH9 0x2B5E3AF16B1880000 PUSH2 0x170 CALLVALUE PUSH2 0x5CC JUMP JUMPDEST LT ISZERO PUSH2 0x1B1 JUMPI PUSH1 0x40 MLOAD PUSH32 0x8C379A000000000000000000000000000000000000000000000000000000000 DUP2 MSTORE PUSH1 0x4 ADD PUSH2 0x1A8 SWAP1 PUSH2 0x8DC JUMP JUMPDEST PUSH1 0x40 MLOAD DUP1 SWAP2 SUB SWAP1 REVERT JUMPDEST PUSH0 CALLER SWAP1 DUP1 PUSH1 0x1 DUP2 SLOAD ADD DUP1 DUP3 SSTORE DUP1 SWAP2 POP POP PUSH1 0x1 SWAP1 SUB SWAP1 PUSH0 MSTORE PUSH1 0x20 PUSH0 KECCAK256 ADD PUSH0 SWAP1 SWAP2 SWAP1 SWAP2 SWAP1 SWAP2 PUSH2 0x100 EXP DUP2 SLOAD DUP2 PUSH20 0xFFFFFFFFFFFFFFFFFFFFFFFFFFFFFFFFFFFFFFFF MUL NOT AND SWAP1 DUP4 PUSH20 0xFFFFFFFFFFFFFFFFFFFFFFFFFFFFFFFFFFFFFFFF AND MUL OR SWAP1 SSTORE POP CALLVALUE PUSH1 0x1 PUSH0 CALLER PUSH20 0xFFFFFFFFFFFFFFFFFFFFFFFFFFFFFFFFFFFFFFFF AND PUSH20 0xFFFFFFFFFFFFFFFFFFFFFFFFFFFFFFFFFFFFFFFF AND DUP2 MSTORE PUSH1 0x20 ADD SWAP1 DUP2 MSTORE PUSH1 0x20 ADD PUSH0 KECCAK256 PUSH0 DUP3 DUP3 SLOAD PUSH2 0x25C SWAP2 SWAP1 PUSH2 0x927 JUMP JUMPDEST SWAP3 POP POP DUP2 SWAP1 SSTORE POP JUMP JUMPDEST PUSH9 0x2B5E3AF16B1880000 DUP2 JUMP JUMPDEST PUSH32 0x0 PUSH20 0xFFFFFFFFFFFFFFFFFFFFFFFFFFFFFFFFFFFFFFFF AND CALLER PUSH20 0xFFFFFFFFFFFFFFFFFFFFFFFFFFFFFFFFFFFFFFFF AND EQ PUSH2 0x2F7 JUMPI PUSH1 0x40 MLOAD PUSH32 0x7F51E10200000000000000000000000000000000000000000000000000000000 DUP2 MSTORE PUSH1 0x4 ADD PUSH1 0x40 MLOAD DUP1 SWAP2 SUB SWAP1 REVERT JUMPDEST PUSH0 JUMPDEST PUSH0 DUP1 SLOAD SWAP1 POP DUP2 LT ISZERO PUSH2 0x393 JUMPI PUSH0 DUP1 DUP3 DUP2 SLOAD DUP2 LT PUSH2 0x319 JUMPI PUSH2 0x318 PUSH2 0x95A JUMP JUMPDEST JUMPDEST SWAP1 PUSH0 MSTORE PUSH1 0x20 PUSH0 KECCAK256 ADD PUSH0 SWAP1 SLOAD SWAP1 PUSH2 0x100 EXP SWAP1 DIV PUSH20 0xFFFFFFFFFFFFFFFFFFFFFFFFFFFFFFFFFFFFFFFF AND SWAP1 POP PUSH0 PUSH1 0x1 PUSH0 DUP4 PUSH20 0xFFFFFFFFFFFFFFFFFFFFFFFFFFFFFFFFFFFFFFFF AND PUSH20 0xFFFFFFFFFFFFFFFFFFFFFFFFFFFFFFFFFFFFFFFF AND DUP2 MSTORE PUSH1 0x20 ADD SWAP1 DUP2 MSTORE PUSH1 0x20 ADD PUSH0 KECCAK256 DUP2 SWAP1 SSTORE POP POP DUP1 DUP1 PUSH1 0x1 ADD SWAP2 POP POP PUSH2 0x2F9 JUMP JUMPDEST POP PUSH0 PUSH8 0xFFFFFFFFFFFFFFFF DUP2 GT ISZERO PUSH2 0x3AE JUMPI PUSH2 0x3AD PUSH2 0x987 JUMP JUMPDEST JUMPDEST PUSH1 0x40 MLOAD SWAP1 DUP1 DUP3 MSTORE DUP1 PUSH1 0x20 MUL PUSH1 0x20 ADD DUP3 ADD PUSH1 0x40 MSTORE DUP1 ISZERO PUSH2 0x3DC JUMPI DUP2 PUSH1 0x20 ADD PUSH1 0x20 DUP3 MUL DUP1 CALLDATASIZE DUP4 CALLDATACOPY DUP1 DUP3 ADD SWAP2 POP POP SWAP1 POP JUMPDEST POP PUSH0 SWAP1 DUP1 MLOAD SWAP1 PUSH1 0x20 ADD SWAP1 PUSH2 0x3F1 SWAP3 SWAP2 SWAP1 PUSH2 0x6A9 JUMP JUMPDEST POP CALLER PUSH20 0xFFFFFFFFFFFFFFFFFFFFFFFFFFFFFFFFFFFFFFFF AND PUSH2 0x8FC SELFBALANCE SWAP1 DUP2 ISZERO MUL SWAP1 PUSH1 0x40 MLOAD PUSH0 PUSH1 0x40 MLOAD DUP1 DUP4 SUB DUP2 DUP6 DUP9 DUP9 CALL SWAP4 POP POP POP POP ISZERO DUP1 ISZERO PUSH2 0x435 JUMPI RETURNDATASIZE PUSH0 DUP1 RETURNDATACOPY RETURNDATASIZE PUSH0 REVERT JUMPDEST POP PUSH0 CALLER PUSH20 0xFFFFFFFFFFFFFFFFFFFFFFFFFFFFFFFFFFFFFFFF AND PUSH2 0x8FC SELFBALANCE SWAP1 DUP2 ISZERO MUL SWAP1 PUSH1 0x40 MLOAD PUSH0 PUSH1 0x40 MLOAD DUP1 DUP4 SUB DUP2 DUP6 DUP9 DUP9 CALL SWAP4 POP POP POP POP SWAP1 POP DUP1 PUSH2 0x4AD JUMPI PUSH1 0x40 MLOAD PUSH32 0x8C379A000000000000000000000000000000000000000000000000000000000 DUP2 MSTORE PUSH1 0x4 ADD PUSH2 0x4A4 SWAP1 PUSH2 0x9FE JUMP JUMPDEST PUSH1 0x40 MLOAD DUP1 SWAP2 SUB SWAP1 REVERT JUMPDEST PUSH0 CALLER PUSH20 0xFFFFFFFFFFFFFFFFFFFFFFFFFFFFFFFFFFFFFFFF AND SELFBALANCE PUSH1 0x40 MLOAD PUSH2 0x4D2 SWAP1 PUSH2 0xA49 JUMP JUMPDEST PUSH0 PUSH1 0x40 MLOAD DUP1 DUP4 SUB DUP2 DUP6 DUP8 GAS CALL SWAP3 POP POP POP RETURNDATASIZE DUP1 PUSH0 DUP2 EQ PUSH2 0x50C JUMPI PUSH1 0x40 MLOAD SWAP2 POP PUSH1 0x1F NOT PUSH1 0x3F RETURNDATASIZE ADD AND DUP3 ADD PUSH1 0x40 MSTORE RETURNDATASIZE DUP3 MSTORE RETURNDATASIZE PUSH0 PUSH1 0x20 DUP5 ADD RETURNDATACOPY PUSH2 0x511 JUMP JUMPDEST PUSH1 0x60 SWAP2 POP JUMPDEST POP POP SWAP1 POP DUP1 PUSH2 0x555 JUMPI PUSH1 0x40 MLOAD PUSH32 0x8C379A000000000000000000000000000000000000000000000000000000000 DUP2 MSTORE PUSH1 0x4 ADD PUSH2 0x54C SWAP1 PUSH2 0xAA7 JUMP JUMPDEST PUSH1 0x40 MLOAD DUP1 SWAP2 SUB SWAP1 REVERT JUMPDEST POP POP JUMP JUMPDEST PUSH1 0x1 PUSH1 0x20 MSTORE DUP1 PUSH0 MSTORE PUSH1 0x40 PUSH0 KECCAK256 PUSH0 SWAP2 POP SWAP1 POP SLOAD DUP2 JUMP JUMPDEST PUSH32 0x0 DUP2 JUMP JUMPDEST PUSH0 DUP2 DUP2 SLOAD DUP2 LT PUSH2 0x5A0 JUMPI PUSH0 DUP1 REVERT JUMPDEST SWAP1 PUSH0 MSTORE PUSH1 0x20 PUSH0 KECCAK256 ADD PUSH0 SWAP2 POP SLOAD SWAP1 PUSH2 0x100 EXP SWAP1 DIV PUSH20 0xFFFFFFFFFFFFFFFFFFFFFFFFFFFFFFFFFFFFFFFF AND DUP2 JUMP JUMPDEST PUSH0 DUP1 PUSH2 0x5D6 PUSH2 0x604 JUMP JUMPDEST SWAP1 POP PUSH0 PUSH8 0xDE0B6B3A7640000 DUP5 DUP4 PUSH2 0x5EE SWAP2 SWAP1 PUSH2 0xAC5 JUMP JUMPDEST PUSH2 0x5F8 SWAP2 SWAP1 PUSH2 0xB33 JUMP JUMPDEST SWAP1 POP DUP1 SWAP3 POP POP POP SWAP2 SWAP1 POP JUMP JUMPDEST PUSH0 DUP1 PUSH20 0x694AA1769357215DE4FAC081BF1F309ADC325306 SWAP1 POP PUSH0 DUP2 PUSH20 0xFFFFFFFFFFFFFFFFFFFFFFFFFFFFFFFFFFFFFFFF AND PUSH4 0xFEAF968C PUSH1 0x40 MLOAD DUP2 PUSH4 0xFFFFFFFF AND PUSH1 0xE0 SHL DUP2 MSTORE PUSH1 0x4 ADD PUSH1 0xA0 PUSH1 0x40 MLOAD DUP1 DUP4 SUB DUP2 DUP7 GAS STATICCALL ISZERO DUP1 ISZERO PUSH2 0x667 JUMPI RETURNDATASIZE PUSH0 DUP1 RETURNDATACOPY RETURNDATASIZE PUSH0 REVERT JUMPDEST POP POP POP POP PUSH1 0x40 MLOAD RETURNDATASIZE PUSH1 0x1F NOT PUSH1 0x1F DUP3 ADD AND DUP3 ADD DUP1 PUSH1 0x40 MSTORE POP DUP2 ADD SWAP1 PUSH2 0x68B SWAP2 SWAP1 PUSH2 0xBE9 JUMP JUMPDEST POP POP POP SWAP2 POP POP PUSH5 0x2540BE400 DUP2 PUSH2 0x6A2 SWAP2 SWAP1 PUSH2 0xC60 JUMP JUMPDEST SWAP3 POP POP POP SWAP1 JUMP JUMPDEST DUP3 DUP1 SLOAD DUP3 DUP3 SSTORE SWAP1 PUSH0 MSTORE PUSH1 0x20 PUSH0 KECCAK256 SWAP1 DUP2 ADD SWAP3 DUP3 ISZERO PUSH2 0x71F JUMPI SWAP2 PUSH1 0x20 MUL DUP3 ADD JUMPDEST DUP3 DUP2 GT ISZERO PUSH2 0x71E JUMPI DUP3 MLOAD DUP3 PUSH0 PUSH2 0x100 EXP DUP2 SLOAD DUP2 PUSH20 0xFFFFFFFFFFFFFFFFFFFFFFFFFFFFFFFFFFFFFFFF MUL NOT AND SWAP1 DUP4 PUSH20 0xFFFFFFFFFFFFFFFFFFFFFFFFFFFFFFFFFFFFFFFF AND MUL OR SWAP1 SSTORE POP SWAP2 PUSH1 0x20 ADD SWAP2 SWAP1 PUSH1 0x1 ADD SWAP1 PUSH2 0x6C7 JUMP JUMPDEST JUMPDEST POP SWAP1 POP PUSH2 0x72C SWAP2 SWAP1 PUSH2 0x730 JUMP JUMPDEST POP SWAP1 JUMP JUMPDEST JUMPDEST DUP1 DUP3 GT ISZERO PUSH2 0x747 JUMPI PUSH0 DUP2 PUSH0 SWAP1 SSTORE POP PUSH1 0x1 ADD PUSH2 0x731 JUMP JUMPDEST POP SWAP1 JUMP JUMPDEST PUSH0 DUP2 SWAP1 POP SWAP2 SWAP1 POP JUMP JUMPDEST PUSH2 0x75D DUP2 PUSH2 0x74B JUMP JUMPDEST DUP3 MSTORE POP POP JUMP JUMPDEST PUSH0 PUSH1 0x20 DUP3 ADD SWAP1 POP PUSH2 0x776 PUSH0 DUP4 ADD DUP5 PUSH2 0x754 JUMP JUMPDEST SWAP3 SWAP2 POP POP JUMP JUMPDEST PUSH0 DUP1 REVERT JUMPDEST PUSH0 PUSH20 0xFFFFFFFFFFFFFFFFFFFFFFFFFFFFFFFFFFFFFFFF DUP3 AND SWAP1 POP SWAP2 SWAP1 POP JUMP JUMPDEST PUSH0 PUSH2 0x7A9 DUP3 PUSH2 0x780 JUMP JUMPDEST SWAP1 POP SWAP2 SWAP1 POP JUMP JUMPDEST PUSH2 0x7B9 DUP2 PUSH2 0x79F JUMP JUMPDEST DUP2 EQ PUSH2 0x7C3 JUMPI PUSH0 DUP1 REVERT JUMPDEST POP JUMP JUMPDEST PUSH0 DUP2 CALLDATALOAD SWAP1 POP PUSH2 0x7D4 DUP2 PUSH2 0x7B0 JUMP JUMPDEST SWAP3 SWAP2 POP POP JUMP JUMPDEST PUSH0 PUSH1 0x20 DUP3 DUP5 SUB SLT ISZERO PUSH2 0x7EF JUMPI PUSH2 0x7EE PUSH2 0x77C JUMP JUMPDEST JUMPDEST PUSH0 PUSH2 0x7FC DUP5 DUP3 DUP6 ADD PUSH2 0x7C6 JUMP JUMPDEST SWAP2 POP POP SWAP3 SWAP2 POP POP JUMP JUMPDEST PUSH2 0x80E DUP2 PUSH2 0x79F JUMP JUMPDEST DUP3 MSTORE POP POP JUMP JUMPDEST PUSH0 PUSH1 0x20 DUP3 ADD SWAP1 POP PUSH2 0x827 PUSH0 DUP4 ADD DUP5 PUSH2 0x805 JUMP JUMPDEST SWAP3 SWAP2 POP POP JUMP JUMPDEST PUSH2 0x836 DUP2 PUSH2 0x74B JUMP JUMPDEST DUP2 EQ PUSH2 0x840 JUMPI PUSH0 DUP1 REVERT JUMPDEST POP JUMP JUMPDEST PUSH0 DUP2 CALLDATALOAD SWAP1 POP PUSH2 0x851 DUP2 PUSH2 0x82D JUMP JUMPDEST SWAP3 SWAP2 POP POP JUMP JUMPDEST PUSH0 PUSH1 0x20 DUP3 DUP5 SUB SLT ISZERO PUSH2 0x86C JUMPI PUSH2 0x86B PUSH2 0x77C JUMP JUMPDEST JUMPDEST PUSH0 PUSH2 0x879 DUP5 DUP3 DUP6 ADD PUSH2 0x843 JUMP JUMPDEST SWAP2 POP POP SWAP3 SWAP2 POP POP JUMP JUMPDEST PUSH0 DUP3 DUP3 MSTORE PUSH1 0x20 DUP3 ADD SWAP1 POP SWAP3 SWAP2 POP POP JUMP JUMPDEST PUSH32 0x646964206E6F742073656E6420656E6F75676820657468000000000000000000 PUSH0 DUP3 ADD MSTORE POP JUMP JUMPDEST PUSH0 PUSH2 0x8C6 PUSH1 0x17 DUP4 PUSH2 0x882 JUMP JUMPDEST SWAP2 POP PUSH2 0x8D1 DUP3 PUSH2 0x892 JUMP JUMPDEST PUSH1 0x20 DUP3 ADD SWAP1 POP SWAP2 SWAP1 POP JUMP JUMPDEST PUSH0 PUSH1 0x20 DUP3 ADD SWAP1 POP DUP2 DUP2 SUB PUSH0 DUP4 ADD MSTORE PUSH2 0x8F3 DUP2 PUSH2 0x8BA JUMP JUMPDEST SWAP1 POP SWAP2 SWAP1 POP JUMP JUMPDEST PUSH32 0x4E487B7100000000000000000000000000000000000000000000000000000000 PUSH0 MSTORE PUSH1 0x11 PUSH1 0x4 MSTORE PUSH1 0x24 PUSH0 REVERT JUMPDEST PUSH0 PUSH2 0x931 DUP3 PUSH2 0x74B JUMP JUMPDEST SWAP2 POP PUSH2 0x93C DUP4 PUSH2 0x74B JUMP JUMPDEST SWAP3 POP DUP3 DUP3 ADD SWAP1 POP DUP1 DUP3 GT ISZERO PUSH2 0x954 JUMPI PUSH2 0x953 PUSH2 0x8FA JUMP JUMPDEST JUMPDEST SWAP3 SWAP2 POP POP JUMP JUMPDEST PUSH32 0x4E487B7100000000000000000000000000000000000000000000000000000000 PUSH0 MSTORE PUSH1 0x32 PUSH1 0x4 MSTORE PUSH1 0x24 PUSH0 REVERT JUMPDEST PUSH32 0x4E487B7100000000000000000000000000000000000000000000000000000000 PUSH0 MSTORE PUSH1 0x41 PUSH1 0x4 MSTORE PUSH1 0x24 PUSH0 REVERT JUMPDEST PUSH32 0x53656E64204661696C6564000000000000000000000000000000000000000000 PUSH0 DUP3 ADD MSTORE POP JUMP JUMPDEST PUSH0 PUSH2 0x9E8 PUSH1 0xB DUP4 PUSH2 0x882 JUMP JUMPDEST SWAP2 POP PUSH2 0x9F3 DUP3 PUSH2 0x9B4 JUMP JUMPDEST PUSH1 0x20 DUP3 ADD SWAP1 POP SWAP2 SWAP1 POP JUMP JUMPDEST PUSH0 PUSH1 0x20 DUP3 ADD SWAP1 POP DUP2 DUP2 SUB PUSH0 DUP4 ADD MSTORE PUSH2 0xA15 DUP2 PUSH2 0x9DC JUMP JUMPDEST SWAP1 POP SWAP2 SWAP1 POP JUMP JUMPDEST PUSH0 DUP2 SWAP1 POP SWAP3 SWAP2 POP POP JUMP JUMPDEST POP JUMP JUMPDEST PUSH0 PUSH2 0xA34 PUSH0 DUP4 PUSH2 0xA1C JUMP JUMPDEST SWAP2 POP PUSH2 0xA3F DUP3 PUSH2 0xA26 JUMP JUMPDEST PUSH0 DUP3 ADD SWAP1 POP SWAP2 SWAP1 POP JUMP JUMPDEST PUSH0 PUSH2 0xA53 DUP3 PUSH2 0xA29 JUMP JUMPDEST SWAP2 POP DUP2 SWAP1 POP SWAP2 SWAP1 POP JUMP JUMPDEST PUSH32 0x63616C6C204661696C6564000000000000000000000000000000000000000000 PUSH0 DUP3 ADD MSTORE POP JUMP JUMPDEST PUSH0 PUSH2 0xA91 PUSH1 0xB DUP4 PUSH2 0x882 JUMP JUMPDEST SWAP2 POP PUSH2 0xA9C DUP3 PUSH2 0xA5D JUMP JUMPDEST PUSH1 0x20 DUP3 ADD SWAP1 POP SWAP2 SWAP1 POP JUMP JUMPDEST PUSH0 PUSH1 0x20 DUP3 ADD SWAP1 POP DUP2 DUP2 SUB PUSH0 DUP4 ADD MSTORE PUSH2 0xABE DUP2 PUSH2 0xA85 JUMP JUMPDEST SWAP1 POP SWAP2 SWAP1 POP JUMP JUMPDEST PUSH0 PUSH2 0xACF DUP3 PUSH2 0x74B JUMP JUMPDEST SWAP2 POP PUSH2 0xADA DUP4 PUSH2 0x74B JUMP JUMPDEST SWAP3 POP DUP3 DUP3 MUL PUSH2 0xAE8 DUP2 PUSH2 0x74B JUMP JUMPDEST SWAP2 POP DUP3 DUP3 DIV DUP5 EQ DUP4 ISZERO OR PUSH2 0xAFF JUMPI PUSH2 0xAFE PUSH2 0x8FA JUMP JUMPDEST JUMPDEST POP SWAP3 SWAP2 POP POP JUMP JUMPDEST PUSH32 0x4E487B7100000000000000000000000000000000000000000000000000000000 PUSH0 MSTORE PUSH1 0x12 PUSH1 0x4 MSTORE PUSH1 0x24 PUSH0 REVERT JUMPDEST PUSH0 PUSH2 0xB3D DUP3 PUSH2 0x74B JUMP JUMPDEST SWAP2 POP PUSH2 0xB48 DUP4 PUSH2 0x74B JUMP JUMPDEST SWAP3 POP DUP3 PUSH2 0xB58 JUMPI PUSH2 0xB57 PUSH2 0xB06 JUMP JUMPDEST JUMPDEST DUP3 DUP3 DIV SWAP1 POP SWAP3 SWAP2 POP POP JUMP JUMPDEST PUSH0 PUSH10 0xFFFFFFFFFFFFFFFFFFFF DUP3 AND SWAP1 POP SWAP2 SWAP1 POP JUMP JUMPDEST PUSH2 0xB81 DUP2 PUSH2 0xB63 JUMP JUMPDEST DUP2 EQ PUSH2 0xB8B JUMPI PUSH0 DUP1 REVERT JUMPDEST POP JUMP JUMPDEST PUSH0 DUP2 MLOAD SWAP1 POP PUSH2 0xB9C DUP2 PUSH2 0xB78 JUMP JUMPDEST SWAP3 SWAP2 POP POP JUMP JUMPDEST PUSH0 DUP2 SWAP1 POP SWAP2 SWAP1 POP JUMP JUMPDEST PUSH2 0xBB4 DUP2 PUSH2 0xBA2 JUMP JUMPDEST DUP2 EQ PUSH2 0xBBE JUMPI PUSH0 DUP1 REVERT JUMPDEST POP JUMP JUMPDEST PUSH0 DUP2 MLOAD SWAP1 POP PUSH2 0xBCF DUP2 PUSH2 0xBAB JUMP JUMPDEST SWAP3 SWAP2 POP POP JUMP JUMPDEST PUSH0 DUP2 MLOAD SWAP1 POP PUSH2 0xBE3 DUP2 PUSH2 0x82D JUMP JUMPDEST SWAP3 SWAP2 POP POP JUMP JUMPDEST PUSH0 DUP1 PUSH0 DUP1 PUSH0 PUSH1 0xA0 DUP7 DUP9 SUB SLT ISZERO PUSH2 0xC02 JUMPI PUSH2 0xC01 PUSH2 0x77C JUMP JUMPDEST JUMPDEST PUSH0 PUSH2 0xC0F DUP9 DUP3 DUP10 ADD PUSH2 0xB8E JUMP JUMPDEST SWAP6 POP POP PUSH1 0x20 PUSH2 0xC20 DUP9 DUP3 DUP10 ADD PUSH2 0xBC1 JUMP JUMPDEST SWAP5 POP POP PUSH1 0x40 PUSH2 0xC31 DUP9 DUP3 DUP10 ADD PUSH2 0xBD5 JUMP JUMPDEST SWAP4 POP POP PUSH1 0x60 PUSH2 0xC42 DUP9 DUP3 DUP10 ADD PUSH2 0xBD5 JUMP JUMPDEST SWAP3 POP POP PUSH1 0x80 PUSH2 0xC53 DUP9 DUP3 DUP10 ADD PUSH2 0xB8E JUMP JUMPDEST SWAP2 POP POP SWAP3 SWAP6 POP SWAP3 SWAP6 SWAP1 SWAP4 POP JUMP JUMPDEST PUSH0 PUSH2 0xC6A DUP3 PUSH2 0xBA2 JUMP JUMPDEST SWAP2 POP PUSH2 0xC75 DUP4 PUSH2 0xBA2 JUMP JUMPDEST SWAP3 POP DUP3 DUP3 MUL PUSH2 0xC83 DUP2 PUSH2 0xBA2 JUMP JUMPDEST SWAP2 POP PUSH32 0x8000000000000000000000000000000000000000000000000000000000000000 DUP5 EQ PUSH0 DUP5 SLT AND ISZERO PUSH2 0xCBA JUMPI PUSH2 0xCB9 PUSH2 0x8FA JUMP JUMPDEST JUMPDEST DUP3 DUP3 SDIV DUP5 EQ DUP4 ISZERO OR PUSH2 0xCCF JUMPI PUSH2 0xCCE PUSH2 0x8FA JUMP JUMPDEST JUMPDEST POP SWAP3 SWAP2 POP POP JUMP INVALID LOG2 PUSH5 0x6970667358 0x22 SLT KECCAK256 NOT LOG4 SIGNEXTEND ADDMOD MSIZE 0x22 0xC4 SWAP8 PUSH5 0x2CF1694C51 PUSH10 0x6B22CE0BD5687584C771 0xA5 CALLVALUE DIV MULMOD 0x4F 0xC8 SWAP11 PUSH5 0x736F6C6343 STOP ADDMOD XOR STOP CALLER "
				},
				"gasEstimates": {
					"creation": {
						"codeDepositCost": "668000",
						"executionCost": "infinite",
						"totalCost": "infinite"
					},
					"external": {
						"": "infinite",
						"addressToAmountFunded(address)": "2824",
						"fund()": "infinite",
						"funders(uint256)": "5031",
						"minimumUsd()": "303",
						"owner()": "infinite",
						"withdraw()": "infinite"
					}
				},
				"methodIdentifiers": {
					"addressToAmountFunded(address)": "3e47d6f3",
					"fund()": "b60d4288",
					"funders(uint256)": "dc0d3dff",
					"minimumUsd()": "098de820",
					"owner()": "8da5cb5b",
					"withdraw()": "3ccfd60b"
				}
			},
			"storageLayout": {
				"storage": [
					{
						"astId": 62,
						"contract": "FundMe.sol:FundME",
						"label": "funders",
						"offset": 0,
						"slot": "0",
						"type": "t_array(t_address)dyn_storage"
					},
					{
						"astId": 66,
						"contract": "FundMe.sol:FundME",
						"label": "addressToAmountFunded",
						"offset": 0,
						"slot": "1",
						"type": "t_mapping(t_address,t_uint256)"
					}
				],
				"types": {
					"t_address": {
						"encoding": "inplace",
						"label": "address",
						"numberOfBytes": "20"
					},
					"t_array(t_address)dyn_storage": {
						"base": "t_address",
						"encoding": "dynamic_array",
						"label": "address[]",
						"numberOfBytes": "32"
					},
					"t_mapping(t_address,t_uint256)": {
						"encoding": "mapping",
						"key": "t_address",
						"label": "mapping(address => uint256)",
						"numberOfBytes": "32",
						"value": "t_uint256"
					},
					"t_uint256": {
						"encoding": "inplace",
						"label": "uint256",
						"numberOfBytes": "32"
					}
				}
			},
			"userdoc": {
				"kind": "user",
				"methods": {},
				"version": 1
			}
		}
	}
}