{
	"Events.sol": {
		"Events": {
			"abi": [
				{
					"anonymous": false,
					"inputs": [
						{
							"indexed": false,
							"internalType": "string",
							"name": "name",
							"type": "string"
						},
						{
							"indexed": false,
							"internalType": "uint256",
							"name": "rollNumber",
							"type": "uint256"
						},
						{
							"indexed": false,
							"internalType": "uint256",
							"name": "timestamp",
							"type": "uint256"
						}
					],
					"name": "studentAdded",
					"type": "event"
				},
				{
					"inputs": [
						{
							"internalType": "string",
							"name": "_name",
							"type": "string"
						},
						{
							"internalType": "uint256",
							"name": "_contactNumber",
							"type": "uint256"
						},
						{
							"internalType": "string",
							"name": "_emailId",
							"type": "string"
						}
					],
					"name": "addStudent",
					"outputs": [],
					"stateMutability": "nonpayable",
					"type": "function"
				},
				{
					"inputs": [
						{
							"internalType": "uint256",
							"name": "",
							"type": "uint256"
						}
					],
					"name": "studentDatabase",
					"outputs": [
						{
							"internalType": "string",
							"name": "name",
							"type": "string"
						},
						{
							"internalType": "string",
							"name": "emailId",
							"type": "string"
						},
						{
							"internalType": "uint256",
							"name": "contactNumber",
							"type": "uint256"
						},
						{
							"internalType": "uint256",
							"name": "rollNumber",
							"type": "uint256"
						},
						{
							"internalType": "uint256",
							"name": "timestamp",
							"type": "uint256"
						}
					],
					"stateMutability": "view",
					"type": "function"
				}
			],
			"devdoc": {
				"kind": "dev",
				"methods": {},
				"version": 1
			},
			"evm": {
				"assembly": "    /* \"Events.sol\":60:947  contract Events{... */\n  mstore(0x40, 0x80)\n    /* \"Events.sol\":286:287  1 */\n  0x01\n    /* \"Events.sol\":267:287  uint256 rollNumber=1 */\n  dup1\n  sstore\n    /* \"Events.sol\":60:947  contract Events{... */\n  callvalue\n  dup1\n  iszero\n  tag_1\n  jumpi\n  0x00\n  dup1\n  revert\ntag_1:\n  pop\n  dataSize(sub_0)\n  dup1\n  dataOffset(sub_0)\n  0x00\n  codecopy\n  0x00\n  return\nstop\n\nsub_0: assembly {\n        /* \"Events.sol\":60:947  contract Events{... */\n      mstore(0x40, 0x80)\n      callvalue\n      dup1\n      iszero\n      tag_1\n      jumpi\n      0x00\n      dup1\n      revert\n    tag_1:\n      pop\n      jumpi(tag_2, lt(calldatasize, 0x04))\n      shr(0xe0, calldataload(0x00))\n      dup1\n      0xb588d722\n      eq\n      tag_3\n      jumpi\n      dup1\n      0xed32a8a1\n      eq\n      tag_4\n      jumpi\n    tag_2:\n      0x00\n      dup1\n      revert\n        /* \"Events.sol\":214:264  mapping (uint256=> Student) public studentDatabase */\n    tag_3:\n      tag_5\n      0x04\n      dup1\n      calldatasize\n      sub\n      dup2\n      add\n      swap1\n      tag_6\n      swap2\n      swap1\n      tag_7\n      jump\t// in\n    tag_6:\n      tag_8\n      jump\t// in\n    tag_5:\n      mload(0x40)\n      tag_9\n      swap6\n      swap5\n      swap4\n      swap3\n      swap2\n      swap1\n      tag_10\n      jump\t// in\n    tag_9:\n      mload(0x40)\n      dup1\n      swap2\n      sub\n      swap1\n      return\n        /* \"Events.sol\":361:942  function addStudent(... */\n    tag_4:\n      tag_11\n      0x04\n      dup1\n      calldatasize\n      sub\n      dup2\n      add\n      swap1\n      tag_12\n      swap2\n      swap1\n      tag_13\n      jump\t// in\n    tag_12:\n      tag_14\n      jump\t// in\n    tag_11:\n      stop\n        /* \"Events.sol\":214:264  mapping (uint256=> Student) public studentDatabase */\n    tag_8:\n      mstore(0x20, 0x00)\n      dup1\n      0x00\n      mstore\n      keccak256(0x00, 0x40)\n      0x00\n      swap2\n      pop\n      swap1\n      pop\n      dup1\n      0x00\n      add\n      dup1\n      sload\n      tag_15\n      swap1\n      tag_16\n      jump\t// in\n    tag_15:\n      dup1\n      0x1f\n      add\n      0x20\n      dup1\n      swap2\n      div\n      mul\n      0x20\n      add\n      mload(0x40)\n      swap1\n      dup2\n      add\n      0x40\n      mstore\n      dup1\n      swap3\n      swap2\n      swap1\n      dup2\n      dup2\n      mstore\n      0x20\n      add\n      dup3\n      dup1\n      sload\n      tag_17\n      swap1\n      tag_16\n      jump\t// in\n    tag_17:\n      dup1\n      iszero\n      tag_18\n      jumpi\n      dup1\n      0x1f\n      lt\n      tag_19\n      jumpi\n      0x0100\n      dup1\n      dup4\n      sload\n      div\n      mul\n      dup4\n      mstore\n      swap2\n      0x20\n      add\n      swap2\n      jump(tag_18)\n    tag_19:\n      dup3\n      add\n      swap2\n      swap1\n      0x00\n      mstore\n      keccak256(0x00, 0x20)\n      swap1\n    tag_20:\n      dup2\n      sload\n      dup2\n      mstore\n      swap1\n      0x01\n      add\n      swap1\n      0x20\n      add\n      dup1\n      dup4\n      gt\n      tag_20\n      jumpi\n      dup3\n      swap1\n      sub\n      0x1f\n      and\n      dup3\n      add\n      swap2\n    tag_18:\n      pop\n      pop\n      pop\n      pop\n      pop\n      swap1\n      dup1\n      0x01\n      add\n      dup1\n      sload\n      tag_21\n      swap1\n      tag_16\n      jump\t// in\n    tag_21:\n      dup1\n      0x1f\n      add\n      0x20\n      dup1\n      swap2\n      div\n      mul\n      0x20\n      add\n      mload(0x40)\n      swap1\n      dup2\n      add\n      0x40\n      mstore\n      dup1\n      swap3\n      swap2\n      swap1\n      dup2\n      dup2\n      mstore\n      0x20\n      add\n      dup3\n      dup1\n      sload\n      tag_22\n      swap1\n      tag_16\n      jump\t// in\n    tag_22:\n      dup1\n      iszero\n      tag_23\n      jumpi\n      dup1\n      0x1f\n      lt\n      tag_24\n      jumpi\n      0x0100\n      dup1\n      dup4\n      sload\n      div\n      mul\n      dup4\n      mstore\n      swap2\n      0x20\n      add\n      swap2\n      jump(tag_23)\n    tag_24:\n      dup3\n      add\n      swap2\n      swap1\n      0x00\n      mstore\n      keccak256(0x00, 0x20)\n      swap1\n    tag_25:\n      dup2\n      sload\n      dup2\n      mstore\n      swap1\n      0x01\n      add\n      swap1\n      0x20\n      add\n      dup1\n      dup4\n      gt\n      tag_25\n      jumpi\n      dup3\n      swap1\n      sub\n      0x1f\n      and\n      dup3\n      add\n      swap2\n    tag_23:\n      pop\n      pop\n      pop\n      pop\n      pop\n      swap1\n      dup1\n      0x02\n      add\n      sload\n      swap1\n      dup1\n      0x03\n      add\n      sload\n      swap1\n      dup1\n      0x04\n      add\n      sload\n      swap1\n      pop\n      dup6\n      jump\t// out\n        /* \"Events.sol\":361:942  function addStudent(... */\n    tag_14:\n        /* \"Events.sol\":595:600  _name */\n      dup3\n        /* \"Events.sol\":562:577  studentDatabase */\n      0x00\n        /* \"Events.sol\":562:589  studentDatabase[rollNumber] */\n      dup1\n        /* \"Events.sol\":578:588  rollNumber */\n      sload(0x01)\n        /* \"Events.sol\":562:589  studentDatabase[rollNumber] */\n      dup2\n      mstore\n      0x20\n      add\n      swap1\n      dup2\n      mstore\n      0x20\n      add\n      0x00\n      keccak256\n        /* \"Events.sol\":562:594  studentDatabase[rollNumber].name */\n      0x00\n      add\n        /* \"Events.sol\":562:600  studentDatabase[rollNumber].name=_name */\n      swap1\n      dup2\n      tag_27\n      swap2\n      swap1\n      tag_28\n      jump\t// in\n    tag_27:\n      pop\n        /* \"Events.sol\":653:667  _contactNumber */\n      dup2\n        /* \"Events.sol\":611:626  studentDatabase */\n      0x00\n        /* \"Events.sol\":611:638  studentDatabase[rollNumber] */\n      dup1\n        /* \"Events.sol\":627:637  rollNumber */\n      sload(0x01)\n        /* \"Events.sol\":611:638  studentDatabase[rollNumber] */\n      dup2\n      mstore\n      0x20\n      add\n      swap1\n      dup2\n      mstore\n      0x20\n      add\n      0x00\n      keccak256\n        /* \"Events.sol\":611:652  studentDatabase[rollNumber].contactNumber */\n      0x02\n      add\n        /* \"Events.sol\":611:667  studentDatabase[rollNumber].contactNumber=_contactNumber */\n      dup2\n      swap1\n      sstore\n      pop\n        /* \"Events.sol\":714:722  _emailId */\n      dup1\n        /* \"Events.sol\":678:693  studentDatabase */\n      0x00\n        /* \"Events.sol\":678:705  studentDatabase[rollNumber] */\n      dup1\n        /* \"Events.sol\":694:704  rollNumber */\n      sload(0x01)\n        /* \"Events.sol\":678:705  studentDatabase[rollNumber] */\n      dup2\n      mstore\n      0x20\n      add\n      swap1\n      dup2\n      mstore\n      0x20\n      add\n      0x00\n      keccak256\n        /* \"Events.sol\":678:713  studentDatabase[rollNumber].emailId */\n      0x01\n      add\n        /* \"Events.sol\":678:722  studentDatabase[rollNumber].emailId=_emailId */\n      swap1\n      dup2\n      tag_29\n      swap2\n      swap1\n      tag_28\n      jump\t// in\n    tag_29:\n      pop\n        /* \"Events.sol\":772:782  rollNumber */\n      sload(0x01)\n        /* \"Events.sol\":733:748  studentDatabase */\n      0x00\n        /* \"Events.sol\":733:760  studentDatabase[rollNumber] */\n      dup1\n        /* \"Events.sol\":749:759  rollNumber */\n      sload(0x01)\n        /* \"Events.sol\":733:760  studentDatabase[rollNumber] */\n      dup2\n      mstore\n      0x20\n      add\n      swap1\n      dup2\n      mstore\n      0x20\n      add\n      0x00\n      keccak256\n        /* \"Events.sol\":733:771  studentDatabase[rollNumber].rollNumber */\n      0x03\n      add\n        /* \"Events.sol\":733:782  studentDatabase[rollNumber].rollNumber=rollNumber */\n      dup2\n      swap1\n      sstore\n      pop\n        /* \"Events.sol\":831:846  block.timestamp */\n      timestamp\n        /* \"Events.sol\":793:808  studentDatabase */\n      0x00\n        /* \"Events.sol\":793:820  studentDatabase[rollNumber] */\n      dup1\n        /* \"Events.sol\":809:819  rollNumber */\n      sload(0x01)\n        /* \"Events.sol\":793:820  studentDatabase[rollNumber] */\n      dup2\n      mstore\n      0x20\n      add\n      swap1\n      dup2\n      mstore\n      0x20\n      add\n      0x00\n      keccak256\n        /* \"Events.sol\":793:830  studentDatabase[rollNumber].timestamp */\n      0x04\n      add\n        /* \"Events.sol\":793:846  studentDatabase[rollNumber].timestamp=block.timestamp */\n      dup2\n      swap1\n      sstore\n      pop\n        /* \"Events.sol\":862:911  studentAdded(_name, rollNumber , block.timestamp) */\n      0x68ec822632a8e3c84548c407bf093ede51e6950484ff8610fe3623644adccc30\n        /* \"Events.sol\":875:880  _name */\n      dup4\n        /* \"Events.sol\":882:892  rollNumber */\n      sload(0x01)\n        /* \"Events.sol\":895:910  block.timestamp */\n      timestamp\n        /* \"Events.sol\":862:911  studentAdded(_name, rollNumber , block.timestamp) */\n      mload(0x40)\n      tag_30\n      swap4\n      swap3\n      swap2\n      swap1\n      tag_31\n      jump\t// in\n    tag_30:\n      mload(0x40)\n      dup1\n      swap2\n      sub\n      swap1\n      log1\n        /* \"Events.sol\":922:932  rollNumber */\n      0x01\n      0x00\n        /* \"Events.sol\":922:934  rollNumber++ */\n      dup2\n      sload\n      dup1\n      swap3\n      swap2\n      swap1\n      tag_32\n      swap1\n      tag_33\n      jump\t// in\n    tag_32:\n      swap2\n      swap1\n      pop\n      sstore\n      pop\n        /* \"Events.sol\":361:942  function addStudent(... */\n      pop\n      pop\n      pop\n      jump\t// out\n        /* \"#utility.yul\":7:82   */\n    tag_34:\n        /* \"#utility.yul\":40:46   */\n      0x00\n        /* \"#utility.yul\":73:75   */\n      0x40\n        /* \"#utility.yul\":67:76   */\n      mload\n        /* \"#utility.yul\":57:76   */\n      swap1\n      pop\n        /* \"#utility.yul\":7:82   */\n      swap1\n      jump\t// out\n        /* \"#utility.yul\":88:205   */\n    tag_35:\n        /* \"#utility.yul\":197:198   */\n      0x00\n        /* \"#utility.yul\":194:195   */\n      dup1\n        /* \"#utility.yul\":187:199   */\n      revert\n        /* \"#utility.yul\":211:328   */\n    tag_36:\n        /* \"#utility.yul\":320:321   */\n      0x00\n        /* \"#utility.yul\":317:318   */\n      dup1\n        /* \"#utility.yul\":310:322   */\n      revert\n        /* \"#utility.yul\":334:411   */\n    tag_37:\n        /* \"#utility.yul\":371:378   */\n      0x00\n        /* \"#utility.yul\":400:405   */\n      dup2\n        /* \"#utility.yul\":389:405   */\n      swap1\n      pop\n        /* \"#utility.yul\":334:411   */\n      swap2\n      swap1\n      pop\n      jump\t// out\n        /* \"#utility.yul\":417:539   */\n    tag_38:\n        /* \"#utility.yul\":490:514   */\n      tag_78\n        /* \"#utility.yul\":508:513   */\n      dup2\n        /* \"#utility.yul\":490:514   */\n      tag_37\n      jump\t// in\n    tag_78:\n        /* \"#utility.yul\":483:488   */\n      dup2\n        /* \"#utility.yul\":480:515   */\n      eq\n        /* \"#utility.yul\":470:533   */\n      tag_79\n      jumpi\n        /* \"#utility.yul\":529:530   */\n      0x00\n        /* \"#utility.yul\":526:527   */\n      dup1\n        /* \"#utility.yul\":519:531   */\n      revert\n        /* \"#utility.yul\":470:533   */\n    tag_79:\n        /* \"#utility.yul\":417:539   */\n      pop\n      jump\t// out\n        /* \"#utility.yul\":545:684   */\n    tag_39:\n        /* \"#utility.yul\":591:596   */\n      0x00\n        /* \"#utility.yul\":629:635   */\n      dup2\n        /* \"#utility.yul\":616:636   */\n      calldataload\n        /* \"#utility.yul\":607:636   */\n      swap1\n      pop\n        /* \"#utility.yul\":645:678   */\n      tag_81\n        /* \"#utility.yul\":672:677   */\n      dup2\n        /* \"#utility.yul\":645:678   */\n      tag_38\n      jump\t// in\n    tag_81:\n        /* \"#utility.yul\":545:684   */\n      swap3\n      swap2\n      pop\n      pop\n      jump\t// out\n        /* \"#utility.yul\":690:1019   */\n    tag_7:\n        /* \"#utility.yul\":749:755   */\n      0x00\n        /* \"#utility.yul\":798:800   */\n      0x20\n        /* \"#utility.yul\":786:795   */\n      dup3\n        /* \"#utility.yul\":777:784   */\n      dup5\n        /* \"#utility.yul\":773:796   */\n      sub\n        /* \"#utility.yul\":769:801   */\n      slt\n        /* \"#utility.yul\":766:885   */\n      iszero\n      tag_83\n      jumpi\n        /* \"#utility.yul\":804:883   */\n      tag_84\n      tag_35\n      jump\t// in\n    tag_84:\n        /* \"#utility.yul\":766:885   */\n    tag_83:\n        /* \"#utility.yul\":924:925   */\n      0x00\n        /* \"#utility.yul\":949:1002   */\n      tag_85\n        /* \"#utility.yul\":994:1001   */\n      dup5\n        /* \"#utility.yul\":985:991   */\n      dup3\n        /* \"#utility.yul\":974:983   */\n      dup6\n        /* \"#utility.yul\":970:992   */\n      add\n        /* \"#utility.yul\":949:1002   */\n      tag_39\n      jump\t// in\n    tag_85:\n        /* \"#utility.yul\":939:1002   */\n      swap2\n      pop\n        /* \"#utility.yul\":895:1012   */\n      pop\n        /* \"#utility.yul\":690:1019   */\n      swap3\n      swap2\n      pop\n      pop\n      jump\t// out\n        /* \"#utility.yul\":1025:1124   */\n    tag_40:\n        /* \"#utility.yul\":1077:1083   */\n      0x00\n        /* \"#utility.yul\":1111:1116   */\n      dup2\n        /* \"#utility.yul\":1105:1117   */\n      mload\n        /* \"#utility.yul\":1095:1117   */\n      swap1\n      pop\n        /* \"#utility.yul\":1025:1124   */\n      swap2\n      swap1\n      pop\n      jump\t// out\n        /* \"#utility.yul\":1130:1299   */\n    tag_41:\n        /* \"#utility.yul\":1214:1225   */\n      0x00\n        /* \"#utility.yul\":1248:1254   */\n      dup3\n        /* \"#utility.yul\":1243:1246   */\n      dup3\n        /* \"#utility.yul\":1236:1255   */\n      mstore\n        /* \"#utility.yul\":1288:1292   */\n      0x20\n        /* \"#utility.yul\":1283:1286   */\n      dup3\n        /* \"#utility.yul\":1279:1293   */\n      add\n        /* \"#utility.yul\":1264:1293   */\n      swap1\n      pop\n        /* \"#utility.yul\":1130:1299   */\n      swap3\n      swap2\n      pop\n      pop\n      jump\t// out\n        /* \"#utility.yul\":1305:1551   */\n    tag_42:\n        /* \"#utility.yul\":1386:1387   */\n      0x00\n        /* \"#utility.yul\":1396:1509   */\n    tag_89:\n        /* \"#utility.yul\":1410:1416   */\n      dup4\n        /* \"#utility.yul\":1407:1408   */\n      dup2\n        /* \"#utility.yul\":1404:1417   */\n      lt\n        /* \"#utility.yul\":1396:1509   */\n      iszero\n      tag_91\n      jumpi\n        /* \"#utility.yul\":1495:1496   */\n      dup1\n        /* \"#utility.yul\":1490:1493   */\n      dup3\n        /* \"#utility.yul\":1486:1497   */\n      add\n        /* \"#utility.yul\":1480:1498   */\n      mload\n        /* \"#utility.yul\":1476:1477   */\n      dup2\n        /* \"#utility.yul\":1471:1474   */\n      dup5\n        /* \"#utility.yul\":1467:1478   */\n      add\n        /* \"#utility.yul\":1460:1499   */\n      mstore\n        /* \"#utility.yul\":1432:1434   */\n      0x20\n        /* \"#utility.yul\":1429:1430   */\n      dup2\n        /* \"#utility.yul\":1425:1435   */\n      add\n        /* \"#utility.yul\":1420:1435   */\n      swap1\n      pop\n        /* \"#utility.yul\":1396:1509   */\n      jump(tag_89)\n    tag_91:\n        /* \"#utility.yul\":1543:1544   */\n      0x00\n        /* \"#utility.yul\":1534:1540   */\n      dup5\n        /* \"#utility.yul\":1529:1532   */\n      dup5\n        /* \"#utility.yul\":1525:1541   */\n      add\n        /* \"#utility.yul\":1518:1545   */\n      mstore\n        /* \"#utility.yul\":1367:1551   */\n      pop\n        /* \"#utility.yul\":1305:1551   */\n      pop\n      pop\n      pop\n      jump\t// out\n        /* \"#utility.yul\":1557:1659   */\n    tag_43:\n        /* \"#utility.yul\":1598:1604   */\n      0x00\n        /* \"#utility.yul\":1649:1651   */\n      0x1f\n        /* \"#utility.yul\":1645:1652   */\n      not\n        /* \"#utility.yul\":1640:1642   */\n      0x1f\n        /* \"#utility.yul\":1633:1638   */\n      dup4\n        /* \"#utility.yul\":1629:1643   */\n      add\n        /* \"#utility.yul\":1625:1653   */\n      and\n        /* \"#utility.yul\":1615:1653   */\n      swap1\n      pop\n        /* \"#utility.yul\":1557:1659   */\n      swap2\n      swap1\n      pop\n      jump\t// out\n        /* \"#utility.yul\":1665:2042   */\n    tag_44:\n        /* \"#utility.yul\":1753:1756   */\n      0x00\n        /* \"#utility.yul\":1781:1820   */\n      tag_94\n        /* \"#utility.yul\":1814:1819   */\n      dup3\n        /* \"#utility.yul\":1781:1820   */\n      tag_40\n      jump\t// in\n    tag_94:\n        /* \"#utility.yul\":1836:1907   */\n      tag_95\n        /* \"#utility.yul\":1900:1906   */\n      dup2\n        /* \"#utility.yul\":1895:1898   */\n      dup6\n        /* \"#utility.yul\":1836:1907   */\n      tag_41\n      jump\t// in\n    tag_95:\n        /* \"#utility.yul\":1829:1907   */\n      swap4\n      pop\n        /* \"#utility.yul\":1916:1981   */\n      tag_96\n        /* \"#utility.yul\":1974:1980   */\n      dup2\n        /* \"#utility.yul\":1969:1972   */\n      dup6\n        /* \"#utility.yul\":1962:1966   */\n      0x20\n        /* \"#utility.yul\":1955:1960   */\n      dup7\n        /* \"#utility.yul\":1951:1967   */\n      add\n        /* \"#utility.yul\":1916:1981   */\n      tag_42\n      jump\t// in\n    tag_96:\n        /* \"#utility.yul\":2006:2035   */\n      tag_97\n        /* \"#utility.yul\":2028:2034   */\n      dup2\n        /* \"#utility.yul\":2006:2035   */\n      tag_43\n      jump\t// in\n    tag_97:\n        /* \"#utility.yul\":2001:2004   */\n      dup5\n        /* \"#utility.yul\":1997:2036   */\n      add\n        /* \"#utility.yul\":1990:2036   */\n      swap2\n      pop\n        /* \"#utility.yul\":1757:2042   */\n      pop\n        /* \"#utility.yul\":1665:2042   */\n      swap3\n      swap2\n      pop\n      pop\n      jump\t// out\n        /* \"#utility.yul\":2048:2166   */\n    tag_45:\n        /* \"#utility.yul\":2135:2159   */\n      tag_99\n        /* \"#utility.yul\":2153:2158   */\n      dup2\n        /* \"#utility.yul\":2135:2159   */\n      tag_37\n      jump\t// in\n    tag_99:\n        /* \"#utility.yul\":2130:2133   */\n      dup3\n        /* \"#utility.yul\":2123:2160   */\n      mstore\n        /* \"#utility.yul\":2048:2166   */\n      pop\n      pop\n      jump\t// out\n        /* \"#utility.yul\":2172:3018   */\n    tag_10:\n        /* \"#utility.yul\":2417:2421   */\n      0x00\n        /* \"#utility.yul\":2455:2458   */\n      0xa0\n        /* \"#utility.yul\":2444:2453   */\n      dup3\n        /* \"#utility.yul\":2440:2459   */\n      add\n        /* \"#utility.yul\":2432:2459   */\n      swap1\n      pop\n        /* \"#utility.yul\":2505:2514   */\n      dup2\n        /* \"#utility.yul\":2499:2503   */\n      dup2\n        /* \"#utility.yul\":2495:2515   */\n      sub\n        /* \"#utility.yul\":2491:2492   */\n      0x00\n        /* \"#utility.yul\":2480:2489   */\n      dup4\n        /* \"#utility.yul\":2476:2493   */\n      add\n        /* \"#utility.yul\":2469:2516   */\n      mstore\n        /* \"#utility.yul\":2533:2611   */\n      tag_101\n        /* \"#utility.yul\":2606:2610   */\n      dup2\n        /* \"#utility.yul\":2597:2603   */\n      dup9\n        /* \"#utility.yul\":2533:2611   */\n      tag_44\n      jump\t// in\n    tag_101:\n        /* \"#utility.yul\":2525:2611   */\n      swap1\n      pop\n        /* \"#utility.yul\":2658:2667   */\n      dup2\n        /* \"#utility.yul\":2652:2656   */\n      dup2\n        /* \"#utility.yul\":2648:2668   */\n      sub\n        /* \"#utility.yul\":2643:2645   */\n      0x20\n        /* \"#utility.yul\":2632:2641   */\n      dup4\n        /* \"#utility.yul\":2628:2646   */\n      add\n        /* \"#utility.yul\":2621:2669   */\n      mstore\n        /* \"#utility.yul\":2686:2764   */\n      tag_102\n        /* \"#utility.yul\":2759:2763   */\n      dup2\n        /* \"#utility.yul\":2750:2756   */\n      dup8\n        /* \"#utility.yul\":2686:2764   */\n      tag_44\n      jump\t// in\n    tag_102:\n        /* \"#utility.yul\":2678:2764   */\n      swap1\n      pop\n        /* \"#utility.yul\":2774:2846   */\n      tag_103\n        /* \"#utility.yul\":2842:2844   */\n      0x40\n        /* \"#utility.yul\":2831:2840   */\n      dup4\n        /* \"#utility.yul\":2827:2845   */\n      add\n        /* \"#utility.yul\":2818:2824   */\n      dup7\n        /* \"#utility.yul\":2774:2846   */\n      tag_45\n      jump\t// in\n    tag_103:\n        /* \"#utility.yul\":2856:2928   */\n      tag_104\n        /* \"#utility.yul\":2924:2926   */\n      0x60\n        /* \"#utility.yul\":2913:2922   */\n      dup4\n        /* \"#utility.yul\":2909:2927   */\n      add\n        /* \"#utility.yul\":2900:2906   */\n      dup6\n        /* \"#utility.yul\":2856:2928   */\n      tag_45\n      jump\t// in\n    tag_104:\n        /* \"#utility.yul\":2938:3011   */\n      tag_105\n        /* \"#utility.yul\":3006:3009   */\n      0x80\n        /* \"#utility.yul\":2995:3004   */\n      dup4\n        /* \"#utility.yul\":2991:3010   */\n      add\n        /* \"#utility.yul\":2982:2988   */\n      dup5\n        /* \"#utility.yul\":2938:3011   */\n      tag_45\n      jump\t// in\n    tag_105:\n        /* \"#utility.yul\":2172:3018   */\n      swap7\n      swap6\n      pop\n      pop\n      pop\n      pop\n      pop\n      pop\n      jump\t// out\n        /* \"#utility.yul\":3024:3141   */\n    tag_46:\n        /* \"#utility.yul\":3133:3134   */\n      0x00\n        /* \"#utility.yul\":3130:3131   */\n      dup1\n        /* \"#utility.yul\":3123:3135   */\n      revert\n        /* \"#utility.yul\":3147:3264   */\n    tag_47:\n        /* \"#utility.yul\":3256:3257   */\n      0x00\n        /* \"#utility.yul\":3253:3254   */\n      dup1\n        /* \"#utility.yul\":3246:3258   */\n      revert\n        /* \"#utility.yul\":3270:3450   */\n    tag_48:\n        /* \"#utility.yul\":3318:3395   */\n      0x4e487b7100000000000000000000000000000000000000000000000000000000\n        /* \"#utility.yul\":3315:3316   */\n      0x00\n        /* \"#utility.yul\":3308:3396   */\n      mstore\n        /* \"#utility.yul\":3415:3419   */\n      0x41\n        /* \"#utility.yul\":3412:3413   */\n      0x04\n        /* \"#utility.yul\":3405:3420   */\n      mstore\n        /* \"#utility.yul\":3439:3443   */\n      0x24\n        /* \"#utility.yul\":3436:3437   */\n      0x00\n        /* \"#utility.yul\":3429:3444   */\n      revert\n        /* \"#utility.yul\":3456:3737   */\n    tag_49:\n        /* \"#utility.yul\":3539:3566   */\n      tag_110\n        /* \"#utility.yul\":3561:3565   */\n      dup3\n        /* \"#utility.yul\":3539:3566   */\n      tag_43\n      jump\t// in\n    tag_110:\n        /* \"#utility.yul\":3531:3537   */\n      dup2\n        /* \"#utility.yul\":3527:3567   */\n      add\n        /* \"#utility.yul\":3669:3675   */\n      dup2\n        /* \"#utility.yul\":3657:3667   */\n      dup2\n        /* \"#utility.yul\":3654:3676   */\n      lt\n        /* \"#utility.yul\":3633:3651   */\n      0xffffffffffffffff\n        /* \"#utility.yul\":3621:3631   */\n      dup3\n        /* \"#utility.yul\":3618:3652   */\n      gt\n        /* \"#utility.yul\":3615:3677   */\n      or\n        /* \"#utility.yul\":3612:3700   */\n      iszero\n      tag_111\n      jumpi\n        /* \"#utility.yul\":3680:3698   */\n      tag_112\n      tag_48\n      jump\t// in\n    tag_112:\n        /* \"#utility.yul\":3612:3700   */\n    tag_111:\n        /* \"#utility.yul\":3720:3730   */\n      dup1\n        /* \"#utility.yul\":3716:3718   */\n      0x40\n        /* \"#utility.yul\":3709:3731   */\n      mstore\n        /* \"#utility.yul\":3499:3737   */\n      pop\n        /* \"#utility.yul\":3456:3737   */\n      pop\n      pop\n      jump\t// out\n        /* \"#utility.yul\":3743:3872   */\n    tag_50:\n        /* \"#utility.yul\":3777:3783   */\n      0x00\n        /* \"#utility.yul\":3804:3824   */\n      tag_114\n      tag_34\n      jump\t// in\n    tag_114:\n        /* \"#utility.yul\":3794:3824   */\n      swap1\n      pop\n        /* \"#utility.yul\":3833:3866   */\n      tag_115\n        /* \"#utility.yul\":3861:3865   */\n      dup3\n        /* \"#utility.yul\":3853:3859   */\n      dup3\n        /* \"#utility.yul\":3833:3866   */\n      tag_49\n      jump\t// in\n    tag_115:\n        /* \"#utility.yul\":3743:3872   */\n      swap2\n      swap1\n      pop\n      jump\t// out\n        /* \"#utility.yul\":3878:4186   */\n    tag_51:\n        /* \"#utility.yul\":3940:3944   */\n      0x00\n        /* \"#utility.yul\":4030:4048   */\n      0xffffffffffffffff\n        /* \"#utility.yul\":4022:4028   */\n      dup3\n        /* \"#utility.yul\":4019:4049   */\n      gt\n        /* \"#utility.yul\":4016:4072   */\n      iszero\n      tag_117\n      jumpi\n        /* \"#utility.yul\":4052:4070   */\n      tag_118\n      tag_48\n      jump\t// in\n    tag_118:\n        /* \"#utility.yul\":4016:4072   */\n    tag_117:\n        /* \"#utility.yul\":4090:4119   */\n      tag_119\n        /* \"#utility.yul\":4112:4118   */\n      dup3\n        /* \"#utility.yul\":4090:4119   */\n      tag_43\n      jump\t// in\n    tag_119:\n        /* \"#utility.yul\":4082:4119   */\n      swap1\n      pop\n        /* \"#utility.yul\":4174:4178   */\n      0x20\n        /* \"#utility.yul\":4168:4172   */\n      dup2\n        /* \"#utility.yul\":4164:4179   */\n      add\n        /* \"#utility.yul\":4156:4179   */\n      swap1\n      pop\n        /* \"#utility.yul\":3878:4186   */\n      swap2\n      swap1\n      pop\n      jump\t// out\n        /* \"#utility.yul\":4192:4338   */\n    tag_52:\n        /* \"#utility.yul\":4289:4295   */\n      dup3\n        /* \"#utility.yul\":4284:4287   */\n      dup2\n        /* \"#utility.yul\":4279:4282   */\n      dup4\n        /* \"#utility.yul\":4266:4296   */\n      calldatacopy\n        /* \"#utility.yul\":4330:4331   */\n      0x00\n        /* \"#utility.yul\":4321:4327   */\n      dup4\n        /* \"#utility.yul\":4316:4319   */\n      dup4\n        /* \"#utility.yul\":4312:4328   */\n      add\n        /* \"#utility.yul\":4305:4332   */\n      mstore\n        /* \"#utility.yul\":4192:4338   */\n      pop\n      pop\n      pop\n      jump\t// out\n        /* \"#utility.yul\":4344:4769   */\n    tag_53:\n        /* \"#utility.yul\":4422:4427   */\n      0x00\n        /* \"#utility.yul\":4447:4513   */\n      tag_122\n        /* \"#utility.yul\":4463:4512   */\n      tag_123\n        /* \"#utility.yul\":4505:4511   */\n      dup5\n        /* \"#utility.yul\":4463:4512   */\n      tag_51\n      jump\t// in\n    tag_123:\n        /* \"#utility.yul\":4447:4513   */\n      tag_50\n      jump\t// in\n    tag_122:\n        /* \"#utility.yul\":4438:4513   */\n      swap1\n      pop\n        /* \"#utility.yul\":4536:4542   */\n      dup3\n        /* \"#utility.yul\":4529:4534   */\n      dup2\n        /* \"#utility.yul\":4522:4543   */\n      mstore\n        /* \"#utility.yul\":4574:4578   */\n      0x20\n        /* \"#utility.yul\":4567:4572   */\n      dup2\n        /* \"#utility.yul\":4563:4579   */\n      add\n        /* \"#utility.yul\":4612:4615   */\n      dup5\n        /* \"#utility.yul\":4603:4609   */\n      dup5\n        /* \"#utility.yul\":4598:4601   */\n      dup5\n        /* \"#utility.yul\":4594:4610   */\n      add\n        /* \"#utility.yul\":4591:4616   */\n      gt\n        /* \"#utility.yul\":4588:4700   */\n      iszero\n      tag_124\n      jumpi\n        /* \"#utility.yul\":4619:4698   */\n      tag_125\n      tag_47\n      jump\t// in\n    tag_125:\n        /* \"#utility.yul\":4588:4700   */\n    tag_124:\n        /* \"#utility.yul\":4709:4763   */\n      tag_126\n        /* \"#utility.yul\":4756:4762   */\n      dup5\n        /* \"#utility.yul\":4751:4754   */\n      dup3\n        /* \"#utility.yul\":4746:4749   */\n      dup6\n        /* \"#utility.yul\":4709:4763   */\n      tag_52\n      jump\t// in\n    tag_126:\n        /* \"#utility.yul\":4428:4769   */\n      pop\n        /* \"#utility.yul\":4344:4769   */\n      swap4\n      swap3\n      pop\n      pop\n      pop\n      jump\t// out\n        /* \"#utility.yul\":4789:5129   */\n    tag_54:\n        /* \"#utility.yul\":4845:4850   */\n      0x00\n        /* \"#utility.yul\":4894:4897   */\n      dup3\n        /* \"#utility.yul\":4887:4891   */\n      0x1f\n        /* \"#utility.yul\":4879:4885   */\n      dup4\n        /* \"#utility.yul\":4875:4892   */\n      add\n        /* \"#utility.yul\":4871:4898   */\n      slt\n        /* \"#utility.yul\":4861:4983   */\n      tag_128\n      jumpi\n        /* \"#utility.yul\":4902:4981   */\n      tag_129\n      tag_46\n      jump\t// in\n    tag_129:\n        /* \"#utility.yul\":4861:4983   */\n    tag_128:\n        /* \"#utility.yul\":5019:5025   */\n      dup2\n        /* \"#utility.yul\":5006:5026   */\n      calldataload\n        /* \"#utility.yul\":5044:5123   */\n      tag_130\n        /* \"#utility.yul\":5119:5122   */\n      dup5\n        /* \"#utility.yul\":5111:5117   */\n      dup3\n        /* \"#utility.yul\":5104:5108   */\n      0x20\n        /* \"#utility.yul\":5096:5102   */\n      dup7\n        /* \"#utility.yul\":5092:5109   */\n      add\n        /* \"#utility.yul\":5044:5123   */\n      tag_53\n      jump\t// in\n    tag_130:\n        /* \"#utility.yul\":5035:5123   */\n      swap2\n      pop\n        /* \"#utility.yul\":4851:5129   */\n      pop\n        /* \"#utility.yul\":4789:5129   */\n      swap3\n      swap2\n      pop\n      pop\n      jump\t// out\n        /* \"#utility.yul\":5135:6114   */\n    tag_13:\n        /* \"#utility.yul\":5232:5238   */\n      0x00\n        /* \"#utility.yul\":5240:5246   */\n      dup1\n        /* \"#utility.yul\":5248:5254   */\n      0x00\n        /* \"#utility.yul\":5297:5299   */\n      0x60\n        /* \"#utility.yul\":5285:5294   */\n      dup5\n        /* \"#utility.yul\":5276:5283   */\n      dup7\n        /* \"#utility.yul\":5272:5295   */\n      sub\n        /* \"#utility.yul\":5268:5300   */\n      slt\n        /* \"#utility.yul\":5265:5384   */\n      iszero\n      tag_132\n      jumpi\n        /* \"#utility.yul\":5303:5382   */\n      tag_133\n      tag_35\n      jump\t// in\n    tag_133:\n        /* \"#utility.yul\":5265:5384   */\n    tag_132:\n        /* \"#utility.yul\":5451:5452   */\n      0x00\n        /* \"#utility.yul\":5440:5449   */\n      dup5\n        /* \"#utility.yul\":5436:5453   */\n      add\n        /* \"#utility.yul\":5423:5454   */\n      calldataload\n        /* \"#utility.yul\":5481:5499   */\n      0xffffffffffffffff\n        /* \"#utility.yul\":5473:5479   */\n      dup2\n        /* \"#utility.yul\":5470:5500   */\n      gt\n        /* \"#utility.yul\":5467:5584   */\n      iszero\n      tag_134\n      jumpi\n        /* \"#utility.yul\":5503:5582   */\n      tag_135\n      tag_36\n      jump\t// in\n    tag_135:\n        /* \"#utility.yul\":5467:5584   */\n    tag_134:\n        /* \"#utility.yul\":5608:5671   */\n      tag_136\n        /* \"#utility.yul\":5663:5670   */\n      dup7\n        /* \"#utility.yul\":5654:5660   */\n      dup3\n        /* \"#utility.yul\":5643:5652   */\n      dup8\n        /* \"#utility.yul\":5639:5661   */\n      add\n        /* \"#utility.yul\":5608:5671   */\n      tag_54\n      jump\t// in\n    tag_136:\n        /* \"#utility.yul\":5598:5671   */\n      swap4\n      pop\n        /* \"#utility.yul\":5394:5681   */\n      pop\n        /* \"#utility.yul\":5720:5722   */\n      0x20\n        /* \"#utility.yul\":5746:5799   */\n      tag_137\n        /* \"#utility.yul\":5791:5798   */\n      dup7\n        /* \"#utility.yul\":5782:5788   */\n      dup3\n        /* \"#utility.yul\":5771:5780   */\n      dup8\n        /* \"#utility.yul\":5767:5789   */\n      add\n        /* \"#utility.yul\":5746:5799   */\n      tag_39\n      jump\t// in\n    tag_137:\n        /* \"#utility.yul\":5736:5799   */\n      swap3\n      pop\n        /* \"#utility.yul\":5691:5809   */\n      pop\n        /* \"#utility.yul\":5876:5878   */\n      0x40\n        /* \"#utility.yul\":5865:5874   */\n      dup5\n        /* \"#utility.yul\":5861:5879   */\n      add\n        /* \"#utility.yul\":5848:5880   */\n      calldataload\n        /* \"#utility.yul\":5907:5925   */\n      0xffffffffffffffff\n        /* \"#utility.yul\":5899:5905   */\n      dup2\n        /* \"#utility.yul\":5896:5926   */\n      gt\n        /* \"#utility.yul\":5893:6010   */\n      iszero\n      tag_138\n      jumpi\n        /* \"#utility.yul\":5929:6008   */\n      tag_139\n      tag_36\n      jump\t// in\n    tag_139:\n        /* \"#utility.yul\":5893:6010   */\n    tag_138:\n        /* \"#utility.yul\":6034:6097   */\n      tag_140\n        /* \"#utility.yul\":6089:6096   */\n      dup7\n        /* \"#utility.yul\":6080:6086   */\n      dup3\n        /* \"#utility.yul\":6069:6078   */\n      dup8\n        /* \"#utility.yul\":6065:6087   */\n      add\n        /* \"#utility.yul\":6034:6097   */\n      tag_54\n      jump\t// in\n    tag_140:\n        /* \"#utility.yul\":6024:6097   */\n      swap2\n      pop\n        /* \"#utility.yul\":5819:6107   */\n      pop\n        /* \"#utility.yul\":5135:6114   */\n      swap3\n      pop\n      swap3\n      pop\n      swap3\n      jump\t// out\n        /* \"#utility.yul\":6120:6300   */\n    tag_55:\n        /* \"#utility.yul\":6168:6245   */\n      0x4e487b7100000000000000000000000000000000000000000000000000000000\n        /* \"#utility.yul\":6165:6166   */\n      0x00\n        /* \"#utility.yul\":6158:6246   */\n      mstore\n        /* \"#utility.yul\":6265:6269   */\n      0x22\n        /* \"#utility.yul\":6262:6263   */\n      0x04\n        /* \"#utility.yul\":6255:6270   */\n      mstore\n        /* \"#utility.yul\":6289:6293   */\n      0x24\n        /* \"#utility.yul\":6286:6287   */\n      0x00\n        /* \"#utility.yul\":6279:6294   */\n      revert\n        /* \"#utility.yul\":6306:6626   */\n    tag_16:\n        /* \"#utility.yul\":6350:6356   */\n      0x00\n        /* \"#utility.yul\":6387:6388   */\n      0x02\n        /* \"#utility.yul\":6381:6385   */\n      dup3\n        /* \"#utility.yul\":6377:6389   */\n      div\n        /* \"#utility.yul\":6367:6389   */\n      swap1\n      pop\n        /* \"#utility.yul\":6434:6435   */\n      0x01\n        /* \"#utility.yul\":6428:6432   */\n      dup3\n        /* \"#utility.yul\":6424:6436   */\n      and\n        /* \"#utility.yul\":6455:6473   */\n      dup1\n        /* \"#utility.yul\":6445:6526   */\n      tag_143\n      jumpi\n        /* \"#utility.yul\":6511:6515   */\n      0x7f\n        /* \"#utility.yul\":6503:6509   */\n      dup3\n        /* \"#utility.yul\":6499:6516   */\n      and\n        /* \"#utility.yul\":6489:6516   */\n      swap2\n      pop\n        /* \"#utility.yul\":6445:6526   */\n    tag_143:\n        /* \"#utility.yul\":6573:6575   */\n      0x20\n        /* \"#utility.yul\":6565:6571   */\n      dup3\n        /* \"#utility.yul\":6562:6576   */\n      lt\n        /* \"#utility.yul\":6542:6560   */\n      dup2\n        /* \"#utility.yul\":6539:6577   */\n      sub\n        /* \"#utility.yul\":6536:6620   */\n      tag_144\n      jumpi\n        /* \"#utility.yul\":6592:6610   */\n      tag_145\n      tag_55\n      jump\t// in\n    tag_145:\n        /* \"#utility.yul\":6536:6620   */\n    tag_144:\n        /* \"#utility.yul\":6357:6626   */\n      pop\n        /* \"#utility.yul\":6306:6626   */\n      swap2\n      swap1\n      pop\n      jump\t// out\n        /* \"#utility.yul\":6632:6773   */\n    tag_56:\n        /* \"#utility.yul\":6681:6685   */\n      0x00\n        /* \"#utility.yul\":6704:6707   */\n      dup2\n        /* \"#utility.yul\":6696:6707   */\n      swap1\n      pop\n        /* \"#utility.yul\":6727:6730   */\n      dup2\n        /* \"#utility.yul\":6724:6725   */\n      0x00\n        /* \"#utility.yul\":6717:6731   */\n      mstore\n        /* \"#utility.yul\":6761:6765   */\n      0x20\n        /* \"#utility.yul\":6758:6759   */\n      0x00\n        /* \"#utility.yul\":6748:6766   */\n      keccak256\n        /* \"#utility.yul\":6740:6766   */\n      swap1\n      pop\n        /* \"#utility.yul\":6632:6773   */\n      swap2\n      swap1\n      pop\n      jump\t// out\n        /* \"#utility.yul\":6779:6872   */\n    tag_57:\n        /* \"#utility.yul\":6816:6822   */\n      0x00\n        /* \"#utility.yul\":6863:6865   */\n      0x20\n        /* \"#utility.yul\":6858:6860   */\n      0x1f\n        /* \"#utility.yul\":6851:6856   */\n      dup4\n        /* \"#utility.yul\":6847:6861   */\n      add\n        /* \"#utility.yul\":6843:6866   */\n      div\n        /* \"#utility.yul\":6833:6866   */\n      swap1\n      pop\n        /* \"#utility.yul\":6779:6872   */\n      swap2\n      swap1\n      pop\n      jump\t// out\n        /* \"#utility.yul\":6878:6985   */\n    tag_58:\n        /* \"#utility.yul\":6922:6930   */\n      0x00\n        /* \"#utility.yul\":6972:6977   */\n      dup3\n        /* \"#utility.yul\":6966:6970   */\n      dup3\n        /* \"#utility.yul\":6962:6978   */\n      shl\n        /* \"#utility.yul\":6941:6978   */\n      swap1\n      pop\n        /* \"#utility.yul\":6878:6985   */\n      swap3\n      swap2\n      pop\n      pop\n      jump\t// out\n        /* \"#utility.yul\":6991:7384   */\n    tag_59:\n        /* \"#utility.yul\":7060:7066   */\n      0x00\n        /* \"#utility.yul\":7110:7111   */\n      0x08\n        /* \"#utility.yul\":7098:7108   */\n      dup4\n        /* \"#utility.yul\":7094:7112   */\n      mul\n        /* \"#utility.yul\":7133:7230   */\n      tag_150\n        /* \"#utility.yul\":7163:7229   */\n      0xffffffffffffffffffffffffffffffffffffffffffffffffffffffffffffffff\n        /* \"#utility.yul\":7152:7161   */\n      dup3\n        /* \"#utility.yul\":7133:7230   */\n      tag_58\n      jump\t// in\n    tag_150:\n        /* \"#utility.yul\":7251:7290   */\n      tag_151\n        /* \"#utility.yul\":7281:7289   */\n      dup7\n        /* \"#utility.yul\":7270:7279   */\n      dup4\n        /* \"#utility.yul\":7251:7290   */\n      tag_58\n      jump\t// in\n    tag_151:\n        /* \"#utility.yul\":7239:7290   */\n      swap6\n      pop\n        /* \"#utility.yul\":7323:7327   */\n      dup1\n        /* \"#utility.yul\":7319:7328   */\n      not\n        /* \"#utility.yul\":7312:7317   */\n      dup5\n        /* \"#utility.yul\":7308:7329   */\n      and\n        /* \"#utility.yul\":7299:7329   */\n      swap4\n      pop\n        /* \"#utility.yul\":7372:7376   */\n      dup1\n        /* \"#utility.yul\":7362:7370   */\n      dup7\n        /* \"#utility.yul\":7358:7377   */\n      and\n        /* \"#utility.yul\":7351:7356   */\n      dup5\n        /* \"#utility.yul\":7348:7378   */\n      or\n        /* \"#utility.yul\":7338:7378   */\n      swap3\n      pop\n        /* \"#utility.yul\":7067:7384   */\n      pop\n      pop\n        /* \"#utility.yul\":6991:7384   */\n      swap4\n      swap3\n      pop\n      pop\n      pop\n      jump\t// out\n        /* \"#utility.yul\":7390:7450   */\n    tag_60:\n        /* \"#utility.yul\":7418:7421   */\n      0x00\n        /* \"#utility.yul\":7439:7444   */\n      dup2\n        /* \"#utility.yul\":7432:7444   */\n      swap1\n      pop\n        /* \"#utility.yul\":7390:7450   */\n      swap2\n      swap1\n      pop\n      jump\t// out\n        /* \"#utility.yul\":7456:7598   */\n    tag_61:\n        /* \"#utility.yul\":7506:7515   */\n      0x00\n        /* \"#utility.yul\":7539:7592   */\n      tag_154\n        /* \"#utility.yul\":7557:7591   */\n      tag_155\n        /* \"#utility.yul\":7566:7590   */\n      tag_156\n        /* \"#utility.yul\":7584:7589   */\n      dup5\n        /* \"#utility.yul\":7566:7590   */\n      tag_37\n      jump\t// in\n    tag_156:\n        /* \"#utility.yul\":7557:7591   */\n      tag_60\n      jump\t// in\n    tag_155:\n        /* \"#utility.yul\":7539:7592   */\n      tag_37\n      jump\t// in\n    tag_154:\n        /* \"#utility.yul\":7526:7592   */\n      swap1\n      pop\n        /* \"#utility.yul\":7456:7598   */\n      swap2\n      swap1\n      pop\n      jump\t// out\n        /* \"#utility.yul\":7604:7679   */\n    tag_62:\n        /* \"#utility.yul\":7647:7650   */\n      0x00\n        /* \"#utility.yul\":7668:7673   */\n      dup2\n        /* \"#utility.yul\":7661:7673   */\n      swap1\n      pop\n        /* \"#utility.yul\":7604:7679   */\n      swap2\n      swap1\n      pop\n      jump\t// out\n        /* \"#utility.yul\":7685:7954   */\n    tag_63:\n        /* \"#utility.yul\":7795:7834   */\n      tag_159\n        /* \"#utility.yul\":7826:7833   */\n      dup4\n        /* \"#utility.yul\":7795:7834   */\n      tag_61\n      jump\t// in\n    tag_159:\n        /* \"#utility.yul\":7856:7947   */\n      tag_160\n        /* \"#utility.yul\":7905:7946   */\n      tag_161\n        /* \"#utility.yul\":7929:7945   */\n      dup3\n        /* \"#utility.yul\":7905:7946   */\n      tag_62\n      jump\t// in\n    tag_161:\n        /* \"#utility.yul\":7897:7903   */\n      dup5\n        /* \"#utility.yul\":7890:7894   */\n      dup5\n        /* \"#utility.yul\":7884:7895   */\n      sload\n        /* \"#utility.yul\":7856:7947   */\n      tag_59\n      jump\t// in\n    tag_160:\n        /* \"#utility.yul\":7850:7854   */\n      dup3\n        /* \"#utility.yul\":7843:7948   */\n      sstore\n        /* \"#utility.yul\":7761:7954   */\n      pop\n        /* \"#utility.yul\":7685:7954   */\n      pop\n      pop\n      pop\n      jump\t// out\n        /* \"#utility.yul\":7960:8033   */\n    tag_64:\n        /* \"#utility.yul\":8005:8008   */\n      0x00\n        /* \"#utility.yul\":7960:8033   */\n      swap1\n      jump\t// out\n        /* \"#utility.yul\":8039:8228   */\n    tag_65:\n        /* \"#utility.yul\":8116:8148   */\n      tag_164\n      tag_64\n      jump\t// in\n    tag_164:\n        /* \"#utility.yul\":8157:8222   */\n      tag_165\n        /* \"#utility.yul\":8215:8221   */\n      dup2\n        /* \"#utility.yul\":8207:8213   */\n      dup5\n        /* \"#utility.yul\":8201:8205   */\n      dup5\n        /* \"#utility.yul\":8157:8222   */\n      tag_63\n      jump\t// in\n    tag_165:\n        /* \"#utility.yul\":8092:8228   */\n      pop\n        /* \"#utility.yul\":8039:8228   */\n      pop\n      pop\n      jump\t// out\n        /* \"#utility.yul\":8234:8420   */\n    tag_66:\n        /* \"#utility.yul\":8294:8414   */\n    tag_167:\n        /* \"#utility.yul\":8311:8314   */\n      dup2\n        /* \"#utility.yul\":8304:8309   */\n      dup2\n        /* \"#utility.yul\":8301:8315   */\n      lt\n        /* \"#utility.yul\":8294:8414   */\n      iszero\n      tag_169\n      jumpi\n        /* \"#utility.yul\":8365:8404   */\n      tag_170\n        /* \"#utility.yul\":8402:8403   */\n      0x00\n        /* \"#utility.yul\":8395:8400   */\n      dup3\n        /* \"#utility.yul\":8365:8404   */\n      tag_65\n      jump\t// in\n    tag_170:\n        /* \"#utility.yul\":8338:8339   */\n      0x01\n        /* \"#utility.yul\":8331:8336   */\n      dup2\n        /* \"#utility.yul\":8327:8340   */\n      add\n        /* \"#utility.yul\":8318:8340   */\n      swap1\n      pop\n        /* \"#utility.yul\":8294:8414   */\n      jump(tag_167)\n    tag_169:\n        /* \"#utility.yul\":8234:8420   */\n      pop\n      pop\n      jump\t// out\n        /* \"#utility.yul\":8426:8969   */\n    tag_67:\n        /* \"#utility.yul\":8527:8529   */\n      0x1f\n        /* \"#utility.yul\":8522:8525   */\n      dup3\n        /* \"#utility.yul\":8519:8530   */\n      gt\n        /* \"#utility.yul\":8516:8962   */\n      iszero\n      tag_172\n      jumpi\n        /* \"#utility.yul\":8561:8599   */\n      tag_173\n        /* \"#utility.yul\":8593:8598   */\n      dup2\n        /* \"#utility.yul\":8561:8599   */\n      tag_56\n      jump\t// in\n    tag_173:\n        /* \"#utility.yul\":8645:8674   */\n      tag_174\n        /* \"#utility.yul\":8663:8673   */\n      dup5\n        /* \"#utility.yul\":8645:8674   */\n      tag_57\n      jump\t// in\n    tag_174:\n        /* \"#utility.yul\":8635:8643   */\n      dup2\n        /* \"#utility.yul\":8631:8675   */\n      add\n        /* \"#utility.yul\":8828:8830   */\n      0x20\n        /* \"#utility.yul\":8816:8826   */\n      dup6\n        /* \"#utility.yul\":8813:8831   */\n      lt\n        /* \"#utility.yul\":8810:8859   */\n      iszero\n      tag_175\n      jumpi\n        /* \"#utility.yul\":8849:8857   */\n      dup2\n        /* \"#utility.yul\":8834:8857   */\n      swap1\n      pop\n        /* \"#utility.yul\":8810:8859   */\n    tag_175:\n        /* \"#utility.yul\":8872:8952   */\n      tag_176\n        /* \"#utility.yul\":8928:8950   */\n      tag_177\n        /* \"#utility.yul\":8946:8949   */\n      dup6\n        /* \"#utility.yul\":8928:8950   */\n      tag_57\n      jump\t// in\n    tag_177:\n        /* \"#utility.yul\":8918:8926   */\n      dup4\n        /* \"#utility.yul\":8914:8951   */\n      add\n        /* \"#utility.yul\":8901:8912   */\n      dup3\n        /* \"#utility.yul\":8872:8952   */\n      tag_66\n      jump\t// in\n    tag_176:\n        /* \"#utility.yul\":8531:8962   */\n      pop\n      pop\n        /* \"#utility.yul\":8516:8962   */\n    tag_172:\n        /* \"#utility.yul\":8426:8969   */\n      pop\n      pop\n      pop\n      jump\t// out\n        /* \"#utility.yul\":8975:9092   */\n    tag_68:\n        /* \"#utility.yul\":9029:9037   */\n      0x00\n        /* \"#utility.yul\":9079:9084   */\n      dup3\n        /* \"#utility.yul\":9073:9077   */\n      dup3\n        /* \"#utility.yul\":9069:9085   */\n      shr\n        /* \"#utility.yul\":9048:9085   */\n      swap1\n      pop\n        /* \"#utility.yul\":8975:9092   */\n      swap3\n      swap2\n      pop\n      pop\n      jump\t// out\n        /* \"#utility.yul\":9098:9267   */\n    tag_69:\n        /* \"#utility.yul\":9142:9148   */\n      0x00\n        /* \"#utility.yul\":9175:9226   */\n      tag_180\n        /* \"#utility.yul\":9223:9224   */\n      0x00\n        /* \"#utility.yul\":9219:9225   */\n      not\n        /* \"#utility.yul\":9211:9216   */\n      dup5\n        /* \"#utility.yul\":9208:9209   */\n      0x08\n        /* \"#utility.yul\":9204:9217   */\n      mul\n        /* \"#utility.yul\":9175:9226   */\n      tag_68\n      jump\t// in\n    tag_180:\n        /* \"#utility.yul\":9171:9227   */\n      not\n        /* \"#utility.yul\":9256:9260   */\n      dup1\n        /* \"#utility.yul\":9250:9254   */\n      dup4\n        /* \"#utility.yul\":9246:9261   */\n      and\n        /* \"#utility.yul\":9236:9261   */\n      swap2\n      pop\n        /* \"#utility.yul\":9149:9267   */\n      pop\n        /* \"#utility.yul\":9098:9267   */\n      swap3\n      swap2\n      pop\n      pop\n      jump\t// out\n        /* \"#utility.yul\":9272:9567   */\n    tag_70:\n        /* \"#utility.yul\":9348:9352   */\n      0x00\n        /* \"#utility.yul\":9494:9523   */\n      tag_182\n        /* \"#utility.yul\":9519:9522   */\n      dup4\n        /* \"#utility.yul\":9513:9517   */\n      dup4\n        /* \"#utility.yul\":9494:9523   */\n      tag_69\n      jump\t// in\n    tag_182:\n        /* \"#utility.yul\":9486:9523   */\n      swap2\n      pop\n        /* \"#utility.yul\":9556:9559   */\n      dup3\n        /* \"#utility.yul\":9553:9554   */\n      0x02\n        /* \"#utility.yul\":9549:9560   */\n      mul\n        /* \"#utility.yul\":9543:9547   */\n      dup3\n        /* \"#utility.yul\":9540:9561   */\n      or\n        /* \"#utility.yul\":9532:9561   */\n      swap1\n      pop\n        /* \"#utility.yul\":9272:9567   */\n      swap3\n      swap2\n      pop\n      pop\n      jump\t// out\n        /* \"#utility.yul\":9572:10967   */\n    tag_28:\n        /* \"#utility.yul\":9689:9726   */\n      tag_184\n        /* \"#utility.yul\":9722:9725   */\n      dup3\n        /* \"#utility.yul\":9689:9726   */\n      tag_40\n      jump\t// in\n    tag_184:\n        /* \"#utility.yul\":9791:9809   */\n      0xffffffffffffffff\n        /* \"#utility.yul\":9783:9789   */\n      dup2\n        /* \"#utility.yul\":9780:9810   */\n      gt\n        /* \"#utility.yul\":9777:9833   */\n      iszero\n      tag_185\n      jumpi\n        /* \"#utility.yul\":9813:9831   */\n      tag_186\n      tag_48\n      jump\t// in\n    tag_186:\n        /* \"#utility.yul\":9777:9833   */\n    tag_185:\n        /* \"#utility.yul\":9857:9895   */\n      tag_187\n        /* \"#utility.yul\":9889:9893   */\n      dup3\n        /* \"#utility.yul\":9883:9894   */\n      sload\n        /* \"#utility.yul\":9857:9895   */\n      tag_16\n      jump\t// in\n    tag_187:\n        /* \"#utility.yul\":9942:10009   */\n      tag_188\n        /* \"#utility.yul\":10002:10008   */\n      dup3\n        /* \"#utility.yul\":9994:10000   */\n      dup3\n        /* \"#utility.yul\":9988:9992   */\n      dup6\n        /* \"#utility.yul\":9942:10009   */\n      tag_67\n      jump\t// in\n    tag_188:\n        /* \"#utility.yul\":10036:10037   */\n      0x00\n        /* \"#utility.yul\":10060:10064   */\n      0x20\n        /* \"#utility.yul\":10047:10064   */\n      swap1\n      pop\n        /* \"#utility.yul\":10092:10094   */\n      0x1f\n        /* \"#utility.yul\":10084:10090   */\n      dup4\n        /* \"#utility.yul\":10081:10095   */\n      gt\n        /* \"#utility.yul\":10109:10110   */\n      0x01\n        /* \"#utility.yul\":10104:10722   */\n      dup2\n      eq\n      tag_190\n      jumpi\n        /* \"#utility.yul\":10766:10767   */\n      0x00\n        /* \"#utility.yul\":10783:10789   */\n      dup5\n        /* \"#utility.yul\":10780:10857   */\n      iszero\n      tag_191\n      jumpi\n        /* \"#utility.yul\":10832:10841   */\n      dup3\n        /* \"#utility.yul\":10827:10830   */\n      dup8\n        /* \"#utility.yul\":10823:10842   */\n      add\n        /* \"#utility.yul\":10817:10843   */\n      mload\n        /* \"#utility.yul\":10808:10843   */\n      swap1\n      pop\n        /* \"#utility.yul\":10780:10857   */\n    tag_191:\n        /* \"#utility.yul\":10883:10950   */\n      tag_192\n        /* \"#utility.yul\":10943:10949   */\n      dup6\n        /* \"#utility.yul\":10936:10941   */\n      dup3\n        /* \"#utility.yul\":10883:10950   */\n      tag_70\n      jump\t// in\n    tag_192:\n        /* \"#utility.yul\":10877:10881   */\n      dup7\n        /* \"#utility.yul\":10870:10951   */\n      sstore\n        /* \"#utility.yul\":10739:10961   */\n      pop\n        /* \"#utility.yul\":10074:10961   */\n      jump(tag_189)\n        /* \"#utility.yul\":10104:10722   */\n    tag_190:\n        /* \"#utility.yul\":10156:10160   */\n      0x1f\n        /* \"#utility.yul\":10152:10161   */\n      not\n        /* \"#utility.yul\":10144:10150   */\n      dup5\n        /* \"#utility.yul\":10140:10162   */\n      and\n        /* \"#utility.yul\":10190:10227   */\n      tag_193\n        /* \"#utility.yul\":10222:10226   */\n      dup7\n        /* \"#utility.yul\":10190:10227   */\n      tag_56\n      jump\t// in\n    tag_193:\n        /* \"#utility.yul\":10249:10250   */\n      0x00\n        /* \"#utility.yul\":10263:10471   */\n    tag_194:\n        /* \"#utility.yul\":10277:10284   */\n      dup3\n        /* \"#utility.yul\":10274:10275   */\n      dup2\n        /* \"#utility.yul\":10271:10285   */\n      lt\n        /* \"#utility.yul\":10263:10471   */\n      iszero\n      tag_196\n      jumpi\n        /* \"#utility.yul\":10356:10365   */\n      dup5\n        /* \"#utility.yul\":10351:10354   */\n      dup10\n        /* \"#utility.yul\":10347:10366   */\n      add\n        /* \"#utility.yul\":10341:10367   */\n      mload\n        /* \"#utility.yul\":10333:10339   */\n      dup3\n        /* \"#utility.yul\":10326:10368   */\n      sstore\n        /* \"#utility.yul\":10407:10408   */\n      0x01\n        /* \"#utility.yul\":10399:10405   */\n      dup3\n        /* \"#utility.yul\":10395:10409   */\n      add\n        /* \"#utility.yul\":10385:10409   */\n      swap2\n      pop\n        /* \"#utility.yul\":10454:10456   */\n      0x20\n        /* \"#utility.yul\":10443:10452   */\n      dup6\n        /* \"#utility.yul\":10439:10457   */\n      add\n        /* \"#utility.yul\":10426:10457   */\n      swap5\n      pop\n        /* \"#utility.yul\":10300:10304   */\n      0x20\n        /* \"#utility.yul\":10297:10298   */\n      dup2\n        /* \"#utility.yul\":10293:10305   */\n      add\n        /* \"#utility.yul\":10288:10305   */\n      swap1\n      pop\n        /* \"#utility.yul\":10263:10471   */\n      jump(tag_194)\n    tag_196:\n        /* \"#utility.yul\":10499:10505   */\n      dup7\n        /* \"#utility.yul\":10490:10497   */\n      dup4\n        /* \"#utility.yul\":10487:10506   */\n      lt\n        /* \"#utility.yul\":10484:10663   */\n      iszero\n      tag_197\n      jumpi\n        /* \"#utility.yul\":10557:10566   */\n      dup5\n        /* \"#utility.yul\":10552:10555   */\n      dup10\n        /* \"#utility.yul\":10548:10567   */\n      add\n        /* \"#utility.yul\":10542:10568   */\n      mload\n        /* \"#utility.yul\":10600:10648   */\n      tag_198\n        /* \"#utility.yul\":10642:10646   */\n      0x1f\n        /* \"#utility.yul\":10634:10640   */\n      dup10\n        /* \"#utility.yul\":10630:10647   */\n      and\n        /* \"#utility.yul\":10619:10628   */\n      dup3\n        /* \"#utility.yul\":10600:10648   */\n      tag_69\n      jump\t// in\n    tag_198:\n        /* \"#utility.yul\":10592:10598   */\n      dup4\n        /* \"#utility.yul\":10585:10649   */\n      sstore\n        /* \"#utility.yul\":10507:10663   */\n      pop\n        /* \"#utility.yul\":10484:10663   */\n    tag_197:\n        /* \"#utility.yul\":10709:10710   */\n      0x01\n        /* \"#utility.yul\":10705:10706   */\n      0x02\n        /* \"#utility.yul\":10697:10703   */\n      dup9\n        /* \"#utility.yul\":10693:10707   */\n      mul\n        /* \"#utility.yul\":10689:10711   */\n      add\n        /* \"#utility.yul\":10683:10687   */\n      dup9\n        /* \"#utility.yul\":10676:10712   */\n      sstore\n        /* \"#utility.yul\":10111:10722   */\n      pop\n      pop\n      pop\n        /* \"#utility.yul\":10074:10961   */\n    tag_189:\n      pop\n        /* \"#utility.yul\":9664:10967   */\n      pop\n      pop\n      pop\n        /* \"#utility.yul\":9572:10967   */\n      pop\n      pop\n      jump\t// out\n        /* \"#utility.yul\":10973:11506   */\n    tag_31:\n        /* \"#utility.yul\":11142:11146   */\n      0x00\n        /* \"#utility.yul\":11180:11182   */\n      0x60\n        /* \"#utility.yul\":11169:11178   */\n      dup3\n        /* \"#utility.yul\":11165:11183   */\n      add\n        /* \"#utility.yul\":11157:11183   */\n      swap1\n      pop\n        /* \"#utility.yul\":11229:11238   */\n      dup2\n        /* \"#utility.yul\":11223:11227   */\n      dup2\n        /* \"#utility.yul\":11219:11239   */\n      sub\n        /* \"#utility.yul\":11215:11216   */\n      0x00\n        /* \"#utility.yul\":11204:11213   */\n      dup4\n        /* \"#utility.yul\":11200:11217   */\n      add\n        /* \"#utility.yul\":11193:11240   */\n      mstore\n        /* \"#utility.yul\":11257:11335   */\n      tag_200\n        /* \"#utility.yul\":11330:11334   */\n      dup2\n        /* \"#utility.yul\":11321:11327   */\n      dup7\n        /* \"#utility.yul\":11257:11335   */\n      tag_44\n      jump\t// in\n    tag_200:\n        /* \"#utility.yul\":11249:11335   */\n      swap1\n      pop\n        /* \"#utility.yul\":11345:11417   */\n      tag_201\n        /* \"#utility.yul\":11413:11415   */\n      0x20\n        /* \"#utility.yul\":11402:11411   */\n      dup4\n        /* \"#utility.yul\":11398:11416   */\n      add\n        /* \"#utility.yul\":11389:11395   */\n      dup6\n        /* \"#utility.yul\":11345:11417   */\n      tag_45\n      jump\t// in\n    tag_201:\n        /* \"#utility.yul\":11427:11499   */\n      tag_202\n        /* \"#utility.yul\":11495:11497   */\n      0x40\n        /* \"#utility.yul\":11484:11493   */\n      dup4\n        /* \"#utility.yul\":11480:11498   */\n      add\n        /* \"#utility.yul\":11471:11477   */\n      dup5\n        /* \"#utility.yul\":11427:11499   */\n      tag_45\n      jump\t// in\n    tag_202:\n        /* \"#utility.yul\":10973:11506   */\n      swap5\n      swap4\n      pop\n      pop\n      pop\n      pop\n      jump\t// out\n        /* \"#utility.yul\":11512:11692   */\n    tag_71:\n        /* \"#utility.yul\":11560:11637   */\n      0x4e487b7100000000000000000000000000000000000000000000000000000000\n        /* \"#utility.yul\":11557:11558   */\n      0x00\n        /* \"#utility.yul\":11550:11638   */\n      mstore\n        /* \"#utility.yul\":11657:11661   */\n      0x11\n        /* \"#utility.yul\":11654:11655   */\n      0x04\n        /* \"#utility.yul\":11647:11662   */\n      mstore\n        /* \"#utility.yul\":11681:11685   */\n      0x24\n        /* \"#utility.yul\":11678:11679   */\n      0x00\n        /* \"#utility.yul\":11671:11686   */\n      revert\n        /* \"#utility.yul\":11698:11931   */\n    tag_33:\n        /* \"#utility.yul\":11737:11740   */\n      0x00\n        /* \"#utility.yul\":11760:11784   */\n      tag_205\n        /* \"#utility.yul\":11778:11783   */\n      dup3\n        /* \"#utility.yul\":11760:11784   */\n      tag_37\n      jump\t// in\n    tag_205:\n        /* \"#utility.yul\":11751:11784   */\n      swap2\n      pop\n        /* \"#utility.yul\":11806:11872   */\n      0xffffffffffffffffffffffffffffffffffffffffffffffffffffffffffffffff\n        /* \"#utility.yul\":11799:11804   */\n      dup3\n        /* \"#utility.yul\":11796:11873   */\n      sub\n        /* \"#utility.yul\":11793:11896   */\n      tag_206\n      jumpi\n        /* \"#utility.yul\":11876:11894   */\n      tag_207\n      tag_71\n      jump\t// in\n    tag_207:\n        /* \"#utility.yul\":11793:11896   */\n    tag_206:\n        /* \"#utility.yul\":11923:11924   */\n      0x01\n        /* \"#utility.yul\":11916:11921   */\n      dup3\n        /* \"#utility.yul\":11912:11925   */\n      add\n        /* \"#utility.yul\":11905:11925   */\n      swap1\n      pop\n        /* \"#utility.yul\":11698:11931   */\n      swap2\n      swap1\n      pop\n      jump\t// out\n\n    auxdata: 0xa2646970667358221220f3dc8f4c28e8ee41dc8fee1095672e2f72df5fdb167ac5510d0b8971cc5804e064736f6c63430008180033\n}\n",
				"bytecode": {
					"linkReferences": {},
					"object": "608060405260018055348015610013575f80fd5b5061097d806100215f395ff3fe608060405234801561000f575f80fd5b5060043610610034575f3560e01c8063b588d72214610038578063ed32a8a11461006c575b5f80fd5b610052600480360381019061004d91906102f7565b610088565b6040516100639594939291906103bb565b60405180910390f35b61008660048036038101906100819190610546565b6101c5565b005b5f602052805f5260405f205f91509050805f0180546100a6906105fb565b80601f01602080910402602001604051908101604052809291908181526020018280546100d2906105fb565b801561011d5780601f106100f45761010080835404028352916020019161011d565b820191905f5260205f20905b81548152906001019060200180831161010057829003601f168201915b505050505090806001018054610132906105fb565b80601f016020809104026020016040519081016040528092919081815260200182805461015e906105fb565b80156101a95780601f10610180576101008083540402835291602001916101a9565b820191905f5260205f20905b81548152906001019060200180831161018c57829003601f168201915b5050505050908060020154908060030154908060040154905085565b825f8060015481526020019081526020015f205f0190816101e691906107c8565b50815f8060015481526020019081526020015f2060020181905550805f8060015481526020019081526020015f20600101908161022391906107c8565b506001545f8060015481526020019081526020015f2060030181905550425f8060015481526020019081526020015f20600401819055507f68ec822632a8e3c84548c407bf093ede51e6950484ff8610fe3623644adccc30836001544260405161028f93929190610897565b60405180910390a160015f8154809291906102a990610900565b9190505550505050565b5f604051905090565b5f80fd5b5f80fd5b5f819050919050565b6102d6816102c4565b81146102e0575f80fd5b50565b5f813590506102f1816102cd565b92915050565b5f6020828403121561030c5761030b6102bc565b5b5f610319848285016102e3565b91505092915050565b5f81519050919050565b5f82825260208201905092915050565b5f5b8381101561035957808201518184015260208101905061033e565b5f8484015250505050565b5f601f19601f8301169050919050565b5f61037e82610322565b610388818561032c565b935061039881856020860161033c565b6103a181610364565b840191505092915050565b6103b5816102c4565b82525050565b5f60a0820190508181035f8301526103d38188610374565b905081810360208301526103e78187610374565b90506103f660408301866103ac565b61040360608301856103ac565b61041060808301846103ac565b9695505050505050565b5f80fd5b5f80fd5b7f4e487b71000000000000000000000000000000000000000000000000000000005f52604160045260245ffd5b61045882610364565b810181811067ffffffffffffffff8211171561047757610476610422565b5b80604052505050565b5f6104896102b3565b9050610495828261044f565b919050565b5f67ffffffffffffffff8211156104b4576104b3610422565b5b6104bd82610364565b9050602081019050919050565b828183375f83830152505050565b5f6104ea6104e58461049a565b610480565b9050828152602081018484840111156105065761050561041e565b5b6105118482856104ca565b509392505050565b5f82601f83011261052d5761052c61041a565b5b813561053d8482602086016104d8565b91505092915050565b5f805f6060848603121561055d5761055c6102bc565b5b5f84013567ffffffffffffffff81111561057a576105796102c0565b5b61058686828701610519565b9350506020610597868287016102e3565b925050604084013567ffffffffffffffff8111156105b8576105b76102c0565b5b6105c486828701610519565b9150509250925092565b7f4e487b71000000000000000000000000000000000000000000000000000000005f52602260045260245ffd5b5f600282049050600182168061061257607f821691505b602082108103610625576106246105ce565b5b50919050565b5f819050815f5260205f209050919050565b5f6020601f8301049050919050565b5f82821b905092915050565b5f600883026106877fffffffffffffffffffffffffffffffffffffffffffffffffffffffffffffffff8261064c565b610691868361064c565b95508019841693508086168417925050509392505050565b5f819050919050565b5f6106cc6106c76106c2846102c4565b6106a9565b6102c4565b9050919050565b5f819050919050565b6106e5836106b2565b6106f96106f1826106d3565b848454610658565b825550505050565b5f90565b61070d610701565b6107188184846106dc565b505050565b5b8181101561073b576107305f82610705565b60018101905061071e565b5050565b601f821115610780576107518161062b565b61075a8461063d565b81016020851015610769578190505b61077d6107758561063d565b83018261071d565b50505b505050565b5f82821c905092915050565b5f6107a05f1984600802610785565b1980831691505092915050565b5f6107b88383610791565b9150826002028217905092915050565b6107d182610322565b67ffffffffffffffff8111156107ea576107e9610422565b5b6107f482546105fb565b6107ff82828561073f565b5f60209050601f831160018114610830575f841561081e578287015190505b61082885826107ad565b86555061088f565b601f19841661083e8661062b565b5f5b8281101561086557848901518255600182019150602085019450602081019050610840565b86831015610882578489015161087e601f891682610791565b8355505b6001600288020188555050505b505050505050565b5f6060820190508181035f8301526108af8186610374565b90506108be60208301856103ac565b6108cb60408301846103ac565b949350505050565b7f4e487b71000000000000000000000000000000000000000000000000000000005f52601160045260245ffd5b5f61090a826102c4565b91507fffffffffffffffffffffffffffffffffffffffffffffffffffffffffffffffff820361093c5761093b6108d3565b5b60018201905091905056fea2646970667358221220f3dc8f4c28e8ee41dc8fee1095672e2f72df5fdb167ac5510d0b8971cc5804e064736f6c63430008180033",
					"opcodes": "PUSH1 0x80 PUSH1 0x40 MSTORE PUSH1 0x1 DUP1 SSTORE CALLVALUE DUP1 ISZERO PUSH2 0x13 JUMPI PUSH0 DUP1 REVERT JUMPDEST POP PUSH2 0x97D DUP1 PUSH2 0x21 PUSH0 CODECOPY PUSH0 RETURN INVALID PUSH1 0x80 PUSH1 0x40 MSTORE CALLVALUE DUP1 ISZERO PUSH2 0xF JUMPI PUSH0 DUP1 REVERT JUMPDEST POP PUSH1 0x4 CALLDATASIZE LT PUSH2 0x34 JUMPI PUSH0 CALLDATALOAD PUSH1 0xE0 SHR DUP1 PUSH4 0xB588D722 EQ PUSH2 0x38 JUMPI DUP1 PUSH4 0xED32A8A1 EQ PUSH2 0x6C JUMPI JUMPDEST PUSH0 DUP1 REVERT JUMPDEST PUSH2 0x52 PUSH1 0x4 DUP1 CALLDATASIZE SUB DUP2 ADD SWAP1 PUSH2 0x4D SWAP2 SWAP1 PUSH2 0x2F7 JUMP JUMPDEST PUSH2 0x88 JUMP JUMPDEST PUSH1 0x40 MLOAD PUSH2 0x63 SWAP6 SWAP5 SWAP4 SWAP3 SWAP2 SWAP1 PUSH2 0x3BB JUMP JUMPDEST PUSH1 0x40 MLOAD DUP1 SWAP2 SUB SWAP1 RETURN JUMPDEST PUSH2 0x86 PUSH1 0x4 DUP1 CALLDATASIZE SUB DUP2 ADD SWAP1 PUSH2 0x81 SWAP2 SWAP1 PUSH2 0x546 JUMP JUMPDEST PUSH2 0x1C5 JUMP JUMPDEST STOP JUMPDEST PUSH0 PUSH1 0x20 MSTORE DUP1 PUSH0 MSTORE PUSH1 0x40 PUSH0 KECCAK256 PUSH0 SWAP2 POP SWAP1 POP DUP1 PUSH0 ADD DUP1 SLOAD PUSH2 0xA6 SWAP1 PUSH2 0x5FB JUMP JUMPDEST DUP1 PUSH1 0x1F ADD PUSH1 0x20 DUP1 SWAP2 DIV MUL PUSH1 0x20 ADD PUSH1 0x40 MLOAD SWAP1 DUP2 ADD PUSH1 0x40 MSTORE DUP1 SWAP3 SWAP2 SWAP1 DUP2 DUP2 MSTORE PUSH1 0x20 ADD DUP3 DUP1 SLOAD PUSH2 0xD2 SWAP1 PUSH2 0x5FB JUMP JUMPDEST DUP1 ISZERO PUSH2 0x11D JUMPI DUP1 PUSH1 0x1F LT PUSH2 0xF4 JUMPI PUSH2 0x100 DUP1 DUP4 SLOAD DIV MUL DUP4 MSTORE SWAP2 PUSH1 0x20 ADD SWAP2 PUSH2 0x11D JUMP JUMPDEST DUP3 ADD SWAP2 SWAP1 PUSH0 MSTORE PUSH1 0x20 PUSH0 KECCAK256 SWAP1 JUMPDEST DUP2 SLOAD DUP2 MSTORE SWAP1 PUSH1 0x1 ADD SWAP1 PUSH1 0x20 ADD DUP1 DUP4 GT PUSH2 0x100 JUMPI DUP3 SWAP1 SUB PUSH1 0x1F AND DUP3 ADD SWAP2 JUMPDEST POP POP POP POP POP SWAP1 DUP1 PUSH1 0x1 ADD DUP1 SLOAD PUSH2 0x132 SWAP1 PUSH2 0x5FB JUMP JUMPDEST DUP1 PUSH1 0x1F ADD PUSH1 0x20 DUP1 SWAP2 DIV MUL PUSH1 0x20 ADD PUSH1 0x40 MLOAD SWAP1 DUP2 ADD PUSH1 0x40 MSTORE DUP1 SWAP3 SWAP2 SWAP1 DUP2 DUP2 MSTORE PUSH1 0x20 ADD DUP3 DUP1 SLOAD PUSH2 0x15E SWAP1 PUSH2 0x5FB JUMP JUMPDEST DUP1 ISZERO PUSH2 0x1A9 JUMPI DUP1 PUSH1 0x1F LT PUSH2 0x180 JUMPI PUSH2 0x100 DUP1 DUP4 SLOAD DIV MUL DUP4 MSTORE SWAP2 PUSH1 0x20 ADD SWAP2 PUSH2 0x1A9 JUMP JUMPDEST DUP3 ADD SWAP2 SWAP1 PUSH0 MSTORE PUSH1 0x20 PUSH0 KECCAK256 SWAP1 JUMPDEST DUP2 SLOAD DUP2 MSTORE SWAP1 PUSH1 0x1 ADD SWAP1 PUSH1 0x20 ADD DUP1 DUP4 GT PUSH2 0x18C JUMPI DUP3 SWAP1 SUB PUSH1 0x1F AND DUP3 ADD SWAP2 JUMPDEST POP POP POP POP POP SWAP1 DUP1 PUSH1 0x2 ADD SLOAD SWAP1 DUP1 PUSH1 0x3 ADD SLOAD SWAP1 DUP1 PUSH1 0x4 ADD SLOAD SWAP1 POP DUP6 JUMP JUMPDEST DUP3 PUSH0 DUP1 PUSH1 0x1 SLOAD DUP2 MSTORE PUSH1 0x20 ADD SWAP1 DUP2 MSTORE PUSH1 0x20 ADD PUSH0 KECCAK256 PUSH0 ADD SWAP1 DUP2 PUSH2 0x1E6 SWAP2 SWAP1 PUSH2 0x7C8 JUMP JUMPDEST POP DUP2 PUSH0 DUP1 PUSH1 0x1 SLOAD DUP2 MSTORE PUSH1 0x20 ADD SWAP1 DUP2 MSTORE PUSH1 0x20 ADD PUSH0 KECCAK256 PUSH1 0x2 ADD DUP2 SWAP1 SSTORE POP DUP1 PUSH0 DUP1 PUSH1 0x1 SLOAD DUP2 MSTORE PUSH1 0x20 ADD SWAP1 DUP2 MSTORE PUSH1 0x20 ADD PUSH0 KECCAK256 PUSH1 0x1 ADD SWAP1 DUP2 PUSH2 0x223 SWAP2 SWAP1 PUSH2 0x7C8 JUMP JUMPDEST POP PUSH1 0x1 SLOAD PUSH0 DUP1 PUSH1 0x1 SLOAD DUP2 MSTORE PUSH1 0x20 ADD SWAP1 DUP2 MSTORE PUSH1 0x20 ADD PUSH0 KECCAK256 PUSH1 0x3 ADD DUP2 SWAP1 SSTORE POP TIMESTAMP PUSH0 DUP1 PUSH1 0x1 SLOAD DUP2 MSTORE PUSH1 0x20 ADD SWAP1 DUP2 MSTORE PUSH1 0x20 ADD PUSH0 KECCAK256 PUSH1 0x4 ADD DUP2 SWAP1 SSTORE POP PUSH32 0x68EC822632A8E3C84548C407BF093EDE51E6950484FF8610FE3623644ADCCC30 DUP4 PUSH1 0x1 SLOAD TIMESTAMP PUSH1 0x40 MLOAD PUSH2 0x28F SWAP4 SWAP3 SWAP2 SWAP1 PUSH2 0x897 JUMP JUMPDEST PUSH1 0x40 MLOAD DUP1 SWAP2 SUB SWAP1 LOG1 PUSH1 0x1 PUSH0 DUP2 SLOAD DUP1 SWAP3 SWAP2 SWAP1 PUSH2 0x2A9 SWAP1 PUSH2 0x900 JUMP JUMPDEST SWAP2 SWAP1 POP SSTORE POP POP POP POP JUMP JUMPDEST PUSH0 PUSH1 0x40 MLOAD SWAP1 POP SWAP1 JUMP JUMPDEST PUSH0 DUP1 REVERT JUMPDEST PUSH0 DUP1 REVERT JUMPDEST PUSH0 DUP2 SWAP1 POP SWAP2 SWAP1 POP JUMP JUMPDEST PUSH2 0x2D6 DUP2 PUSH2 0x2C4 JUMP JUMPDEST DUP2 EQ PUSH2 0x2E0 JUMPI PUSH0 DUP1 REVERT JUMPDEST POP JUMP JUMPDEST PUSH0 DUP2 CALLDATALOAD SWAP1 POP PUSH2 0x2F1 DUP2 PUSH2 0x2CD JUMP JUMPDEST SWAP3 SWAP2 POP POP JUMP JUMPDEST PUSH0 PUSH1 0x20 DUP3 DUP5 SUB SLT ISZERO PUSH2 0x30C JUMPI PUSH2 0x30B PUSH2 0x2BC JUMP JUMPDEST JUMPDEST PUSH0 PUSH2 0x319 DUP5 DUP3 DUP6 ADD PUSH2 0x2E3 JUMP JUMPDEST SWAP2 POP POP SWAP3 SWAP2 POP POP JUMP JUMPDEST PUSH0 DUP2 MLOAD SWAP1 POP SWAP2 SWAP1 POP JUMP JUMPDEST PUSH0 DUP3 DUP3 MSTORE PUSH1 0x20 DUP3 ADD SWAP1 POP SWAP3 SWAP2 POP POP JUMP JUMPDEST PUSH0 JUMPDEST DUP4 DUP2 LT ISZERO PUSH2 0x359 JUMPI DUP1 DUP3 ADD MLOAD DUP2 DUP5 ADD MSTORE PUSH1 0x20 DUP2 ADD SWAP1 POP PUSH2 0x33E JUMP JUMPDEST PUSH0 DUP5 DUP5 ADD MSTORE POP POP POP POP JUMP JUMPDEST PUSH0 PUSH1 0x1F NOT PUSH1 0x1F DUP4 ADD AND SWAP1 POP SWAP2 SWAP1 POP JUMP JUMPDEST PUSH0 PUSH2 0x37E DUP3 PUSH2 0x322 JUMP JUMPDEST PUSH2 0x388 DUP2 DUP6 PUSH2 0x32C JUMP JUMPDEST SWAP4 POP PUSH2 0x398 DUP2 DUP6 PUSH1 0x20 DUP7 ADD PUSH2 0x33C JUMP JUMPDEST PUSH2 0x3A1 DUP2 PUSH2 0x364 JUMP JUMPDEST DUP5 ADD SWAP2 POP POP SWAP3 SWAP2 POP POP JUMP JUMPDEST PUSH2 0x3B5 DUP2 PUSH2 0x2C4 JUMP JUMPDEST DUP3 MSTORE POP POP JUMP JUMPDEST PUSH0 PUSH1 0xA0 DUP3 ADD SWAP1 POP DUP2 DUP2 SUB PUSH0 DUP4 ADD MSTORE PUSH2 0x3D3 DUP2 DUP9 PUSH2 0x374 JUMP JUMPDEST SWAP1 POP DUP2 DUP2 SUB PUSH1 0x20 DUP4 ADD MSTORE PUSH2 0x3E7 DUP2 DUP8 PUSH2 0x374 JUMP JUMPDEST SWAP1 POP PUSH2 0x3F6 PUSH1 0x40 DUP4 ADD DUP7 PUSH2 0x3AC JUMP JUMPDEST PUSH2 0x403 PUSH1 0x60 DUP4 ADD DUP6 PUSH2 0x3AC JUMP JUMPDEST PUSH2 0x410 PUSH1 0x80 DUP4 ADD DUP5 PUSH2 0x3AC JUMP JUMPDEST SWAP7 SWAP6 POP POP POP POP POP POP JUMP JUMPDEST PUSH0 DUP1 REVERT JUMPDEST PUSH0 DUP1 REVERT JUMPDEST PUSH32 0x4E487B7100000000000000000000000000000000000000000000000000000000 PUSH0 MSTORE PUSH1 0x41 PUSH1 0x4 MSTORE PUSH1 0x24 PUSH0 REVERT JUMPDEST PUSH2 0x458 DUP3 PUSH2 0x364 JUMP JUMPDEST DUP2 ADD DUP2 DUP2 LT PUSH8 0xFFFFFFFFFFFFFFFF DUP3 GT OR ISZERO PUSH2 0x477 JUMPI PUSH2 0x476 PUSH2 0x422 JUMP JUMPDEST JUMPDEST DUP1 PUSH1 0x40 MSTORE POP POP POP JUMP JUMPDEST PUSH0 PUSH2 0x489 PUSH2 0x2B3 JUMP JUMPDEST SWAP1 POP PUSH2 0x495 DUP3 DUP3 PUSH2 0x44F JUMP JUMPDEST SWAP2 SWAP1 POP JUMP JUMPDEST PUSH0 PUSH8 0xFFFFFFFFFFFFFFFF DUP3 GT ISZERO PUSH2 0x4B4 JUMPI PUSH2 0x4B3 PUSH2 0x422 JUMP JUMPDEST JUMPDEST PUSH2 0x4BD DUP3 PUSH2 0x364 JUMP JUMPDEST SWAP1 POP PUSH1 0x20 DUP2 ADD SWAP1 POP SWAP2 SWAP1 POP JUMP JUMPDEST DUP3 DUP2 DUP4 CALLDATACOPY PUSH0 DUP4 DUP4 ADD MSTORE POP POP POP JUMP JUMPDEST PUSH0 PUSH2 0x4EA PUSH2 0x4E5 DUP5 PUSH2 0x49A JUMP JUMPDEST PUSH2 0x480 JUMP JUMPDEST SWAP1 POP DUP3 DUP2 MSTORE PUSH1 0x20 DUP2 ADD DUP5 DUP5 DUP5 ADD GT ISZERO PUSH2 0x506 JUMPI PUSH2 0x505 PUSH2 0x41E JUMP JUMPDEST JUMPDEST PUSH2 0x511 DUP5 DUP3 DUP6 PUSH2 0x4CA JUMP JUMPDEST POP SWAP4 SWAP3 POP POP POP JUMP JUMPDEST PUSH0 DUP3 PUSH1 0x1F DUP4 ADD SLT PUSH2 0x52D JUMPI PUSH2 0x52C PUSH2 0x41A JUMP JUMPDEST JUMPDEST DUP2 CALLDATALOAD PUSH2 0x53D DUP5 DUP3 PUSH1 0x20 DUP7 ADD PUSH2 0x4D8 JUMP JUMPDEST SWAP2 POP POP SWAP3 SWAP2 POP POP JUMP JUMPDEST PUSH0 DUP1 PUSH0 PUSH1 0x60 DUP5 DUP7 SUB SLT ISZERO PUSH2 0x55D JUMPI PUSH2 0x55C PUSH2 0x2BC JUMP JUMPDEST JUMPDEST PUSH0 DUP5 ADD CALLDATALOAD PUSH8 0xFFFFFFFFFFFFFFFF DUP2 GT ISZERO PUSH2 0x57A JUMPI PUSH2 0x579 PUSH2 0x2C0 JUMP JUMPDEST JUMPDEST PUSH2 0x586 DUP7 DUP3 DUP8 ADD PUSH2 0x519 JUMP JUMPDEST SWAP4 POP POP PUSH1 0x20 PUSH2 0x597 DUP7 DUP3 DUP8 ADD PUSH2 0x2E3 JUMP JUMPDEST SWAP3 POP POP PUSH1 0x40 DUP5 ADD CALLDATALOAD PUSH8 0xFFFFFFFFFFFFFFFF DUP2 GT ISZERO PUSH2 0x5B8 JUMPI PUSH2 0x5B7 PUSH2 0x2C0 JUMP JUMPDEST JUMPDEST PUSH2 0x5C4 DUP7 DUP3 DUP8 ADD PUSH2 0x519 JUMP JUMPDEST SWAP2 POP POP SWAP3 POP SWAP3 POP SWAP3 JUMP JUMPDEST PUSH32 0x4E487B7100000000000000000000000000000000000000000000000000000000 PUSH0 MSTORE PUSH1 0x22 PUSH1 0x4 MSTORE PUSH1 0x24 PUSH0 REVERT JUMPDEST PUSH0 PUSH1 0x2 DUP3 DIV SWAP1 POP PUSH1 0x1 DUP3 AND DUP1 PUSH2 0x612 JUMPI PUSH1 0x7F DUP3 AND SWAP2 POP JUMPDEST PUSH1 0x20 DUP3 LT DUP2 SUB PUSH2 0x625 JUMPI PUSH2 0x624 PUSH2 0x5CE JUMP JUMPDEST JUMPDEST POP SWAP2 SWAP1 POP JUMP JUMPDEST PUSH0 DUP2 SWAP1 POP DUP2 PUSH0 MSTORE PUSH1 0x20 PUSH0 KECCAK256 SWAP1 POP SWAP2 SWAP1 POP JUMP JUMPDEST PUSH0 PUSH1 0x20 PUSH1 0x1F DUP4 ADD DIV SWAP1 POP SWAP2 SWAP1 POP JUMP JUMPDEST PUSH0 DUP3 DUP3 SHL SWAP1 POP SWAP3 SWAP2 POP POP JUMP JUMPDEST PUSH0 PUSH1 0x8 DUP4 MUL PUSH2 0x687 PUSH32 0xFFFFFFFFFFFFFFFFFFFFFFFFFFFFFFFFFFFFFFFFFFFFFFFFFFFFFFFFFFFFFFFF DUP3 PUSH2 0x64C JUMP JUMPDEST PUSH2 0x691 DUP7 DUP4 PUSH2 0x64C JUMP JUMPDEST SWAP6 POP DUP1 NOT DUP5 AND SWAP4 POP DUP1 DUP7 AND DUP5 OR SWAP3 POP POP POP SWAP4 SWAP3 POP POP POP JUMP JUMPDEST PUSH0 DUP2 SWAP1 POP SWAP2 SWAP1 POP JUMP JUMPDEST PUSH0 PUSH2 0x6CC PUSH2 0x6C7 PUSH2 0x6C2 DUP5 PUSH2 0x2C4 JUMP JUMPDEST PUSH2 0x6A9 JUMP JUMPDEST PUSH2 0x2C4 JUMP JUMPDEST SWAP1 POP SWAP2 SWAP1 POP JUMP JUMPDEST PUSH0 DUP2 SWAP1 POP SWAP2 SWAP1 POP JUMP JUMPDEST PUSH2 0x6E5 DUP4 PUSH2 0x6B2 JUMP JUMPDEST PUSH2 0x6F9 PUSH2 0x6F1 DUP3 PUSH2 0x6D3 JUMP JUMPDEST DUP5 DUP5 SLOAD PUSH2 0x658 JUMP JUMPDEST DUP3 SSTORE POP POP POP POP JUMP JUMPDEST PUSH0 SWAP1 JUMP JUMPDEST PUSH2 0x70D PUSH2 0x701 JUMP JUMPDEST PUSH2 0x718 DUP2 DUP5 DUP5 PUSH2 0x6DC JUMP JUMPDEST POP POP POP JUMP JUMPDEST JUMPDEST DUP2 DUP2 LT ISZERO PUSH2 0x73B JUMPI PUSH2 0x730 PUSH0 DUP3 PUSH2 0x705 JUMP JUMPDEST PUSH1 0x1 DUP2 ADD SWAP1 POP PUSH2 0x71E JUMP JUMPDEST POP POP JUMP JUMPDEST PUSH1 0x1F DUP3 GT ISZERO PUSH2 0x780 JUMPI PUSH2 0x751 DUP2 PUSH2 0x62B JUMP JUMPDEST PUSH2 0x75A DUP5 PUSH2 0x63D JUMP JUMPDEST DUP2 ADD PUSH1 0x20 DUP6 LT ISZERO PUSH2 0x769 JUMPI DUP2 SWAP1 POP JUMPDEST PUSH2 0x77D PUSH2 0x775 DUP6 PUSH2 0x63D JUMP JUMPDEST DUP4 ADD DUP3 PUSH2 0x71D JUMP JUMPDEST POP POP JUMPDEST POP POP POP JUMP JUMPDEST PUSH0 DUP3 DUP3 SHR SWAP1 POP SWAP3 SWAP2 POP POP JUMP JUMPDEST PUSH0 PUSH2 0x7A0 PUSH0 NOT DUP5 PUSH1 0x8 MUL PUSH2 0x785 JUMP JUMPDEST NOT DUP1 DUP4 AND SWAP2 POP POP SWAP3 SWAP2 POP POP JUMP JUMPDEST PUSH0 PUSH2 0x7B8 DUP4 DUP4 PUSH2 0x791 JUMP JUMPDEST SWAP2 POP DUP3 PUSH1 0x2 MUL DUP3 OR SWAP1 POP SWAP3 SWAP2 POP POP JUMP JUMPDEST PUSH2 0x7D1 DUP3 PUSH2 0x322 JUMP JUMPDEST PUSH8 0xFFFFFFFFFFFFFFFF DUP2 GT ISZERO PUSH2 0x7EA JUMPI PUSH2 0x7E9 PUSH2 0x422 JUMP JUMPDEST JUMPDEST PUSH2 0x7F4 DUP3 SLOAD PUSH2 0x5FB JUMP JUMPDEST PUSH2 0x7FF DUP3 DUP3 DUP6 PUSH2 0x73F JUMP JUMPDEST PUSH0 PUSH1 0x20 SWAP1 POP PUSH1 0x1F DUP4 GT PUSH1 0x1 DUP2 EQ PUSH2 0x830 JUMPI PUSH0 DUP5 ISZERO PUSH2 0x81E JUMPI DUP3 DUP8 ADD MLOAD SWAP1 POP JUMPDEST PUSH2 0x828 DUP6 DUP3 PUSH2 0x7AD JUMP JUMPDEST DUP7 SSTORE POP PUSH2 0x88F JUMP JUMPDEST PUSH1 0x1F NOT DUP5 AND PUSH2 0x83E DUP7 PUSH2 0x62B JUMP JUMPDEST PUSH0 JUMPDEST DUP3 DUP2 LT ISZERO PUSH2 0x865 JUMPI DUP5 DUP10 ADD MLOAD DUP3 SSTORE PUSH1 0x1 DUP3 ADD SWAP2 POP PUSH1 0x20 DUP6 ADD SWAP5 POP PUSH1 0x20 DUP2 ADD SWAP1 POP PUSH2 0x840 JUMP JUMPDEST DUP7 DUP4 LT ISZERO PUSH2 0x882 JUMPI DUP5 DUP10 ADD MLOAD PUSH2 0x87E PUSH1 0x1F DUP10 AND DUP3 PUSH2 0x791 JUMP JUMPDEST DUP4 SSTORE POP JUMPDEST PUSH1 0x1 PUSH1 0x2 DUP9 MUL ADD DUP9 SSTORE POP POP POP JUMPDEST POP POP POP POP POP POP JUMP JUMPDEST PUSH0 PUSH1 0x60 DUP3 ADD SWAP1 POP DUP2 DUP2 SUB PUSH0 DUP4 ADD MSTORE PUSH2 0x8AF DUP2 DUP7 PUSH2 0x374 JUMP JUMPDEST SWAP1 POP PUSH2 0x8BE PUSH1 0x20 DUP4 ADD DUP6 PUSH2 0x3AC JUMP JUMPDEST PUSH2 0x8CB PUSH1 0x40 DUP4 ADD DUP5 PUSH2 0x3AC JUMP JUMPDEST SWAP5 SWAP4 POP POP POP POP JUMP JUMPDEST PUSH32 0x4E487B7100000000000000000000000000000000000000000000000000000000 PUSH0 MSTORE PUSH1 0x11 PUSH1 0x4 MSTORE PUSH1 0x24 PUSH0 REVERT JUMPDEST PUSH0 PUSH2 0x90A DUP3 PUSH2 0x2C4 JUMP JUMPDEST SWAP2 POP PUSH32 0xFFFFFFFFFFFFFFFFFFFFFFFFFFFFFFFFFFFFFFFFFFFFFFFFFFFFFFFFFFFFFFFF DUP3 SUB PUSH2 0x93C JUMPI PUSH2 0x93B PUSH2 0x8D3 JUMP JUMPDEST JUMPDEST PUSH1 0x1 DUP3 ADD SWAP1 POP SWAP2 SWAP1 POP JUMP INVALID LOG2 PUSH5 0x6970667358 0x22 SLT KECCAK256 RETURN 0xDC DUP16 0x4C 0x28 0xE8 0xEE COINBASE 0xDC DUP16 0xEE LT SWAP6 PUSH8 0x2E2F72DF5FDB167A 0xC5 MLOAD 0xD SIGNEXTEND DUP10 PUSH18 0xCC5804E064736F6C63430008180033000000 "
				},
				"gasEstimates": {
					"creation": {
						"codeDepositCost": "485800",
						"executionCost": "22622",
						"totalCost": "508422"
					},
					"external": {
						"addStudent(string,uint256,string)": "infinite",
						"studentDatabase(uint256)": "infinite"
					}
				},
				"methodIdentifiers": {
					"addStudent(string,uint256,string)": "ed32a8a1",
					"studentDatabase(uint256)": "b588d722"
				}
			},
			"storageLayout": {
				"storage": [
					{
						"astId": 17,
						"contract": "Events.sol:Events",
						"label": "studentDatabase",
						"offset": 0,
						"slot": "0",
						"type": "t_mapping(t_uint256,t_struct(Student)12_storage)"
					},
					{
						"astId": 20,
						"contract": "Events.sol:Events",
						"label": "rollNumber",
						"offset": 0,
						"slot": "1",
						"type": "t_uint256"
					}
				],
				"types": {
					"t_mapping(t_uint256,t_struct(Student)12_storage)": {
						"encoding": "mapping",
						"key": "t_uint256",
						"label": "mapping(uint256 => struct Events.Student)",
						"numberOfBytes": "32",
						"value": "t_struct(Student)12_storage"
					},
					"t_string_storage": {
						"encoding": "bytes",
						"label": "string",
						"numberOfBytes": "32"
					},
					"t_struct(Student)12_storage": {
						"encoding": "inplace",
						"label": "struct Events.Student",
						"members": [
							{
								"astId": 3,
								"contract": "Events.sol:Events",
								"label": "name",
								"offset": 0,
								"slot": "0",
								"type": "t_string_storage"
							},
							{
								"astId": 5,
								"contract": "Events.sol:Events",
								"label": "emailId",
								"offset": 0,
								"slot": "1",
								"type": "t_string_storage"
							},
							{
								"astId": 7,
								"contract": "Events.sol:Events",
								"label": "contactNumber",
								"offset": 0,
								"slot": "2",
								"type": "t_uint256"
							},
							{
								"astId": 9,
								"contract": "Events.sol:Events",
								"label": "rollNumber",
								"offset": 0,
								"slot": "3",
								"type": "t_uint256"
							},
							{
								"astId": 11,
								"contract": "Events.sol:Events",
								"label": "timestamp",
								"offset": 0,
								"slot": "4",
								"type": "t_uint256"
							}
						],
						"numberOfBytes": "160"
					},
					"t_uint256": {
						"encoding": "inplace",
						"label": "uint256",
						"numberOfBytes": "32"
					}
				}
			},
			"userdoc": {
				"kind": "user",
				"methods": {},
				"version": 1
			}
		}
	}
}