{
	"Banl.sol": {
		"Bank": {
			"abi": [
				{
					"anonymous": false,
					"inputs": [
						{
							"indexed": false,
							"internalType": "address",
							"name": "owner",
							"type": "address"
						},
						{
							"indexed": false,
							"internalType": "uint256",
							"name": "balance",
							"type": "uint256"
						},
						{
							"indexed": false,
							"internalType": "uint256",
							"name": "timestamp",
							"type": "uint256"
						}
					],
					"name": "WithdrawDone",
					"type": "event"
				},
				{
					"anonymous": false,
					"inputs": [
						{
							"indexed": false,
							"internalType": "address",
							"name": "owner",
							"type": "address"
						},
						{
							"indexed": false,
							"internalType": "uint256",
							"name": "balance",
							"type": "uint256"
						},
						{
							"indexed": false,
							"internalType": "uint256",
							"name": "timestamp",
							"type": "uint256"
						}
					],
					"name": "balanceAdded",
					"type": "event"
				},
				{
					"inputs": [
						{
							"internalType": "address",
							"name": "",
							"type": "address"
						}
					],
					"name": "LaxmiChitFund",
					"outputs": [
						{
							"internalType": "address",
							"name": "owner",
							"type": "address"
						},
						{
							"internalType": "uint256",
							"name": "balance",
							"type": "uint256"
						},
						{
							"internalType": "uint256",
							"name": "accountCreatedTime",
							"type": "uint256"
						}
					],
					"stateMutability": "view",
					"type": "function"
				},
				{
					"inputs": [],
					"name": "accountCreated",
					"outputs": [],
					"stateMutability": "payable",
					"type": "function"
				},
				{
					"inputs": [],
					"name": "deposit",
					"outputs": [],
					"stateMutability": "payable",
					"type": "function"
				},
				{
					"inputs": [],
					"name": "withdraw",
					"outputs": [],
					"stateMutability": "payable",
					"type": "function"
				}
			],
			"devdoc": {
				"kind": "dev",
				"methods": {},
				"version": 1
			},
			"evm": {
				"assembly": "    /* \"Banl.sol\":60:1318  contract Bank{... */\n  mstore(0x40, 0x80)\n  callvalue\n  dup1\n  iszero\n  tag_1\n  jumpi\n  0x00\n  dup1\n  revert\ntag_1:\n  pop\n  dataSize(sub_0)\n  dup1\n  dataOffset(sub_0)\n  0x00\n  codecopy\n  0x00\n  return\nstop\n\nsub_0: assembly {\n        /* \"Banl.sol\":60:1318  contract Bank{... */\n      mstore(0x40, 0x80)\n      jumpi(tag_1, lt(calldatasize, 0x04))\n      shr(0xe0, calldataload(0x00))\n      dup1\n      0x23e76b23\n      eq\n      tag_2\n      jumpi\n      dup1\n      0x3ccfd60b\n      eq\n      tag_3\n      jumpi\n      dup1\n      0xd0e30db0\n      eq\n      tag_4\n      jumpi\n      dup1\n      0xfa209fea\n      eq\n      tag_5\n      jumpi\n    tag_1:\n      0x00\n      dup1\n      revert\n        /* \"Banl.sol\":192:238  mapping(address=>Account) public LaxmiChitFund */\n    tag_2:\n      callvalue\n      dup1\n      iszero\n      tag_6\n      jumpi\n      0x00\n      dup1\n      revert\n    tag_6:\n      pop\n      tag_7\n      0x04\n      dup1\n      calldatasize\n      sub\n      dup2\n      add\n      swap1\n      tag_8\n      swap2\n      swap1\n      tag_9\n      jump\t// in\n    tag_8:\n      tag_10\n      jump\t// in\n    tag_7:\n      mload(0x40)\n      tag_11\n      swap4\n      swap3\n      swap2\n      swap1\n      tag_12\n      jump\t// in\n    tag_11:\n      mload(0x40)\n      dup1\n      swap2\n      sub\n      swap1\n      return\n        /* \"Banl.sol\":1071:1315  function withdraw()public payable{... */\n    tag_3:\n      tag_13\n      tag_14\n      jump\t// in\n    tag_13:\n      stop\n        /* \"Banl.sol\":863:1035  function deposit()public payable minimum{... */\n    tag_4:\n      tag_15\n      tag_16\n      jump\t// in\n    tag_15:\n      stop\n        /* \"Banl.sol\":538:830  function accountCreated()public payable{... */\n    tag_5:\n      tag_17\n      tag_18\n      jump\t// in\n    tag_17:\n      stop\n        /* \"Banl.sol\":192:238  mapping(address=>Account) public LaxmiChitFund */\n    tag_10:\n      mstore(0x20, 0x00)\n      dup1\n      0x00\n      mstore\n      keccak256(0x00, 0x40)\n      0x00\n      swap2\n      pop\n      swap1\n      pop\n      dup1\n      0x00\n      add\n      0x00\n      swap1\n      sload\n      swap1\n      0x0100\n      exp\n      swap1\n      div\n      0xffffffffffffffffffffffffffffffffffffffff\n      and\n      swap1\n      dup1\n      0x01\n      add\n      sload\n      swap1\n      dup1\n      0x02\n      add\n      sload\n      swap1\n      pop\n      dup4\n      jump\t// out\n        /* \"Banl.sol\":1071:1315  function withdraw()public payable{... */\n    tag_14:\n        /* \"Banl.sol\":1172:1182  msg.sender */\n      caller\n        /* \"Banl.sol\":1164:1192  payable(msg.sender).transfer */\n      0xffffffffffffffffffffffffffffffffffffffff\n      and\n        /* \"Banl.sol\":1164:1227  payable(msg.sender).transfer(LaxmiChitFund[msg.sender].balance) */\n      0x08fc\n        /* \"Banl.sol\":1193:1206  LaxmiChitFund */\n      0x00\n        /* \"Banl.sol\":1193:1218  LaxmiChitFund[msg.sender] */\n      dup1\n        /* \"Banl.sol\":1207:1217  msg.sender */\n      caller\n        /* \"Banl.sol\":1193:1218  LaxmiChitFund[msg.sender] */\n      0xffffffffffffffffffffffffffffffffffffffff\n      and\n      0xffffffffffffffffffffffffffffffffffffffff\n      and\n      dup2\n      mstore\n      0x20\n      add\n      swap1\n      dup2\n      mstore\n      0x20\n      add\n      0x00\n      keccak256\n        /* \"Banl.sol\":1193:1226  LaxmiChitFund[msg.sender].balance */\n      0x01\n      add\n      sload\n        /* \"Banl.sol\":1164:1227  payable(msg.sender).transfer(LaxmiChitFund[msg.sender].balance) */\n      swap1\n      dup2\n      iszero\n      mul\n      swap1\n      mload(0x40)\n      0x00\n      mload(0x40)\n      dup1\n      dup4\n      sub\n      dup2\n      dup6\n      dup9\n      dup9\n      call\n      swap4\n      pop\n      pop\n      pop\n      pop\n      iszero\n      dup1\n      iszero\n      tag_21\n      jumpi\n      returndatasize\n      0x00\n      dup1\n      returndatacopy\n      revert(0x00, returndatasize)\n    tag_21:\n      pop\n        /* \"Banl.sol\":1244:1296  WithdrawDone(msg.sender, msg.value, block.timestamp) */\n      0xadb5a858403bea66e1e7af4e167887c58de87dea51eb7a35b4ddcb6cd7e6ebd2\n        /* \"Banl.sol\":1257:1267  msg.sender */\n      caller\n        /* \"Banl.sol\":1269:1278  msg.value */\n      callvalue\n        /* \"Banl.sol\":1280:1295  block.timestamp */\n      timestamp\n        /* \"Banl.sol\":1244:1296  WithdrawDone(msg.sender, msg.value, block.timestamp) */\n      mload(0x40)\n      tag_22\n      swap4\n      swap3\n      swap2\n      swap1\n      tag_12\n      jump\t// in\n    tag_22:\n      mload(0x40)\n      dup1\n      swap2\n      sub\n      swap1\n      log1\n        /* \"Banl.sol\":1071:1315  function withdraw()public payable{... */\n      jump\t// out\n        /* \"Banl.sol\":863:1035  function deposit()public payable minimum{... */\n    tag_16:\n        /* \"Banl.sol\":457:464  1 ether */\n      0x0de0b6b3a7640000\n        /* \"Banl.sol\":445:454  msg.value */\n      callvalue\n        /* \"Banl.sol\":445:464  msg.value >=1 ether */\n      lt\n      iszero\n        /* \"Banl.sol\":436:486  require (msg.value >=1 ether,\"not enough balance\") */\n      tag_24\n      jumpi\n      mload(0x40)\n      0x08c379a000000000000000000000000000000000000000000000000000000000\n      dup2\n      mstore\n      0x04\n      add\n      tag_25\n      swap1\n      tag_26\n      jump\t// in\n    tag_25:\n      mload(0x40)\n      dup1\n      swap2\n      sub\n      swap1\n      revert\n    tag_24:\n        /* \"Banl.sol\":951:960  msg.value */\n      callvalue\n        /* \"Banl.sol\":914:927  LaxmiChitFund */\n      0x00\n        /* \"Banl.sol\":914:939  LaxmiChitFund[msg.sender] */\n      dup1\n        /* \"Banl.sol\":928:938  msg.sender */\n      caller\n        /* \"Banl.sol\":914:939  LaxmiChitFund[msg.sender] */\n      0xffffffffffffffffffffffffffffffffffffffff\n      and\n      0xffffffffffffffffffffffffffffffffffffffff\n      and\n      dup2\n      mstore\n      0x20\n      add\n      swap1\n      dup2\n      mstore\n      0x20\n      add\n      0x00\n      keccak256\n        /* \"Banl.sol\":914:947  LaxmiChitFund[msg.sender].balance */\n      0x01\n      add\n      0x00\n        /* \"Banl.sol\":914:960  LaxmiChitFund[msg.sender].balance += msg.value */\n      dup3\n      dup3\n      sload\n      tag_28\n      swap2\n      swap1\n      tag_29\n      jump\t// in\n    tag_28:\n      swap3\n      pop\n      pop\n      dup2\n      swap1\n      sstore\n      pop\n        /* \"Banl.sol\":976:1026  balanceAdded(msg.sender,msg.value,block.timestamp) */\n      0x2f8a6ec2d4b44b9eb188e85756710017b4b7d1d8c493867f691bf6046f05fa2e\n        /* \"Banl.sol\":989:999  msg.sender */\n      caller\n        /* \"Banl.sol\":1000:1009  msg.value */\n      callvalue\n        /* \"Banl.sol\":1010:1025  block.timestamp */\n      timestamp\n        /* \"Banl.sol\":976:1026  balanceAdded(msg.sender,msg.value,block.timestamp) */\n      mload(0x40)\n      tag_30\n      swap4\n      swap3\n      swap2\n      swap1\n      tag_12\n      jump\t// in\n    tag_30:\n      mload(0x40)\n      dup1\n      swap2\n      sub\n      swap1\n      log1\n        /* \"Banl.sol\":863:1035  function deposit()public payable minimum{... */\n      jump\t// out\n        /* \"Banl.sol\":538:830  function accountCreated()public payable{... */\n    tag_18:\n        /* \"Banl.sol\":620:630  msg.sender */\n      caller\n        /* \"Banl.sol\":588:601  LaxmiChitFund */\n      0x00\n        /* \"Banl.sol\":588:613  LaxmiChitFund[msg.sender] */\n      dup1\n        /* \"Banl.sol\":602:612  msg.sender */\n      caller\n        /* \"Banl.sol\":588:613  LaxmiChitFund[msg.sender] */\n      0xffffffffffffffffffffffffffffffffffffffff\n      and\n      0xffffffffffffffffffffffffffffffffffffffff\n      and\n      dup2\n      mstore\n      0x20\n      add\n      swap1\n      dup2\n      mstore\n      0x20\n      add\n      0x00\n      keccak256\n        /* \"Banl.sol\":588:619  LaxmiChitFund[msg.sender].owner */\n      0x00\n      add\n      0x00\n        /* \"Banl.sol\":588:630  LaxmiChitFund[msg.sender].owner=msg.sender */\n      0x0100\n      exp\n      dup2\n      sload\n      dup2\n      0xffffffffffffffffffffffffffffffffffffffff\n      mul\n      not\n      and\n      swap1\n      dup4\n      0xffffffffffffffffffffffffffffffffffffffff\n      and\n      mul\n      or\n      swap1\n      sstore\n      pop\n        /* \"Banl.sol\":675:684  msg.value */\n      callvalue\n        /* \"Banl.sol\":641:654  LaxmiChitFund */\n      0x00\n        /* \"Banl.sol\":641:666  LaxmiChitFund[msg.sender] */\n      dup1\n        /* \"Banl.sol\":655:665  msg.sender */\n      caller\n        /* \"Banl.sol\":641:666  LaxmiChitFund[msg.sender] */\n      0xffffffffffffffffffffffffffffffffffffffff\n      and\n      0xffffffffffffffffffffffffffffffffffffffff\n      and\n      dup2\n      mstore\n      0x20\n      add\n      swap1\n      dup2\n      mstore\n      0x20\n      add\n      0x00\n      keccak256\n        /* \"Banl.sol\":641:674  LaxmiChitFund[msg.sender].balance */\n      0x01\n      add\n        /* \"Banl.sol\":641:684  LaxmiChitFund[msg.sender].balance=msg.value */\n      dup2\n      swap1\n      sstore\n      pop\n        /* \"Banl.sol\":740:755  block.timestamp */\n      timestamp\n        /* \"Banl.sol\":695:708  LaxmiChitFund */\n      0x00\n        /* \"Banl.sol\":695:720  LaxmiChitFund[msg.sender] */\n      dup1\n        /* \"Banl.sol\":709:719  msg.sender */\n      caller\n        /* \"Banl.sol\":695:720  LaxmiChitFund[msg.sender] */\n      0xffffffffffffffffffffffffffffffffffffffff\n      and\n      0xffffffffffffffffffffffffffffffffffffffff\n      and\n      dup2\n      mstore\n      0x20\n      add\n      swap1\n      dup2\n      mstore\n      0x20\n      add\n      0x00\n      keccak256\n        /* \"Banl.sol\":695:739  LaxmiChitFund[msg.sender].accountCreatedTime */\n      0x02\n      add\n        /* \"Banl.sol\":695:755  LaxmiChitFund[msg.sender].accountCreatedTime=block.timestamp */\n      dup2\n      swap1\n      sstore\n      pop\n        /* \"Banl.sol\":771:821  balanceAdded(msg.sender,msg.value,block.timestamp) */\n      0x2f8a6ec2d4b44b9eb188e85756710017b4b7d1d8c493867f691bf6046f05fa2e\n        /* \"Banl.sol\":784:794  msg.sender */\n      caller\n        /* \"Banl.sol\":795:804  msg.value */\n      callvalue\n        /* \"Banl.sol\":805:820  block.timestamp */\n      timestamp\n        /* \"Banl.sol\":771:821  balanceAdded(msg.sender,msg.value,block.timestamp) */\n      mload(0x40)\n      tag_32\n      swap4\n      swap3\n      swap2\n      swap1\n      tag_12\n      jump\t// in\n    tag_32:\n      mload(0x40)\n      dup1\n      swap2\n      sub\n      swap1\n      log1\n        /* \"Banl.sol\":538:830  function accountCreated()public payable{... */\n      jump\t// out\n        /* \"#utility.yul\":88:205   */\n    tag_34:\n        /* \"#utility.yul\":197:198   */\n      0x00\n        /* \"#utility.yul\":194:195   */\n      dup1\n        /* \"#utility.yul\":187:199   */\n      revert\n        /* \"#utility.yul\":334:460   */\n    tag_36:\n        /* \"#utility.yul\":371:378   */\n      0x00\n        /* \"#utility.yul\":411:453   */\n      0xffffffffffffffffffffffffffffffffffffffff\n        /* \"#utility.yul\":404:409   */\n      dup3\n        /* \"#utility.yul\":400:454   */\n      and\n        /* \"#utility.yul\":389:454   */\n      swap1\n      pop\n        /* \"#utility.yul\":334:460   */\n      swap2\n      swap1\n      pop\n      jump\t// out\n        /* \"#utility.yul\":466:562   */\n    tag_37:\n        /* \"#utility.yul\":503:510   */\n      0x00\n        /* \"#utility.yul\":532:556   */\n      tag_53\n        /* \"#utility.yul\":550:555   */\n      dup3\n        /* \"#utility.yul\":532:556   */\n      tag_36\n      jump\t// in\n    tag_53:\n        /* \"#utility.yul\":521:556   */\n      swap1\n      pop\n        /* \"#utility.yul\":466:562   */\n      swap2\n      swap1\n      pop\n      jump\t// out\n        /* \"#utility.yul\":568:690   */\n    tag_38:\n        /* \"#utility.yul\":641:665   */\n      tag_55\n        /* \"#utility.yul\":659:664   */\n      dup2\n        /* \"#utility.yul\":641:665   */\n      tag_37\n      jump\t// in\n    tag_55:\n        /* \"#utility.yul\":634:639   */\n      dup2\n        /* \"#utility.yul\":631:666   */\n      eq\n        /* \"#utility.yul\":621:684   */\n      tag_56\n      jumpi\n        /* \"#utility.yul\":680:681   */\n      0x00\n        /* \"#utility.yul\":677:678   */\n      dup1\n        /* \"#utility.yul\":670:682   */\n      revert\n        /* \"#utility.yul\":621:684   */\n    tag_56:\n        /* \"#utility.yul\":568:690   */\n      pop\n      jump\t// out\n        /* \"#utility.yul\":696:835   */\n    tag_39:\n        /* \"#utility.yul\":742:747   */\n      0x00\n        /* \"#utility.yul\":780:786   */\n      dup2\n        /* \"#utility.yul\":767:787   */\n      calldataload\n        /* \"#utility.yul\":758:787   */\n      swap1\n      pop\n        /* \"#utility.yul\":796:829   */\n      tag_58\n        /* \"#utility.yul\":823:828   */\n      dup2\n        /* \"#utility.yul\":796:829   */\n      tag_38\n      jump\t// in\n    tag_58:\n        /* \"#utility.yul\":696:835   */\n      swap3\n      swap2\n      pop\n      pop\n      jump\t// out\n        /* \"#utility.yul\":841:1170   */\n    tag_9:\n        /* \"#utility.yul\":900:906   */\n      0x00\n        /* \"#utility.yul\":949:951   */\n      0x20\n        /* \"#utility.yul\":937:946   */\n      dup3\n        /* \"#utility.yul\":928:935   */\n      dup5\n        /* \"#utility.yul\":924:947   */\n      sub\n        /* \"#utility.yul\":920:952   */\n      slt\n        /* \"#utility.yul\":917:1036   */\n      iszero\n      tag_60\n      jumpi\n        /* \"#utility.yul\":955:1034   */\n      tag_61\n      tag_34\n      jump\t// in\n    tag_61:\n        /* \"#utility.yul\":917:1036   */\n    tag_60:\n        /* \"#utility.yul\":1075:1076   */\n      0x00\n        /* \"#utility.yul\":1100:1153   */\n      tag_62\n        /* \"#utility.yul\":1145:1152   */\n      dup5\n        /* \"#utility.yul\":1136:1142   */\n      dup3\n        /* \"#utility.yul\":1125:1134   */\n      dup6\n        /* \"#utility.yul\":1121:1143   */\n      add\n        /* \"#utility.yul\":1100:1153   */\n      tag_39\n      jump\t// in\n    tag_62:\n        /* \"#utility.yul\":1090:1153   */\n      swap2\n      pop\n        /* \"#utility.yul\":1046:1163   */\n      pop\n        /* \"#utility.yul\":841:1170   */\n      swap3\n      swap2\n      pop\n      pop\n      jump\t// out\n        /* \"#utility.yul\":1176:1294   */\n    tag_40:\n        /* \"#utility.yul\":1263:1287   */\n      tag_64\n        /* \"#utility.yul\":1281:1286   */\n      dup2\n        /* \"#utility.yul\":1263:1287   */\n      tag_37\n      jump\t// in\n    tag_64:\n        /* \"#utility.yul\":1258:1261   */\n      dup3\n        /* \"#utility.yul\":1251:1288   */\n      mstore\n        /* \"#utility.yul\":1176:1294   */\n      pop\n      pop\n      jump\t// out\n        /* \"#utility.yul\":1300:1377   */\n    tag_41:\n        /* \"#utility.yul\":1337:1344   */\n      0x00\n        /* \"#utility.yul\":1366:1371   */\n      dup2\n        /* \"#utility.yul\":1355:1371   */\n      swap1\n      pop\n        /* \"#utility.yul\":1300:1377   */\n      swap2\n      swap1\n      pop\n      jump\t// out\n        /* \"#utility.yul\":1383:1501   */\n    tag_42:\n        /* \"#utility.yul\":1470:1494   */\n      tag_67\n        /* \"#utility.yul\":1488:1493   */\n      dup2\n        /* \"#utility.yul\":1470:1494   */\n      tag_41\n      jump\t// in\n    tag_67:\n        /* \"#utility.yul\":1465:1468   */\n      dup3\n        /* \"#utility.yul\":1458:1495   */\n      mstore\n        /* \"#utility.yul\":1383:1501   */\n      pop\n      pop\n      jump\t// out\n        /* \"#utility.yul\":1507:1949   */\n    tag_12:\n        /* \"#utility.yul\":1656:1660   */\n      0x00\n        /* \"#utility.yul\":1694:1696   */\n      0x60\n        /* \"#utility.yul\":1683:1692   */\n      dup3\n        /* \"#utility.yul\":1679:1697   */\n      add\n        /* \"#utility.yul\":1671:1697   */\n      swap1\n      pop\n        /* \"#utility.yul\":1707:1778   */\n      tag_69\n        /* \"#utility.yul\":1775:1776   */\n      0x00\n        /* \"#utility.yul\":1764:1773   */\n      dup4\n        /* \"#utility.yul\":1760:1777   */\n      add\n        /* \"#utility.yul\":1751:1757   */\n      dup7\n        /* \"#utility.yul\":1707:1778   */\n      tag_40\n      jump\t// in\n    tag_69:\n        /* \"#utility.yul\":1788:1860   */\n      tag_70\n        /* \"#utility.yul\":1856:1858   */\n      0x20\n        /* \"#utility.yul\":1845:1854   */\n      dup4\n        /* \"#utility.yul\":1841:1859   */\n      add\n        /* \"#utility.yul\":1832:1838   */\n      dup6\n        /* \"#utility.yul\":1788:1860   */\n      tag_42\n      jump\t// in\n    tag_70:\n        /* \"#utility.yul\":1870:1942   */\n      tag_71\n        /* \"#utility.yul\":1938:1940   */\n      0x40\n        /* \"#utility.yul\":1927:1936   */\n      dup4\n        /* \"#utility.yul\":1923:1941   */\n      add\n        /* \"#utility.yul\":1914:1920   */\n      dup5\n        /* \"#utility.yul\":1870:1942   */\n      tag_42\n      jump\t// in\n    tag_71:\n        /* \"#utility.yul\":1507:1949   */\n      swap5\n      swap4\n      pop\n      pop\n      pop\n      pop\n      jump\t// out\n        /* \"#utility.yul\":1955:2124   */\n    tag_43:\n        /* \"#utility.yul\":2039:2050   */\n      0x00\n        /* \"#utility.yul\":2073:2079   */\n      dup3\n        /* \"#utility.yul\":2068:2071   */\n      dup3\n        /* \"#utility.yul\":2061:2080   */\n      mstore\n        /* \"#utility.yul\":2113:2117   */\n      0x20\n        /* \"#utility.yul\":2108:2111   */\n      dup3\n        /* \"#utility.yul\":2104:2118   */\n      add\n        /* \"#utility.yul\":2089:2118   */\n      swap1\n      pop\n        /* \"#utility.yul\":1955:2124   */\n      swap3\n      swap2\n      pop\n      pop\n      jump\t// out\n        /* \"#utility.yul\":2130:2298   */\n    tag_44:\n        /* \"#utility.yul\":2270:2290   */\n      0x6e6f7420656e6f7567682062616c616e63650000000000000000000000000000\n        /* \"#utility.yul\":2266:2267   */\n      0x00\n        /* \"#utility.yul\":2258:2264   */\n      dup3\n        /* \"#utility.yul\":2254:2268   */\n      add\n        /* \"#utility.yul\":2247:2291   */\n      mstore\n        /* \"#utility.yul\":2130:2298   */\n      pop\n      jump\t// out\n        /* \"#utility.yul\":2304:2670   */\n    tag_45:\n        /* \"#utility.yul\":2446:2449   */\n      0x00\n        /* \"#utility.yul\":2467:2534   */\n      tag_75\n        /* \"#utility.yul\":2531:2533   */\n      0x12\n        /* \"#utility.yul\":2526:2529   */\n      dup4\n        /* \"#utility.yul\":2467:2534   */\n      tag_43\n      jump\t// in\n    tag_75:\n        /* \"#utility.yul\":2460:2534   */\n      swap2\n      pop\n        /* \"#utility.yul\":2543:2636   */\n      tag_76\n        /* \"#utility.yul\":2632:2635   */\n      dup3\n        /* \"#utility.yul\":2543:2636   */\n      tag_44\n      jump\t// in\n    tag_76:\n        /* \"#utility.yul\":2661:2663   */\n      0x20\n        /* \"#utility.yul\":2656:2659   */\n      dup3\n        /* \"#utility.yul\":2652:2664   */\n      add\n        /* \"#utility.yul\":2645:2664   */\n      swap1\n      pop\n        /* \"#utility.yul\":2304:2670   */\n      swap2\n      swap1\n      pop\n      jump\t// out\n        /* \"#utility.yul\":2676:3095   */\n    tag_26:\n        /* \"#utility.yul\":2842:2846   */\n      0x00\n        /* \"#utility.yul\":2880:2882   */\n      0x20\n        /* \"#utility.yul\":2869:2878   */\n      dup3\n        /* \"#utility.yul\":2865:2883   */\n      add\n        /* \"#utility.yul\":2857:2883   */\n      swap1\n      pop\n        /* \"#utility.yul\":2929:2938   */\n      dup2\n        /* \"#utility.yul\":2923:2927   */\n      dup2\n        /* \"#utility.yul\":2919:2939   */\n      sub\n        /* \"#utility.yul\":2915:2916   */\n      0x00\n        /* \"#utility.yul\":2904:2913   */\n      dup4\n        /* \"#utility.yul\":2900:2917   */\n      add\n        /* \"#utility.yul\":2893:2940   */\n      mstore\n        /* \"#utility.yul\":2957:3088   */\n      tag_78\n        /* \"#utility.yul\":3083:3087   */\n      dup2\n        /* \"#utility.yul\":2957:3088   */\n      tag_45\n      jump\t// in\n    tag_78:\n        /* \"#utility.yul\":2949:3088   */\n      swap1\n      pop\n        /* \"#utility.yul\":2676:3095   */\n      swap2\n      swap1\n      pop\n      jump\t// out\n        /* \"#utility.yul\":3101:3281   */\n    tag_46:\n        /* \"#utility.yul\":3149:3226   */\n      0x4e487b7100000000000000000000000000000000000000000000000000000000\n        /* \"#utility.yul\":3146:3147   */\n      0x00\n        /* \"#utility.yul\":3139:3227   */\n      mstore\n        /* \"#utility.yul\":3246:3250   */\n      0x11\n        /* \"#utility.yul\":3243:3244   */\n      0x04\n        /* \"#utility.yul\":3236:3251   */\n      mstore\n        /* \"#utility.yul\":3270:3274   */\n      0x24\n        /* \"#utility.yul\":3267:3268   */\n      0x00\n        /* \"#utility.yul\":3260:3275   */\n      revert\n        /* \"#utility.yul\":3287:3478   */\n    tag_29:\n        /* \"#utility.yul\":3327:3330   */\n      0x00\n        /* \"#utility.yul\":3346:3366   */\n      tag_81\n        /* \"#utility.yul\":3364:3365   */\n      dup3\n        /* \"#utility.yul\":3346:3366   */\n      tag_41\n      jump\t// in\n    tag_81:\n        /* \"#utility.yul\":3341:3366   */\n      swap2\n      pop\n        /* \"#utility.yul\":3380:3400   */\n      tag_82\n        /* \"#utility.yul\":3398:3399   */\n      dup4\n        /* \"#utility.yul\":3380:3400   */\n      tag_41\n      jump\t// in\n    tag_82:\n        /* \"#utility.yul\":3375:3400   */\n      swap3\n      pop\n        /* \"#utility.yul\":3423:3424   */\n      dup3\n        /* \"#utility.yul\":3420:3421   */\n      dup3\n        /* \"#utility.yul\":3416:3425   */\n      add\n        /* \"#utility.yul\":3409:3425   */\n      swap1\n      pop\n        /* \"#utility.yul\":3444:3447   */\n      dup1\n        /* \"#utility.yul\":3441:3442   */\n      dup3\n        /* \"#utility.yul\":3438:3448   */\n      gt\n        /* \"#utility.yul\":3435:3471   */\n      iszero\n      tag_83\n      jumpi\n        /* \"#utility.yul\":3451:3469   */\n      tag_84\n      tag_46\n      jump\t// in\n    tag_84:\n        /* \"#utility.yul\":3435:3471   */\n    tag_83:\n        /* \"#utility.yul\":3287:3478   */\n      swap3\n      swap2\n      pop\n      pop\n      jump\t// out\n\n    auxdata: 0xa264697066735822122086428fc7991dcadc218c8b4bb772e3c32c58b08a678b0c4f2db414699ba45c3a64736f6c634300081a0033\n}\n",
				"bytecode": {
					"linkReferences": {},
					"object": "6080604052348015600e575f80fd5b506105b38061001c5f395ff3fe60806040526004361061003e575f3560e01c806323e76b23146100425780633ccfd60b14610080578063d0e30db01461008a578063fa209fea14610094575b5f80fd5b34801561004d575f80fd5b506100686004803603810190610063919061041e565b61009e565b60405161007793929190610470565b60405180910390f35b6100886100e2565b005b6100926101a2565b005b61009c61027f565b005b5f602052805f5260405f205f91509050805f015f9054906101000a900473ffffffffffffffffffffffffffffffffffffffff16908060010154908060020154905083565b3373ffffffffffffffffffffffffffffffffffffffff166108fc5f803373ffffffffffffffffffffffffffffffffffffffff1673ffffffffffffffffffffffffffffffffffffffff1681526020019081526020015f206001015490811502906040515f60405180830381858888f19350505050158015610164573d5f803e3d5ffd5b507fadb5a858403bea66e1e7af4e167887c58de87dea51eb7a35b4ddcb6cd7e6ebd233344260405161019893929190610470565b60405180910390a1565b670de0b6b3a76400003410156101ed576040517f08c379a00000000000000000000000000000000000000000000000000000000081526004016101e4906104ff565b60405180910390fd5b345f803373ffffffffffffffffffffffffffffffffffffffff1673ffffffffffffffffffffffffffffffffffffffff1681526020019081526020015f206001015f82825461023b919061054a565b925050819055507f2f8a6ec2d4b44b9eb188e85756710017b4b7d1d8c493867f691bf6046f05fa2e33344260405161027593929190610470565b60405180910390a1565b335f803373ffffffffffffffffffffffffffffffffffffffff1673ffffffffffffffffffffffffffffffffffffffff1681526020019081526020015f205f015f6101000a81548173ffffffffffffffffffffffffffffffffffffffff021916908373ffffffffffffffffffffffffffffffffffffffff160217905550345f803373ffffffffffffffffffffffffffffffffffffffff1673ffffffffffffffffffffffffffffffffffffffff1681526020019081526020015f2060010181905550425f803373ffffffffffffffffffffffffffffffffffffffff1673ffffffffffffffffffffffffffffffffffffffff1681526020019081526020015f20600201819055507f2f8a6ec2d4b44b9eb188e85756710017b4b7d1d8c493867f691bf6046f05fa2e3334426040516103b693929190610470565b60405180910390a1565b5f80fd5b5f73ffffffffffffffffffffffffffffffffffffffff82169050919050565b5f6103ed826103c4565b9050919050565b6103fd816103e3565b8114610407575f80fd5b50565b5f81359050610418816103f4565b92915050565b5f60208284031215610433576104326103c0565b5b5f6104408482850161040a565b91505092915050565b610452816103e3565b82525050565b5f819050919050565b61046a81610458565b82525050565b5f6060820190506104835f830186610449565b6104906020830185610461565b61049d6040830184610461565b949350505050565b5f82825260208201905092915050565b7f6e6f7420656e6f7567682062616c616e636500000000000000000000000000005f82015250565b5f6104e96012836104a5565b91506104f4826104b5565b602082019050919050565b5f6020820190508181035f830152610516816104dd565b9050919050565b7f4e487b71000000000000000000000000000000000000000000000000000000005f52601160045260245ffd5b5f61055482610458565b915061055f83610458565b92508282019050808211156105775761057661051d565b5b9291505056fea264697066735822122086428fc7991dcadc218c8b4bb772e3c32c58b08a678b0c4f2db414699ba45c3a64736f6c634300081a0033",
					"opcodes": "PUSH1 0x80 PUSH1 0x40 MSTORE CALLVALUE DUP1 ISZERO PUSH1 0xE JUMPI PUSH0 DUP1 REVERT JUMPDEST POP PUSH2 0x5B3 DUP1 PUSH2 0x1C PUSH0 CODECOPY PUSH0 RETURN INVALID PUSH1 0x80 PUSH1 0x40 MSTORE PUSH1 0x4 CALLDATASIZE LT PUSH2 0x3E JUMPI PUSH0 CALLDATALOAD PUSH1 0xE0 SHR DUP1 PUSH4 0x23E76B23 EQ PUSH2 0x42 JUMPI DUP1 PUSH4 0x3CCFD60B EQ PUSH2 0x80 JUMPI DUP1 PUSH4 0xD0E30DB0 EQ PUSH2 0x8A JUMPI DUP1 PUSH4 0xFA209FEA EQ PUSH2 0x94 JUMPI JUMPDEST PUSH0 DUP1 REVERT JUMPDEST CALLVALUE DUP1 ISZERO PUSH2 0x4D JUMPI PUSH0 DUP1 REVERT JUMPDEST POP PUSH2 0x68 PUSH1 0x4 DUP1 CALLDATASIZE SUB DUP2 ADD SWAP1 PUSH2 0x63 SWAP2 SWAP1 PUSH2 0x41E JUMP JUMPDEST PUSH2 0x9E JUMP JUMPDEST PUSH1 0x40 MLOAD PUSH2 0x77 SWAP4 SWAP3 SWAP2 SWAP1 PUSH2 0x470 JUMP JUMPDEST PUSH1 0x40 MLOAD DUP1 SWAP2 SUB SWAP1 RETURN JUMPDEST PUSH2 0x88 PUSH2 0xE2 JUMP JUMPDEST STOP JUMPDEST PUSH2 0x92 PUSH2 0x1A2 JUMP JUMPDEST STOP JUMPDEST PUSH2 0x9C PUSH2 0x27F JUMP JUMPDEST STOP JUMPDEST PUSH0 PUSH1 0x20 MSTORE DUP1 PUSH0 MSTORE PUSH1 0x40 PUSH0 KECCAK256 PUSH0 SWAP2 POP SWAP1 POP DUP1 PUSH0 ADD PUSH0 SWAP1 SLOAD SWAP1 PUSH2 0x100 EXP SWAP1 DIV PUSH20 0xFFFFFFFFFFFFFFFFFFFFFFFFFFFFFFFFFFFFFFFF AND SWAP1 DUP1 PUSH1 0x1 ADD SLOAD SWAP1 DUP1 PUSH1 0x2 ADD SLOAD SWAP1 POP DUP4 JUMP JUMPDEST CALLER PUSH20 0xFFFFFFFFFFFFFFFFFFFFFFFFFFFFFFFFFFFFFFFF AND PUSH2 0x8FC PUSH0 DUP1 CALLER PUSH20 0xFFFFFFFFFFFFFFFFFFFFFFFFFFFFFFFFFFFFFFFF AND PUSH20 0xFFFFFFFFFFFFFFFFFFFFFFFFFFFFFFFFFFFFFFFF AND DUP2 MSTORE PUSH1 0x20 ADD SWAP1 DUP2 MSTORE PUSH1 0x20 ADD PUSH0 KECCAK256 PUSH1 0x1 ADD SLOAD SWAP1 DUP2 ISZERO MUL SWAP1 PUSH1 0x40 MLOAD PUSH0 PUSH1 0x40 MLOAD DUP1 DUP4 SUB DUP2 DUP6 DUP9 DUP9 CALL SWAP4 POP POP POP POP ISZERO DUP1 ISZERO PUSH2 0x164 JUMPI RETURNDATASIZE PUSH0 DUP1 RETURNDATACOPY RETURNDATASIZE PUSH0 REVERT JUMPDEST POP PUSH32 0xADB5A858403BEA66E1E7AF4E167887C58DE87DEA51EB7A35B4DDCB6CD7E6EBD2 CALLER CALLVALUE TIMESTAMP PUSH1 0x40 MLOAD PUSH2 0x198 SWAP4 SWAP3 SWAP2 SWAP1 PUSH2 0x470 JUMP JUMPDEST PUSH1 0x40 MLOAD DUP1 SWAP2 SUB SWAP1 LOG1 JUMP JUMPDEST PUSH8 0xDE0B6B3A7640000 CALLVALUE LT ISZERO PUSH2 0x1ED JUMPI PUSH1 0x40 MLOAD PUSH32 0x8C379A000000000000000000000000000000000000000000000000000000000 DUP2 MSTORE PUSH1 0x4 ADD PUSH2 0x1E4 SWAP1 PUSH2 0x4FF JUMP JUMPDEST PUSH1 0x40 MLOAD DUP1 SWAP2 SUB SWAP1 REVERT JUMPDEST CALLVALUE PUSH0 DUP1 CALLER PUSH20 0xFFFFFFFFFFFFFFFFFFFFFFFFFFFFFFFFFFFFFFFF AND PUSH20 0xFFFFFFFFFFFFFFFFFFFFFFFFFFFFFFFFFFFFFFFF AND DUP2 MSTORE PUSH1 0x20 ADD SWAP1 DUP2 MSTORE PUSH1 0x20 ADD PUSH0 KECCAK256 PUSH1 0x1 ADD PUSH0 DUP3 DUP3 SLOAD PUSH2 0x23B SWAP2 SWAP1 PUSH2 0x54A JUMP JUMPDEST SWAP3 POP POP DUP2 SWAP1 SSTORE POP PUSH32 0x2F8A6EC2D4B44B9EB188E85756710017B4B7D1D8C493867F691BF6046F05FA2E CALLER CALLVALUE TIMESTAMP PUSH1 0x40 MLOAD PUSH2 0x275 SWAP4 SWAP3 SWAP2 SWAP1 PUSH2 0x470 JUMP JUMPDEST PUSH1 0x40 MLOAD DUP1 SWAP2 SUB SWAP1 LOG1 JUMP JUMPDEST CALLER PUSH0 DUP1 CALLER PUSH20 0xFFFFFFFFFFFFFFFFFFFFFFFFFFFFFFFFFFFFFFFF AND PUSH20 0xFFFFFFFFFFFFFFFFFFFFFFFFFFFFFFFFFFFFFFFF AND DUP2 MSTORE PUSH1 0x20 ADD SWAP1 DUP2 MSTORE PUSH1 0x20 ADD PUSH0 KECCAK256 PUSH0 ADD PUSH0 PUSH2 0x100 EXP DUP2 SLOAD DUP2 PUSH20 0xFFFFFFFFFFFFFFFFFFFFFFFFFFFFFFFFFFFFFFFF MUL NOT AND SWAP1 DUP4 PUSH20 0xFFFFFFFFFFFFFFFFFFFFFFFFFFFFFFFFFFFFFFFF AND MUL OR SWAP1 SSTORE POP CALLVALUE PUSH0 DUP1 CALLER PUSH20 0xFFFFFFFFFFFFFFFFFFFFFFFFFFFFFFFFFFFFFFFF AND PUSH20 0xFFFFFFFFFFFFFFFFFFFFFFFFFFFFFFFFFFFFFFFF AND DUP2 MSTORE PUSH1 0x20 ADD SWAP1 DUP2 MSTORE PUSH1 0x20 ADD PUSH0 KECCAK256 PUSH1 0x1 ADD DUP2 SWAP1 SSTORE POP TIMESTAMP PUSH0 DUP1 CALLER PUSH20 0xFFFFFFFFFFFFFFFFFFFFFFFFFFFFFFFFFFFFFFFF AND PUSH20 0xFFFFFFFFFFFFFFFFFFFFFFFFFFFFFFFFFFFFFFFF AND DUP2 MSTORE PUSH1 0x20 ADD SWAP1 DUP2 MSTORE PUSH1 0x20 ADD PUSH0 KECCAK256 PUSH1 0x2 ADD DUP2 SWAP1 SSTORE POP PUSH32 0x2F8A6EC2D4B44B9EB188E85756710017B4B7D1D8C493867F691BF6046F05FA2E CALLER CALLVALUE TIMESTAMP PUSH1 0x40 MLOAD PUSH2 0x3B6 SWAP4 SWAP3 SWAP2 SWAP1 PUSH2 0x470 JUMP JUMPDEST PUSH1 0x40 MLOAD DUP1 SWAP2 SUB SWAP1 LOG1 JUMP JUMPDEST PUSH0 DUP1 REVERT JUMPDEST PUSH0 PUSH20 0xFFFFFFFFFFFFFFFFFFFFFFFFFFFFFFFFFFFFFFFF DUP3 AND SWAP1 POP SWAP2 SWAP1 POP JUMP JUMPDEST PUSH0 PUSH2 0x3ED DUP3 PUSH2 0x3C4 JUMP JUMPDEST SWAP1 POP SWAP2 SWAP1 POP JUMP JUMPDEST PUSH2 0x3FD DUP2 PUSH2 0x3E3 JUMP JUMPDEST DUP2 EQ PUSH2 0x407 JUMPI PUSH0 DUP1 REVERT JUMPDEST POP JUMP JUMPDEST PUSH0 DUP2 CALLDATALOAD SWAP1 POP PUSH2 0x418 DUP2 PUSH2 0x3F4 JUMP JUMPDEST SWAP3 SWAP2 POP POP JUMP JUMPDEST PUSH0 PUSH1 0x20 DUP3 DUP5 SUB SLT ISZERO PUSH2 0x433 JUMPI PUSH2 0x432 PUSH2 0x3C0 JUMP JUMPDEST JUMPDEST PUSH0 PUSH2 0x440 DUP5 DUP3 DUP6 ADD PUSH2 0x40A JUMP JUMPDEST SWAP2 POP POP SWAP3 SWAP2 POP POP JUMP JUMPDEST PUSH2 0x452 DUP2 PUSH2 0x3E3 JUMP JUMPDEST DUP3 MSTORE POP POP JUMP JUMPDEST PUSH0 DUP2 SWAP1 POP SWAP2 SWAP1 POP JUMP JUMPDEST PUSH2 0x46A DUP2 PUSH2 0x458 JUMP JUMPDEST DUP3 MSTORE POP POP JUMP JUMPDEST PUSH0 PUSH1 0x60 DUP3 ADD SWAP1 POP PUSH2 0x483 PUSH0 DUP4 ADD DUP7 PUSH2 0x449 JUMP JUMPDEST PUSH2 0x490 PUSH1 0x20 DUP4 ADD DUP6 PUSH2 0x461 JUMP JUMPDEST PUSH2 0x49D PUSH1 0x40 DUP4 ADD DUP5 PUSH2 0x461 JUMP JUMPDEST SWAP5 SWAP4 POP POP POP POP JUMP JUMPDEST PUSH0 DUP3 DUP3 MSTORE PUSH1 0x20 DUP3 ADD SWAP1 POP SWAP3 SWAP2 POP POP JUMP JUMPDEST PUSH32 0x6E6F7420656E6F7567682062616C616E63650000000000000000000000000000 PUSH0 DUP3 ADD MSTORE POP JUMP JUMPDEST PUSH0 PUSH2 0x4E9 PUSH1 0x12 DUP4 PUSH2 0x4A5 JUMP JUMPDEST SWAP2 POP PUSH2 0x4F4 DUP3 PUSH2 0x4B5 JUMP JUMPDEST PUSH1 0x20 DUP3 ADD SWAP1 POP SWAP2 SWAP1 POP JUMP JUMPDEST PUSH0 PUSH1 0x20 DUP3 ADD SWAP1 POP DUP2 DUP2 SUB PUSH0 DUP4 ADD MSTORE PUSH2 0x516 DUP2 PUSH2 0x4DD JUMP JUMPDEST SWAP1 POP SWAP2 SWAP1 POP JUMP JUMPDEST PUSH32 0x4E487B7100000000000000000000000000000000000000000000000000000000 PUSH0 MSTORE PUSH1 0x11 PUSH1 0x4 MSTORE PUSH1 0x24 PUSH0 REVERT JUMPDEST PUSH0 PUSH2 0x554 DUP3 PUSH2 0x458 JUMP JUMPDEST SWAP2 POP PUSH2 0x55F DUP4 PUSH2 0x458 JUMP JUMPDEST SWAP3 POP DUP3 DUP3 ADD SWAP1 POP DUP1 DUP3 GT ISZERO PUSH2 0x577 JUMPI PUSH2 0x576 PUSH2 0x51D JUMP JUMPDEST JUMPDEST SWAP3 SWAP2 POP POP JUMP INVALID LOG2 PUSH5 0x6970667358 0x22 SLT KECCAK256 DUP7 TIMESTAMP DUP16 0xC7 SWAP10 SAR 0xCA 0xDC 0x21 DUP13 DUP12 0x4B 0xB7 PUSH19 0xE3C32C58B08A678B0C4F2DB414699BA45C3A64 PUSH20 0x6F6C634300081A00330000000000000000000000 "
				},
				"gasEstimates": {
					"creation": {
						"codeDepositCost": "291800",
						"executionCost": "329",
						"totalCost": "292129"
					},
					"external": {
						"LaxmiChitFund(address)": "infinite",
						"accountCreated()": "infinite",
						"deposit()": "infinite",
						"withdraw()": "infinite"
					}
				},
				"methodIdentifiers": {
					"LaxmiChitFund(address)": "23e76b23",
					"accountCreated()": "fa209fea",
					"deposit()": "d0e30db0",
					"withdraw()": "3ccfd60b"
				}
			},
			"storageLayout": {
				"storage": [
					{
						"astId": 13,
						"contract": "Banl.sol:Bank",
						"label": "LaxmiChitFund",
						"offset": 0,
						"slot": "0",
						"type": "t_mapping(t_address,t_struct(Account)8_storage)"
					}
				],
				"types": {
					"t_address": {
						"encoding": "inplace",
						"label": "address",
						"numberOfBytes": "20"
					},
					"t_mapping(t_address,t_struct(Account)8_storage)": {
						"encoding": "mapping",
						"key": "t_address",
						"label": "mapping(address => struct Bank.Account)",
						"numberOfBytes": "32",
						"value": "t_struct(Account)8_storage"
					},
					"t_struct(Account)8_storage": {
						"encoding": "inplace",
						"label": "struct Bank.Account",
						"members": [
							{
								"astId": 3,
								"contract": "Banl.sol:Bank",
								"label": "owner",
								"offset": 0,
								"slot": "0",
								"type": "t_address"
							},
							{
								"astId": 5,
								"contract": "Banl.sol:Bank",
								"label": "balance",
								"offset": 0,
								"slot": "1",
								"type": "t_uint256"
							},
							{
								"astId": 7,
								"contract": "Banl.sol:Bank",
								"label": "accountCreatedTime",
								"offset": 0,
								"slot": "2",
								"type": "t_uint256"
							}
						],
						"numberOfBytes": "96"
					},
					"t_uint256": {
						"encoding": "inplace",
						"label": "uint256",
						"numberOfBytes": "32"
					}
				}
			},
			"userdoc": {
				"kind": "user",
				"methods": {},
				"version": 1
			}
		}
	}
}