{
	"ControlStatements.sol": {
		"ControlStatements": {
			"abi": [
				{
					"inputs": [
						{
							"internalType": "uint256",
							"name": "_num",
							"type": "uint256"
						}
					],
					"name": "add",
					"outputs": [],
					"stateMutability": "nonpayable",
					"type": "function"
				},
				{
					"inputs": [
						{
							"internalType": "string[]",
							"name": "_names",
							"type": "string[]"
						}
					],
					"name": "addNames",
					"outputs": [],
					"stateMutability": "nonpayable",
					"type": "function"
				},
				{
					"inputs": [],
					"name": "coins",
					"outputs": [
						{
							"internalType": "uint256",
							"name": "",
							"type": "uint256"
						}
					],
					"stateMutability": "view",
					"type": "function"
				},
				{
					"inputs": [
						{
							"internalType": "uint256",
							"name": "_num",
							"type": "uint256"
						}
					],
					"name": "letsBreak",
					"outputs": [],
					"stateMutability": "nonpayable",
					"type": "function"
				},
				{
					"inputs": [],
					"name": "something",
					"outputs": [],
					"stateMutability": "nonpayable",
					"type": "function"
				},
				{
					"inputs": [
						{
							"internalType": "uint256",
							"name": "",
							"type": "uint256"
						}
					],
					"name": "students",
					"outputs": [
						{
							"internalType": "string",
							"name": "",
							"type": "string"
						}
					],
					"stateMutability": "view",
					"type": "function"
				}
			],
			"devdoc": {
				"kind": "dev",
				"methods": {},
				"version": 1
			},
			"evm": {
				"assembly": "    /* \"ControlStatements.sol\":60:923  contract ControlStatements{... */\n  mstore(0x40, 0x80)\n    /* \"ControlStatements.sol\":735:736  0 */\n  0x00\n    /* \"ControlStatements.sol\":714:736  uint256 public coins=0 */\n  0x01\n  sstore\n    /* \"ControlStatements.sol\":60:923  contract ControlStatements{... */\n  callvalue\n  dup1\n  iszero\n  tag_1\n  jumpi\n  0x00\n  dup1\n  revert\ntag_1:\n  pop\n  dataSize(sub_0)\n  dup1\n  dataOffset(sub_0)\n  0x00\n  codecopy\n  0x00\n  return\nstop\n\nsub_0: assembly {\n        /* \"ControlStatements.sol\":60:923  contract ControlStatements{... */\n      mstore(0x40, 0x80)\n      callvalue\n      dup1\n      iszero\n      tag_1\n      jumpi\n      0x00\n      dup1\n      revert\n    tag_1:\n      pop\n      jumpi(tag_2, lt(calldatasize, 0x04))\n      shr(0xe0, calldataload(0x00))\n      dup1\n      0x06ead22e\n      eq\n      tag_3\n      jumpi\n      dup1\n      0x1003e2d2\n      eq\n      tag_4\n      jumpi\n      dup1\n      0x22fcefbe\n      eq\n      tag_5\n      jumpi\n      dup1\n      0x4e303c60\n      eq\n      tag_6\n      jumpi\n      dup1\n      0xa7a0d537\n      eq\n      tag_7\n      jumpi\n      dup1\n      0xe308ae72\n      eq\n      tag_8\n      jumpi\n    tag_2:\n      0x00\n      dup1\n      revert\n        /* \"ControlStatements.sol\":93:134  mapping(uint256 => string)public students */\n    tag_3:\n      tag_9\n      0x04\n      dup1\n      calldatasize\n      sub\n      dup2\n      add\n      swap1\n      tag_10\n      swap2\n      swap1\n      tag_11\n      jump\t// in\n    tag_10:\n      tag_12\n      jump\t// in\n    tag_9:\n      mload(0x40)\n      tag_13\n      swap2\n      swap1\n      tag_14\n      jump\t// in\n    tag_13:\n      mload(0x40)\n      dup1\n      swap2\n      sub\n      swap1\n      return\n        /* \"ControlStatements.sol\":180:318  function add(uint256 _num)public{... */\n    tag_4:\n      tag_15\n      0x04\n      dup1\n      calldatasize\n      sub\n      dup2\n      add\n      swap1\n      tag_16\n      swap2\n      swap1\n      tag_11\n      jump\t// in\n    tag_16:\n      tag_17\n      jump\t// in\n    tag_15:\n      stop\n        /* \"ControlStatements.sol\":714:736  uint256 public coins=0 */\n    tag_5:\n      tag_18\n      tag_19\n      jump\t// in\n    tag_18:\n      mload(0x40)\n      tag_20\n      swap2\n      swap1\n      tag_21\n      jump\t// in\n    tag_20:\n      mload(0x40)\n      dup1\n      swap2\n      sub\n      swap1\n      return\n        /* \"ControlStatements.sol\":345:530  function addNames(string[] memory _names)public{... */\n    tag_6:\n      tag_22\n      0x04\n      dup1\n      calldatasize\n      sub\n      dup2\n      add\n      swap1\n      tag_23\n      swap2\n      swap1\n      tag_24\n      jump\t// in\n    tag_23:\n      tag_25\n      jump\t// in\n    tag_22:\n      stop\n        /* \"ControlStatements.sol\":743:920  function something()public{... */\n    tag_7:\n      tag_26\n      tag_27\n      jump\t// in\n    tag_26:\n      stop\n        /* \"ControlStatements.sol\":559:685  function letsBreak(uint256 _num) public{... */\n    tag_8:\n      tag_28\n      0x04\n      dup1\n      calldatasize\n      sub\n      dup2\n      add\n      swap1\n      tag_29\n      swap2\n      swap1\n      tag_11\n      jump\t// in\n    tag_29:\n      tag_30\n      jump\t// in\n    tag_28:\n      stop\n        /* \"ControlStatements.sol\":93:134  mapping(uint256 => string)public students */\n    tag_12:\n      mstore(0x20, 0x00)\n      dup1\n      0x00\n      mstore\n      keccak256(0x00, 0x40)\n      0x00\n      swap2\n      pop\n      swap1\n      pop\n      dup1\n      sload\n      tag_31\n      swap1\n      tag_32\n      jump\t// in\n    tag_31:\n      dup1\n      0x1f\n      add\n      0x20\n      dup1\n      swap2\n      div\n      mul\n      0x20\n      add\n      mload(0x40)\n      swap1\n      dup2\n      add\n      0x40\n      mstore\n      dup1\n      swap3\n      swap2\n      swap1\n      dup2\n      dup2\n      mstore\n      0x20\n      add\n      dup3\n      dup1\n      sload\n      tag_33\n      swap1\n      tag_32\n      jump\t// in\n    tag_33:\n      dup1\n      iszero\n      tag_34\n      jumpi\n      dup1\n      0x1f\n      lt\n      tag_35\n      jumpi\n      0x0100\n      dup1\n      dup4\n      sload\n      div\n      mul\n      dup4\n      mstore\n      swap2\n      0x20\n      add\n      swap2\n      jump(tag_34)\n    tag_35:\n      dup3\n      add\n      swap2\n      swap1\n      0x00\n      mstore\n      keccak256(0x00, 0x20)\n      swap1\n    tag_36:\n      dup2\n      sload\n      dup2\n      mstore\n      swap1\n      0x01\n      add\n      swap1\n      0x20\n      add\n      dup1\n      dup4\n      gt\n      tag_36\n      jumpi\n      dup3\n      swap1\n      sub\n      0x1f\n      and\n      dup3\n      add\n      swap2\n    tag_34:\n      pop\n      pop\n      pop\n      pop\n      pop\n      dup2\n      jump\t// out\n        /* \"ControlStatements.sol\":180:318  function add(uint256 _num)public{... */\n    tag_17:\n        /* \"ControlStatements.sol\":227:236  uint256 i */\n      0x00\n        /* \"ControlStatements.sol\":223:311  for(uint256 i=0;i<_num;i++)... */\n    tag_38:\n        /* \"ControlStatements.sol\":241:245  _num */\n      dup2\n        /* \"ControlStatements.sol\":239:240  i */\n      dup2\n        /* \"ControlStatements.sol\":239:245  i<_num */\n      lt\n        /* \"ControlStatements.sol\":223:311  for(uint256 i=0;i<_num;i++)... */\n      iszero\n      tag_39\n      jumpi\n        /* \"ControlStatements.sol\":275:299  students[i]=\"Blocktrain\" */\n      mload(0x40)\n      dup1\n      0x40\n      add\n      0x40\n      mstore\n      dup1\n      0x0a\n      dup2\n      mstore\n      0x20\n      add\n      0x426c6f636b747261696e00000000000000000000000000000000000000000000\n      dup2\n      mstore\n      pop\n        /* \"ControlStatements.sol\":275:283  students */\n      0x00\n        /* \"ControlStatements.sol\":275:286  students[i] */\n      dup1\n        /* \"ControlStatements.sol\":284:285  i */\n      dup4\n        /* \"ControlStatements.sol\":275:286  students[i] */\n      dup2\n      mstore\n      0x20\n      add\n      swap1\n      dup2\n      mstore\n      0x20\n      add\n      0x00\n      keccak256\n        /* \"ControlStatements.sol\":275:299  students[i]=\"Blocktrain\" */\n      swap1\n      dup2\n      tag_41\n      swap2\n      swap1\n      tag_42\n      jump\t// in\n    tag_41:\n      pop\n        /* \"ControlStatements.sol\":246:249  i++ */\n      dup1\n      dup1\n      tag_43\n      swap1\n      tag_44\n      jump\t// in\n    tag_43:\n      swap2\n      pop\n      pop\n        /* \"ControlStatements.sol\":223:311  for(uint256 i=0;i<_num;i++)... */\n      jump(tag_38)\n    tag_39:\n      pop\n        /* \"ControlStatements.sol\":180:318  function add(uint256 _num)public{... */\n      pop\n      jump\t// out\n        /* \"ControlStatements.sol\":714:736  uint256 public coins=0 */\n    tag_19:\n      sload(0x01)\n      dup2\n      jump\t// out\n        /* \"ControlStatements.sol\":345:530  function addNames(string[] memory _names)public{... */\n    tag_25:\n        /* \"ControlStatements.sol\":403:412  uint256 i */\n      0x00\n        /* \"ControlStatements.sol\":425:523  while(i<_names.length)... */\n    tag_46:\n        /* \"ControlStatements.sol\":433:439  _names */\n      dup2\n        /* \"ControlStatements.sol\":433:446  _names.length */\n      mload\n        /* \"ControlStatements.sol\":431:432  i */\n      dup2\n        /* \"ControlStatements.sol\":431:446  i<_names.length */\n      lt\n        /* \"ControlStatements.sol\":425:523  while(i<_names.length)... */\n      iszero\n      tag_47\n      jumpi\n        /* \"ControlStatements.sol\":484:490  _names */\n      dup2\n        /* \"ControlStatements.sol\":491:492  i */\n      dup2\n        /* \"ControlStatements.sol\":484:493  _names[i] */\n      dup2\n      mload\n      dup2\n      lt\n      tag_48\n      jumpi\n      tag_49\n      tag_50\n      jump\t// in\n    tag_49:\n    tag_48:\n      0x20\n      mul\n      0x20\n      add\n      add\n      mload\n        /* \"ControlStatements.sol\":472:480  students */\n      0x00\n        /* \"ControlStatements.sol\":472:483  students[i] */\n      dup1\n        /* \"ControlStatements.sol\":481:482  i */\n      dup4\n        /* \"ControlStatements.sol\":472:483  students[i] */\n      dup2\n      mstore\n      0x20\n      add\n      swap1\n      dup2\n      mstore\n      0x20\n      add\n      0x00\n      keccak256\n        /* \"ControlStatements.sol\":472:493  students[i]=_names[i] */\n      swap1\n      dup2\n      tag_51\n      swap2\n      swap1\n      tag_42\n      jump\t// in\n    tag_51:\n      pop\n        /* \"ControlStatements.sol\":508:511  i++ */\n      dup1\n      dup1\n      tag_52\n      swap1\n      tag_44\n      jump\t// in\n    tag_52:\n      swap2\n      pop\n      pop\n        /* \"ControlStatements.sol\":425:523  while(i<_names.length)... */\n      jump(tag_46)\n    tag_47:\n        /* \"ControlStatements.sol\":392:530  {... */\n      pop\n        /* \"ControlStatements.sol\":345:530  function addNames(string[] memory _names)public{... */\n      pop\n      jump\t// out\n        /* \"ControlStatements.sol\":743:920  function something()public{... */\n    tag_27:\n        /* \"ControlStatements.sol\":784:793  uint256 i */\n      0x00\n        /* \"ControlStatements.sol\":780:917  for(uint256 i=0;i<10;i++)... */\n    tag_54:\n        /* \"ControlStatements.sol\":798:800  10 */\n      0x0a\n        /* \"ControlStatements.sol\":796:797  i */\n      dup2\n        /* \"ControlStatements.sol\":796:800  i<10 */\n      lt\n        /* \"ControlStatements.sol\":780:917  for(uint256 i=0;i<10;i++)... */\n      iszero\n      tag_55\n      jumpi\n        /* \"ControlStatements.sol\":836:837  4 */\n      0x04\n        /* \"ControlStatements.sol\":833:834  i */\n      dup2\n        /* \"ControlStatements.sol\":833:837  i==4 */\n      sub\n        /* \"ControlStatements.sol\":830:892  if(i==4)... */\n      iszero\n        /* \"ControlStatements.sol\":871:876  break */\n      tag_55\n        /* \"ControlStatements.sol\":830:892  if(i==4)... */\n      jumpi\n        /* \"ControlStatements.sol\":902:907  coins */\n      0x01\n      0x00\n        /* \"ControlStatements.sol\":902:909  coins++ */\n      dup2\n      sload\n      dup1\n      swap3\n      swap2\n      swap1\n      tag_58\n      swap1\n      tag_44\n      jump\t// in\n    tag_58:\n      swap2\n      swap1\n      pop\n      sstore\n      pop\n        /* \"ControlStatements.sol\":801:804  i++ */\n      dup1\n      dup1\n      tag_59\n      swap1\n      tag_44\n      jump\t// in\n    tag_59:\n      swap2\n      pop\n      pop\n        /* \"ControlStatements.sol\":780:917  for(uint256 i=0;i<10;i++)... */\n      jump(tag_54)\n    tag_55:\n      pop\n        /* \"ControlStatements.sol\":743:920  function something()public{... */\n      jump\t// out\n        /* \"ControlStatements.sol\":559:685  function letsBreak(uint256 _num) public{... */\n    tag_30:\n        /* \"ControlStatements.sol\":609:678  do{... */\n    tag_61:\n        /* \"ControlStatements.sol\":626:650  students[0]=\"Blocktrain\" */\n      mload(0x40)\n      dup1\n      0x40\n      add\n      0x40\n      mstore\n      dup1\n      0x0a\n      dup2\n      mstore\n      0x20\n      add\n      0x426c6f636b747261696e00000000000000000000000000000000000000000000\n      dup2\n      mstore\n      pop\n        /* \"ControlStatements.sol\":626:634  students */\n      0x00\n        /* \"ControlStatements.sol\":626:637  students[0] */\n      dup1\n        /* \"ControlStatements.sol\":635:636  0 */\n      dup1\n        /* \"ControlStatements.sol\":626:637  students[0] */\n      dup2\n      mstore\n      0x20\n      add\n      swap1\n      dup2\n      mstore\n      0x20\n      add\n      0x00\n      keccak256\n        /* \"ControlStatements.sol\":626:650  students[0]=\"Blocktrain\" */\n      swap1\n      dup2\n      tag_64\n      swap2\n      swap1\n      tag_42\n      jump\t// in\n    tag_64:\n      pop\n        /* \"ControlStatements.sol\":675:676  0 */\n      0x00\n        /* \"ControlStatements.sol\":670:674  _num */\n      dup2\n        /* \"ControlStatements.sol\":670:676  _num<0 */\n      lt\n        /* \"ControlStatements.sol\":609:678  do{... */\n      tag_61\n      jumpi\n        /* \"ControlStatements.sol\":559:685  function letsBreak(uint256 _num) public{... */\n      pop\n      jump\t// out\n        /* \"#utility.yul\":7:82   */\n    tag_65:\n        /* \"#utility.yul\":40:46   */\n      0x00\n        /* \"#utility.yul\":73:75   */\n      0x40\n        /* \"#utility.yul\":67:76   */\n      mload\n        /* \"#utility.yul\":57:76   */\n      swap1\n      pop\n        /* \"#utility.yul\":7:82   */\n      swap1\n      jump\t// out\n        /* \"#utility.yul\":88:205   */\n    tag_66:\n        /* \"#utility.yul\":197:198   */\n      0x00\n        /* \"#utility.yul\":194:195   */\n      dup1\n        /* \"#utility.yul\":187:199   */\n      revert\n        /* \"#utility.yul\":211:328   */\n    tag_67:\n        /* \"#utility.yul\":320:321   */\n      0x00\n        /* \"#utility.yul\":317:318   */\n      dup1\n        /* \"#utility.yul\":310:322   */\n      revert\n        /* \"#utility.yul\":334:411   */\n    tag_68:\n        /* \"#utility.yul\":371:378   */\n      0x00\n        /* \"#utility.yul\":400:405   */\n      dup2\n        /* \"#utility.yul\":389:405   */\n      swap1\n      pop\n        /* \"#utility.yul\":334:411   */\n      swap2\n      swap1\n      pop\n      jump\t// out\n        /* \"#utility.yul\":417:539   */\n    tag_69:\n        /* \"#utility.yul\":490:514   */\n      tag_113\n        /* \"#utility.yul\":508:513   */\n      dup2\n        /* \"#utility.yul\":490:514   */\n      tag_68\n      jump\t// in\n    tag_113:\n        /* \"#utility.yul\":483:488   */\n      dup2\n        /* \"#utility.yul\":480:515   */\n      eq\n        /* \"#utility.yul\":470:533   */\n      tag_114\n      jumpi\n        /* \"#utility.yul\":529:530   */\n      0x00\n        /* \"#utility.yul\":526:527   */\n      dup1\n        /* \"#utility.yul\":519:531   */\n      revert\n        /* \"#utility.yul\":470:533   */\n    tag_114:\n        /* \"#utility.yul\":417:539   */\n      pop\n      jump\t// out\n        /* \"#utility.yul\":545:684   */\n    tag_70:\n        /* \"#utility.yul\":591:596   */\n      0x00\n        /* \"#utility.yul\":629:635   */\n      dup2\n        /* \"#utility.yul\":616:636   */\n      calldataload\n        /* \"#utility.yul\":607:636   */\n      swap1\n      pop\n        /* \"#utility.yul\":645:678   */\n      tag_116\n        /* \"#utility.yul\":672:677   */\n      dup2\n        /* \"#utility.yul\":645:678   */\n      tag_69\n      jump\t// in\n    tag_116:\n        /* \"#utility.yul\":545:684   */\n      swap3\n      swap2\n      pop\n      pop\n      jump\t// out\n        /* \"#utility.yul\":690:1019   */\n    tag_11:\n        /* \"#utility.yul\":749:755   */\n      0x00\n        /* \"#utility.yul\":798:800   */\n      0x20\n        /* \"#utility.yul\":786:795   */\n      dup3\n        /* \"#utility.yul\":777:784   */\n      dup5\n        /* \"#utility.yul\":773:796   */\n      sub\n        /* \"#utility.yul\":769:801   */\n      slt\n        /* \"#utility.yul\":766:885   */\n      iszero\n      tag_118\n      jumpi\n        /* \"#utility.yul\":804:883   */\n      tag_119\n      tag_66\n      jump\t// in\n    tag_119:\n        /* \"#utility.yul\":766:885   */\n    tag_118:\n        /* \"#utility.yul\":924:925   */\n      0x00\n        /* \"#utility.yul\":949:1002   */\n      tag_120\n        /* \"#utility.yul\":994:1001   */\n      dup5\n        /* \"#utility.yul\":985:991   */\n      dup3\n        /* \"#utility.yul\":974:983   */\n      dup6\n        /* \"#utility.yul\":970:992   */\n      add\n        /* \"#utility.yul\":949:1002   */\n      tag_70\n      jump\t// in\n    tag_120:\n        /* \"#utility.yul\":939:1002   */\n      swap2\n      pop\n        /* \"#utility.yul\":895:1012   */\n      pop\n        /* \"#utility.yul\":690:1019   */\n      swap3\n      swap2\n      pop\n      pop\n      jump\t// out\n        /* \"#utility.yul\":1025:1124   */\n    tag_71:\n        /* \"#utility.yul\":1077:1083   */\n      0x00\n        /* \"#utility.yul\":1111:1116   */\n      dup2\n        /* \"#utility.yul\":1105:1117   */\n      mload\n        /* \"#utility.yul\":1095:1117   */\n      swap1\n      pop\n        /* \"#utility.yul\":1025:1124   */\n      swap2\n      swap1\n      pop\n      jump\t// out\n        /* \"#utility.yul\":1130:1299   */\n    tag_72:\n        /* \"#utility.yul\":1214:1225   */\n      0x00\n        /* \"#utility.yul\":1248:1254   */\n      dup3\n        /* \"#utility.yul\":1243:1246   */\n      dup3\n        /* \"#utility.yul\":1236:1255   */\n      mstore\n        /* \"#utility.yul\":1288:1292   */\n      0x20\n        /* \"#utility.yul\":1283:1286   */\n      dup3\n        /* \"#utility.yul\":1279:1293   */\n      add\n        /* \"#utility.yul\":1264:1293   */\n      swap1\n      pop\n        /* \"#utility.yul\":1130:1299   */\n      swap3\n      swap2\n      pop\n      pop\n      jump\t// out\n        /* \"#utility.yul\":1305:1551   */\n    tag_73:\n        /* \"#utility.yul\":1386:1387   */\n      0x00\n        /* \"#utility.yul\":1396:1509   */\n    tag_124:\n        /* \"#utility.yul\":1410:1416   */\n      dup4\n        /* \"#utility.yul\":1407:1408   */\n      dup2\n        /* \"#utility.yul\":1404:1417   */\n      lt\n        /* \"#utility.yul\":1396:1509   */\n      iszero\n      tag_126\n      jumpi\n        /* \"#utility.yul\":1495:1496   */\n      dup1\n        /* \"#utility.yul\":1490:1493   */\n      dup3\n        /* \"#utility.yul\":1486:1497   */\n      add\n        /* \"#utility.yul\":1480:1498   */\n      mload\n        /* \"#utility.yul\":1476:1477   */\n      dup2\n        /* \"#utility.yul\":1471:1474   */\n      dup5\n        /* \"#utility.yul\":1467:1478   */\n      add\n        /* \"#utility.yul\":1460:1499   */\n      mstore\n        /* \"#utility.yul\":1432:1434   */\n      0x20\n        /* \"#utility.yul\":1429:1430   */\n      dup2\n        /* \"#utility.yul\":1425:1435   */\n      add\n        /* \"#utility.yul\":1420:1435   */\n      swap1\n      pop\n        /* \"#utility.yul\":1396:1509   */\n      jump(tag_124)\n    tag_126:\n        /* \"#utility.yul\":1543:1544   */\n      0x00\n        /* \"#utility.yul\":1534:1540   */\n      dup5\n        /* \"#utility.yul\":1529:1532   */\n      dup5\n        /* \"#utility.yul\":1525:1541   */\n      add\n        /* \"#utility.yul\":1518:1545   */\n      mstore\n        /* \"#utility.yul\":1367:1551   */\n      pop\n        /* \"#utility.yul\":1305:1551   */\n      pop\n      pop\n      pop\n      jump\t// out\n        /* \"#utility.yul\":1557:1659   */\n    tag_74:\n        /* \"#utility.yul\":1598:1604   */\n      0x00\n        /* \"#utility.yul\":1649:1651   */\n      0x1f\n        /* \"#utility.yul\":1645:1652   */\n      not\n        /* \"#utility.yul\":1640:1642   */\n      0x1f\n        /* \"#utility.yul\":1633:1638   */\n      dup4\n        /* \"#utility.yul\":1629:1643   */\n      add\n        /* \"#utility.yul\":1625:1653   */\n      and\n        /* \"#utility.yul\":1615:1653   */\n      swap1\n      pop\n        /* \"#utility.yul\":1557:1659   */\n      swap2\n      swap1\n      pop\n      jump\t// out\n        /* \"#utility.yul\":1665:2042   */\n    tag_75:\n        /* \"#utility.yul\":1753:1756   */\n      0x00\n        /* \"#utility.yul\":1781:1820   */\n      tag_129\n        /* \"#utility.yul\":1814:1819   */\n      dup3\n        /* \"#utility.yul\":1781:1820   */\n      tag_71\n      jump\t// in\n    tag_129:\n        /* \"#utility.yul\":1836:1907   */\n      tag_130\n        /* \"#utility.yul\":1900:1906   */\n      dup2\n        /* \"#utility.yul\":1895:1898   */\n      dup6\n        /* \"#utility.yul\":1836:1907   */\n      tag_72\n      jump\t// in\n    tag_130:\n        /* \"#utility.yul\":1829:1907   */\n      swap4\n      pop\n        /* \"#utility.yul\":1916:1981   */\n      tag_131\n        /* \"#utility.yul\":1974:1980   */\n      dup2\n        /* \"#utility.yul\":1969:1972   */\n      dup6\n        /* \"#utility.yul\":1962:1966   */\n      0x20\n        /* \"#utility.yul\":1955:1960   */\n      dup7\n        /* \"#utility.yul\":1951:1967   */\n      add\n        /* \"#utility.yul\":1916:1981   */\n      tag_73\n      jump\t// in\n    tag_131:\n        /* \"#utility.yul\":2006:2035   */\n      tag_132\n        /* \"#utility.yul\":2028:2034   */\n      dup2\n        /* \"#utility.yul\":2006:2035   */\n      tag_74\n      jump\t// in\n    tag_132:\n        /* \"#utility.yul\":2001:2004   */\n      dup5\n        /* \"#utility.yul\":1997:2036   */\n      add\n        /* \"#utility.yul\":1990:2036   */\n      swap2\n      pop\n        /* \"#utility.yul\":1757:2042   */\n      pop\n        /* \"#utility.yul\":1665:2042   */\n      swap3\n      swap2\n      pop\n      pop\n      jump\t// out\n        /* \"#utility.yul\":2048:2361   */\n    tag_14:\n        /* \"#utility.yul\":2161:2165   */\n      0x00\n        /* \"#utility.yul\":2199:2201   */\n      0x20\n        /* \"#utility.yul\":2188:2197   */\n      dup3\n        /* \"#utility.yul\":2184:2202   */\n      add\n        /* \"#utility.yul\":2176:2202   */\n      swap1\n      pop\n        /* \"#utility.yul\":2248:2257   */\n      dup2\n        /* \"#utility.yul\":2242:2246   */\n      dup2\n        /* \"#utility.yul\":2238:2258   */\n      sub\n        /* \"#utility.yul\":2234:2235   */\n      0x00\n        /* \"#utility.yul\":2223:2232   */\n      dup4\n        /* \"#utility.yul\":2219:2236   */\n      add\n        /* \"#utility.yul\":2212:2259   */\n      mstore\n        /* \"#utility.yul\":2276:2354   */\n      tag_134\n        /* \"#utility.yul\":2349:2353   */\n      dup2\n        /* \"#utility.yul\":2340:2346   */\n      dup5\n        /* \"#utility.yul\":2276:2354   */\n      tag_75\n      jump\t// in\n    tag_134:\n        /* \"#utility.yul\":2268:2354   */\n      swap1\n      pop\n        /* \"#utility.yul\":2048:2361   */\n      swap3\n      swap2\n      pop\n      pop\n      jump\t// out\n        /* \"#utility.yul\":2367:2485   */\n    tag_76:\n        /* \"#utility.yul\":2454:2478   */\n      tag_136\n        /* \"#utility.yul\":2472:2477   */\n      dup2\n        /* \"#utility.yul\":2454:2478   */\n      tag_68\n      jump\t// in\n    tag_136:\n        /* \"#utility.yul\":2449:2452   */\n      dup3\n        /* \"#utility.yul\":2442:2479   */\n      mstore\n        /* \"#utility.yul\":2367:2485   */\n      pop\n      pop\n      jump\t// out\n        /* \"#utility.yul\":2491:2713   */\n    tag_21:\n        /* \"#utility.yul\":2584:2588   */\n      0x00\n        /* \"#utility.yul\":2622:2624   */\n      0x20\n        /* \"#utility.yul\":2611:2620   */\n      dup3\n        /* \"#utility.yul\":2607:2625   */\n      add\n        /* \"#utility.yul\":2599:2625   */\n      swap1\n      pop\n        /* \"#utility.yul\":2635:2706   */\n      tag_138\n        /* \"#utility.yul\":2703:2704   */\n      0x00\n        /* \"#utility.yul\":2692:2701   */\n      dup4\n        /* \"#utility.yul\":2688:2705   */\n      add\n        /* \"#utility.yul\":2679:2685   */\n      dup5\n        /* \"#utility.yul\":2635:2706   */\n      tag_76\n      jump\t// in\n    tag_138:\n        /* \"#utility.yul\":2491:2713   */\n      swap3\n      swap2\n      pop\n      pop\n      jump\t// out\n        /* \"#utility.yul\":2719:2836   */\n    tag_77:\n        /* \"#utility.yul\":2828:2829   */\n      0x00\n        /* \"#utility.yul\":2825:2826   */\n      dup1\n        /* \"#utility.yul\":2818:2830   */\n      revert\n        /* \"#utility.yul\":2842:3022   */\n    tag_78:\n        /* \"#utility.yul\":2890:2967   */\n      0x4e487b7100000000000000000000000000000000000000000000000000000000\n        /* \"#utility.yul\":2887:2888   */\n      0x00\n        /* \"#utility.yul\":2880:2968   */\n      mstore\n        /* \"#utility.yul\":2987:2991   */\n      0x41\n        /* \"#utility.yul\":2984:2985   */\n      0x04\n        /* \"#utility.yul\":2977:2992   */\n      mstore\n        /* \"#utility.yul\":3011:3015   */\n      0x24\n        /* \"#utility.yul\":3008:3009   */\n      0x00\n        /* \"#utility.yul\":3001:3016   */\n      revert\n        /* \"#utility.yul\":3028:3309   */\n    tag_79:\n        /* \"#utility.yul\":3111:3138   */\n      tag_142\n        /* \"#utility.yul\":3133:3137   */\n      dup3\n        /* \"#utility.yul\":3111:3138   */\n      tag_74\n      jump\t// in\n    tag_142:\n        /* \"#utility.yul\":3103:3109   */\n      dup2\n        /* \"#utility.yul\":3099:3139   */\n      add\n        /* \"#utility.yul\":3241:3247   */\n      dup2\n        /* \"#utility.yul\":3229:3239   */\n      dup2\n        /* \"#utility.yul\":3226:3248   */\n      lt\n        /* \"#utility.yul\":3205:3223   */\n      0xffffffffffffffff\n        /* \"#utility.yul\":3193:3203   */\n      dup3\n        /* \"#utility.yul\":3190:3224   */\n      gt\n        /* \"#utility.yul\":3187:3249   */\n      or\n        /* \"#utility.yul\":3184:3272   */\n      iszero\n      tag_143\n      jumpi\n        /* \"#utility.yul\":3252:3270   */\n      tag_144\n      tag_78\n      jump\t// in\n    tag_144:\n        /* \"#utility.yul\":3184:3272   */\n    tag_143:\n        /* \"#utility.yul\":3292:3302   */\n      dup1\n        /* \"#utility.yul\":3288:3290   */\n      0x40\n        /* \"#utility.yul\":3281:3303   */\n      mstore\n        /* \"#utility.yul\":3071:3309   */\n      pop\n        /* \"#utility.yul\":3028:3309   */\n      pop\n      pop\n      jump\t// out\n        /* \"#utility.yul\":3315:3444   */\n    tag_80:\n        /* \"#utility.yul\":3349:3355   */\n      0x00\n        /* \"#utility.yul\":3376:3396   */\n      tag_146\n      tag_65\n      jump\t// in\n    tag_146:\n        /* \"#utility.yul\":3366:3396   */\n      swap1\n      pop\n        /* \"#utility.yul\":3405:3438   */\n      tag_147\n        /* \"#utility.yul\":3433:3437   */\n      dup3\n        /* \"#utility.yul\":3425:3431   */\n      dup3\n        /* \"#utility.yul\":3405:3438   */\n      tag_79\n      jump\t// in\n    tag_147:\n        /* \"#utility.yul\":3315:3444   */\n      swap2\n      swap1\n      pop\n      jump\t// out\n        /* \"#utility.yul\":3450:3771   */\n    tag_81:\n        /* \"#utility.yul\":3537:3541   */\n      0x00\n        /* \"#utility.yul\":3627:3645   */\n      0xffffffffffffffff\n        /* \"#utility.yul\":3619:3625   */\n      dup3\n        /* \"#utility.yul\":3616:3646   */\n      gt\n        /* \"#utility.yul\":3613:3669   */\n      iszero\n      tag_149\n      jumpi\n        /* \"#utility.yul\":3649:3667   */\n      tag_150\n      tag_78\n      jump\t// in\n    tag_150:\n        /* \"#utility.yul\":3613:3669   */\n    tag_149:\n        /* \"#utility.yul\":3699:3703   */\n      0x20\n        /* \"#utility.yul\":3691:3697   */\n      dup3\n        /* \"#utility.yul\":3687:3704   */\n      mul\n        /* \"#utility.yul\":3679:3704   */\n      swap1\n      pop\n        /* \"#utility.yul\":3759:3763   */\n      0x20\n        /* \"#utility.yul\":3753:3757   */\n      dup2\n        /* \"#utility.yul\":3749:3764   */\n      add\n        /* \"#utility.yul\":3741:3764   */\n      swap1\n      pop\n        /* \"#utility.yul\":3450:3771   */\n      swap2\n      swap1\n      pop\n      jump\t// out\n        /* \"#utility.yul\":3777:3894   */\n    tag_82:\n        /* \"#utility.yul\":3886:3887   */\n      0x00\n        /* \"#utility.yul\":3883:3884   */\n      dup1\n        /* \"#utility.yul\":3876:3888   */\n      revert\n        /* \"#utility.yul\":3900:4017   */\n    tag_83:\n        /* \"#utility.yul\":4009:4010   */\n      0x00\n        /* \"#utility.yul\":4006:4007   */\n      dup1\n        /* \"#utility.yul\":3999:4011   */\n      revert\n        /* \"#utility.yul\":4023:4331   */\n    tag_84:\n        /* \"#utility.yul\":4085:4089   */\n      0x00\n        /* \"#utility.yul\":4175:4193   */\n      0xffffffffffffffff\n        /* \"#utility.yul\":4167:4173   */\n      dup3\n        /* \"#utility.yul\":4164:4194   */\n      gt\n        /* \"#utility.yul\":4161:4217   */\n      iszero\n      tag_154\n      jumpi\n        /* \"#utility.yul\":4197:4215   */\n      tag_155\n      tag_78\n      jump\t// in\n    tag_155:\n        /* \"#utility.yul\":4161:4217   */\n    tag_154:\n        /* \"#utility.yul\":4235:4264   */\n      tag_156\n        /* \"#utility.yul\":4257:4263   */\n      dup3\n        /* \"#utility.yul\":4235:4264   */\n      tag_74\n      jump\t// in\n    tag_156:\n        /* \"#utility.yul\":4227:4264   */\n      swap1\n      pop\n        /* \"#utility.yul\":4319:4323   */\n      0x20\n        /* \"#utility.yul\":4313:4317   */\n      dup2\n        /* \"#utility.yul\":4309:4324   */\n      add\n        /* \"#utility.yul\":4301:4324   */\n      swap1\n      pop\n        /* \"#utility.yul\":4023:4331   */\n      swap2\n      swap1\n      pop\n      jump\t// out\n        /* \"#utility.yul\":4337:4483   */\n    tag_85:\n        /* \"#utility.yul\":4434:4440   */\n      dup3\n        /* \"#utility.yul\":4429:4432   */\n      dup2\n        /* \"#utility.yul\":4424:4427   */\n      dup4\n        /* \"#utility.yul\":4411:4441   */\n      calldatacopy\n        /* \"#utility.yul\":4475:4476   */\n      0x00\n        /* \"#utility.yul\":4466:4472   */\n      dup4\n        /* \"#utility.yul\":4461:4464   */\n      dup4\n        /* \"#utility.yul\":4457:4473   */\n      add\n        /* \"#utility.yul\":4450:4477   */\n      mstore\n        /* \"#utility.yul\":4337:4483   */\n      pop\n      pop\n      pop\n      jump\t// out\n        /* \"#utility.yul\":4489:4914   */\n    tag_86:\n        /* \"#utility.yul\":4567:4572   */\n      0x00\n        /* \"#utility.yul\":4592:4658   */\n      tag_159\n        /* \"#utility.yul\":4608:4657   */\n      tag_160\n        /* \"#utility.yul\":4650:4656   */\n      dup5\n        /* \"#utility.yul\":4608:4657   */\n      tag_84\n      jump\t// in\n    tag_160:\n        /* \"#utility.yul\":4592:4658   */\n      tag_80\n      jump\t// in\n    tag_159:\n        /* \"#utility.yul\":4583:4658   */\n      swap1\n      pop\n        /* \"#utility.yul\":4681:4687   */\n      dup3\n        /* \"#utility.yul\":4674:4679   */\n      dup2\n        /* \"#utility.yul\":4667:4688   */\n      mstore\n        /* \"#utility.yul\":4719:4723   */\n      0x20\n        /* \"#utility.yul\":4712:4717   */\n      dup2\n        /* \"#utility.yul\":4708:4724   */\n      add\n        /* \"#utility.yul\":4757:4760   */\n      dup5\n        /* \"#utility.yul\":4748:4754   */\n      dup5\n        /* \"#utility.yul\":4743:4746   */\n      dup5\n        /* \"#utility.yul\":4739:4755   */\n      add\n        /* \"#utility.yul\":4736:4761   */\n      gt\n        /* \"#utility.yul\":4733:4845   */\n      iszero\n      tag_161\n      jumpi\n        /* \"#utility.yul\":4764:4843   */\n      tag_162\n      tag_83\n      jump\t// in\n    tag_162:\n        /* \"#utility.yul\":4733:4845   */\n    tag_161:\n        /* \"#utility.yul\":4854:4908   */\n      tag_163\n        /* \"#utility.yul\":4901:4907   */\n      dup5\n        /* \"#utility.yul\":4896:4899   */\n      dup3\n        /* \"#utility.yul\":4891:4894   */\n      dup6\n        /* \"#utility.yul\":4854:4908   */\n      tag_85\n      jump\t// in\n    tag_163:\n        /* \"#utility.yul\":4573:4914   */\n      pop\n        /* \"#utility.yul\":4489:4914   */\n      swap4\n      swap3\n      pop\n      pop\n      pop\n      jump\t// out\n        /* \"#utility.yul\":4934:5274   */\n    tag_87:\n        /* \"#utility.yul\":4990:4995   */\n      0x00\n        /* \"#utility.yul\":5039:5042   */\n      dup3\n        /* \"#utility.yul\":5032:5036   */\n      0x1f\n        /* \"#utility.yul\":5024:5030   */\n      dup4\n        /* \"#utility.yul\":5020:5037   */\n      add\n        /* \"#utility.yul\":5016:5043   */\n      slt\n        /* \"#utility.yul\":5006:5128   */\n      tag_165\n      jumpi\n        /* \"#utility.yul\":5047:5126   */\n      tag_166\n      tag_77\n      jump\t// in\n    tag_166:\n        /* \"#utility.yul\":5006:5128   */\n    tag_165:\n        /* \"#utility.yul\":5164:5170   */\n      dup2\n        /* \"#utility.yul\":5151:5171   */\n      calldataload\n        /* \"#utility.yul\":5189:5268   */\n      tag_167\n        /* \"#utility.yul\":5264:5267   */\n      dup5\n        /* \"#utility.yul\":5256:5262   */\n      dup3\n        /* \"#utility.yul\":5249:5253   */\n      0x20\n        /* \"#utility.yul\":5241:5247   */\n      dup7\n        /* \"#utility.yul\":5237:5254   */\n      add\n        /* \"#utility.yul\":5189:5268   */\n      tag_86\n      jump\t// in\n    tag_167:\n        /* \"#utility.yul\":5180:5268   */\n      swap2\n      pop\n        /* \"#utility.yul\":4996:5274   */\n      pop\n        /* \"#utility.yul\":4934:5274   */\n      swap3\n      swap2\n      pop\n      pop\n      jump\t// out\n        /* \"#utility.yul\":5296:6241   */\n    tag_88:\n        /* \"#utility.yul\":5402:5407   */\n      0x00\n        /* \"#utility.yul\":5427:5518   */\n      tag_169\n        /* \"#utility.yul\":5443:5517   */\n      tag_170\n        /* \"#utility.yul\":5510:5516   */\n      dup5\n        /* \"#utility.yul\":5443:5517   */\n      tag_81\n      jump\t// in\n    tag_170:\n        /* \"#utility.yul\":5427:5518   */\n      tag_80\n      jump\t// in\n    tag_169:\n        /* \"#utility.yul\":5418:5518   */\n      swap1\n      pop\n        /* \"#utility.yul\":5538:5543   */\n      dup1\n        /* \"#utility.yul\":5567:5573   */\n      dup4\n        /* \"#utility.yul\":5560:5565   */\n      dup3\n        /* \"#utility.yul\":5553:5574   */\n      mstore\n        /* \"#utility.yul\":5601:5605   */\n      0x20\n        /* \"#utility.yul\":5594:5599   */\n      dup3\n        /* \"#utility.yul\":5590:5606   */\n      add\n        /* \"#utility.yul\":5583:5606   */\n      swap1\n      pop\n        /* \"#utility.yul\":5654:5658   */\n      0x20\n        /* \"#utility.yul\":5646:5652   */\n      dup5\n        /* \"#utility.yul\":5642:5659   */\n      mul\n        /* \"#utility.yul\":5634:5640   */\n      dup4\n        /* \"#utility.yul\":5630:5660   */\n      add\n        /* \"#utility.yul\":5683:5686   */\n      dup6\n        /* \"#utility.yul\":5675:5681   */\n      dup2\n        /* \"#utility.yul\":5672:5687   */\n      gt\n        /* \"#utility.yul\":5669:5791   */\n      iszero\n      tag_171\n      jumpi\n        /* \"#utility.yul\":5702:5781   */\n      tag_172\n      tag_82\n      jump\t// in\n    tag_172:\n        /* \"#utility.yul\":5669:5791   */\n    tag_171:\n        /* \"#utility.yul\":5817:5823   */\n      dup4\n        /* \"#utility.yul\":5800:6235   */\n    tag_173:\n        /* \"#utility.yul\":5834:5840   */\n      dup2\n        /* \"#utility.yul\":5829:5832   */\n      dup2\n        /* \"#utility.yul\":5826:5841   */\n      lt\n        /* \"#utility.yul\":5800:6235   */\n      iszero\n      tag_175\n      jumpi\n        /* \"#utility.yul\":5923:5926   */\n      dup1\n        /* \"#utility.yul\":5910:5927   */\n      calldataload\n        /* \"#utility.yul\":5959:5977   */\n      0xffffffffffffffff\n        /* \"#utility.yul\":5946:5957   */\n      dup2\n        /* \"#utility.yul\":5943:5978   */\n      gt\n        /* \"#utility.yul\":5940:6062   */\n      iszero\n      tag_176\n      jumpi\n        /* \"#utility.yul\":5981:6060   */\n      tag_177\n      tag_77\n      jump\t// in\n    tag_177:\n        /* \"#utility.yul\":5940:6062   */\n    tag_176:\n        /* \"#utility.yul\":6105:6116   */\n      dup1\n        /* \"#utility.yul\":6097:6103   */\n      dup7\n        /* \"#utility.yul\":6093:6117   */\n      add\n        /* \"#utility.yul\":6143:6190   */\n      tag_178\n        /* \"#utility.yul\":6186:6189   */\n      dup10\n        /* \"#utility.yul\":6174:6184   */\n      dup3\n        /* \"#utility.yul\":6143:6190   */\n      tag_87\n      jump\t// in\n    tag_178:\n        /* \"#utility.yul\":6138:6141   */\n      dup6\n        /* \"#utility.yul\":6131:6191   */\n      mstore\n        /* \"#utility.yul\":6220:6224   */\n      0x20\n        /* \"#utility.yul\":6215:6218   */\n      dup6\n        /* \"#utility.yul\":6211:6225   */\n      add\n        /* \"#utility.yul\":6204:6225   */\n      swap5\n      pop\n        /* \"#utility.yul\":5876:6235   */\n      pop\n      pop\n        /* \"#utility.yul\":5860:5864   */\n      0x20\n        /* \"#utility.yul\":5855:5858   */\n      dup2\n        /* \"#utility.yul\":5851:5865   */\n      add\n        /* \"#utility.yul\":5844:5865   */\n      swap1\n      pop\n        /* \"#utility.yul\":5800:6235   */\n      jump(tag_173)\n    tag_175:\n        /* \"#utility.yul\":5804:5825   */\n      pop\n        /* \"#utility.yul\":5408:6241   */\n      pop\n      pop\n        /* \"#utility.yul\":5296:6241   */\n      swap4\n      swap3\n      pop\n      pop\n      pop\n      jump\t// out\n        /* \"#utility.yul\":6263:6653   */\n    tag_89:\n        /* \"#utility.yul\":6344:6349   */\n      0x00\n        /* \"#utility.yul\":6393:6396   */\n      dup3\n        /* \"#utility.yul\":6386:6390   */\n      0x1f\n        /* \"#utility.yul\":6378:6384   */\n      dup4\n        /* \"#utility.yul\":6374:6391   */\n      add\n        /* \"#utility.yul\":6370:6397   */\n      slt\n        /* \"#utility.yul\":6360:6482   */\n      tag_180\n      jumpi\n        /* \"#utility.yul\":6401:6480   */\n      tag_181\n      tag_77\n      jump\t// in\n    tag_181:\n        /* \"#utility.yul\":6360:6482   */\n    tag_180:\n        /* \"#utility.yul\":6518:6524   */\n      dup2\n        /* \"#utility.yul\":6505:6525   */\n      calldataload\n        /* \"#utility.yul\":6543:6647   */\n      tag_182\n        /* \"#utility.yul\":6643:6646   */\n      dup5\n        /* \"#utility.yul\":6635:6641   */\n      dup3\n        /* \"#utility.yul\":6628:6632   */\n      0x20\n        /* \"#utility.yul\":6620:6626   */\n      dup7\n        /* \"#utility.yul\":6616:6633   */\n      add\n        /* \"#utility.yul\":6543:6647   */\n      tag_88\n      jump\t// in\n    tag_182:\n        /* \"#utility.yul\":6534:6647   */\n      swap2\n      pop\n        /* \"#utility.yul\":6350:6653   */\n      pop\n        /* \"#utility.yul\":6263:6653   */\n      swap3\n      swap2\n      pop\n      pop\n      jump\t// out\n        /* \"#utility.yul\":6659:7218   */\n    tag_24:\n        /* \"#utility.yul\":6753:6759   */\n      0x00\n        /* \"#utility.yul\":6802:6804   */\n      0x20\n        /* \"#utility.yul\":6790:6799   */\n      dup3\n        /* \"#utility.yul\":6781:6788   */\n      dup5\n        /* \"#utility.yul\":6777:6800   */\n      sub\n        /* \"#utility.yul\":6773:6805   */\n      slt\n        /* \"#utility.yul\":6770:6889   */\n      iszero\n      tag_184\n      jumpi\n        /* \"#utility.yul\":6808:6887   */\n      tag_185\n      tag_66\n      jump\t// in\n    tag_185:\n        /* \"#utility.yul\":6770:6889   */\n    tag_184:\n        /* \"#utility.yul\":6956:6957   */\n      0x00\n        /* \"#utility.yul\":6945:6954   */\n      dup3\n        /* \"#utility.yul\":6941:6958   */\n      add\n        /* \"#utility.yul\":6928:6959   */\n      calldataload\n        /* \"#utility.yul\":6986:7004   */\n      0xffffffffffffffff\n        /* \"#utility.yul\":6978:6984   */\n      dup2\n        /* \"#utility.yul\":6975:7005   */\n      gt\n        /* \"#utility.yul\":6972:7089   */\n      iszero\n      tag_186\n      jumpi\n        /* \"#utility.yul\":7008:7087   */\n      tag_187\n      tag_67\n      jump\t// in\n    tag_187:\n        /* \"#utility.yul\":6972:7089   */\n    tag_186:\n        /* \"#utility.yul\":7113:7201   */\n      tag_188\n        /* \"#utility.yul\":7193:7200   */\n      dup5\n        /* \"#utility.yul\":7184:7190   */\n      dup3\n        /* \"#utility.yul\":7173:7182   */\n      dup6\n        /* \"#utility.yul\":7169:7191   */\n      add\n        /* \"#utility.yul\":7113:7201   */\n      tag_89\n      jump\t// in\n    tag_188:\n        /* \"#utility.yul\":7103:7201   */\n      swap2\n      pop\n        /* \"#utility.yul\":6899:7211   */\n      pop\n        /* \"#utility.yul\":6659:7218   */\n      swap3\n      swap2\n      pop\n      pop\n      jump\t// out\n        /* \"#utility.yul\":7224:7404   */\n    tag_90:\n        /* \"#utility.yul\":7272:7349   */\n      0x4e487b7100000000000000000000000000000000000000000000000000000000\n        /* \"#utility.yul\":7269:7270   */\n      0x00\n        /* \"#utility.yul\":7262:7350   */\n      mstore\n        /* \"#utility.yul\":7369:7373   */\n      0x22\n        /* \"#utility.yul\":7366:7367   */\n      0x04\n        /* \"#utility.yul\":7359:7374   */\n      mstore\n        /* \"#utility.yul\":7393:7397   */\n      0x24\n        /* \"#utility.yul\":7390:7391   */\n      0x00\n        /* \"#utility.yul\":7383:7398   */\n      revert\n        /* \"#utility.yul\":7410:7730   */\n    tag_32:\n        /* \"#utility.yul\":7454:7460   */\n      0x00\n        /* \"#utility.yul\":7491:7492   */\n      0x02\n        /* \"#utility.yul\":7485:7489   */\n      dup3\n        /* \"#utility.yul\":7481:7493   */\n      div\n        /* \"#utility.yul\":7471:7493   */\n      swap1\n      pop\n        /* \"#utility.yul\":7538:7539   */\n      0x01\n        /* \"#utility.yul\":7532:7536   */\n      dup3\n        /* \"#utility.yul\":7528:7540   */\n      and\n        /* \"#utility.yul\":7559:7577   */\n      dup1\n        /* \"#utility.yul\":7549:7630   */\n      tag_191\n      jumpi\n        /* \"#utility.yul\":7615:7619   */\n      0x7f\n        /* \"#utility.yul\":7607:7613   */\n      dup3\n        /* \"#utility.yul\":7603:7620   */\n      and\n        /* \"#utility.yul\":7593:7620   */\n      swap2\n      pop\n        /* \"#utility.yul\":7549:7630   */\n    tag_191:\n        /* \"#utility.yul\":7677:7679   */\n      0x20\n        /* \"#utility.yul\":7669:7675   */\n      dup3\n        /* \"#utility.yul\":7666:7680   */\n      lt\n        /* \"#utility.yul\":7646:7664   */\n      dup2\n        /* \"#utility.yul\":7643:7681   */\n      sub\n        /* \"#utility.yul\":7640:7724   */\n      tag_192\n      jumpi\n        /* \"#utility.yul\":7696:7714   */\n      tag_193\n      tag_90\n      jump\t// in\n    tag_193:\n        /* \"#utility.yul\":7640:7724   */\n    tag_192:\n        /* \"#utility.yul\":7461:7730   */\n      pop\n        /* \"#utility.yul\":7410:7730   */\n      swap2\n      swap1\n      pop\n      jump\t// out\n        /* \"#utility.yul\":7736:7877   */\n    tag_91:\n        /* \"#utility.yul\":7785:7789   */\n      0x00\n        /* \"#utility.yul\":7808:7811   */\n      dup2\n        /* \"#utility.yul\":7800:7811   */\n      swap1\n      pop\n        /* \"#utility.yul\":7831:7834   */\n      dup2\n        /* \"#utility.yul\":7828:7829   */\n      0x00\n        /* \"#utility.yul\":7821:7835   */\n      mstore\n        /* \"#utility.yul\":7865:7869   */\n      0x20\n        /* \"#utility.yul\":7862:7863   */\n      0x00\n        /* \"#utility.yul\":7852:7870   */\n      keccak256\n        /* \"#utility.yul\":7844:7870   */\n      swap1\n      pop\n        /* \"#utility.yul\":7736:7877   */\n      swap2\n      swap1\n      pop\n      jump\t// out\n        /* \"#utility.yul\":7883:7976   */\n    tag_92:\n        /* \"#utility.yul\":7920:7926   */\n      0x00\n        /* \"#utility.yul\":7967:7969   */\n      0x20\n        /* \"#utility.yul\":7962:7964   */\n      0x1f\n        /* \"#utility.yul\":7955:7960   */\n      dup4\n        /* \"#utility.yul\":7951:7965   */\n      add\n        /* \"#utility.yul\":7947:7970   */\n      div\n        /* \"#utility.yul\":7937:7970   */\n      swap1\n      pop\n        /* \"#utility.yul\":7883:7976   */\n      swap2\n      swap1\n      pop\n      jump\t// out\n        /* \"#utility.yul\":7982:8089   */\n    tag_93:\n        /* \"#utility.yul\":8026:8034   */\n      0x00\n        /* \"#utility.yul\":8076:8081   */\n      dup3\n        /* \"#utility.yul\":8070:8074   */\n      dup3\n        /* \"#utility.yul\":8066:8082   */\n      shl\n        /* \"#utility.yul\":8045:8082   */\n      swap1\n      pop\n        /* \"#utility.yul\":7982:8089   */\n      swap3\n      swap2\n      pop\n      pop\n      jump\t// out\n        /* \"#utility.yul\":8095:8488   */\n    tag_94:\n        /* \"#utility.yul\":8164:8170   */\n      0x00\n        /* \"#utility.yul\":8214:8215   */\n      0x08\n        /* \"#utility.yul\":8202:8212   */\n      dup4\n        /* \"#utility.yul\":8198:8216   */\n      mul\n        /* \"#utility.yul\":8237:8334   */\n      tag_198\n        /* \"#utility.yul\":8267:8333   */\n      0xffffffffffffffffffffffffffffffffffffffffffffffffffffffffffffffff\n        /* \"#utility.yul\":8256:8265   */\n      dup3\n        /* \"#utility.yul\":8237:8334   */\n      tag_93\n      jump\t// in\n    tag_198:\n        /* \"#utility.yul\":8355:8394   */\n      tag_199\n        /* \"#utility.yul\":8385:8393   */\n      dup7\n        /* \"#utility.yul\":8374:8383   */\n      dup4\n        /* \"#utility.yul\":8355:8394   */\n      tag_93\n      jump\t// in\n    tag_199:\n        /* \"#utility.yul\":8343:8394   */\n      swap6\n      pop\n        /* \"#utility.yul\":8427:8431   */\n      dup1\n        /* \"#utility.yul\":8423:8432   */\n      not\n        /* \"#utility.yul\":8416:8421   */\n      dup5\n        /* \"#utility.yul\":8412:8433   */\n      and\n        /* \"#utility.yul\":8403:8433   */\n      swap4\n      pop\n        /* \"#utility.yul\":8476:8480   */\n      dup1\n        /* \"#utility.yul\":8466:8474   */\n      dup7\n        /* \"#utility.yul\":8462:8481   */\n      and\n        /* \"#utility.yul\":8455:8460   */\n      dup5\n        /* \"#utility.yul\":8452:8482   */\n      or\n        /* \"#utility.yul\":8442:8482   */\n      swap3\n      pop\n        /* \"#utility.yul\":8171:8488   */\n      pop\n      pop\n        /* \"#utility.yul\":8095:8488   */\n      swap4\n      swap3\n      pop\n      pop\n      pop\n      jump\t// out\n        /* \"#utility.yul\":8494:8554   */\n    tag_95:\n        /* \"#utility.yul\":8522:8525   */\n      0x00\n        /* \"#utility.yul\":8543:8548   */\n      dup2\n        /* \"#utility.yul\":8536:8548   */\n      swap1\n      pop\n        /* \"#utility.yul\":8494:8554   */\n      swap2\n      swap1\n      pop\n      jump\t// out\n        /* \"#utility.yul\":8560:8702   */\n    tag_96:\n        /* \"#utility.yul\":8610:8619   */\n      0x00\n        /* \"#utility.yul\":8643:8696   */\n      tag_202\n        /* \"#utility.yul\":8661:8695   */\n      tag_203\n        /* \"#utility.yul\":8670:8694   */\n      tag_204\n        /* \"#utility.yul\":8688:8693   */\n      dup5\n        /* \"#utility.yul\":8670:8694   */\n      tag_68\n      jump\t// in\n    tag_204:\n        /* \"#utility.yul\":8661:8695   */\n      tag_95\n      jump\t// in\n    tag_203:\n        /* \"#utility.yul\":8643:8696   */\n      tag_68\n      jump\t// in\n    tag_202:\n        /* \"#utility.yul\":8630:8696   */\n      swap1\n      pop\n        /* \"#utility.yul\":8560:8702   */\n      swap2\n      swap1\n      pop\n      jump\t// out\n        /* \"#utility.yul\":8708:8783   */\n    tag_97:\n        /* \"#utility.yul\":8751:8754   */\n      0x00\n        /* \"#utility.yul\":8772:8777   */\n      dup2\n        /* \"#utility.yul\":8765:8777   */\n      swap1\n      pop\n        /* \"#utility.yul\":8708:8783   */\n      swap2\n      swap1\n      pop\n      jump\t// out\n        /* \"#utility.yul\":8789:9058   */\n    tag_98:\n        /* \"#utility.yul\":8899:8938   */\n      tag_207\n        /* \"#utility.yul\":8930:8937   */\n      dup4\n        /* \"#utility.yul\":8899:8938   */\n      tag_96\n      jump\t// in\n    tag_207:\n        /* \"#utility.yul\":8960:9051   */\n      tag_208\n        /* \"#utility.yul\":9009:9050   */\n      tag_209\n        /* \"#utility.yul\":9033:9049   */\n      dup3\n        /* \"#utility.yul\":9009:9050   */\n      tag_97\n      jump\t// in\n    tag_209:\n        /* \"#utility.yul\":9001:9007   */\n      dup5\n        /* \"#utility.yul\":8994:8998   */\n      dup5\n        /* \"#utility.yul\":8988:8999   */\n      sload\n        /* \"#utility.yul\":8960:9051   */\n      tag_94\n      jump\t// in\n    tag_208:\n        /* \"#utility.yul\":8954:8958   */\n      dup3\n        /* \"#utility.yul\":8947:9052   */\n      sstore\n        /* \"#utility.yul\":8865:9058   */\n      pop\n        /* \"#utility.yul\":8789:9058   */\n      pop\n      pop\n      pop\n      jump\t// out\n        /* \"#utility.yul\":9064:9137   */\n    tag_99:\n        /* \"#utility.yul\":9109:9112   */\n      0x00\n        /* \"#utility.yul\":9064:9137   */\n      swap1\n      jump\t// out\n        /* \"#utility.yul\":9143:9332   */\n    tag_100:\n        /* \"#utility.yul\":9220:9252   */\n      tag_212\n      tag_99\n      jump\t// in\n    tag_212:\n        /* \"#utility.yul\":9261:9326   */\n      tag_213\n        /* \"#utility.yul\":9319:9325   */\n      dup2\n        /* \"#utility.yul\":9311:9317   */\n      dup5\n        /* \"#utility.yul\":9305:9309   */\n      dup5\n        /* \"#utility.yul\":9261:9326   */\n      tag_98\n      jump\t// in\n    tag_213:\n        /* \"#utility.yul\":9196:9332   */\n      pop\n        /* \"#utility.yul\":9143:9332   */\n      pop\n      pop\n      jump\t// out\n        /* \"#utility.yul\":9338:9524   */\n    tag_101:\n        /* \"#utility.yul\":9398:9518   */\n    tag_215:\n        /* \"#utility.yul\":9415:9418   */\n      dup2\n        /* \"#utility.yul\":9408:9413   */\n      dup2\n        /* \"#utility.yul\":9405:9419   */\n      lt\n        /* \"#utility.yul\":9398:9518   */\n      iszero\n      tag_217\n      jumpi\n        /* \"#utility.yul\":9469:9508   */\n      tag_218\n        /* \"#utility.yul\":9506:9507   */\n      0x00\n        /* \"#utility.yul\":9499:9504   */\n      dup3\n        /* \"#utility.yul\":9469:9508   */\n      tag_100\n      jump\t// in\n    tag_218:\n        /* \"#utility.yul\":9442:9443   */\n      0x01\n        /* \"#utility.yul\":9435:9440   */\n      dup2\n        /* \"#utility.yul\":9431:9444   */\n      add\n        /* \"#utility.yul\":9422:9444   */\n      swap1\n      pop\n        /* \"#utility.yul\":9398:9518   */\n      jump(tag_215)\n    tag_217:\n        /* \"#utility.yul\":9338:9524   */\n      pop\n      pop\n      jump\t// out\n        /* \"#utility.yul\":9530:10073   */\n    tag_102:\n        /* \"#utility.yul\":9631:9633   */\n      0x1f\n        /* \"#utility.yul\":9626:9629   */\n      dup3\n        /* \"#utility.yul\":9623:9634   */\n      gt\n        /* \"#utility.yul\":9620:10066   */\n      iszero\n      tag_220\n      jumpi\n        /* \"#utility.yul\":9665:9703   */\n      tag_221\n        /* \"#utility.yul\":9697:9702   */\n      dup2\n        /* \"#utility.yul\":9665:9703   */\n      tag_91\n      jump\t// in\n    tag_221:\n        /* \"#utility.yul\":9749:9778   */\n      tag_222\n        /* \"#utility.yul\":9767:9777   */\n      dup5\n        /* \"#utility.yul\":9749:9778   */\n      tag_92\n      jump\t// in\n    tag_222:\n        /* \"#utility.yul\":9739:9747   */\n      dup2\n        /* \"#utility.yul\":9735:9779   */\n      add\n        /* \"#utility.yul\":9932:9934   */\n      0x20\n        /* \"#utility.yul\":9920:9930   */\n      dup6\n        /* \"#utility.yul\":9917:9935   */\n      lt\n        /* \"#utility.yul\":9914:9963   */\n      iszero\n      tag_223\n      jumpi\n        /* \"#utility.yul\":9953:9961   */\n      dup2\n        /* \"#utility.yul\":9938:9961   */\n      swap1\n      pop\n        /* \"#utility.yul\":9914:9963   */\n    tag_223:\n        /* \"#utility.yul\":9976:10056   */\n      tag_224\n        /* \"#utility.yul\":10032:10054   */\n      tag_225\n        /* \"#utility.yul\":10050:10053   */\n      dup6\n        /* \"#utility.yul\":10032:10054   */\n      tag_92\n      jump\t// in\n    tag_225:\n        /* \"#utility.yul\":10022:10030   */\n      dup4\n        /* \"#utility.yul\":10018:10055   */\n      add\n        /* \"#utility.yul\":10005:10016   */\n      dup3\n        /* \"#utility.yul\":9976:10056   */\n      tag_101\n      jump\t// in\n    tag_224:\n        /* \"#utility.yul\":9635:10066   */\n      pop\n      pop\n        /* \"#utility.yul\":9620:10066   */\n    tag_220:\n        /* \"#utility.yul\":9530:10073   */\n      pop\n      pop\n      pop\n      jump\t// out\n        /* \"#utility.yul\":10079:10196   */\n    tag_103:\n        /* \"#utility.yul\":10133:10141   */\n      0x00\n        /* \"#utility.yul\":10183:10188   */\n      dup3\n        /* \"#utility.yul\":10177:10181   */\n      dup3\n        /* \"#utility.yul\":10173:10189   */\n      shr\n        /* \"#utility.yul\":10152:10189   */\n      swap1\n      pop\n        /* \"#utility.yul\":10079:10196   */\n      swap3\n      swap2\n      pop\n      pop\n      jump\t// out\n        /* \"#utility.yul\":10202:10371   */\n    tag_104:\n        /* \"#utility.yul\":10246:10252   */\n      0x00\n        /* \"#utility.yul\":10279:10330   */\n      tag_228\n        /* \"#utility.yul\":10327:10328   */\n      0x00\n        /* \"#utility.yul\":10323:10329   */\n      not\n        /* \"#utility.yul\":10315:10320   */\n      dup5\n        /* \"#utility.yul\":10312:10313   */\n      0x08\n        /* \"#utility.yul\":10308:10321   */\n      mul\n        /* \"#utility.yul\":10279:10330   */\n      tag_103\n      jump\t// in\n    tag_228:\n        /* \"#utility.yul\":10275:10331   */\n      not\n        /* \"#utility.yul\":10360:10364   */\n      dup1\n        /* \"#utility.yul\":10354:10358   */\n      dup4\n        /* \"#utility.yul\":10350:10365   */\n      and\n        /* \"#utility.yul\":10340:10365   */\n      swap2\n      pop\n        /* \"#utility.yul\":10253:10371   */\n      pop\n        /* \"#utility.yul\":10202:10371   */\n      swap3\n      swap2\n      pop\n      pop\n      jump\t// out\n        /* \"#utility.yul\":10376:10671   */\n    tag_105:\n        /* \"#utility.yul\":10452:10456   */\n      0x00\n        /* \"#utility.yul\":10598:10627   */\n      tag_230\n        /* \"#utility.yul\":10623:10626   */\n      dup4\n        /* \"#utility.yul\":10617:10621   */\n      dup4\n        /* \"#utility.yul\":10598:10627   */\n      tag_104\n      jump\t// in\n    tag_230:\n        /* \"#utility.yul\":10590:10627   */\n      swap2\n      pop\n        /* \"#utility.yul\":10660:10663   */\n      dup3\n        /* \"#utility.yul\":10657:10658   */\n      0x02\n        /* \"#utility.yul\":10653:10664   */\n      mul\n        /* \"#utility.yul\":10647:10651   */\n      dup3\n        /* \"#utility.yul\":10644:10665   */\n      or\n        /* \"#utility.yul\":10636:10665   */\n      swap1\n      pop\n        /* \"#utility.yul\":10376:10671   */\n      swap3\n      swap2\n      pop\n      pop\n      jump\t// out\n        /* \"#utility.yul\":10676:12071   */\n    tag_42:\n        /* \"#utility.yul\":10793:10830   */\n      tag_232\n        /* \"#utility.yul\":10826:10829   */\n      dup3\n        /* \"#utility.yul\":10793:10830   */\n      tag_71\n      jump\t// in\n    tag_232:\n        /* \"#utility.yul\":10895:10913   */\n      0xffffffffffffffff\n        /* \"#utility.yul\":10887:10893   */\n      dup2\n        /* \"#utility.yul\":10884:10914   */\n      gt\n        /* \"#utility.yul\":10881:10937   */\n      iszero\n      tag_233\n      jumpi\n        /* \"#utility.yul\":10917:10935   */\n      tag_234\n      tag_78\n      jump\t// in\n    tag_234:\n        /* \"#utility.yul\":10881:10937   */\n    tag_233:\n        /* \"#utility.yul\":10961:10999   */\n      tag_235\n        /* \"#utility.yul\":10993:10997   */\n      dup3\n        /* \"#utility.yul\":10987:10998   */\n      sload\n        /* \"#utility.yul\":10961:10999   */\n      tag_32\n      jump\t// in\n    tag_235:\n        /* \"#utility.yul\":11046:11113   */\n      tag_236\n        /* \"#utility.yul\":11106:11112   */\n      dup3\n        /* \"#utility.yul\":11098:11104   */\n      dup3\n        /* \"#utility.yul\":11092:11096   */\n      dup6\n        /* \"#utility.yul\":11046:11113   */\n      tag_102\n      jump\t// in\n    tag_236:\n        /* \"#utility.yul\":11140:11141   */\n      0x00\n        /* \"#utility.yul\":11164:11168   */\n      0x20\n        /* \"#utility.yul\":11151:11168   */\n      swap1\n      pop\n        /* \"#utility.yul\":11196:11198   */\n      0x1f\n        /* \"#utility.yul\":11188:11194   */\n      dup4\n        /* \"#utility.yul\":11185:11199   */\n      gt\n        /* \"#utility.yul\":11213:11214   */\n      0x01\n        /* \"#utility.yul\":11208:11826   */\n      dup2\n      eq\n      tag_238\n      jumpi\n        /* \"#utility.yul\":11870:11871   */\n      0x00\n        /* \"#utility.yul\":11887:11893   */\n      dup5\n        /* \"#utility.yul\":11884:11961   */\n      iszero\n      tag_239\n      jumpi\n        /* \"#utility.yul\":11936:11945   */\n      dup3\n        /* \"#utility.yul\":11931:11934   */\n      dup8\n        /* \"#utility.yul\":11927:11946   */\n      add\n        /* \"#utility.yul\":11921:11947   */\n      mload\n        /* \"#utility.yul\":11912:11947   */\n      swap1\n      pop\n        /* \"#utility.yul\":11884:11961   */\n    tag_239:\n        /* \"#utility.yul\":11987:12054   */\n      tag_240\n        /* \"#utility.yul\":12047:12053   */\n      dup6\n        /* \"#utility.yul\":12040:12045   */\n      dup3\n        /* \"#utility.yul\":11987:12054   */\n      tag_105\n      jump\t// in\n    tag_240:\n        /* \"#utility.yul\":11981:11985   */\n      dup7\n        /* \"#utility.yul\":11974:12055   */\n      sstore\n        /* \"#utility.yul\":11843:12065   */\n      pop\n        /* \"#utility.yul\":11178:12065   */\n      jump(tag_237)\n        /* \"#utility.yul\":11208:11826   */\n    tag_238:\n        /* \"#utility.yul\":11260:11264   */\n      0x1f\n        /* \"#utility.yul\":11256:11265   */\n      not\n        /* \"#utility.yul\":11248:11254   */\n      dup5\n        /* \"#utility.yul\":11244:11266   */\n      and\n        /* \"#utility.yul\":11294:11331   */\n      tag_241\n        /* \"#utility.yul\":11326:11330   */\n      dup7\n        /* \"#utility.yul\":11294:11331   */\n      tag_91\n      jump\t// in\n    tag_241:\n        /* \"#utility.yul\":11353:11354   */\n      0x00\n        /* \"#utility.yul\":11367:11575   */\n    tag_242:\n        /* \"#utility.yul\":11381:11388   */\n      dup3\n        /* \"#utility.yul\":11378:11379   */\n      dup2\n        /* \"#utility.yul\":11375:11389   */\n      lt\n        /* \"#utility.yul\":11367:11575   */\n      iszero\n      tag_244\n      jumpi\n        /* \"#utility.yul\":11460:11469   */\n      dup5\n        /* \"#utility.yul\":11455:11458   */\n      dup10\n        /* \"#utility.yul\":11451:11470   */\n      add\n        /* \"#utility.yul\":11445:11471   */\n      mload\n        /* \"#utility.yul\":11437:11443   */\n      dup3\n        /* \"#utility.yul\":11430:11472   */\n      sstore\n        /* \"#utility.yul\":11511:11512   */\n      0x01\n        /* \"#utility.yul\":11503:11509   */\n      dup3\n        /* \"#utility.yul\":11499:11513   */\n      add\n        /* \"#utility.yul\":11489:11513   */\n      swap2\n      pop\n        /* \"#utility.yul\":11558:11560   */\n      0x20\n        /* \"#utility.yul\":11547:11556   */\n      dup6\n        /* \"#utility.yul\":11543:11561   */\n      add\n        /* \"#utility.yul\":11530:11561   */\n      swap5\n      pop\n        /* \"#utility.yul\":11404:11408   */\n      0x20\n        /* \"#utility.yul\":11401:11402   */\n      dup2\n        /* \"#utility.yul\":11397:11409   */\n      add\n        /* \"#utility.yul\":11392:11409   */\n      swap1\n      pop\n        /* \"#utility.yul\":11367:11575   */\n      jump(tag_242)\n    tag_244:\n        /* \"#utility.yul\":11603:11609   */\n      dup7\n        /* \"#utility.yul\":11594:11601   */\n      dup4\n        /* \"#utility.yul\":11591:11610   */\n      lt\n        /* \"#utility.yul\":11588:11767   */\n      iszero\n      tag_245\n      jumpi\n        /* \"#utility.yul\":11661:11670   */\n      dup5\n        /* \"#utility.yul\":11656:11659   */\n      dup10\n        /* \"#utility.yul\":11652:11671   */\n      add\n        /* \"#utility.yul\":11646:11672   */\n      mload\n        /* \"#utility.yul\":11704:11752   */\n      tag_246\n        /* \"#utility.yul\":11746:11750   */\n      0x1f\n        /* \"#utility.yul\":11738:11744   */\n      dup10\n        /* \"#utility.yul\":11734:11751   */\n      and\n        /* \"#utility.yul\":11723:11732   */\n      dup3\n        /* \"#utility.yul\":11704:11752   */\n      tag_104\n      jump\t// in\n    tag_246:\n        /* \"#utility.yul\":11696:11702   */\n      dup4\n        /* \"#utility.yul\":11689:11753   */\n      sstore\n        /* \"#utility.yul\":11611:11767   */\n      pop\n        /* \"#utility.yul\":11588:11767   */\n    tag_245:\n        /* \"#utility.yul\":11813:11814   */\n      0x01\n        /* \"#utility.yul\":11809:11810   */\n      0x02\n        /* \"#utility.yul\":11801:11807   */\n      dup9\n        /* \"#utility.yul\":11797:11811   */\n      mul\n        /* \"#utility.yul\":11793:11815   */\n      add\n        /* \"#utility.yul\":11787:11791   */\n      dup9\n        /* \"#utility.yul\":11780:11816   */\n      sstore\n        /* \"#utility.yul\":11215:11826   */\n      pop\n      pop\n      pop\n        /* \"#utility.yul\":11178:12065   */\n    tag_237:\n      pop\n        /* \"#utility.yul\":10768:12071   */\n      pop\n      pop\n      pop\n        /* \"#utility.yul\":10676:12071   */\n      pop\n      pop\n      jump\t// out\n        /* \"#utility.yul\":12077:12257   */\n    tag_106:\n        /* \"#utility.yul\":12125:12202   */\n      0x4e487b7100000000000000000000000000000000000000000000000000000000\n        /* \"#utility.yul\":12122:12123   */\n      0x00\n        /* \"#utility.yul\":12115:12203   */\n      mstore\n        /* \"#utility.yul\":12222:12226   */\n      0x11\n        /* \"#utility.yul\":12219:12220   */\n      0x04\n        /* \"#utility.yul\":12212:12227   */\n      mstore\n        /* \"#utility.yul\":12246:12250   */\n      0x24\n        /* \"#utility.yul\":12243:12244   */\n      0x00\n        /* \"#utility.yul\":12236:12251   */\n      revert\n        /* \"#utility.yul\":12263:12496   */\n    tag_44:\n        /* \"#utility.yul\":12302:12305   */\n      0x00\n        /* \"#utility.yul\":12325:12349   */\n      tag_249\n        /* \"#utility.yul\":12343:12348   */\n      dup3\n        /* \"#utility.yul\":12325:12349   */\n      tag_68\n      jump\t// in\n    tag_249:\n        /* \"#utility.yul\":12316:12349   */\n      swap2\n      pop\n        /* \"#utility.yul\":12371:12437   */\n      0xffffffffffffffffffffffffffffffffffffffffffffffffffffffffffffffff\n        /* \"#utility.yul\":12364:12369   */\n      dup3\n        /* \"#utility.yul\":12361:12438   */\n      sub\n        /* \"#utility.yul\":12358:12461   */\n      tag_250\n      jumpi\n        /* \"#utility.yul\":12441:12459   */\n      tag_251\n      tag_106\n      jump\t// in\n    tag_251:\n        /* \"#utility.yul\":12358:12461   */\n    tag_250:\n        /* \"#utility.yul\":12488:12489   */\n      0x01\n        /* \"#utility.yul\":12481:12486   */\n      dup3\n        /* \"#utility.yul\":12477:12490   */\n      add\n        /* \"#utility.yul\":12470:12490   */\n      swap1\n      pop\n        /* \"#utility.yul\":12263:12496   */\n      swap2\n      swap1\n      pop\n      jump\t// out\n        /* \"#utility.yul\":12502:12682   */\n    tag_50:\n        /* \"#utility.yul\":12550:12627   */\n      0x4e487b7100000000000000000000000000000000000000000000000000000000\n        /* \"#utility.yul\":12547:12548   */\n      0x00\n        /* \"#utility.yul\":12540:12628   */\n      mstore\n        /* \"#utility.yul\":12647:12651   */\n      0x32\n        /* \"#utility.yul\":12644:12645   */\n      0x04\n        /* \"#utility.yul\":12637:12652   */\n      mstore\n        /* \"#utility.yul\":12671:12675   */\n      0x24\n        /* \"#utility.yul\":12668:12669   */\n      0x00\n        /* \"#utility.yul\":12661:12676   */\n      revert\n\n    auxdata: 0xa2646970667358221220f8f81000ae0f37594bf215caeb167f23f0190324ac0f87d4c089af5942dcd8f364736f6c63430008130033\n}\n",
				"bytecode": {
					"linkReferences": {},
					"object": "6080604052600060015534801561001557600080fd5b50610aa2806100256000396000f3fe608060405234801561001057600080fd5b50600436106100625760003560e01c806306ead22e146100675780631003e2d21461009757806322fcefbe146100b35780634e303c60146100d1578063a7a0d537146100ed578063e308ae72146100f7575b600080fd5b610081600480360381019061007c919061037b565b610113565b60405161008e9190610438565b60405180910390f35b6100b160048036038101906100ac919061037b565b6101b3565b005b6100bb61022a565b6040516100c89190610469565b60405180910390f35b6100eb60048036038101906100e6919061069f565b610230565b005b6100f561028d565b005b610111600480360381019061010c919061037b565b6102d0565b005b6000602052806000526040600020600091509050805461013290610717565b80601f016020809104026020016040519081016040528092919081815260200182805461015e90610717565b80156101ab5780601f10610180576101008083540402835291602001916101ab565b820191906000526020600020905b81548152906001019060200180831161018e57829003601f168201915b505050505081565b60005b81811015610226576040518060400160405280600a81526020017f426c6f636b747261696e00000000000000000000000000000000000000000000815250600080838152602001908152602001600020908161021291906108f4565b50808061021e906109f5565b9150506101b6565b5050565b60015481565b60005b81518110156102895781818151811061024f5761024e610a3d565b5b6020026020010151600080838152602001908152602001600020908161027591906108f4565b508080610281906109f5565b915050610233565b5050565b60005b600a8110156102cd5760048103156102cd57600160008154809291906102b5906109f5565b919050555080806102c5906109f5565b915050610290565b50565b5b6040518060400160405280600a81526020017f426c6f636b747261696e00000000000000000000000000000000000000000000815250600080808152602001908152602001600020908161032591906108f4565b50600081106102d15750565b6000604051905090565b600080fd5b600080fd5b6000819050919050565b61035881610345565b811461036357600080fd5b50565b6000813590506103758161034f565b92915050565b6000602082840312156103915761039061033b565b5b600061039f84828501610366565b91505092915050565b600081519050919050565b600082825260208201905092915050565b60005b838110156103e25780820151818401526020810190506103c7565b60008484015250505050565b6000601f19601f8301169050919050565b600061040a826103a8565b61041481856103b3565b93506104248185602086016103c4565b61042d816103ee565b840191505092915050565b6000602082019050818103600083015261045281846103ff565b905092915050565b61046381610345565b82525050565b600060208201905061047e600083018461045a565b92915050565b600080fd5b7f4e487b7100000000000000000000000000000000000000000000000000000000600052604160045260246000fd5b6104c1826103ee565b810181811067ffffffffffffffff821117156104e0576104df610489565b5b80604052505050565b60006104f3610331565b90506104ff82826104b8565b919050565b600067ffffffffffffffff82111561051f5761051e610489565b5b602082029050602081019050919050565b600080fd5b600080fd5b600067ffffffffffffffff82111561055557610554610489565b5b61055e826103ee565b9050602081019050919050565b82818337600083830152505050565b600061058d6105888461053a565b6104e9565b9050828152602081018484840111156105a9576105a8610535565b5b6105b484828561056b565b509392505050565b600082601f8301126105d1576105d0610484565b5b81356105e184826020860161057a565b91505092915050565b60006105fd6105f884610504565b6104e9565b905080838252602082019050602084028301858111156106205761061f610530565b5b835b8181101561066757803567ffffffffffffffff81111561064557610644610484565b5b80860161065289826105bc565b85526020850194505050602081019050610622565b5050509392505050565b600082601f83011261068657610685610484565b5b81356106968482602086016105ea565b91505092915050565b6000602082840312156106b5576106b461033b565b5b600082013567ffffffffffffffff8111156106d3576106d2610340565b5b6106df84828501610671565b91505092915050565b7f4e487b7100000000000000000000000000000000000000000000000000000000600052602260045260246000fd5b6000600282049050600182168061072f57607f821691505b602082108103610742576107416106e8565b5b50919050565b60008190508160005260206000209050919050565b60006020601f8301049050919050565b600082821b905092915050565b6000600883026107aa7fffffffffffffffffffffffffffffffffffffffffffffffffffffffffffffffff8261076d565b6107b4868361076d565b95508019841693508086168417925050509392505050565b6000819050919050565b60006107f16107ec6107e784610345565b6107cc565b610345565b9050919050565b6000819050919050565b61080b836107d6565b61081f610817826107f8565b84845461077a565b825550505050565b600090565b610834610827565b61083f818484610802565b505050565b5b818110156108635761085860008261082c565b600181019050610845565b5050565b601f8211156108a85761087981610748565b6108828461075d565b81016020851015610891578190505b6108a561089d8561075d565b830182610844565b50505b505050565b600082821c905092915050565b60006108cb600019846008026108ad565b1980831691505092915050565b60006108e483836108ba565b9150826002028217905092915050565b6108fd826103a8565b67ffffffffffffffff81111561091657610915610489565b5b6109208254610717565b61092b828285610867565b600060209050601f83116001811461095e576000841561094c578287015190505b61095685826108d8565b8655506109be565b601f19841661096c86610748565b60005b828110156109945784890151825560018201915060208501945060208101905061096f565b868310156109b157848901516109ad601f8916826108ba565b8355505b6001600288020188555050505b505050505050565b7f4e487b7100000000000000000000000000000000000000000000000000000000600052601160045260246000fd5b6000610a0082610345565b91507fffffffffffffffffffffffffffffffffffffffffffffffffffffffffffffffff8203610a3257610a316109c6565b5b600182019050919050565b7f4e487b7100000000000000000000000000000000000000000000000000000000600052603260045260246000fdfea2646970667358221220f8f81000ae0f37594bf215caeb167f23f0190324ac0f87d4c089af5942dcd8f364736f6c63430008130033",
					"opcodes": "PUSH1 0x80 PUSH1 0x40 MSTORE PUSH1 0x0 PUSH1 0x1 SSTORE CALLVALUE DUP1 ISZERO PUSH2 0x15 JUMPI PUSH1 0x0 DUP1 REVERT JUMPDEST POP PUSH2 0xAA2 DUP1 PUSH2 0x25 PUSH1 0x0 CODECOPY PUSH1 0x0 RETURN INVALID PUSH1 0x80 PUSH1 0x40 MSTORE CALLVALUE DUP1 ISZERO PUSH2 0x10 JUMPI PUSH1 0x0 DUP1 REVERT JUMPDEST POP PUSH1 0x4 CALLDATASIZE LT PUSH2 0x62 JUMPI PUSH1 0x0 CALLDATALOAD PUSH1 0xE0 SHR DUP1 PUSH4 0x6EAD22E EQ PUSH2 0x67 JUMPI DUP1 PUSH4 0x1003E2D2 EQ PUSH2 0x97 JUMPI DUP1 PUSH4 0x22FCEFBE EQ PUSH2 0xB3 JUMPI DUP1 PUSH4 0x4E303C60 EQ PUSH2 0xD1 JUMPI DUP1 PUSH4 0xA7A0D537 EQ PUSH2 0xED JUMPI DUP1 PUSH4 0xE308AE72 EQ PUSH2 0xF7 JUMPI JUMPDEST PUSH1 0x0 DUP1 REVERT JUMPDEST PUSH2 0x81 PUSH1 0x4 DUP1 CALLDATASIZE SUB DUP2 ADD SWAP1 PUSH2 0x7C SWAP2 SWAP1 PUSH2 0x37B JUMP JUMPDEST PUSH2 0x113 JUMP JUMPDEST PUSH1 0x40 MLOAD PUSH2 0x8E SWAP2 SWAP1 PUSH2 0x438 JUMP JUMPDEST PUSH1 0x40 MLOAD DUP1 SWAP2 SUB SWAP1 RETURN JUMPDEST PUSH2 0xB1 PUSH1 0x4 DUP1 CALLDATASIZE SUB DUP2 ADD SWAP1 PUSH2 0xAC SWAP2 SWAP1 PUSH2 0x37B JUMP JUMPDEST PUSH2 0x1B3 JUMP JUMPDEST STOP JUMPDEST PUSH2 0xBB PUSH2 0x22A JUMP JUMPDEST PUSH1 0x40 MLOAD PUSH2 0xC8 SWAP2 SWAP1 PUSH2 0x469 JUMP JUMPDEST PUSH1 0x40 MLOAD DUP1 SWAP2 SUB SWAP1 RETURN JUMPDEST PUSH2 0xEB PUSH1 0x4 DUP1 CALLDATASIZE SUB DUP2 ADD SWAP1 PUSH2 0xE6 SWAP2 SWAP1 PUSH2 0x69F JUMP JUMPDEST PUSH2 0x230 JUMP JUMPDEST STOP JUMPDEST PUSH2 0xF5 PUSH2 0x28D JUMP JUMPDEST STOP JUMPDEST PUSH2 0x111 PUSH1 0x4 DUP1 CALLDATASIZE SUB DUP2 ADD SWAP1 PUSH2 0x10C SWAP2 SWAP1 PUSH2 0x37B JUMP JUMPDEST PUSH2 0x2D0 JUMP JUMPDEST STOP JUMPDEST PUSH1 0x0 PUSH1 0x20 MSTORE DUP1 PUSH1 0x0 MSTORE PUSH1 0x40 PUSH1 0x0 KECCAK256 PUSH1 0x0 SWAP2 POP SWAP1 POP DUP1 SLOAD PUSH2 0x132 SWAP1 PUSH2 0x717 JUMP JUMPDEST DUP1 PUSH1 0x1F ADD PUSH1 0x20 DUP1 SWAP2 DIV MUL PUSH1 0x20 ADD PUSH1 0x40 MLOAD SWAP1 DUP2 ADD PUSH1 0x40 MSTORE DUP1 SWAP3 SWAP2 SWAP1 DUP2 DUP2 MSTORE PUSH1 0x20 ADD DUP3 DUP1 SLOAD PUSH2 0x15E SWAP1 PUSH2 0x717 JUMP JUMPDEST DUP1 ISZERO PUSH2 0x1AB JUMPI DUP1 PUSH1 0x1F LT PUSH2 0x180 JUMPI PUSH2 0x100 DUP1 DUP4 SLOAD DIV MUL DUP4 MSTORE SWAP2 PUSH1 0x20 ADD SWAP2 PUSH2 0x1AB JUMP JUMPDEST DUP3 ADD SWAP2 SWAP1 PUSH1 0x0 MSTORE PUSH1 0x20 PUSH1 0x0 KECCAK256 SWAP1 JUMPDEST DUP2 SLOAD DUP2 MSTORE SWAP1 PUSH1 0x1 ADD SWAP1 PUSH1 0x20 ADD DUP1 DUP4 GT PUSH2 0x18E JUMPI DUP3 SWAP1 SUB PUSH1 0x1F AND DUP3 ADD SWAP2 JUMPDEST POP POP POP POP POP DUP2 JUMP JUMPDEST PUSH1 0x0 JUMPDEST DUP2 DUP2 LT ISZERO PUSH2 0x226 JUMPI PUSH1 0x40 MLOAD DUP1 PUSH1 0x40 ADD PUSH1 0x40 MSTORE DUP1 PUSH1 0xA DUP2 MSTORE PUSH1 0x20 ADD PUSH32 0x426C6F636B747261696E00000000000000000000000000000000000000000000 DUP2 MSTORE POP PUSH1 0x0 DUP1 DUP4 DUP2 MSTORE PUSH1 0x20 ADD SWAP1 DUP2 MSTORE PUSH1 0x20 ADD PUSH1 0x0 KECCAK256 SWAP1 DUP2 PUSH2 0x212 SWAP2 SWAP1 PUSH2 0x8F4 JUMP JUMPDEST POP DUP1 DUP1 PUSH2 0x21E SWAP1 PUSH2 0x9F5 JUMP JUMPDEST SWAP2 POP POP PUSH2 0x1B6 JUMP JUMPDEST POP POP JUMP JUMPDEST PUSH1 0x1 SLOAD DUP2 JUMP JUMPDEST PUSH1 0x0 JUMPDEST DUP2 MLOAD DUP2 LT ISZERO PUSH2 0x289 JUMPI DUP2 DUP2 DUP2 MLOAD DUP2 LT PUSH2 0x24F JUMPI PUSH2 0x24E PUSH2 0xA3D JUMP JUMPDEST JUMPDEST PUSH1 0x20 MUL PUSH1 0x20 ADD ADD MLOAD PUSH1 0x0 DUP1 DUP4 DUP2 MSTORE PUSH1 0x20 ADD SWAP1 DUP2 MSTORE PUSH1 0x20 ADD PUSH1 0x0 KECCAK256 SWAP1 DUP2 PUSH2 0x275 SWAP2 SWAP1 PUSH2 0x8F4 JUMP JUMPDEST POP DUP1 DUP1 PUSH2 0x281 SWAP1 PUSH2 0x9F5 JUMP JUMPDEST SWAP2 POP POP PUSH2 0x233 JUMP JUMPDEST POP POP JUMP JUMPDEST PUSH1 0x0 JUMPDEST PUSH1 0xA DUP2 LT ISZERO PUSH2 0x2CD JUMPI PUSH1 0x4 DUP2 SUB ISZERO PUSH2 0x2CD JUMPI PUSH1 0x1 PUSH1 0x0 DUP2 SLOAD DUP1 SWAP3 SWAP2 SWAP1 PUSH2 0x2B5 SWAP1 PUSH2 0x9F5 JUMP JUMPDEST SWAP2 SWAP1 POP SSTORE POP DUP1 DUP1 PUSH2 0x2C5 SWAP1 PUSH2 0x9F5 JUMP JUMPDEST SWAP2 POP POP PUSH2 0x290 JUMP JUMPDEST POP JUMP JUMPDEST JUMPDEST PUSH1 0x40 MLOAD DUP1 PUSH1 0x40 ADD PUSH1 0x40 MSTORE DUP1 PUSH1 0xA DUP2 MSTORE PUSH1 0x20 ADD PUSH32 0x426C6F636B747261696E00000000000000000000000000000000000000000000 DUP2 MSTORE POP PUSH1 0x0 DUP1 DUP1 DUP2 MSTORE PUSH1 0x20 ADD SWAP1 DUP2 MSTORE PUSH1 0x20 ADD PUSH1 0x0 KECCAK256 SWAP1 DUP2 PUSH2 0x325 SWAP2 SWAP1 PUSH2 0x8F4 JUMP JUMPDEST POP PUSH1 0x0 DUP2 LT PUSH2 0x2D1 JUMPI POP JUMP JUMPDEST PUSH1 0x0 PUSH1 0x40 MLOAD SWAP1 POP SWAP1 JUMP JUMPDEST PUSH1 0x0 DUP1 REVERT JUMPDEST PUSH1 0x0 DUP1 REVERT JUMPDEST PUSH1 0x0 DUP2 SWAP1 POP SWAP2 SWAP1 POP JUMP JUMPDEST PUSH2 0x358 DUP2 PUSH2 0x345 JUMP JUMPDEST DUP2 EQ PUSH2 0x363 JUMPI PUSH1 0x0 DUP1 REVERT JUMPDEST POP JUMP JUMPDEST PUSH1 0x0 DUP2 CALLDATALOAD SWAP1 POP PUSH2 0x375 DUP2 PUSH2 0x34F JUMP JUMPDEST SWAP3 SWAP2 POP POP JUMP JUMPDEST PUSH1 0x0 PUSH1 0x20 DUP3 DUP5 SUB SLT ISZERO PUSH2 0x391 JUMPI PUSH2 0x390 PUSH2 0x33B JUMP JUMPDEST JUMPDEST PUSH1 0x0 PUSH2 0x39F DUP5 DUP3 DUP6 ADD PUSH2 0x366 JUMP JUMPDEST SWAP2 POP POP SWAP3 SWAP2 POP POP JUMP JUMPDEST PUSH1 0x0 DUP2 MLOAD SWAP1 POP SWAP2 SWAP1 POP JUMP JUMPDEST PUSH1 0x0 DUP3 DUP3 MSTORE PUSH1 0x20 DUP3 ADD SWAP1 POP SWAP3 SWAP2 POP POP JUMP JUMPDEST PUSH1 0x0 JUMPDEST DUP4 DUP2 LT ISZERO PUSH2 0x3E2 JUMPI DUP1 DUP3 ADD MLOAD DUP2 DUP5 ADD MSTORE PUSH1 0x20 DUP2 ADD SWAP1 POP PUSH2 0x3C7 JUMP JUMPDEST PUSH1 0x0 DUP5 DUP5 ADD MSTORE POP POP POP POP JUMP JUMPDEST PUSH1 0x0 PUSH1 0x1F NOT PUSH1 0x1F DUP4 ADD AND SWAP1 POP SWAP2 SWAP1 POP JUMP JUMPDEST PUSH1 0x0 PUSH2 0x40A DUP3 PUSH2 0x3A8 JUMP JUMPDEST PUSH2 0x414 DUP2 DUP6 PUSH2 0x3B3 JUMP JUMPDEST SWAP4 POP PUSH2 0x424 DUP2 DUP6 PUSH1 0x20 DUP7 ADD PUSH2 0x3C4 JUMP JUMPDEST PUSH2 0x42D DUP2 PUSH2 0x3EE JUMP JUMPDEST DUP5 ADD SWAP2 POP POP SWAP3 SWAP2 POP POP JUMP JUMPDEST PUSH1 0x0 PUSH1 0x20 DUP3 ADD SWAP1 POP DUP2 DUP2 SUB PUSH1 0x0 DUP4 ADD MSTORE PUSH2 0x452 DUP2 DUP5 PUSH2 0x3FF JUMP JUMPDEST SWAP1 POP SWAP3 SWAP2 POP POP JUMP JUMPDEST PUSH2 0x463 DUP2 PUSH2 0x345 JUMP JUMPDEST DUP3 MSTORE POP POP JUMP JUMPDEST PUSH1 0x0 PUSH1 0x20 DUP3 ADD SWAP1 POP PUSH2 0x47E PUSH1 0x0 DUP4 ADD DUP5 PUSH2 0x45A JUMP JUMPDEST SWAP3 SWAP2 POP POP JUMP JUMPDEST PUSH1 0x0 DUP1 REVERT JUMPDEST PUSH32 0x4E487B7100000000000000000000000000000000000000000000000000000000 PUSH1 0x0 MSTORE PUSH1 0x41 PUSH1 0x4 MSTORE PUSH1 0x24 PUSH1 0x0 REVERT JUMPDEST PUSH2 0x4C1 DUP3 PUSH2 0x3EE JUMP JUMPDEST DUP2 ADD DUP2 DUP2 LT PUSH8 0xFFFFFFFFFFFFFFFF DUP3 GT OR ISZERO PUSH2 0x4E0 JUMPI PUSH2 0x4DF PUSH2 0x489 JUMP JUMPDEST JUMPDEST DUP1 PUSH1 0x40 MSTORE POP POP POP JUMP JUMPDEST PUSH1 0x0 PUSH2 0x4F3 PUSH2 0x331 JUMP JUMPDEST SWAP1 POP PUSH2 0x4FF DUP3 DUP3 PUSH2 0x4B8 JUMP JUMPDEST SWAP2 SWAP1 POP JUMP JUMPDEST PUSH1 0x0 PUSH8 0xFFFFFFFFFFFFFFFF DUP3 GT ISZERO PUSH2 0x51F JUMPI PUSH2 0x51E PUSH2 0x489 JUMP JUMPDEST JUMPDEST PUSH1 0x20 DUP3 MUL SWAP1 POP PUSH1 0x20 DUP2 ADD SWAP1 POP SWAP2 SWAP1 POP JUMP JUMPDEST PUSH1 0x0 DUP1 REVERT JUMPDEST PUSH1 0x0 DUP1 REVERT JUMPDEST PUSH1 0x0 PUSH8 0xFFFFFFFFFFFFFFFF DUP3 GT ISZERO PUSH2 0x555 JUMPI PUSH2 0x554 PUSH2 0x489 JUMP JUMPDEST JUMPDEST PUSH2 0x55E DUP3 PUSH2 0x3EE JUMP JUMPDEST SWAP1 POP PUSH1 0x20 DUP2 ADD SWAP1 POP SWAP2 SWAP1 POP JUMP JUMPDEST DUP3 DUP2 DUP4 CALLDATACOPY PUSH1 0x0 DUP4 DUP4 ADD MSTORE POP POP POP JUMP JUMPDEST PUSH1 0x0 PUSH2 0x58D PUSH2 0x588 DUP5 PUSH2 0x53A JUMP JUMPDEST PUSH2 0x4E9 JUMP JUMPDEST SWAP1 POP DUP3 DUP2 MSTORE PUSH1 0x20 DUP2 ADD DUP5 DUP5 DUP5 ADD GT ISZERO PUSH2 0x5A9 JUMPI PUSH2 0x5A8 PUSH2 0x535 JUMP JUMPDEST JUMPDEST PUSH2 0x5B4 DUP5 DUP3 DUP6 PUSH2 0x56B JUMP JUMPDEST POP SWAP4 SWAP3 POP POP POP JUMP JUMPDEST PUSH1 0x0 DUP3 PUSH1 0x1F DUP4 ADD SLT PUSH2 0x5D1 JUMPI PUSH2 0x5D0 PUSH2 0x484 JUMP JUMPDEST JUMPDEST DUP2 CALLDATALOAD PUSH2 0x5E1 DUP5 DUP3 PUSH1 0x20 DUP7 ADD PUSH2 0x57A JUMP JUMPDEST SWAP2 POP POP SWAP3 SWAP2 POP POP JUMP JUMPDEST PUSH1 0x0 PUSH2 0x5FD PUSH2 0x5F8 DUP5 PUSH2 0x504 JUMP JUMPDEST PUSH2 0x4E9 JUMP JUMPDEST SWAP1 POP DUP1 DUP4 DUP3 MSTORE PUSH1 0x20 DUP3 ADD SWAP1 POP PUSH1 0x20 DUP5 MUL DUP4 ADD DUP6 DUP2 GT ISZERO PUSH2 0x620 JUMPI PUSH2 0x61F PUSH2 0x530 JUMP JUMPDEST JUMPDEST DUP4 JUMPDEST DUP2 DUP2 LT ISZERO PUSH2 0x667 JUMPI DUP1 CALLDATALOAD PUSH8 0xFFFFFFFFFFFFFFFF DUP2 GT ISZERO PUSH2 0x645 JUMPI PUSH2 0x644 PUSH2 0x484 JUMP JUMPDEST JUMPDEST DUP1 DUP7 ADD PUSH2 0x652 DUP10 DUP3 PUSH2 0x5BC JUMP JUMPDEST DUP6 MSTORE PUSH1 0x20 DUP6 ADD SWAP5 POP POP POP PUSH1 0x20 DUP2 ADD SWAP1 POP PUSH2 0x622 JUMP JUMPDEST POP POP POP SWAP4 SWAP3 POP POP POP JUMP JUMPDEST PUSH1 0x0 DUP3 PUSH1 0x1F DUP4 ADD SLT PUSH2 0x686 JUMPI PUSH2 0x685 PUSH2 0x484 JUMP JUMPDEST JUMPDEST DUP2 CALLDATALOAD PUSH2 0x696 DUP5 DUP3 PUSH1 0x20 DUP7 ADD PUSH2 0x5EA JUMP JUMPDEST SWAP2 POP POP SWAP3 SWAP2 POP POP JUMP JUMPDEST PUSH1 0x0 PUSH1 0x20 DUP3 DUP5 SUB SLT ISZERO PUSH2 0x6B5 JUMPI PUSH2 0x6B4 PUSH2 0x33B JUMP JUMPDEST JUMPDEST PUSH1 0x0 DUP3 ADD CALLDATALOAD PUSH8 0xFFFFFFFFFFFFFFFF DUP2 GT ISZERO PUSH2 0x6D3 JUMPI PUSH2 0x6D2 PUSH2 0x340 JUMP JUMPDEST JUMPDEST PUSH2 0x6DF DUP5 DUP3 DUP6 ADD PUSH2 0x671 JUMP JUMPDEST SWAP2 POP POP SWAP3 SWAP2 POP POP JUMP JUMPDEST PUSH32 0x4E487B7100000000000000000000000000000000000000000000000000000000 PUSH1 0x0 MSTORE PUSH1 0x22 PUSH1 0x4 MSTORE PUSH1 0x24 PUSH1 0x0 REVERT JUMPDEST PUSH1 0x0 PUSH1 0x2 DUP3 DIV SWAP1 POP PUSH1 0x1 DUP3 AND DUP1 PUSH2 0x72F JUMPI PUSH1 0x7F DUP3 AND SWAP2 POP JUMPDEST PUSH1 0x20 DUP3 LT DUP2 SUB PUSH2 0x742 JUMPI PUSH2 0x741 PUSH2 0x6E8 JUMP JUMPDEST JUMPDEST POP SWAP2 SWAP1 POP JUMP JUMPDEST PUSH1 0x0 DUP2 SWAP1 POP DUP2 PUSH1 0x0 MSTORE PUSH1 0x20 PUSH1 0x0 KECCAK256 SWAP1 POP SWAP2 SWAP1 POP JUMP JUMPDEST PUSH1 0x0 PUSH1 0x20 PUSH1 0x1F DUP4 ADD DIV SWAP1 POP SWAP2 SWAP1 POP JUMP JUMPDEST PUSH1 0x0 DUP3 DUP3 SHL SWAP1 POP SWAP3 SWAP2 POP POP JUMP JUMPDEST PUSH1 0x0 PUSH1 0x8 DUP4 MUL PUSH2 0x7AA PUSH32 0xFFFFFFFFFFFFFFFFFFFFFFFFFFFFFFFFFFFFFFFFFFFFFFFFFFFFFFFFFFFFFFFF DUP3 PUSH2 0x76D JUMP JUMPDEST PUSH2 0x7B4 DUP7 DUP4 PUSH2 0x76D JUMP JUMPDEST SWAP6 POP DUP1 NOT DUP5 AND SWAP4 POP DUP1 DUP7 AND DUP5 OR SWAP3 POP POP POP SWAP4 SWAP3 POP POP POP JUMP JUMPDEST PUSH1 0x0 DUP2 SWAP1 POP SWAP2 SWAP1 POP JUMP JUMPDEST PUSH1 0x0 PUSH2 0x7F1 PUSH2 0x7EC PUSH2 0x7E7 DUP5 PUSH2 0x345 JUMP JUMPDEST PUSH2 0x7CC JUMP JUMPDEST PUSH2 0x345 JUMP JUMPDEST SWAP1 POP SWAP2 SWAP1 POP JUMP JUMPDEST PUSH1 0x0 DUP2 SWAP1 POP SWAP2 SWAP1 POP JUMP JUMPDEST PUSH2 0x80B DUP4 PUSH2 0x7D6 JUMP JUMPDEST PUSH2 0x81F PUSH2 0x817 DUP3 PUSH2 0x7F8 JUMP JUMPDEST DUP5 DUP5 SLOAD PUSH2 0x77A JUMP JUMPDEST DUP3 SSTORE POP POP POP POP JUMP JUMPDEST PUSH1 0x0 SWAP1 JUMP JUMPDEST PUSH2 0x834 PUSH2 0x827 JUMP JUMPDEST PUSH2 0x83F DUP2 DUP5 DUP5 PUSH2 0x802 JUMP JUMPDEST POP POP POP JUMP JUMPDEST JUMPDEST DUP2 DUP2 LT ISZERO PUSH2 0x863 JUMPI PUSH2 0x858 PUSH1 0x0 DUP3 PUSH2 0x82C JUMP JUMPDEST PUSH1 0x1 DUP2 ADD SWAP1 POP PUSH2 0x845 JUMP JUMPDEST POP POP JUMP JUMPDEST PUSH1 0x1F DUP3 GT ISZERO PUSH2 0x8A8 JUMPI PUSH2 0x879 DUP2 PUSH2 0x748 JUMP JUMPDEST PUSH2 0x882 DUP5 PUSH2 0x75D JUMP JUMPDEST DUP2 ADD PUSH1 0x20 DUP6 LT ISZERO PUSH2 0x891 JUMPI DUP2 SWAP1 POP JUMPDEST PUSH2 0x8A5 PUSH2 0x89D DUP6 PUSH2 0x75D JUMP JUMPDEST DUP4 ADD DUP3 PUSH2 0x844 JUMP JUMPDEST POP POP JUMPDEST POP POP POP JUMP JUMPDEST PUSH1 0x0 DUP3 DUP3 SHR SWAP1 POP SWAP3 SWAP2 POP POP JUMP JUMPDEST PUSH1 0x0 PUSH2 0x8CB PUSH1 0x0 NOT DUP5 PUSH1 0x8 MUL PUSH2 0x8AD JUMP JUMPDEST NOT DUP1 DUP4 AND SWAP2 POP POP SWAP3 SWAP2 POP POP JUMP JUMPDEST PUSH1 0x0 PUSH2 0x8E4 DUP4 DUP4 PUSH2 0x8BA JUMP JUMPDEST SWAP2 POP DUP3 PUSH1 0x2 MUL DUP3 OR SWAP1 POP SWAP3 SWAP2 POP POP JUMP JUMPDEST PUSH2 0x8FD DUP3 PUSH2 0x3A8 JUMP JUMPDEST PUSH8 0xFFFFFFFFFFFFFFFF DUP2 GT ISZERO PUSH2 0x916 JUMPI PUSH2 0x915 PUSH2 0x489 JUMP JUMPDEST JUMPDEST PUSH2 0x920 DUP3 SLOAD PUSH2 0x717 JUMP JUMPDEST PUSH2 0x92B DUP3 DUP3 DUP6 PUSH2 0x867 JUMP JUMPDEST PUSH1 0x0 PUSH1 0x20 SWAP1 POP PUSH1 0x1F DUP4 GT PUSH1 0x1 DUP2 EQ PUSH2 0x95E JUMPI PUSH1 0x0 DUP5 ISZERO PUSH2 0x94C JUMPI DUP3 DUP8 ADD MLOAD SWAP1 POP JUMPDEST PUSH2 0x956 DUP6 DUP3 PUSH2 0x8D8 JUMP JUMPDEST DUP7 SSTORE POP PUSH2 0x9BE JUMP JUMPDEST PUSH1 0x1F NOT DUP5 AND PUSH2 0x96C DUP7 PUSH2 0x748 JUMP JUMPDEST PUSH1 0x0 JUMPDEST DUP3 DUP2 LT ISZERO PUSH2 0x994 JUMPI DUP5 DUP10 ADD MLOAD DUP3 SSTORE PUSH1 0x1 DUP3 ADD SWAP2 POP PUSH1 0x20 DUP6 ADD SWAP5 POP PUSH1 0x20 DUP2 ADD SWAP1 POP PUSH2 0x96F JUMP JUMPDEST DUP7 DUP4 LT ISZERO PUSH2 0x9B1 JUMPI DUP5 DUP10 ADD MLOAD PUSH2 0x9AD PUSH1 0x1F DUP10 AND DUP3 PUSH2 0x8BA JUMP JUMPDEST DUP4 SSTORE POP JUMPDEST PUSH1 0x1 PUSH1 0x2 DUP9 MUL ADD DUP9 SSTORE POP POP POP JUMPDEST POP POP POP POP POP POP JUMP JUMPDEST PUSH32 0x4E487B7100000000000000000000000000000000000000000000000000000000 PUSH1 0x0 MSTORE PUSH1 0x11 PUSH1 0x4 MSTORE PUSH1 0x24 PUSH1 0x0 REVERT JUMPDEST PUSH1 0x0 PUSH2 0xA00 DUP3 PUSH2 0x345 JUMP JUMPDEST SWAP2 POP PUSH32 0xFFFFFFFFFFFFFFFFFFFFFFFFFFFFFFFFFFFFFFFFFFFFFFFFFFFFFFFFFFFFFFFF DUP3 SUB PUSH2 0xA32 JUMPI PUSH2 0xA31 PUSH2 0x9C6 JUMP JUMPDEST JUMPDEST PUSH1 0x1 DUP3 ADD SWAP1 POP SWAP2 SWAP1 POP JUMP JUMPDEST PUSH32 0x4E487B7100000000000000000000000000000000000000000000000000000000 PUSH1 0x0 MSTORE PUSH1 0x32 PUSH1 0x4 MSTORE PUSH1 0x24 PUSH1 0x0 REVERT INVALID LOG2 PUSH5 0x6970667358 0x22 SLT KECCAK256 0xF8 0xF8 LT STOP 0xAE 0xF CALLDATACOPY MSIZE 0x4B CALLCODE ISZERO 0xCA 0xEB AND PUSH32 0x23F0190324AC0F87D4C089AF5942DCD8F364736F6C6343000813003300000000 "
				},
				"gasEstimates": {
					"creation": {
						"codeDepositCost": "544400",
						"executionCost": "5587",
						"totalCost": "549987"
					},
					"external": {
						"add(uint256)": "infinite",
						"addNames(string[])": "infinite",
						"coins()": "2451",
						"letsBreak(uint256)": "infinite",
						"something()": "infinite",
						"students(uint256)": "infinite"
					}
				},
				"methodIdentifiers": {
					"add(uint256)": "1003e2d2",
					"addNames(string[])": "4e303c60",
					"coins()": "22fcefbe",
					"letsBreak(uint256)": "e308ae72",
					"something()": "a7a0d537",
					"students(uint256)": "06ead22e"
				}
			},
			"storageLayout": {
				"storage": [
					{
						"astId": 5,
						"contract": "ControlStatements.sol:ControlStatements",
						"label": "students",
						"offset": 0,
						"slot": "0",
						"type": "t_mapping(t_uint256,t_string_storage)"
					},
					{
						"astId": 77,
						"contract": "ControlStatements.sol:ControlStatements",
						"label": "coins",
						"offset": 0,
						"slot": "1",
						"type": "t_uint256"
					}
				],
				"types": {
					"t_mapping(t_uint256,t_string_storage)": {
						"encoding": "mapping",
						"key": "t_uint256",
						"label": "mapping(uint256 => string)",
						"numberOfBytes": "32",
						"value": "t_string_storage"
					},
					"t_string_storage": {
						"encoding": "bytes",
						"label": "string",
						"numberOfBytes": "32"
					},
					"t_uint256": {
						"encoding": "inplace",
						"label": "uint256",
						"numberOfBytes": "32"
					}
				}
			},
			"userdoc": {
				"kind": "user",
				"methods": {},
				"version": 1
			}
		}
	}
}