{
	"data": {
		"bytecode": {
			"linkReferences": {},
			"object": "60806040525f8055348015610012575f80fd5b50610fa9806100205f395ff3fe60806040526004361061003e575f3560e01c80636bfb0d01146100425780638511c9371461006c578063bfb231d214610094578063e7fb74c7146100d4575b5f80fd5b34801561004d575f80fd5b506100566100f0565b6040516100639190610658565b60405180910390f35b348015610077575f80fd5b50610092600480360381019061008d91906107e8565b6100f5565b005b34801561009f575f80fd5b506100ba60048036038101906100b59190610842565b6102c8565b6040516100cb959493929190610940565b60405180910390f35b6100ee60048036038101906100e99190610842565b6103ab565b005b5f5481565b5f825111610138576040517f08c379a000000000000000000000000000000000000000000000000000000000815260040161012f906109e2565b60405180910390fd5b5f811161017a576040517f08c379a000000000000000000000000000000000000000000000000000000000815260040161017190610a4a565b60405180910390fd5b5f8081548092919061018b90610a95565b91905055506040518060a001604052805f5481526020013373ffffffffffffffffffffffffffffffffffffffff1681526020018381526020018281526020015f151581525060015f805481526020019081526020015f205f820151815f01556020820151816001015f6101000a81548173ffffffffffffffffffffffffffffffffffffffff021916908373ffffffffffffffffffffffffffffffffffffffff16021790555060408201518160020190816102459190610cd6565b50606082015181600301556080820151816004015f6101000a81548160ff0219169083151502179055509050503373ffffffffffffffffffffffffffffffffffffffff165f547f4e3807e76e8c2a7b6547b6189eba5d3dc4fe2bc48c057e8ec545ec13be8063c584846040516102bc929190610da5565b60405180910390a35050565b6001602052805f5260405f205f91509050805f015490806001015f9054906101000a900473ffffffffffffffffffffffffffffffffffffffff169080600201805461031290610b09565b80601f016020809104026020016040519081016040528092919081815260200182805461033e90610b09565b80156103895780601f1061036057610100808354040283529160200191610389565b820191905f5260205f20905b81548152906001019060200180831161036c57829003601f168201915b505050505090806003015490806004015f9054906101000a900460ff16905085565b5f60015f8381526020019081526020015f20905081815f015414610404576040517f08c379a00000000000000000000000000000000000000000000000000000000081526004016103fb90610e1d565b60405180910390fd5b8060030154341461044a576040517f08c379a000000000000000000000000000000000000000000000000000000000815260040161044190610e85565b60405180910390fd5b806004015f9054906101000a900460ff161561049b576040517f08c379a000000000000000000000000000000000000000000000000000000000815260040161049290610eed565b60405180910390fd5b806001015f9054906101000a900473ffffffffffffffffffffffffffffffffffffffff1673ffffffffffffffffffffffffffffffffffffffff163373ffffffffffffffffffffffffffffffffffffffff160361052c576040517f08c379a000000000000000000000000000000000000000000000000000000000815260040161052390610f55565b60405180910390fd5b6001816004015f6101000a81548160ff021916908315150217905550806001015f9054906101000a900473ffffffffffffffffffffffffffffffffffffffff1673ffffffffffffffffffffffffffffffffffffffff166108fc3490811502906040515f60405180830381858888f193505050501580156105ae573d5f803e3d5ffd5b50806001015f9054906101000a900473ffffffffffffffffffffffffffffffffffffffff1673ffffffffffffffffffffffffffffffffffffffff163373ffffffffffffffffffffffffffffffffffffffff16837f3e2a5a5ee3a24b1b9d330b0bc0946a7d0eb9c99f453f93a45348a9a8e29a94fb84600301546040516106349190610658565b60405180910390a45050565b5f819050919050565b61065281610640565b82525050565b5f60208201905061066b5f830184610649565b92915050565b5f604051905090565b5f80fd5b5f80fd5b5f80fd5b5f80fd5b5f601f19601f8301169050919050565b7f4e487b71000000000000000000000000000000000000000000000000000000005f52604160045260245ffd5b6106d08261068a565b810181811067ffffffffffffffff821117156106ef576106ee61069a565b5b80604052505050565b5f610701610671565b905061070d82826106c7565b919050565b5f67ffffffffffffffff82111561072c5761072b61069a565b5b6107358261068a565b9050602081019050919050565b828183375f83830152505050565b5f61076261075d84610712565b6106f8565b90508281526020810184848401111561077e5761077d610686565b5b610789848285610742565b509392505050565b5f82601f8301126107a5576107a4610682565b5b81356107b5848260208601610750565b91505092915050565b6107c781610640565b81146107d1575f80fd5b50565b5f813590506107e2816107be565b92915050565b5f80604083850312156107fe576107fd61067a565b5b5f83013567ffffffffffffffff81111561081b5761081a61067e565b5b61082785828601610791565b9250506020610838858286016107d4565b9150509250929050565b5f602082840312156108575761085661067a565b5b5f610864848285016107d4565b91505092915050565b5f73ffffffffffffffffffffffffffffffffffffffff82169050919050565b5f6108968261086d565b9050919050565b6108a68161088c565b82525050565b5f81519050919050565b5f82825260208201905092915050565b5f5b838110156108e35780820151818401526020810190506108c8565b5f8484015250505050565b5f6108f8826108ac565b61090281856108b6565b93506109128185602086016108c6565b61091b8161068a565b840191505092915050565b5f8115159050919050565b61093a81610926565b82525050565b5f60a0820190506109535f830188610649565b610960602083018761089d565b818103604083015261097281866108ee565b90506109816060830185610649565b61098e6080830184610931565b9695505050505050565b7f4974656d206e616d6520697320726571756972656400000000000000000000005f82015250565b5f6109cc6015836108b6565b91506109d782610998565b602082019050919050565b5f6020820190508181035f8301526109f9816109c0565b9050919050565b7f50726963652073686f756c642062652067726561746572207468616e203000005f82015250565b5f610a34601e836108b6565b9150610a3f82610a00565b602082019050919050565b5f6020820190508181035f830152610a6181610a28565b9050919050565b7f4e487b71000000000000000000000000000000000000000000000000000000005f52601160045260245ffd5b5f610a9f82610640565b91507fffffffffffffffffffffffffffffffffffffffffffffffffffffffffffffffff8203610ad157610ad0610a68565b5b600182019050919050565b7f4e487b71000000000000000000000000000000000000000000000000000000005f52602260045260245ffd5b5f6002820490506001821680610b2057607f821691505b602082108103610b3357610b32610adc565b5b50919050565b5f819050815f5260205f209050919050565b5f6020601f8301049050919050565b5f82821b905092915050565b5f60088302610b957fffffffffffffffffffffffffffffffffffffffffffffffffffffffffffffffff82610b5a565b610b9f8683610b5a565b95508019841693508086168417925050509392505050565b5f819050919050565b5f610bda610bd5610bd084610640565b610bb7565b610640565b9050919050565b5f819050919050565b610bf383610bc0565b610c07610bff82610be1565b848454610b66565b825550505050565b5f90565b610c1b610c0f565b610c26818484610bea565b505050565b5b81811015610c4957610c3e5f82610c13565b600181019050610c2c565b5050565b601f821115610c8e57610c5f81610b39565b610c6884610b4b565b81016020851015610c77578190505b610c8b610c8385610b4b565b830182610c2b565b50505b505050565b5f82821c905092915050565b5f610cae5f1984600802610c93565b1980831691505092915050565b5f610cc68383610c9f565b9150826002028217905092915050565b610cdf826108ac565b67ffffffffffffffff811115610cf857610cf761069a565b5b610d028254610b09565b610d0d828285610c4d565b5f60209050601f831160018114610d3e575f8415610d2c578287015190505b610d368582610cbb565b865550610d9d565b601f198416610d4c86610b39565b5f5b82811015610d7357848901518255600182019150602085019450602081019050610d4e565b86831015610d905784890151610d8c601f891682610c9f565b8355505b6001600288020188555050505b505050505050565b5f6040820190508181035f830152610dbd81856108ee565b9050610dcc6020830184610649565b9392505050565b7f4974656d20646f6573206e6f74206578697374000000000000000000000000005f82015250565b5f610e076013836108b6565b9150610e1282610dd3565b602082019050919050565b5f6020820190508181035f830152610e3481610dfb565b9050919050565b7f496e636f72726563742045746865722073656e740000000000000000000000005f82015250565b5f610e6f6014836108b6565b9150610e7a82610e3b565b602082019050919050565b5f6020820190508181035f830152610e9c81610e63565b9050919050565b7f4974656d20616c726561647920736f6c640000000000000000000000000000005f82015250565b5f610ed76011836108b6565b9150610ee282610ea3565b602082019050919050565b5f6020820190508181035f830152610f0481610ecb565b9050919050565b7f53656c6c65722063616e6e6f7420627579207468656972206f776e206974656d5f82015250565b5f610f3f6020836108b6565b9150610f4a82610f0b565b602082019050919050565b5f6020820190508181035f830152610f6c81610f33565b905091905056fea2646970667358221220ee18238bc54a38d7144b20ddbe434b29004cc3e9b6d0fbe4e57273cef686574e64736f6c63430008180033",
			"opcodes": "PUSH1 0x80 PUSH1 0x40 MSTORE PUSH0 DUP1 SSTORE CALLVALUE DUP1 ISZERO PUSH2 0x12 JUMPI PUSH0 DUP1 REVERT JUMPDEST POP PUSH2 0xFA9 DUP1 PUSH2 0x20 PUSH0 CODECOPY PUSH0 RETURN INVALID PUSH1 0x80 PUSH1 0x40 MSTORE PUSH1 0x4 CALLDATASIZE LT PUSH2 0x3E JUMPI PUSH0 CALLDATALOAD PUSH1 0xE0 SHR DUP1 PUSH4 0x6BFB0D01 EQ PUSH2 0x42 JUMPI DUP1 PUSH4 0x8511C937 EQ PUSH2 0x6C JUMPI DUP1 PUSH4 0xBFB231D2 EQ PUSH2 0x94 JUMPI DUP1 PUSH4 0xE7FB74C7 EQ PUSH2 0xD4 JUMPI JUMPDEST PUSH0 DUP1 REVERT JUMPDEST CALLVALUE DUP1 ISZERO PUSH2 0x4D JUMPI PUSH0 DUP1 REVERT JUMPDEST POP PUSH2 0x56 PUSH2 0xF0 JUMP JUMPDEST PUSH1 0x40 MLOAD PUSH2 0x63 SWAP2 SWAP1 PUSH2 0x658 JUMP JUMPDEST PUSH1 0x40 MLOAD DUP1 SWAP2 SUB SWAP1 RETURN JUMPDEST CALLVALUE DUP1 ISZERO PUSH2 0x77 JUMPI PUSH0 DUP1 REVERT JUMPDEST POP PUSH2 0x92 PUSH1 0x4 DUP1 CALLDATASIZE SUB DUP2 ADD SWAP1 PUSH2 0x8D SWAP2 SWAP1 PUSH2 0x7E8 JUMP JUMPDEST PUSH2 0xF5 JUMP JUMPDEST STOP JUMPDEST CALLVALUE DUP1 ISZERO PUSH2 0x9F JUMPI PUSH0 DUP1 REVERT JUMPDEST POP PUSH2 0xBA PUSH1 0x4 DUP1 CALLDATASIZE SUB DUP2 ADD SWAP1 PUSH2 0xB5 SWAP2 SWAP1 PUSH2 0x842 JUMP JUMPDEST PUSH2 0x2C8 JUMP JUMPDEST PUSH1 0x40 MLOAD PUSH2 0xCB SWAP6 SWAP5 SWAP4 SWAP3 SWAP2 SWAP1 PUSH2 0x940 JUMP JUMPDEST PUSH1 0x40 MLOAD DUP1 SWAP2 SUB SWAP1 RETURN JUMPDEST PUSH2 0xEE PUSH1 0x4 DUP1 CALLDATASIZE SUB DUP2 ADD SWAP1 PUSH2 0xE9 SWAP2 SWAP1 PUSH2 0x842 JUMP JUMPDEST PUSH2 0x3AB JUMP JUMPDEST STOP JUMPDEST PUSH0 SLOAD DUP2 JUMP JUMPDEST PUSH0 DUP3 MLOAD GT PUSH2 0x138 JUMPI PUSH1 0x40 MLOAD PUSH32 0x8C379A000000000000000000000000000000000000000000000000000000000 DUP2 MSTORE PUSH1 0x4 ADD PUSH2 0x12F SWAP1 PUSH2 0x9E2 JUMP JUMPDEST PUSH1 0x40 MLOAD DUP1 SWAP2 SUB SWAP1 REVERT JUMPDEST PUSH0 DUP2 GT PUSH2 0x17A JUMPI PUSH1 0x40 MLOAD PUSH32 0x8C379A000000000000000000000000000000000000000000000000000000000 DUP2 MSTORE PUSH1 0x4 ADD PUSH2 0x171 SWAP1 PUSH2 0xA4A JUMP JUMPDEST PUSH1 0x40 MLOAD DUP1 SWAP2 SUB SWAP1 REVERT JUMPDEST PUSH0 DUP1 DUP2 SLOAD DUP1 SWAP3 SWAP2 SWAP1 PUSH2 0x18B SWAP1 PUSH2 0xA95 JUMP JUMPDEST SWAP2 SWAP1 POP SSTORE POP PUSH1 0x40 MLOAD DUP1 PUSH1 0xA0 ADD PUSH1 0x40 MSTORE DUP1 PUSH0 SLOAD DUP2 MSTORE PUSH1 0x20 ADD CALLER PUSH20 0xFFFFFFFFFFFFFFFFFFFFFFFFFFFFFFFFFFFFFFFF AND DUP2 MSTORE PUSH1 0x20 ADD DUP4 DUP2 MSTORE PUSH1 0x20 ADD DUP3 DUP2 MSTORE PUSH1 0x20 ADD PUSH0 ISZERO ISZERO DUP2 MSTORE POP PUSH1 0x1 PUSH0 DUP1 SLOAD DUP2 MSTORE PUSH1 0x20 ADD SWAP1 DUP2 MSTORE PUSH1 0x20 ADD PUSH0 KECCAK256 PUSH0 DUP3 ADD MLOAD DUP2 PUSH0 ADD SSTORE PUSH1 0x20 DUP3 ADD MLOAD DUP2 PUSH1 0x1 ADD PUSH0 PUSH2 0x100 EXP DUP2 SLOAD DUP2 PUSH20 0xFFFFFFFFFFFFFFFFFFFFFFFFFFFFFFFFFFFFFFFF MUL NOT AND SWAP1 DUP4 PUSH20 0xFFFFFFFFFFFFFFFFFFFFFFFFFFFFFFFFFFFFFFFF AND MUL OR SWAP1 SSTORE POP PUSH1 0x40 DUP3 ADD MLOAD DUP2 PUSH1 0x2 ADD SWAP1 DUP2 PUSH2 0x245 SWAP2 SWAP1 PUSH2 0xCD6 JUMP JUMPDEST POP PUSH1 0x60 DUP3 ADD MLOAD DUP2 PUSH1 0x3 ADD SSTORE PUSH1 0x80 DUP3 ADD MLOAD DUP2 PUSH1 0x4 ADD PUSH0 PUSH2 0x100 EXP DUP2 SLOAD DUP2 PUSH1 0xFF MUL NOT AND SWAP1 DUP4 ISZERO ISZERO MUL OR SWAP1 SSTORE POP SWAP1 POP POP CALLER PUSH20 0xFFFFFFFFFFFFFFFFFFFFFFFFFFFFFFFFFFFFFFFF AND PUSH0 SLOAD PUSH32 0x4E3807E76E8C2A7B6547B6189EBA5D3DC4FE2BC48C057E8EC545EC13BE8063C5 DUP5 DUP5 PUSH1 0x40 MLOAD PUSH2 0x2BC SWAP3 SWAP2 SWAP1 PUSH2 0xDA5 JUMP JUMPDEST PUSH1 0x40 MLOAD DUP1 SWAP2 SUB SWAP1 LOG3 POP POP JUMP JUMPDEST PUSH1 0x1 PUSH1 0x20 MSTORE DUP1 PUSH0 MSTORE PUSH1 0x40 PUSH0 KECCAK256 PUSH0 SWAP2 POP SWAP1 POP DUP1 PUSH0 ADD SLOAD SWAP1 DUP1 PUSH1 0x1 ADD PUSH0 SWAP1 SLOAD SWAP1 PUSH2 0x100 EXP SWAP1 DIV PUSH20 0xFFFFFFFFFFFFFFFFFFFFFFFFFFFFFFFFFFFFFFFF AND SWAP1 DUP1 PUSH1 0x2 ADD DUP1 SLOAD PUSH2 0x312 SWAP1 PUSH2 0xB09 JUMP JUMPDEST DUP1 PUSH1 0x1F ADD PUSH1 0x20 DUP1 SWAP2 DIV MUL PUSH1 0x20 ADD PUSH1 0x40 MLOAD SWAP1 DUP2 ADD PUSH1 0x40 MSTORE DUP1 SWAP3 SWAP2 SWAP1 DUP2 DUP2 MSTORE PUSH1 0x20 ADD DUP3 DUP1 SLOAD PUSH2 0x33E SWAP1 PUSH2 0xB09 JUMP JUMPDEST DUP1 ISZERO PUSH2 0x389 JUMPI DUP1 PUSH1 0x1F LT PUSH2 0x360 JUMPI PUSH2 0x100 DUP1 DUP4 SLOAD DIV MUL DUP4 MSTORE SWAP2 PUSH1 0x20 ADD SWAP2 PUSH2 0x389 JUMP JUMPDEST DUP3 ADD SWAP2 SWAP1 PUSH0 MSTORE PUSH1 0x20 PUSH0 KECCAK256 SWAP1 JUMPDEST DUP2 SLOAD DUP2 MSTORE SWAP1 PUSH1 0x1 ADD SWAP1 PUSH1 0x20 ADD DUP1 DUP4 GT PUSH2 0x36C JUMPI DUP3 SWAP1 SUB PUSH1 0x1F AND DUP3 ADD SWAP2 JUMPDEST POP POP POP POP POP SWAP1 DUP1 PUSH1 0x3 ADD SLOAD SWAP1 DUP1 PUSH1 0x4 ADD PUSH0 SWAP1 SLOAD SWAP1 PUSH2 0x100 EXP SWAP1 DIV PUSH1 0xFF AND SWAP1 POP DUP6 JUMP JUMPDEST PUSH0 PUSH1 0x1 PUSH0 DUP4 DUP2 MSTORE PUSH1 0x20 ADD SWAP1 DUP2 MSTORE PUSH1 0x20 ADD PUSH0 KECCAK256 SWAP1 POP DUP2 DUP2 PUSH0 ADD SLOAD EQ PUSH2 0x404 JUMPI PUSH1 0x40 MLOAD PUSH32 0x8C379A000000000000000000000000000000000000000000000000000000000 DUP2 MSTORE PUSH1 0x4 ADD PUSH2 0x3FB SWAP1 PUSH2 0xE1D JUMP JUMPDEST PUSH1 0x40 MLOAD DUP1 SWAP2 SUB SWAP1 REVERT JUMPDEST DUP1 PUSH1 0x3 ADD SLOAD CALLVALUE EQ PUSH2 0x44A JUMPI PUSH1 0x40 MLOAD PUSH32 0x8C379A000000000000000000000000000000000000000000000000000000000 DUP2 MSTORE PUSH1 0x4 ADD PUSH2 0x441 SWAP1 PUSH2 0xE85 JUMP JUMPDEST PUSH1 0x40 MLOAD DUP1 SWAP2 SUB SWAP1 REVERT JUMPDEST DUP1 PUSH1 0x4 ADD PUSH0 SWAP1 SLOAD SWAP1 PUSH2 0x100 EXP SWAP1 DIV PUSH1 0xFF AND ISZERO PUSH2 0x49B JUMPI PUSH1 0x40 MLOAD PUSH32 0x8C379A000000000000000000000000000000000000000000000000000000000 DUP2 MSTORE PUSH1 0x4 ADD PUSH2 0x492 SWAP1 PUSH2 0xEED JUMP JUMPDEST PUSH1 0x40 MLOAD DUP1 SWAP2 SUB SWAP1 REVERT JUMPDEST DUP1 PUSH1 0x1 ADD PUSH0 SWAP1 SLOAD SWAP1 PUSH2 0x100 EXP SWAP1 DIV PUSH20 0xFFFFFFFFFFFFFFFFFFFFFFFFFFFFFFFFFFFFFFFF AND PUSH20 0xFFFFFFFFFFFFFFFFFFFFFFFFFFFFFFFFFFFFFFFF AND CALLER PUSH20 0xFFFFFFFFFFFFFFFFFFFFFFFFFFFFFFFFFFFFFFFF AND SUB PUSH2 0x52C JUMPI PUSH1 0x40 MLOAD PUSH32 0x8C379A000000000000000000000000000000000000000000000000000000000 DUP2 MSTORE PUSH1 0x4 ADD PUSH2 0x523 SWAP1 PUSH2 0xF55 JUMP JUMPDEST PUSH1 0x40 MLOAD DUP1 SWAP2 SUB SWAP1 REVERT JUMPDEST PUSH1 0x1 DUP2 PUSH1 0x4 ADD PUSH0 PUSH2 0x100 EXP DUP2 SLOAD DUP2 PUSH1 0xFF MUL NOT AND SWAP1 DUP4 ISZERO ISZERO MUL OR SWAP1 SSTORE POP DUP1 PUSH1 0x1 ADD PUSH0 SWAP1 SLOAD SWAP1 PUSH2 0x100 EXP SWAP1 DIV PUSH20 0xFFFFFFFFFFFFFFFFFFFFFFFFFFFFFFFFFFFFFFFF AND PUSH20 0xFFFFFFFFFFFFFFFFFFFFFFFFFFFFFFFFFFFFFFFF AND PUSH2 0x8FC CALLVALUE SWAP1 DUP2 ISZERO MUL SWAP1 PUSH1 0x40 MLOAD PUSH0 PUSH1 0x40 MLOAD DUP1 DUP4 SUB DUP2 DUP6 DUP9 DUP9 CALL SWAP4 POP POP POP POP ISZERO DUP1 ISZERO PUSH2 0x5AE JUMPI RETURNDATASIZE PUSH0 DUP1 RETURNDATACOPY RETURNDATASIZE PUSH0 REVERT JUMPDEST POP DUP1 PUSH1 0x1 ADD PUSH0 SWAP1 SLOAD SWAP1 PUSH2 0x100 EXP SWAP1 DIV PUSH20 0xFFFFFFFFFFFFFFFFFFFFFFFFFFFFFFFFFFFFFFFF AND PUSH20 0xFFFFFFFFFFFFFFFFFFFFFFFFFFFFFFFFFFFFFFFF AND CALLER PUSH20 0xFFFFFFFFFFFFFFFFFFFFFFFFFFFFFFFFFFFFFFFF AND DUP4 PUSH32 0x3E2A5A5EE3A24B1B9D330B0BC0946A7D0EB9C99F453F93A45348A9A8E29A94FB DUP5 PUSH1 0x3 ADD SLOAD PUSH1 0x40 MLOAD PUSH2 0x634 SWAP2 SWAP1 PUSH2 0x658 JUMP JUMPDEST PUSH1 0x40 MLOAD DUP1 SWAP2 SUB SWAP1 LOG4 POP POP JUMP JUMPDEST PUSH0 DUP2 SWAP1 POP SWAP2 SWAP1 POP JUMP JUMPDEST PUSH2 0x652 DUP2 PUSH2 0x640 JUMP JUMPDEST DUP3 MSTORE POP POP JUMP JUMPDEST PUSH0 PUSH1 0x20 DUP3 ADD SWAP1 POP PUSH2 0x66B PUSH0 DUP4 ADD DUP5 PUSH2 0x649 JUMP JUMPDEST SWAP3 SWAP2 POP POP JUMP JUMPDEST PUSH0 PUSH1 0x40 MLOAD SWAP1 POP SWAP1 JUMP JUMPDEST PUSH0 DUP1 REVERT JUMPDEST PUSH0 DUP1 REVERT JUMPDEST PUSH0 DUP1 REVERT JUMPDEST PUSH0 DUP1 REVERT JUMPDEST PUSH0 PUSH1 0x1F NOT PUSH1 0x1F DUP4 ADD AND SWAP1 POP SWAP2 SWAP1 POP JUMP JUMPDEST PUSH32 0x4E487B7100000000000000000000000000000000000000000000000000000000 PUSH0 MSTORE PUSH1 0x41 PUSH1 0x4 MSTORE PUSH1 0x24 PUSH0 REVERT JUMPDEST PUSH2 0x6D0 DUP3 PUSH2 0x68A JUMP JUMPDEST DUP2 ADD DUP2 DUP2 LT PUSH8 0xFFFFFFFFFFFFFFFF DUP3 GT OR ISZERO PUSH2 0x6EF JUMPI PUSH2 0x6EE PUSH2 0x69A JUMP JUMPDEST JUMPDEST DUP1 PUSH1 0x40 MSTORE POP POP POP JUMP JUMPDEST PUSH0 PUSH2 0x701 PUSH2 0x671 JUMP JUMPDEST SWAP1 POP PUSH2 0x70D DUP3 DUP3 PUSH2 0x6C7 JUMP JUMPDEST SWAP2 SWAP1 POP JUMP JUMPDEST PUSH0 PUSH8 0xFFFFFFFFFFFFFFFF DUP3 GT ISZERO PUSH2 0x72C JUMPI PUSH2 0x72B PUSH2 0x69A JUMP JUMPDEST JUMPDEST PUSH2 0x735 DUP3 PUSH2 0x68A JUMP JUMPDEST SWAP1 POP PUSH1 0x20 DUP2 ADD SWAP1 POP SWAP2 SWAP1 POP JUMP JUMPDEST DUP3 DUP2 DUP4 CALLDATACOPY PUSH0 DUP4 DUP4 ADD MSTORE POP POP POP JUMP JUMPDEST PUSH0 PUSH2 0x762 PUSH2 0x75D DUP5 PUSH2 0x712 JUMP JUMPDEST PUSH2 0x6F8 JUMP JUMPDEST SWAP1 POP DUP3 DUP2 MSTORE PUSH1 0x20 DUP2 ADD DUP5 DUP5 DUP5 ADD GT ISZERO PUSH2 0x77E JUMPI PUSH2 0x77D PUSH2 0x686 JUMP JUMPDEST JUMPDEST PUSH2 0x789 DUP5 DUP3 DUP6 PUSH2 0x742 JUMP JUMPDEST POP SWAP4 SWAP3 POP POP POP JUMP JUMPDEST PUSH0 DUP3 PUSH1 0x1F DUP4 ADD SLT PUSH2 0x7A5 JUMPI PUSH2 0x7A4 PUSH2 0x682 JUMP JUMPDEST JUMPDEST DUP2 CALLDATALOAD PUSH2 0x7B5 DUP5 DUP3 PUSH1 0x20 DUP7 ADD PUSH2 0x750 JUMP JUMPDEST SWAP2 POP POP SWAP3 SWAP2 POP POP JUMP JUMPDEST PUSH2 0x7C7 DUP2 PUSH2 0x640 JUMP JUMPDEST DUP2 EQ PUSH2 0x7D1 JUMPI PUSH0 DUP1 REVERT JUMPDEST POP JUMP JUMPDEST PUSH0 DUP2 CALLDATALOAD SWAP1 POP PUSH2 0x7E2 DUP2 PUSH2 0x7BE JUMP JUMPDEST SWAP3 SWAP2 POP POP JUMP JUMPDEST PUSH0 DUP1 PUSH1 0x40 DUP4 DUP6 SUB SLT ISZERO PUSH2 0x7FE JUMPI PUSH2 0x7FD PUSH2 0x67A JUMP JUMPDEST JUMPDEST PUSH0 DUP4 ADD CALLDATALOAD PUSH8 0xFFFFFFFFFFFFFFFF DUP2 GT ISZERO PUSH2 0x81B JUMPI PUSH2 0x81A PUSH2 0x67E JUMP JUMPDEST JUMPDEST PUSH2 0x827 DUP6 DUP3 DUP7 ADD PUSH2 0x791 JUMP JUMPDEST SWAP3 POP POP PUSH1 0x20 PUSH2 0x838 DUP6 DUP3 DUP7 ADD PUSH2 0x7D4 JUMP JUMPDEST SWAP2 POP POP SWAP3 POP SWAP3 SWAP1 POP JUMP JUMPDEST PUSH0 PUSH1 0x20 DUP3 DUP5 SUB SLT ISZERO PUSH2 0x857 JUMPI PUSH2 0x856 PUSH2 0x67A JUMP JUMPDEST JUMPDEST PUSH0 PUSH2 0x864 DUP5 DUP3 DUP6 ADD PUSH2 0x7D4 JUMP JUMPDEST SWAP2 POP POP SWAP3 SWAP2 POP POP JUMP JUMPDEST PUSH0 PUSH20 0xFFFFFFFFFFFFFFFFFFFFFFFFFFFFFFFFFFFFFFFF DUP3 AND SWAP1 POP SWAP2 SWAP1 POP JUMP JUMPDEST PUSH0 PUSH2 0x896 DUP3 PUSH2 0x86D JUMP JUMPDEST SWAP1 POP SWAP2 SWAP1 POP JUMP JUMPDEST PUSH2 0x8A6 DUP2 PUSH2 0x88C JUMP JUMPDEST DUP3 MSTORE POP POP JUMP JUMPDEST PUSH0 DUP2 MLOAD SWAP1 POP SWAP2 SWAP1 POP JUMP JUMPDEST PUSH0 DUP3 DUP3 MSTORE PUSH1 0x20 DUP3 ADD SWAP1 POP SWAP3 SWAP2 POP POP JUMP JUMPDEST PUSH0 JUMPDEST DUP4 DUP2 LT ISZERO PUSH2 0x8E3 JUMPI DUP1 DUP3 ADD MLOAD DUP2 DUP5 ADD MSTORE PUSH1 0x20 DUP2 ADD SWAP1 POP PUSH2 0x8C8 JUMP JUMPDEST PUSH0 DUP5 DUP5 ADD MSTORE POP POP POP POP JUMP JUMPDEST PUSH0 PUSH2 0x8F8 DUP3 PUSH2 0x8AC JUMP JUMPDEST PUSH2 0x902 DUP2 DUP6 PUSH2 0x8B6 JUMP JUMPDEST SWAP4 POP PUSH2 0x912 DUP2 DUP6 PUSH1 0x20 DUP7 ADD PUSH2 0x8C6 JUMP JUMPDEST PUSH2 0x91B DUP2 PUSH2 0x68A JUMP JUMPDEST DUP5 ADD SWAP2 POP POP SWAP3 SWAP2 POP POP JUMP JUMPDEST PUSH0 DUP2 ISZERO ISZERO SWAP1 POP SWAP2 SWAP1 POP JUMP JUMPDEST PUSH2 0x93A DUP2 PUSH2 0x926 JUMP JUMPDEST DUP3 MSTORE POP POP JUMP JUMPDEST PUSH0 PUSH1 0xA0 DUP3 ADD SWAP1 POP PUSH2 0x953 PUSH0 DUP4 ADD DUP9 PUSH2 0x649 JUMP JUMPDEST PUSH2 0x960 PUSH1 0x20 DUP4 ADD DUP8 PUSH2 0x89D JUMP JUMPDEST DUP2 DUP2 SUB PUSH1 0x40 DUP4 ADD MSTORE PUSH2 0x972 DUP2 DUP7 PUSH2 0x8EE JUMP JUMPDEST SWAP1 POP PUSH2 0x981 PUSH1 0x60 DUP4 ADD DUP6 PUSH2 0x649 JUMP JUMPDEST PUSH2 0x98E PUSH1 0x80 DUP4 ADD DUP5 PUSH2 0x931 JUMP JUMPDEST SWAP7 SWAP6 POP POP POP POP POP POP JUMP JUMPDEST PUSH32 0x4974656D206E616D652069732072657175697265640000000000000000000000 PUSH0 DUP3 ADD MSTORE POP JUMP JUMPDEST PUSH0 PUSH2 0x9CC PUSH1 0x15 DUP4 PUSH2 0x8B6 JUMP JUMPDEST SWAP2 POP PUSH2 0x9D7 DUP3 PUSH2 0x998 JUMP JUMPDEST PUSH1 0x20 DUP3 ADD SWAP1 POP SWAP2 SWAP1 POP JUMP JUMPDEST PUSH0 PUSH1 0x20 DUP3 ADD SWAP1 POP DUP2 DUP2 SUB PUSH0 DUP4 ADD MSTORE PUSH2 0x9F9 DUP2 PUSH2 0x9C0 JUMP JUMPDEST SWAP1 POP SWAP2 SWAP1 POP JUMP JUMPDEST PUSH32 0x50726963652073686F756C642062652067726561746572207468616E20300000 PUSH0 DUP3 ADD MSTORE POP JUMP JUMPDEST PUSH0 PUSH2 0xA34 PUSH1 0x1E DUP4 PUSH2 0x8B6 JUMP JUMPDEST SWAP2 POP PUSH2 0xA3F DUP3 PUSH2 0xA00 JUMP JUMPDEST PUSH1 0x20 DUP3 ADD SWAP1 POP SWAP2 SWAP1 POP JUMP JUMPDEST PUSH0 PUSH1 0x20 DUP3 ADD SWAP1 POP DUP2 DUP2 SUB PUSH0 DUP4 ADD MSTORE PUSH2 0xA61 DUP2 PUSH2 0xA28 JUMP JUMPDEST SWAP1 POP SWAP2 SWAP1 POP JUMP JUMPDEST PUSH32 0x4E487B7100000000000000000000000000000000000000000000000000000000 PUSH0 MSTORE PUSH1 0x11 PUSH1 0x4 MSTORE PUSH1 0x24 PUSH0 REVERT JUMPDEST PUSH0 PUSH2 0xA9F DUP3 PUSH2 0x640 JUMP JUMPDEST SWAP2 POP PUSH32 0xFFFFFFFFFFFFFFFFFFFFFFFFFFFFFFFFFFFFFFFFFFFFFFFFFFFFFFFFFFFFFFFF DUP3 SUB PUSH2 0xAD1 JUMPI PUSH2 0xAD0 PUSH2 0xA68 JUMP JUMPDEST JUMPDEST PUSH1 0x1 DUP3 ADD SWAP1 POP SWAP2 SWAP1 POP JUMP JUMPDEST PUSH32 0x4E487B7100000000000000000000000000000000000000000000000000000000 PUSH0 MSTORE PUSH1 0x22 PUSH1 0x4 MSTORE PUSH1 0x24 PUSH0 REVERT JUMPDEST PUSH0 PUSH1 0x2 DUP3 DIV SWAP1 POP PUSH1 0x1 DUP3 AND DUP1 PUSH2 0xB20 JUMPI PUSH1 0x7F DUP3 AND SWAP2 POP JUMPDEST PUSH1 0x20 DUP3 LT DUP2 SUB PUSH2 0xB33 JUMPI PUSH2 0xB32 PUSH2 0xADC JUMP JUMPDEST JUMPDEST POP SWAP2 SWAP1 POP JUMP JUMPDEST PUSH0 DUP2 SWAP1 POP DUP2 PUSH0 MSTORE PUSH1 0x20 PUSH0 KECCAK256 SWAP1 POP SWAP2 SWAP1 POP JUMP JUMPDEST PUSH0 PUSH1 0x20 PUSH1 0x1F DUP4 ADD DIV SWAP1 POP SWAP2 SWAP1 POP JUMP JUMPDEST PUSH0 DUP3 DUP3 SHL SWAP1 POP SWAP3 SWAP2 POP POP JUMP JUMPDEST PUSH0 PUSH1 0x8 DUP4 MUL PUSH2 0xB95 PUSH32 0xFFFFFFFFFFFFFFFFFFFFFFFFFFFFFFFFFFFFFFFFFFFFFFFFFFFFFFFFFFFFFFFF DUP3 PUSH2 0xB5A JUMP JUMPDEST PUSH2 0xB9F DUP7 DUP4 PUSH2 0xB5A JUMP JUMPDEST SWAP6 POP DUP1 NOT DUP5 AND SWAP4 POP DUP1 DUP7 AND DUP5 OR SWAP3 POP POP POP SWAP4 SWAP3 POP POP POP JUMP JUMPDEST PUSH0 DUP2 SWAP1 POP SWAP2 SWAP1 POP JUMP JUMPDEST PUSH0 PUSH2 0xBDA PUSH2 0xBD5 PUSH2 0xBD0 DUP5 PUSH2 0x640 JUMP JUMPDEST PUSH2 0xBB7 JUMP JUMPDEST PUSH2 0x640 JUMP JUMPDEST SWAP1 POP SWAP2 SWAP1 POP JUMP JUMPDEST PUSH0 DUP2 SWAP1 POP SWAP2 SWAP1 POP JUMP JUMPDEST PUSH2 0xBF3 DUP4 PUSH2 0xBC0 JUMP JUMPDEST PUSH2 0xC07 PUSH2 0xBFF DUP3 PUSH2 0xBE1 JUMP JUMPDEST DUP5 DUP5 SLOAD PUSH2 0xB66 JUMP JUMPDEST DUP3 SSTORE POP POP POP POP JUMP JUMPDEST PUSH0 SWAP1 JUMP JUMPDEST PUSH2 0xC1B PUSH2 0xC0F JUMP JUMPDEST PUSH2 0xC26 DUP2 DUP5 DUP5 PUSH2 0xBEA JUMP JUMPDEST POP POP POP JUMP JUMPDEST JUMPDEST DUP2 DUP2 LT ISZERO PUSH2 0xC49 JUMPI PUSH2 0xC3E PUSH0 DUP3 PUSH2 0xC13 JUMP JUMPDEST PUSH1 0x1 DUP2 ADD SWAP1 POP PUSH2 0xC2C JUMP JUMPDEST POP POP JUMP JUMPDEST PUSH1 0x1F DUP3 GT ISZERO PUSH2 0xC8E JUMPI PUSH2 0xC5F DUP2 PUSH2 0xB39 JUMP JUMPDEST PUSH2 0xC68 DUP5 PUSH2 0xB4B JUMP JUMPDEST DUP2 ADD PUSH1 0x20 DUP6 LT ISZERO PUSH2 0xC77 JUMPI DUP2 SWAP1 POP JUMPDEST PUSH2 0xC8B PUSH2 0xC83 DUP6 PUSH2 0xB4B JUMP JUMPDEST DUP4 ADD DUP3 PUSH2 0xC2B JUMP JUMPDEST POP POP JUMPDEST POP POP POP JUMP JUMPDEST PUSH0 DUP3 DUP3 SHR SWAP1 POP SWAP3 SWAP2 POP POP JUMP JUMPDEST PUSH0 PUSH2 0xCAE PUSH0 NOT DUP5 PUSH1 0x8 MUL PUSH2 0xC93 JUMP JUMPDEST NOT DUP1 DUP4 AND SWAP2 POP POP SWAP3 SWAP2 POP POP JUMP JUMPDEST PUSH0 PUSH2 0xCC6 DUP4 DUP4 PUSH2 0xC9F JUMP JUMPDEST SWAP2 POP DUP3 PUSH1 0x2 MUL DUP3 OR SWAP1 POP SWAP3 SWAP2 POP POP JUMP JUMPDEST PUSH2 0xCDF DUP3 PUSH2 0x8AC JUMP JUMPDEST PUSH8 0xFFFFFFFFFFFFFFFF DUP2 GT ISZERO PUSH2 0xCF8 JUMPI PUSH2 0xCF7 PUSH2 0x69A JUMP JUMPDEST JUMPDEST PUSH2 0xD02 DUP3 SLOAD PUSH2 0xB09 JUMP JUMPDEST PUSH2 0xD0D DUP3 DUP3 DUP6 PUSH2 0xC4D JUMP JUMPDEST PUSH0 PUSH1 0x20 SWAP1 POP PUSH1 0x1F DUP4 GT PUSH1 0x1 DUP2 EQ PUSH2 0xD3E JUMPI PUSH0 DUP5 ISZERO PUSH2 0xD2C JUMPI DUP3 DUP8 ADD MLOAD SWAP1 POP JUMPDEST PUSH2 0xD36 DUP6 DUP3 PUSH2 0xCBB JUMP JUMPDEST DUP7 SSTORE POP PUSH2 0xD9D JUMP JUMPDEST PUSH1 0x1F NOT DUP5 AND PUSH2 0xD4C DUP7 PUSH2 0xB39 JUMP JUMPDEST PUSH0 JUMPDEST DUP3 DUP2 LT ISZERO PUSH2 0xD73 JUMPI DUP5 DUP10 ADD MLOAD DUP3 SSTORE PUSH1 0x1 DUP3 ADD SWAP2 POP PUSH1 0x20 DUP6 ADD SWAP5 POP PUSH1 0x20 DUP2 ADD SWAP1 POP PUSH2 0xD4E JUMP JUMPDEST DUP7 DUP4 LT ISZERO PUSH2 0xD90 JUMPI DUP5 DUP10 ADD MLOAD PUSH2 0xD8C PUSH1 0x1F DUP10 AND DUP3 PUSH2 0xC9F JUMP JUMPDEST DUP4 SSTORE POP JUMPDEST PUSH1 0x1 PUSH1 0x2 DUP9 MUL ADD DUP9 SSTORE POP POP POP JUMPDEST POP POP POP POP POP POP JUMP JUMPDEST PUSH0 PUSH1 0x40 DUP3 ADD SWAP1 POP DUP2 DUP2 SUB PUSH0 DUP4 ADD MSTORE PUSH2 0xDBD DUP2 DUP6 PUSH2 0x8EE JUMP JUMPDEST SWAP1 POP PUSH2 0xDCC PUSH1 0x20 DUP4 ADD DUP5 PUSH2 0x649 JUMP JUMPDEST SWAP4 SWAP3 POP POP POP JUMP JUMPDEST PUSH32 0x4974656D20646F6573206E6F7420657869737400000000000000000000000000 PUSH0 DUP3 ADD MSTORE POP JUMP JUMPDEST PUSH0 PUSH2 0xE07 PUSH1 0x13 DUP4 PUSH2 0x8B6 JUMP JUMPDEST SWAP2 POP PUSH2 0xE12 DUP3 PUSH2 0xDD3 JUMP JUMPDEST PUSH1 0x20 DUP3 ADD SWAP1 POP SWAP2 SWAP1 POP JUMP JUMPDEST PUSH0 PUSH1 0x20 DUP3 ADD SWAP1 POP DUP2 DUP2 SUB PUSH0 DUP4 ADD MSTORE PUSH2 0xE34 DUP2 PUSH2 0xDFB JUMP JUMPDEST SWAP1 POP SWAP2 SWAP1 POP JUMP JUMPDEST PUSH32 0x496E636F72726563742045746865722073656E74000000000000000000000000 PUSH0 DUP3 ADD MSTORE POP JUMP JUMPDEST PUSH0 PUSH2 0xE6F PUSH1 0x14 DUP4 PUSH2 0x8B6 JUMP JUMPDEST SWAP2 POP PUSH2 0xE7A DUP3 PUSH2 0xE3B JUMP JUMPDEST PUSH1 0x20 DUP3 ADD SWAP1 POP SWAP2 SWAP1 POP JUMP JUMPDEST PUSH0 PUSH1 0x20 DUP3 ADD SWAP1 POP DUP2 DUP2 SUB PUSH0 DUP4 ADD MSTORE PUSH2 0xE9C DUP2 PUSH2 0xE63 JUMP JUMPDEST SWAP1 POP SWAP2 SWAP1 POP JUMP JUMPDEST PUSH32 0x4974656D20616C726561647920736F6C64000000000000000000000000000000 PUSH0 DUP3 ADD MSTORE POP JUMP JUMPDEST PUSH0 PUSH2 0xED7 PUSH1 0x11 DUP4 PUSH2 0x8B6 JUMP JUMPDEST SWAP2 POP PUSH2 0xEE2 DUP3 PUSH2 0xEA3 JUMP JUMPDEST PUSH1 0x20 DUP3 ADD SWAP1 POP SWAP2 SWAP1 POP JUMP JUMPDEST PUSH0 PUSH1 0x20 DUP3 ADD SWAP1 POP DUP2 DUP2 SUB PUSH0 DUP4 ADD MSTORE PUSH2 0xF04 DUP2 PUSH2 0xECB JUMP JUMPDEST SWAP1 POP SWAP2 SWAP1 POP JUMP JUMPDEST PUSH32 0x53656C6C65722063616E6E6F7420627579207468656972206F776E206974656D PUSH0 DUP3 ADD MSTORE POP JUMP JUMPDEST PUSH0 PUSH2 0xF3F PUSH1 0x20 DUP4 PUSH2 0x8B6 JUMP JUMPDEST SWAP2 POP PUSH2 0xF4A DUP3 PUSH2 0xF0B JUMP JUMPDEST PUSH1 0x20 DUP3 ADD SWAP1 POP SWAP2 SWAP1 POP JUMP JUMPDEST PUSH0 PUSH1 0x20 DUP3 ADD SWAP1 POP DUP2 DUP2 SUB PUSH0 DUP4 ADD MSTORE PUSH2 0xF6C DUP2 PUSH2 0xF33 JUMP JUMPDEST SWAP1 POP SWAP2 SWAP1 POP JUMP INVALID LOG2 PUSH5 0x6970667358 0x22 SLT KECCAK256 0xEE XOR 0x23 DUP12 0xC5 BLOBBASEFEE CODESIZE 0xD7 EQ 0x4B KECCAK256 0xDD 0xBE NUMBER 0x4B 0x29 STOP 0x4C 0xC3 0xE9 0xB6 0xD0 0xFB 0xE4 0xE5 PUSH19 0x73CEF686574E64736F6C634300081800330000 "
		},
		"gasEstimates": {
			"creation": {
				"codeDepositCost": "801800",
				"executionCost": "5841",
				"totalCost": "807641"
			},
			"external": {
				"buyItem(uint256)": "infinite",
				"itemCount()": "2402",
				"items(uint256)": "infinite",
				"listItem(string,uint256)": "infinite"
			}
		},
		"methodIdentifiers": {
			"buyItem(uint256)": "e7fb74c7",
			"itemCount()": "6bfb0d01",
			"items(uint256)": "bfb231d2",
			"listItem(string,uint256)": "8511c937"
		}
	},
	"abi": [
		{
			"anonymous": false,
			"inputs": [
				{
					"indexed": true,
					"internalType": "uint256",
					"name": "itemId",
					"type": "uint256"
				},
				{
					"indexed": true,
					"internalType": "address",
					"name": "seller",
					"type": "address"
				},
				{
					"indexed": false,
					"internalType": "string",
					"name": "name",
					"type": "string"
				},
				{
					"indexed": false,
					"internalType": "uint256",
					"name": "price",
					"type": "uint256"
				}
			],
			"name": "ItemListed",
			"type": "event"
		},
		{
			"anonymous": false,
			"inputs": [
				{
					"indexed": true,
					"internalType": "uint256",
					"name": "itemId",
					"type": "uint256"
				},
				{
					"indexed": true,
					"internalType": "address",
					"name": "buyer",
					"type": "address"
				},
				{
					"indexed": true,
					"internalType": "address",
					"name": "seller",
					"type": "address"
				},
				{
					"indexed": false,
					"internalType": "uint256",
					"name": "price",
					"type": "uint256"
				}
			],
			"name": "ItemPurchased",
			"type": "event"
		},
		{
			"inputs": [
				{
					"internalType": "uint256",
					"name": "_itemId",
					"type": "uint256"
				}
			],
			"name": "buyItem",
			"outputs": [],
			"stateMutability": "payable",
			"type": "function"
		},
		{
			"inputs": [],
			"name": "itemCount",
			"outputs": [
				{
					"internalType": "uint256",
					"name": "",
					"type": "uint256"
				}
			],
			"stateMutability": "view",
			"type": "function"
		},
		{
			"inputs": [
				{
					"internalType": "uint256",
					"name": "",
					"type": "uint256"
				}
			],
			"name": "items",
			"outputs": [
				{
					"internalType": "uint256",
					"name": "id",
					"type": "uint256"
				},
				{
					"internalType": "address payable",
					"name": "seller",
					"type": "address"
				},
				{
					"internalType": "string",
					"name": "name",
					"type": "string"
				},
				{
					"internalType": "uint256",
					"name": "price",
					"type": "uint256"
				},
				{
					"internalType": "bool",
					"name": "isSold",
					"type": "bool"
				}
			],
			"stateMutability": "view",
			"type": "function"
		},
		{
			"inputs": [
				{
					"internalType": "string",
					"name": "_name",
					"type": "string"
				},
				{
					"internalType": "uint256",
					"name": "_price",
					"type": "uint256"
				}
			],
			"name": "listItem",
			"outputs": [],
			"stateMutability": "nonpayable",
			"type": "function"
		}
	]
}